{
  "contractName": "BaseAdminUpgradeabilityProxy",
  "abi": [
    {
      "anonymous": false,
      "inputs": [
        {
          "indexed": false,
          "internalType": "address",
          "name": "previousAdmin",
          "type": "address"
        },
        {
          "indexed": false,
          "internalType": "address",
          "name": "newAdmin",
          "type": "address"
        }
      ],
      "name": "AdminChanged",
      "type": "event"
    },
    {
      "anonymous": false,
      "inputs": [
        {
          "indexed": true,
          "internalType": "address",
          "name": "implementation",
          "type": "address"
        }
      ],
      "name": "Upgraded",
      "type": "event"
    },
    {
      "payable": true,
      "stateMutability": "payable",
      "type": "fallback"
    },
    {
      "constant": true,
      "inputs": [],
      "name": "admin",
      "outputs": [
        {
          "internalType": "address",
          "name": "",
          "type": "address"
        }
      ],
      "payable": false,
      "stateMutability": "view",
      "type": "function"
    },
    {
      "constant": true,
      "inputs": [],
      "name": "implementation",
      "outputs": [
        {
          "internalType": "address",
          "name": "",
          "type": "address"
        }
      ],
      "payable": false,
      "stateMutability": "view",
      "type": "function"
    },
    {
      "constant": false,
      "inputs": [
        {
          "internalType": "address",
          "name": "newAdmin",
          "type": "address"
        }
      ],
      "name": "changeAdmin",
      "outputs": [],
      "payable": false,
      "stateMutability": "nonpayable",
      "type": "function"
    },
    {
      "constant": false,
      "inputs": [
        {
          "internalType": "address",
          "name": "newImplementation",
          "type": "address"
        }
      ],
      "name": "upgradeTo",
      "outputs": [],
      "payable": false,
      "stateMutability": "nonpayable",
      "type": "function"
    },
    {
      "constant": false,
      "inputs": [
        {
          "internalType": "address",
          "name": "newImplementation",
          "type": "address"
        },
        {
          "internalType": "bytes",
          "name": "data",
          "type": "bytes"
        }
      ],
      "name": "upgradeToAndCall",
      "outputs": [],
      "payable": true,
      "stateMutability": "payable",
      "type": "function"
    }
  ],
  "bytecode": "0x608060405234801561001057600080fd5b5061052c806100206000396000f3fe60806040526004361061004a5760003560e01c80633659cfe6146100545780634f1ef286146100875780635c60da1b146101075780638f28397014610138578063f851a4401461016b575b610052610180565b005b34801561006057600080fd5b506100526004803603602081101561007757600080fd5b50356001600160a01b031661019a565b6100526004803603604081101561009d57600080fd5b6001600160a01b0382351691908101906040810160208201356401000000008111156100c857600080fd5b8201836020820111156100da57600080fd5b803590602001918460018302840111640100000000831117156100fc57600080fd5b5090925090506101cb565b34801561011357600080fd5b5061011c61026f565b604080516001600160a01b039092168252519081900360200190f35b34801561014457600080fd5b506100526004803603602081101561015b57600080fd5b50356001600160a01b031661027e565b34801561017757600080fd5b5061011c61033c565b610188610198565b610198610193610346565b61036b565b565b6101a261038f565b6001600160a01b0316336001600160a01b0316146101bf57600080fd5b6101c8816103b4565b50565b6101d361038f565b6001600160a01b0316336001600160a01b0316146101f057600080fd5b6101f9836103b4565b6000836001600160a01b031683836040518083838082843760405192019450600093509091505080830381855af49150503d8060008114610256576040519150601f19603f3d011682016040523d82523d6000602084013e61025b565b606091505b505090508061026957600080fd5b50505050565b6000610279610346565b905090565b61028661038f565b6001600160a01b0316336001600160a01b0316146102a357600080fd5b6001600160a01b0381166102e85760405162461bcd60e51b81526004018080602001828103825260368152602001806104876036913960400191505060405180910390fd5b7f7e644d79422f17c01e4894b5f4f588d331ebfa28653d42ae832dc59e38c9798f61031161038f565b604080516001600160a01b03928316815291841660208301528051918290030190a16101c8816103f4565b600061027961038f565b7f360894a13ba1a3210667c828492db98dca3e2076cc3735a920a3ca505d382bbc5490565b3660008037600080366000845af43d6000803e80801561038a573d6000f35b3d6000fd5b7fb53127684a568b3173ae13b9f8a6016e243e63b6e8ee1178d6a717850b5d61035490565b6103bd81610418565b6040516001600160a01b038216907fbc7cd75a20ee27fd9adebab32041f755214dbc6bffa90cc0225b39da2e5c2d3b90600090a250565b7fb53127684a568b3173ae13b9f8a6016e243e63b6e8ee1178d6a717850b5d610355565b61042181610480565b61045c5760405162461bcd60e51b815260040180806020018281038252603b8152602001806104bd603b913960400191505060405180910390fd5b7f360894a13ba1a3210667c828492db98dca3e2076cc3735a920a3ca505d382bbc55565b3b15159056fe43616e6e6f74206368616e6765207468652061646d696e206f6620612070726f787920746f20746865207a65726f206164647265737343616e6e6f742073657420612070726f787920696d706c656d656e746174696f6e20746f2061206e6f6e2d636f6e74726163742061646472657373a265627a7a723158206a8bf7bce3ff3cb9c0832a285075099a7abc5893616ef3216c25484b252d685964736f6c63430005100032",
  "source": "pragma solidity ^0.5.0;\n\nimport \"./UpgradeabilityAdmin.sol\";\nimport \"./UpgradeabilityProxy.sol\";\n\n\n/**\n * @title BaseAdminUpgradeabilityProxy\n * @dev This contract combines an upgradeability proxy with an authorization\n * mechanism for administrative tasks.\n */\ncontract BaseAdminUpgradeabilityProxy is UpgradeabilityAdmin, BaseUpgradeabilityProxy {\n    /**\n     * @dev Emitted when the administration has been transferred.\n     * @param previousAdmin Address of the previous admin.\n     * @param newAdmin Address of the new admin.\n     */\n    event AdminChanged(address previousAdmin, address newAdmin);\n\n    /**\n     * @dev Modifier to check whether the `msg.sender` is the admin.\n     */\n    modifier ifAdmin() {\n        require(msg.sender == _admin());\n        _;\n    }\n\n    /**\n     * @return The address of the proxy admin.\n     */\n    function admin()\n    external\n    view\n    returns (address) {\n        return _admin();\n    }\n\n    /**\n     * @return The address of the implementation.\n     */\n    function implementation()\n    external\n    view\n    returns (address) {\n        return _implementation();\n    }\n\n    /**\n     * @dev Changes the admin of the proxy.\n     * Only the current admin can call this function.\n     * @param newAdmin Address to transfer proxy administration to.\n     */\n    function changeAdmin(address newAdmin)\n    external\n    ifAdmin {\n        require(newAdmin != address(0), \"Cannot change the admin of a proxy to the zero address\");\n        emit AdminChanged(_admin(), newAdmin);\n        _setAdmin(newAdmin);\n    }\n\n    /**\n     * @dev Upgrade the backing implementation of the proxy.\n     * Only the admin can call this function.\n     * @param newImplementation Address of the new implementation.\n     */\n    function upgradeTo(address newImplementation)\n    external\n    ifAdmin {\n        _upgradeTo(newImplementation);\n    }\n\n    /**\n     * @dev Upgrade the backing implementation of the proxy and call a function\n     * on the new implementation.\n     * This is useful to initialize the proxied contract.\n     * @param newImplementation Address of the new implementation.\n     * @param data Data to send as msg.data in the low level call.\n     * It should include the signature and the parameters of the function to be called, as described in\n     * https://solidity.readthedocs.io/en/v0.4.24/abi-spec.html#function-selector-and-argument-encoding.\n     */\n    function upgradeToAndCall(address newImplementation, bytes calldata data)\n    payable\n    external\n    ifAdmin {\n        _upgradeTo(newImplementation);\n        (bool success,) = newImplementation.delegatecall(data);\n        require(success);\n    }\n\n    /**\n     * @dev Sets the address of the proxy admin.\n     * @param newAdmin Address of the new proxy admin.\n     */\n    function _setAdmin(address newAdmin)\n    internal {\n        bytes32 slot = ADMIN_SLOT;\n\n        assembly {\n            sstore(slot, newAdmin)\n        }\n    }\n}\n",
  "sourcePath": "/home/sn/dmd/dmd-meta/hbbft-posdao-contracts/contracts/upgradeability/BaseAdminUpgradeabilityProxy.sol",
  "compiler": {
    "name": "solc",
    "version": "0.5.16+commit.9c3226ce.Emscripten.clang"
  },
  "schemaVersion": "3.3.3",
  "updatedAt": "2020-12-28T14:12:59.165Z",
  "devdoc": {
    "details": "This contract combines an upgradeability proxy with an authorization mechanism for administrative tasks.",
    "methods": {
      "admin()": {
        "return": "The address of the proxy admin."
      },
      "changeAdmin(address)": {
        "details": "Changes the admin of the proxy. Only the current admin can call this function.",
        "params": {
          "newAdmin": "Address to transfer proxy administration to."
        }
      },
      "implementation()": {
        "return": "The address of the implementation."
      },
      "upgradeTo(address)": {
        "details": "Upgrade the backing implementation of the proxy. Only the admin can call this function.",
        "params": {
          "newImplementation": "Address of the new implementation."
        }
      },
      "upgradeToAndCall(address,bytes)": {
        "details": "Upgrade the backing implementation of the proxy and call a function on the new implementation. This is useful to initialize the proxied contract.",
        "params": {
          "data": "Data to send as msg.data in the low level call. It should include the signature and the parameters of the function to be called, as described in https://solidity.readthedocs.io/en/v0.4.24/abi-spec.html#function-selector-and-argument-encoding.",
          "newImplementation": "Address of the new implementation."
        }
      }
    },
    "title": "BaseAdminUpgradeabilityProxy"
  },
  "userdoc": {
    "methods": {}
  }
}