{
  "contractName": "BlockRewardHbbft",
  "abi": [
    {
      "anonymous": false,
      "inputs": [
        {
          "indexed": false,
          "internalType": "uint256",
          "name": "rewards",
          "type": "uint256"
        }
      ],
      "name": "CoinsRewarded",
      "type": "event"
    },
    {
      "payable": true,
      "stateMutability": "payable",
      "type": "fallback"
    },
    {
      "constant": true,
      "inputs": [],
      "name": "REWARD_PERCENT_MULTIPLIER",
      "outputs": [
        {
          "internalType": "uint256",
          "name": "",
          "type": "uint256"
        }
      ],
      "payable": false,
      "stateMutability": "view",
      "type": "function"
    },
    {
      "constant": true,
      "inputs": [],
      "name": "VALIDATOR_MIN_REWARD_PERCENT",
      "outputs": [
        {
          "internalType": "uint256",
          "name": "",
          "type": "uint256"
        }
      ],
      "payable": false,
      "stateMutability": "view",
      "type": "function"
    },
    {
      "constant": false,
      "inputs": [],
      "name": "addToDeltaPot",
      "outputs": [],
      "payable": true,
      "stateMutability": "payable",
      "type": "function"
    },
    {
      "constant": false,
      "inputs": [],
      "name": "addToReinsertPot",
      "outputs": [],
      "payable": true,
      "stateMutability": "payable",
      "type": "function"
    },
    {
      "constant": true,
      "inputs": [
        {
          "internalType": "uint256",
          "name": "_stakingEpoch",
          "type": "uint256"
        },
        {
          "internalType": "uint256",
          "name": "_delegatorStaked",
          "type": "uint256"
        },
        {
          "internalType": "uint256",
          "name": "_validatorStaked",
          "type": "uint256"
        },
        {
          "internalType": "uint256",
          "name": "_totalStaked",
          "type": "uint256"
        },
        {
          "internalType": "uint256",
          "name": "_poolReward",
          "type": "uint256"
        }
      ],
      "name": "delegatorShare",
      "outputs": [
        {
          "internalType": "uint256",
          "name": "",
          "type": "uint256"
        }
      ],
      "payable": false,
      "stateMutability": "view",
      "type": "function"
    },
    {
      "constant": true,
      "inputs": [],
      "name": "deltaPot",
      "outputs": [
        {
          "internalType": "uint256",
          "name": "",
          "type": "uint256"
        }
      ],
      "payable": false,
      "stateMutability": "view",
      "type": "function"
    },
    {
      "constant": true,
      "inputs": [],
      "name": "deltaPotPayoutFraction",
      "outputs": [
        {
          "internalType": "uint256",
          "name": "",
          "type": "uint256"
        }
      ],
      "payable": false,
      "stateMutability": "view",
      "type": "function"
    },
    {
      "constant": true,
      "inputs": [
        {
          "internalType": "uint256",
          "name": "",
          "type": "uint256"
        },
        {
          "internalType": "address",
          "name": "",
          "type": "address"
        }
      ],
      "name": "epochPoolNativeReward",
      "outputs": [
        {
          "internalType": "uint256",
          "name": "",
          "type": "uint256"
        }
      ],
      "payable": false,
      "stateMutability": "view",
      "type": "function"
    },
    {
      "constant": true,
      "inputs": [
        {
          "internalType": "address",
          "name": "_miningAddress",
          "type": "address"
        }
      ],
      "name": "epochsPoolGotRewardFor",
      "outputs": [
        {
          "internalType": "uint256[]",
          "name": "",
          "type": "uint256[]"
        }
      ],
      "payable": false,
      "stateMutability": "view",
      "type": "function"
    },
    {
      "constant": true,
      "inputs": [
        {
          "internalType": "address",
          "name": "_poolStakingAddress",
          "type": "address"
        },
        {
          "internalType": "address",
          "name": "_staker",
          "type": "address"
        }
      ],
      "name": "epochsToClaimRewardFrom",
      "outputs": [
        {
          "internalType": "uint256[]",
          "name": "epochsToClaimFrom",
          "type": "uint256[]"
        }
      ],
      "payable": false,
      "stateMutability": "view",
      "type": "function"
    },
    {
      "constant": true,
      "inputs": [
        {
          "internalType": "uint256",
          "name": "_delegatorStake",
          "type": "uint256"
        },
        {
          "internalType": "uint256",
          "name": "_stakingEpoch",
          "type": "uint256"
        },
        {
          "internalType": "address",
          "name": "_poolMiningAddress",
          "type": "address"
        }
      ],
      "name": "getDelegatorReward",
      "outputs": [
        {
          "internalType": "uint256",
          "name": "nativeReward",
          "type": "uint256"
        }
      ],
      "payable": false,
      "stateMutability": "view",
      "type": "function"
    },
    {
      "constant": true,
      "inputs": [
        {
          "internalType": "uint256",
          "name": "_stakingEpoch",
          "type": "uint256"
        },
        {
          "internalType": "address",
          "name": "_poolMiningAddress",
          "type": "address"
        }
      ],
      "name": "getValidatorReward",
      "outputs": [
        {
          "internalType": "uint256",
          "name": "nativeReward",
          "type": "uint256"
        }
      ],
      "payable": false,
      "stateMutability": "view",
      "type": "function"
    },
    {
      "constant": true,
      "inputs": [],
      "name": "governancePotAddress",
      "outputs": [
        {
          "internalType": "address payable",
          "name": "",
          "type": "address"
        }
      ],
      "payable": false,
      "stateMutability": "view",
      "type": "function"
    },
    {
      "constant": true,
      "inputs": [],
      "name": "governancePotShareDenominator",
      "outputs": [
        {
          "internalType": "uint256",
          "name": "",
          "type": "uint256"
        }
      ],
      "payable": false,
      "stateMutability": "view",
      "type": "function"
    },
    {
      "constant": true,
      "inputs": [],
      "name": "governancePotShareNominator",
      "outputs": [
        {
          "internalType": "uint256",
          "name": "",
          "type": "uint256"
        }
      ],
      "payable": false,
      "stateMutability": "view",
      "type": "function"
    },
    {
      "constant": false,
      "inputs": [
        {
          "internalType": "address",
          "name": "_validatorSet",
          "type": "address"
        }
      ],
      "name": "initialize",
      "outputs": [],
      "payable": false,
      "stateMutability": "nonpayable",
      "type": "function"
    },
    {
      "constant": true,
      "inputs": [],
      "name": "isInitialized",
      "outputs": [
        {
          "internalType": "bool",
          "name": "",
          "type": "bool"
        }
      ],
      "payable": false,
      "stateMutability": "view",
      "type": "function"
    },
    {
      "constant": true,
      "inputs": [],
      "name": "nativeRewardUndistributed",
      "outputs": [
        {
          "internalType": "uint256",
          "name": "",
          "type": "uint256"
        }
      ],
      "payable": false,
      "stateMutability": "view",
      "type": "function"
    },
    {
      "constant": true,
      "inputs": [],
      "name": "reinsertPot",
      "outputs": [
        {
          "internalType": "uint256",
          "name": "",
          "type": "uint256"
        }
      ],
      "payable": false,
      "stateMutability": "view",
      "type": "function"
    },
    {
      "constant": true,
      "inputs": [],
      "name": "reinsertPotPayoutFraction",
      "outputs": [
        {
          "internalType": "uint256",
          "name": "",
          "type": "uint256"
        }
      ],
      "payable": false,
      "stateMutability": "view",
      "type": "function"
    },
    {
      "constant": false,
      "inputs": [
        {
          "internalType": "bool",
          "name": "_isEpochEndBlock",
          "type": "bool"
        }
      ],
      "name": "reward",
      "outputs": [
        {
          "internalType": "uint256",
          "name": "rewardsNative",
          "type": "uint256"
        }
      ],
      "payable": false,
      "stateMutability": "nonpayable",
      "type": "function"
    },
    {
      "constant": false,
      "inputs": [
        {
          "internalType": "uint256",
          "name": "_value",
          "type": "uint256"
        }
      ],
      "name": "setReinsertPotPayoutFraction",
      "outputs": [],
      "payable": false,
      "stateMutability": "nonpayable",
      "type": "function"
    },
    {
      "constant": false,
      "inputs": [
        {
          "internalType": "uint256",
          "name": "_value",
          "type": "uint256"
        }
      ],
      "name": "setdeltaPotPayoutFraction",
      "outputs": [],
      "payable": false,
      "stateMutability": "nonpayable",
      "type": "function"
    },
    {
      "constant": true,
      "inputs": [
        {
          "internalType": "uint256",
          "name": "",
          "type": "uint256"
        },
        {
          "internalType": "address",
          "name": "",
          "type": "address"
        }
      ],
      "name": "snapshotPoolTotalStakeAmount",
      "outputs": [
        {
          "internalType": "uint256",
          "name": "",
          "type": "uint256"
        }
      ],
      "payable": false,
      "stateMutability": "view",
      "type": "function"
    },
    {
      "constant": true,
      "inputs": [
        {
          "internalType": "uint256",
          "name": "",
          "type": "uint256"
        },
        {
          "internalType": "address",
          "name": "",
          "type": "address"
        }
      ],
      "name": "snapshotPoolValidatorStakeAmount",
      "outputs": [
        {
          "internalType": "uint256",
          "name": "",
          "type": "uint256"
        }
      ],
      "payable": false,
      "stateMutability": "view",
      "type": "function"
    },
    {
      "constant": false,
      "inputs": [
        {
          "internalType": "uint256",
          "name": "_nativeCoins",
          "type": "uint256"
        },
        {
          "internalType": "address payable",
          "name": "_to",
          "type": "address"
        }
      ],
      "name": "transferReward",
      "outputs": [],
      "payable": false,
      "stateMutability": "nonpayable",
      "type": "function"
    },
    {
      "constant": true,
      "inputs": [
        {
          "internalType": "uint256",
          "name": "",
          "type": "uint256"
        }
      ],
      "name": "validatorMinRewardPercent",
      "outputs": [
        {
          "internalType": "uint256",
          "name": "",
          "type": "uint256"
        }
      ],
      "payable": false,
      "stateMutability": "view",
      "type": "function"
    },
    {
      "constant": true,
      "inputs": [
        {
          "internalType": "address",
          "name": "_stakingAddress",
          "type": "address"
        }
      ],
      "name": "validatorRewardPercent",
      "outputs": [
        {
          "internalType": "uint256",
          "name": "",
          "type": "uint256"
        }
      ],
      "payable": false,
      "stateMutability": "view",
      "type": "function"
    },
    {
      "constant": true,
      "inputs": [],
      "name": "validatorSetContract",
      "outputs": [
        {
          "internalType": "contract IValidatorSetHbbft",
          "name": "",
          "type": "address"
        }
      ],
      "payable": false,
      "stateMutability": "view",
      "type": "function"
    },
    {
      "constant": true,
      "inputs": [
        {
          "internalType": "uint256",
          "name": "_stakingEpoch",
          "type": "uint256"
        },
        {
          "internalType": "uint256",
          "name": "_validatorStaked",
          "type": "uint256"
        },
        {
          "internalType": "uint256",
          "name": "_totalStaked",
          "type": "uint256"
        },
        {
          "internalType": "uint256",
          "name": "_poolReward",
          "type": "uint256"
        }
      ],
      "name": "validatorShare",
      "outputs": [
        {
          "internalType": "uint256",
          "name": "",
          "type": "uint256"
        }
      ],
      "payable": false,
      "stateMutability": "view",
      "type": "function"
    }
  ],
  "bytecode": "0x6080604052603c60075534801561001557600080fd5b506125b1806100256000396000f3fe6080604052600436106101cc5760003560e01c80638737929a116100f7578063c4d66de811610095578063dd03f5b911610064578063dd03f5b914610632578063dfc8bf4e14610665578063e1ab96d81461067a578063e58edc38146106b9576101cc565b8063c4d66de814610581578063c6cc9333146105b4578063cb68d127146105de578063cdf7a09014610608576101cc565b8063adc481a7116100d1578063adc481a714610523578063af18253514610538578063b10c754814610540578063ba2d759714610548576101cc565b80638737929a146104bd57806391b57986146104f95780639a64ca2c1461050e576101cc565b80633c2c943c1161016f5780635c57a8011161013e5780635c57a801146104185780635fba554e1461042d578063728345db1461046f57806373f12958146104a8576101cc565b80633c2c943c1461030a578063469507c61461031f5780634de6c0361461035a578063527d8bc4146103e5576101cc565b80631345b8a5116101ab5780631345b8a51461023e57806319cee8971461027757806333d69921146102a8578063392e53cd146102e1576101cc565b8062067a84146101d65780630c0d4173146102145780631274fa0914610229575b6008805434019055005b3480156101e257600080fd5b50610202600480360360208110156101f957600080fd5b503515156106ce565b60408051918252519081900360200190f35b34801561022057600080fd5b50610202610e7a565b34801561023557600080fd5b50610202610e7f565b34801561024a57600080fd5b506102026004803603604081101561026157600080fd5b50803590602001356001600160a01b0316610e85565b34801561028357600080fd5b5061028c610ea2565b604080516001600160a01b039092168252519081900360200190f35b3480156102b457600080fd5b50610202600480360360408110156102cb57600080fd5b50803590602001356001600160a01b0316610eb1565b3480156102ed57600080fd5b506102f6610ece565b604080519115158252519081900360200190f35b34801561031657600080fd5b50610202610edf565b34801561032b57600080fd5b506103586004803603604081101561034257600080fd5b50803590602001356001600160a01b0316610ee5565b005b34801561036657600080fd5b506103956004803603604081101561037d57600080fd5b506001600160a01b0381358116916020013516610f81565b60408051602080825283518183015283519192839290830191858101910280838360005b838110156103d15781810151838201526020016103b9565b505050509050019250505060405180910390f35b3480156103f157600080fd5b506102026004803603602081101561040857600080fd5b50356001600160a01b03166113a1565b34801561042457600080fd5b506102026116f9565b34801561043957600080fd5b50610202600480360360a081101561045057600080fd5b50803590602081013590604081013590606081013590608001356116ff565b34801561047b57600080fd5b506102026004803603604081101561049257600080fd5b50803590602001356001600160a01b0316611791565b3480156104b457600080fd5b506102026117ae565b3480156104c957600080fd5b50610202600480360360808110156104e057600080fd5b50803590602081013590604081013590606001356117b4565b34801561050557600080fd5b50610202611830565b34801561051a57600080fd5b50610202611836565b34801561052f57600080fd5b5061020261183c565b610358611842565b61035861184c565b34801561055457600080fd5b506102026004803603604081101561056b57600080fd5b50803590602001356001600160a01b0316611856565b34801561058d57600080fd5b50610358600480360360208110156105a457600080fd5b50356001600160a01b03166118b2565b3480156105c057600080fd5b50610358600480360360208110156105d757600080fd5b5035611a6d565b3480156105ea57600080fd5b506103586004803603602081101561060157600080fd5b5035611b1b565b34801561061457600080fd5b506102026004803603602081101561062b57600080fd5b5035611bc9565b34801561063e57600080fd5b506103956004803603602081101561065557600080fd5b50356001600160a01b0316611bdb565b34801561067157600080fd5b5061028c611c45565b34801561068657600080fd5b506102026004803603606081101561069d57600080fd5b50803590602081013590604001356001600160a01b0316611c54565b3480156106c557600080fd5b50610202611cbc565b60006002600160a01b0333146106e357600080fd5b600a5460408051633ba6481760e21b815290516000926001600160a01b03169163ee99205c916004808301926020929190829003018186803b15801561072857600080fd5b505afa15801561073c573d6000803e3d6000fd5b505050506040513d602081101561075257600080fd5b505190508215610b20576000816001600160a01b031663794c0c686040518163ffffffff1660e01b815260040160206040518083038186803b15801561079757600080fd5b505afa1580156107ab573d6000803e3d6000fd5b505050506040513d60208110156107c157600080fd5b50519050600081156107d9576107d682611cc3565b90505b6000808360010190506060600a60009054906101000a90046001600160a01b03166001600160a01b031663eebc7a396040518163ffffffff1660e01b815260040160006040518083038186803b15801561083257600080fd5b505afa158015610846573d6000803e3d6000fd5b505050506040513d6000823e601f3d908101601f19168201604052602081101561086f57600080fd5b8101908080516040519392919084600160201b82111561088e57600080fd5b9083019060208201858111156108a357600080fd5b82518660208202830111600160201b821117156108bf57600080fd5b82525081516020918201928201910280838360005b838110156108ec5781810151838201526020016108d4565b505050509050016040525050509050600092505b805183101561093257610927868383868151811061091a57fe5b60200260200101516121d0565b600190920191610900565b600a60009054906101000a90046001600160a01b03166001600160a01b031663b7ab4db56040518163ffffffff1660e01b815260040160006040518083038186803b15801561098057600080fd5b505afa158015610994573d6000803e3d6000fd5b505050506040513d6000823e601f3d908101601f1916820160405260208110156109bd57600080fd5b8101908080516040519392919084600160201b8211156109dc57600080fd5b9083019060208201858111156109f157600080fd5b82518660208202830111600160201b82111715610a0d57600080fd5b82525081516020918201928201910280838360005b83811015610a3a578181015183820152602001610a22565b505050509050016040525050509050600092505b8051831015610a7357610a68868383868151811061091a57fe5b600190920191610a4e565b600082815260056020526040808220601e9055600a548151637528621160e01b815291516001600160a01b03909116926375286211926004808201939182900301818387803b158015610ac557600080fd5b505af1158015610ad9573d6000803e3d6000fd5b50506040805187815290517ff32b9551d3414b67f8e66e20ac15e62694b9d1230abb2e2e48f9dc2e1964c4299350908190036020019150a160009650505050505050610e75565b6000816001600160a01b031663c6912cc06040518163ffffffff1660e01b815260040160206040518083038186803b158015610b5b57600080fd5b505afa158015610b6f573d6000803e3d6000fd5b505050506040513d6020811015610b8557600080fd5b5051600a5460408051636c9230db60e01b815290519293506000926001600160a01b0390921691636c9230db91600480820192602092909190829003018186803b158015610bd257600080fd5b505afa158015610be6573d6000803e3d6000fd5b505050506040513d6020811015610bfc57600080fd5b505190506000828210801590610d275750600a60009054906101000a90046001600160a01b03166001600160a01b031663eebc7a396040518163ffffffff1660e01b815260040160006040518083038186803b158015610c5b57600080fd5b505afa158015610c6f573d6000803e3d6000fd5b505050506040513d6000823e601f3d908101601f191682016040526020811015610c9857600080fd5b8101908080516040519392919084600160201b821115610cb757600080fd5b908301906020820185811115610ccc57600080fd5b82518660208202830111600160201b82111715610ce857600080fd5b82525081516020918201928201910280838360005b83811015610d15578181015183820152602001610cfd565b50505050905001604052505050516000145b90508015610d9c57600a60009054906101000a90046001600160a01b03166001600160a01b0316635ccee1de6040518163ffffffff1660e01b8152600401600060405180830381600087803b158015610d7f57600080fd5b505af1158015610d93573d6000803e3d6000fd5b50505050610e70565b836001600160a01b03166322e3d9866040518163ffffffff1660e01b815260040160206040518083038186803b158015610dd557600080fd5b505afa158015610de9573d6000803e3d6000fd5b505050506040513d6020811015610dff57600080fd5b50518210610e7057600a60009054906101000a90046001600160a01b03166001600160a01b031663ade1900a6040518163ffffffff1660e01b8152600401600060405180830381600087803b158015610e5757600080fd5b505af1158015610e6b573d6000803e3d6000fd5b505050505b505050505b919050565b601e81565b60095481565b600460209081526000928352604080842090915290825290205481565b600b546001600160a01b031681565b600160209081526000928352604080842090915290825290205481565b600a546001600160a01b0316151590565b600d5481565b600a60009054906101000a90046001600160a01b03166001600160a01b031663ee99205c6040518163ffffffff1660e01b815260040160206040518083038186803b158015610f3357600080fd5b505afa158015610f47573d6000803e3d6000fd5b505050506040513d6020811015610f5d57600080fd5b50516001600160a01b03163314610f7357600080fd5b610f7d82826123c7565b5050565b600a54604080516253517560e01b81526001600160a01b0385811660048301529151606093600093169162535175916024808301926020929190829003018186803b158015610fcf57600080fd5b505afa158015610fe3573d6000803e3d6000fd5b505050506040513d6020811015610ff957600080fd5b5051600a5460408051633ba6481760e21b815290519293506000926001600160a01b039092169163ee99205c91600480820192602092909190829003018186803b15801561104657600080fd5b505afa15801561105a573d6000803e3d6000fd5b505050506040513d602081101561107057600080fd5b505190506001600160a01b038581169085161480159060009081906111b15760408051632b2cdba160e11b81526001600160a01b038a811660048301528981166024830152915191861691635659b74291604480820192602092909190829003018186803b1580156110e157600080fd5b505afa1580156110f5573d6000803e3d6000fd5b505050506040513d602081101561110b57600080fd5b5051915081611130575050604080516000815260208101909152935061139b92505050565b6040805163bc9eb2c360e01b81526001600160a01b038a81166004830152898116602483015291519186169163bc9eb2c391604480820192602092909190829003018186803b15801561118257600080fd5b505afa158015611196573d6000803e3d6000fd5b505050506040513d60208110156111ac57600080fd5b505190505b6001600160a01b0385166000908152602081815260409182902080548351818152818402810190930190935291906060908280156111f9578160200160208202803883390190505b5090506000805b8381101561132357600085828154811061121657fe5b9060005260206000200154905088156112515787811015611237575061131b565b80871115801561124657508615155b156112515750611323565b896001600160a01b031663317277308f8f846040518463ffffffff1660e01b815260040180846001600160a01b03166001600160a01b03168152602001836001600160a01b03166001600160a01b03168152602001828152602001935050505060206040518083038186803b1580156112c957600080fd5b505afa1580156112dd573d6000803e3d6000fd5b505050506040513d60208110156112f357600080fd5b5051611319578084848060010195508151811061130c57fe5b6020026020010181815250505b505b600101611200565b8160405190808252806020026020018201604052801561134d578160200160208202803883390190505b509a50600090505b818110156113905782818151811061136957fe5b60200260200101518b828151811061137d57fe5b6020908102919091010152600101611355565b505050505050505050505b92915050565b600080600a60009054906101000a90046001600160a01b03166001600160a01b031663ee99205c6040518163ffffffff1660e01b815260040160206040518083038186803b1580156113f257600080fd5b505afa158015611406573d6000803e3d6000fd5b505050506040513d602081101561141c57600080fd5b505160408051630f29818d60e31b815290519192506000916001600160a01b0384169163794c0c68916004808301926020929190829003018186803b15801561146457600080fd5b505afa158015611478573d6000803e3d6000fd5b505050506040513d602081101561148e57600080fd5b50519050806114a257600092505050610e75565b600a54604080516253517560e01b81526001600160a01b038781166004830152915160009392909216916253517591602480820192602092909190829003018186803b1580156114f157600080fd5b505afa158015611505573d6000803e3d6000fd5b505050506040513d602081101561151b57600080fd5b5051600a546040805163a0d16cad60e01b81526001600160a01b038085166004830152915193945091169163a0d16cad91602480820192602092909190829003018186803b15801561156c57600080fd5b505afa158015611580573d6000803e3d6000fd5b505050506040513d602081101561159657600080fd5b5051156115ee5760008281526004602090815260408083206001600160a01b03851680855290835281842054868552600384528285209185529252909120546115e4918491620f42406117b4565b9350505050610e75565b6040805163a697ecff60e01b81526001600160a01b0387811660048301819052602483015291516116f09285929087169163a697ecff91604480820192602092909190829003018186803b15801561164557600080fd5b505afa158015611659573d6000803e3d6000fd5b505050506040513d602081101561166f57600080fd5b505160408051632933f0eb60e11b81526001600160a01b038a81166004830152915191881691635267e1d691602480820192602092909190829003018186803b1580156116bb57600080fd5b505afa1580156116cf573d6000803e3d6000fd5b505050506040513d60208110156116e557600080fd5b5051620f42406117b4565b95945050505050565b60065481565b600084158061170c575083155b80611715575082155b15611722575060006116f0565b60008085851015611734576000611738565b8585035b60008981526005602052604090205490915080820260648290038802111561176d57858886028161176557fe5b049250611784565b8160640281606403898702028161178057fe5b0492505b5090979650505050505050565b600360209081526000928352604080842090915290825290205481565b60085481565b60008315806117c1575082155b156117ce57506000611828565b600080858510156117e05760006117e4565b8585035b60008881526005602052604090205490915080820260648290038802111561181957858786028161181157fe5b049250611822565b60648582020492505b50909150505b949350505050565b600c5481565b60075481565b60025481565b6008805434019055565b6006805434019055565b60008281526004602090815260408083206001600160a01b03851680855290835281842054868552600384528285208286528452828520548786526001855283862092865291909352908320546116f0908690849084906117b4565b6118ba61243e565b6001600160a01b0316336001600160a01b031614806118f157506118dc61243e565b6001600160a01b0316326001600160a01b0316145b8061190a57506118ff61243e565b6001600160a01b0316155b80611913575043155b61194e5760405162461bcd60e51b81526004018080602001828103825260308152602001806124c66030913960400191505060405180910390fd5b611956610ece565b156119925760405162461bcd60e51b81526004018080602001828103825260248152602001806124a26024913960400191505060405180910390fd5b6001600160a01b0381166119ed576040805162461bcd60e51b815260206004820152601a60248201527f56616c696461746f72536574206d757374206e6f742062652030000000000000604482015290519081900360640190fd5b600a80546001600160a01b039092166001600160a01b0319928316178155600080526005602052601e7f05b8ccbb9d4d8fb16ea74ce3c29a41f1b461fbdaff4714a0d9a8eb05499746bc556117706007819055600955600b805490921673da0da0da0da0da0da0da00da0da0da0da0da0da0179091556001600c55600d55565b611a7561243e565b6001600160a01b0316336001600160a01b031614611ac45760405162461bcd60e51b815260040180806020018281038252602b815260200180612552602b913960400191505060405180910390fd5b80611b16576040805162461bcd60e51b815260206004820152601d60248201527f5061796f7574206672616374696f6e206d757374206e6f742062652030000000604482015290519081900360640190fd5b600955565b611b2361243e565b6001600160a01b0316336001600160a01b031614611b725760405162461bcd60e51b815260040180806020018281038252602b815260200180612552602b913960400191505060405180910390fd5b80611bc4576040805162461bcd60e51b815260206004820152601d60248201527f5061796f7574206672616374696f6e206d757374206e6f742062652030000000604482015290519081900360640190fd5b600755565b60056020526000908152604090205481565b6001600160a01b03811660009081526020818152604091829020805483518184028101840190945280845260609392830182828015611c3957602002820191906000526020600020905b815481526020019060010190808311611c25575b50505050509050919050565b600a546001600160a01b031681565b60008281526004602090815260408083206001600160a01b0385168085529083528184205486855260038452828520828652845282852054878652600185528386209286529190935290832054611cb29086908890859085906116ff565b9695505050505050565b620f424081565b60006060600a60009054906101000a90046001600160a01b03166001600160a01b031663b7ab4db56040518163ffffffff1660e01b815260040160006040518083038186803b158015611d1557600080fd5b505afa158015611d29573d6000803e3d6000fd5b505050506040513d6000823e601f3d908101601f191682016040526020811015611d5257600080fd5b8101908080516040519392919084600160201b821115611d7157600080fd5b908301906020820185811115611d8657600080fd5b82518660208202830111600160201b82111715611da257600080fd5b82525081516020918201928201910280838360005b83811015611dcf578181015183820152602001611db7565b505050509190910160405250508251929350505080611e2c576040805162461bcd60e51b8152602060048201526014602482015273115b5c1d1e4815985b1a59185d1bdc881b1a5cdd60621b604482015290519081900360640190fd5b600060075460065481611e3b57fe5b04905080600660008282540392505081905550600060095460085481611e5d57fe5b60088054929091049182900390556002549091508282010180611e8857600095505050505050610e75565b6000600d54600c54830281611e9957fe5b600b546040519290910492506001600160a01b03169082156108fc029083906000818181858888f19350505050158015611ed7573d6000803e3d6000fd5b5060008183039050606086604051908082528060200260200182016040528015611f0b578160200160208202803883390190505b5090506000805b895181101561204157600a548a516001600160a01b039091169063a92252ae908c9084908110611f3e57fe5b60200260200101516040518263ffffffff1660e01b815260040180826001600160a01b03166001600160a01b0316815260200191505060206040518083038186803b158015611f8c57600080fd5b505afa158015611fa0573d6000803e3d6000fd5b505050506040513d6020811015611fb657600080fd5b505115801561200f5750600460008d815260200190815260200160002060008b8381518110611fe157fe5b60200260200101516001600160a01b03166001600160a01b0316815260200190815260200160002054600014155b1561203957600183828151811061202257fe5b911515602092830291909101909101526001909101905b600101611f12565b50806120595760009950505050505050505050610e75565b600081848161206457fe5b04905080156121bb5760005b898110156121b95783818151811061208457fe5b6020026020010151156121b157600160008e815260200190815260200160002060008c83815181106120b257fe5b60200260200101516001600160a01b03166001600160a01b03168152602001908152602001600020546000146121195760405162461bcd60e51b815260040180806020018281038252605c8152602001806124f6605c913960600191505060405180910390fd5b60008d81526001602052604081208c518492908e908590811061213857fe5b60200260200101516001600160a01b03166001600160a01b031681526020019081526020016000208190555081860195506000808c838151811061217857fe5b6020908102919091018101516001600160a01b031682528181019290925260400160009081208054600181018255908252919020018d90555b600101612070565b505b50505050908190036002559695505050505050565b60008281526003602090815260408083206001600160a01b0385168452909152902054156121fd576123c2565b600a54604080516307b9342f60e21b81526001600160a01b03848116600483015291516000939290921691631ee4d0bc91602480820192602092909190829003018186803b15801561224e57600080fd5b505afa158015612262573d6000803e3d6000fd5b505050506040513d602081101561227857600080fd5b505160408051632933f0eb60e11b81526001600160a01b038084166004830152915192935060009291871691635267e1d691602480820192602092909190829003018186803b1580156122ca57600080fd5b505afa1580156122de573d6000803e3d6000fd5b505050506040513d60208110156122f457600080fd5b50519050806123045750506123c2565b60008481526003602090815260408083206001600160a01b03808816855290835292819020849055805163a697ecff60e01b815285841660048201819052602482015290519288169263a697ecff92604480840193919291829003018186803b15801561237057600080fd5b505afa158015612384573d6000803e3d6000fd5b505050506040513d602081101561239a57600080fd5b505160008581526004602090815260408083206001600160a01b038816845290915290205550505b505050565b81158015906123f857506040516001600160a01b0382169083156108fc029084906000818181858888f19350505050155b15610f7d57818160405161240b90612463565b6001600160a01b039091168152604051908190036020019082f080158015612437573d6000803e3d6000fd5b5050505050565b7fb53127684a568b3173ae13b9f8a6016e243e63b6e8ee1178d6a717850b5d61035490565b6032806124708339019056fe60806040526040516032380380603283398181016040526020811015602357600080fd5b50516001600160a01b038116fffe696e697469616c697a6174696f6e2063616e206f6e6c7920626520646f6e65206f6e6365496e697469616c697a6174696f6e206f6e6c79206f6e2067656e6573697320626c6f636b206f722062792061646d696e63616e74206469737472696275746520726577617264733a20746865726520697320616c7265616479206120706f6f6c2072657761726420646566696e656420666f7220746869732065706f636820616e642076616c696461746f726f6e6c792061646d696e20697320616c6c6f77656420746f2063616c6c20746869732066756e6374696f6ea265627a7a72315820fb0e51585e20c6793bf27f96a2d616ceddb97a6cc6883772d2b393246bd9f51864736f6c63430005100032",
  "source": "pragma solidity ^0.5.16;\n\nimport \"./base/BlockRewardHbbftCoins.sol\";\n\n\ncontract BlockRewardHbbft is BlockRewardHbbftCoins {}\n",
  "sourcePath": "/home/sn/dmd/dmd-meta/hbbft-posdao-contracts/contracts/BlockRewardHbbft.sol",
  "compiler": {
    "name": "solc",
    "version": "0.5.16+commit.9c3226ce.Emscripten.clang"
  },
  "schemaVersion": "3.3.1",
  "updatedAt": "2021-03-11T19:43:43.985Z",
  "devdoc": {
    "methods": {
      "delegatorShare(uint256,uint256,uint256,uint256,uint256)": {
        "details": "Calculates delegator's share for the given pool reward amount and the specified staking epoch. Used by the `StakingHbbft.claimReward` function.",
        "params": {
          "_delegatorStaked": "The amount staked by a delegator.",
          "_poolReward": "The value of pool reward.",
          "_stakingEpoch": "The number of staking epoch.",
          "_totalStaked": "The total amount staked by a validator and their delegators.",
          "_validatorStaked": "The amount staked by a validator."
        }
      },
      "epochsPoolGotRewardFor(address)": {
        "details": "Returns an array of epoch numbers for which the specified pool (mining address) got a non-zero reward."
      },
      "epochsToClaimRewardFrom(address,address)": {
        "details": "Returns an array of epoch numbers for which the specified staker can claim a reward from the specified pool by the `StakingHbbft.claimReward` function.",
        "params": {
          "_poolStakingAddress": "The pool staking address.",
          "_staker": "The staker's address (delegator or candidate/validator)."
        }
      },
      "getDelegatorReward(uint256,uint256,address)": {
        "details": "Returns the reward amount in native coins for some delegator with the specified stake amount placed into the specified pool before the specified staking epoch. Used by the `StakingHbbft.claimReward` function.",
        "params": {
          "_delegatorStake": "The stake amount placed by some delegator into the `_poolMiningAddress` pool.",
          "_poolMiningAddress": "The pool mining address.",
          "_stakingEpoch": "The serial number of staking epoch."
        },
        "return": "`uint256 nativeReward` - the reward amount in native coins."
      },
      "getValidatorReward(uint256,address)": {
        "details": "Returns the reward amount in native coins for the specified validator and for the specified staking epoch. Used by the `StakingHbbft.claimReward` function.",
        "params": {
          "_poolMiningAddress": "The pool mining address.",
          "_stakingEpoch": "The serial number of staking epoch."
        },
        "return": "`uint256 nativeReward` - the reward amount in native coins."
      },
      "initialize(address)": {
        "details": "Initializes the contract at network startup. Can only be called by the constructor of the `InitializerHbbft` contract or owner.",
        "params": {
          "_validatorSet": "The address of the `ValidatorSetHbbft` contract."
        }
      },
      "isInitialized()": {
        "details": "Returns a boolean flag indicating if the `initialize` function has been called."
      },
      "reward(bool)": {
        "details": "Called by the engine when producing and closing a block, see https://wiki.parity.io/Block-Reward-Contract.html. This function performs all of the automatic operations needed for accumulating block producing statistics, starting a new staking epoch, snapshotting staking amounts for the upcoming staking epoch, and rewards distributing at the end of a staking epoch.",
        "params": {
          "_isEpochEndBlock": "Indicates if this is the last block of the current epoch i.e. just before the pending validators are fiinalized."
        }
      },
      "transferReward(uint256,address)": {
        "details": "Called by the `StakingHbbft.claimReward` function to transfer native coins from the balance of the `BlockRewardHbbft` contract to the specified address as a reward.",
        "params": {
          "_nativeCoins": "The amount of native coins to transfer as a reward.",
          "_to": "The target address to transfer the amounts to."
        }
      },
      "validatorRewardPercent(address)": {
        "details": "Returns the reward coefficient for the specified validator. The given value should be divided by 10000 to get the value of the reward percent (since EVM doesn't support floating values). If the specified staking address is an address of a candidate that is not about to be a validator in the upcoming staking epoch the potentially possible reward coefficient is returned.",
        "params": {
          "_stakingAddress": "The staking address of the validator/candidate pool for which the getter must return the coefficient."
        }
      },
      "validatorShare(uint256,uint256,uint256,uint256)": {
        "details": "Calculates validator's share for the given pool reward amount and the specified staking epoch. Used by the `validatorRewardPercent` and `StakingHbbft.claimReward` functions.",
        "params": {
          "_poolReward": "The value of pool reward.",
          "_stakingEpoch": "The number of staking epoch.",
          "_totalStaked": "The total amount staked by a validator and their delegators.",
          "_validatorStaked": "The amount staked by a validator."
        }
      }
    }
  },
  "userdoc": {
    "methods": {}
  }
}