{
  "contractName": "BlockRewardHbbftBaseMock",
  "abi": [
    {
      "anonymous": false,
      "inputs": [
        {
          "indexed": false,
          "internalType": "uint256",
          "name": "rewards",
          "type": "uint256"
        }
      ],
      "name": "CoinsRewarded",
      "type": "event"
    },
    {
      "payable": true,
      "stateMutability": "payable",
      "type": "fallback"
    },
    {
      "constant": true,
      "inputs": [],
      "name": "REWARD_PERCENT_MULTIPLIER",
      "outputs": [
        {
          "internalType": "uint256",
          "name": "",
          "type": "uint256"
        }
      ],
      "payable": false,
      "stateMutability": "view",
      "type": "function"
    },
    {
      "constant": true,
      "inputs": [],
      "name": "VALIDATOR_MIN_REWARD_PERCENT",
      "outputs": [
        {
          "internalType": "uint256",
          "name": "",
          "type": "uint256"
        }
      ],
      "payable": false,
      "stateMutability": "view",
      "type": "function"
    },
    {
      "constant": false,
      "inputs": [],
      "name": "addToDeltaPot",
      "outputs": [],
      "payable": true,
      "stateMutability": "payable",
      "type": "function"
    },
    {
      "constant": false,
      "inputs": [],
      "name": "addToReinsertPot",
      "outputs": [],
      "payable": true,
      "stateMutability": "payable",
      "type": "function"
    },
    {
      "constant": true,
      "inputs": [
        {
          "internalType": "uint256",
          "name": "_stakingEpoch",
          "type": "uint256"
        },
        {
          "internalType": "uint256",
          "name": "_delegatorStaked",
          "type": "uint256"
        },
        {
          "internalType": "uint256",
          "name": "_validatorStaked",
          "type": "uint256"
        },
        {
          "internalType": "uint256",
          "name": "_totalStaked",
          "type": "uint256"
        },
        {
          "internalType": "uint256",
          "name": "_poolReward",
          "type": "uint256"
        }
      ],
      "name": "delegatorShare",
      "outputs": [
        {
          "internalType": "uint256",
          "name": "",
          "type": "uint256"
        }
      ],
      "payable": false,
      "stateMutability": "view",
      "type": "function"
    },
    {
      "constant": true,
      "inputs": [],
      "name": "deltaPot",
      "outputs": [
        {
          "internalType": "uint256",
          "name": "",
          "type": "uint256"
        }
      ],
      "payable": false,
      "stateMutability": "view",
      "type": "function"
    },
    {
      "constant": true,
      "inputs": [],
      "name": "deltaPotPayoutFraction",
      "outputs": [
        {
          "internalType": "uint256",
          "name": "",
          "type": "uint256"
        }
      ],
      "payable": false,
      "stateMutability": "view",
      "type": "function"
    },
    {
      "constant": true,
      "inputs": [
        {
          "internalType": "uint256",
          "name": "",
          "type": "uint256"
        },
        {
          "internalType": "address",
          "name": "",
          "type": "address"
        }
      ],
      "name": "epochPoolNativeReward",
      "outputs": [
        {
          "internalType": "uint256",
          "name": "",
          "type": "uint256"
        }
      ],
      "payable": false,
      "stateMutability": "view",
      "type": "function"
    },
    {
      "constant": true,
      "inputs": [
        {
          "internalType": "address",
          "name": "_miningAddress",
          "type": "address"
        }
      ],
      "name": "epochsPoolGotRewardFor",
      "outputs": [
        {
          "internalType": "uint256[]",
          "name": "",
          "type": "uint256[]"
        }
      ],
      "payable": false,
      "stateMutability": "view",
      "type": "function"
    },
    {
      "constant": true,
      "inputs": [
        {
          "internalType": "address",
          "name": "_poolStakingAddress",
          "type": "address"
        },
        {
          "internalType": "address",
          "name": "_staker",
          "type": "address"
        }
      ],
      "name": "epochsToClaimRewardFrom",
      "outputs": [
        {
          "internalType": "uint256[]",
          "name": "epochsToClaimFrom",
          "type": "uint256[]"
        }
      ],
      "payable": false,
      "stateMutability": "view",
      "type": "function"
    },
    {
      "constant": true,
      "inputs": [],
      "name": "governancePotAddress",
      "outputs": [
        {
          "internalType": "address payable",
          "name": "",
          "type": "address"
        }
      ],
      "payable": false,
      "stateMutability": "view",
      "type": "function"
    },
    {
      "constant": true,
      "inputs": [],
      "name": "governancePotShareDenominator",
      "outputs": [
        {
          "internalType": "uint256",
          "name": "",
          "type": "uint256"
        }
      ],
      "payable": false,
      "stateMutability": "view",
      "type": "function"
    },
    {
      "constant": true,
      "inputs": [],
      "name": "governancePotShareNominator",
      "outputs": [
        {
          "internalType": "uint256",
          "name": "",
          "type": "uint256"
        }
      ],
      "payable": false,
      "stateMutability": "view",
      "type": "function"
    },
    {
      "constant": false,
      "inputs": [
        {
          "internalType": "address",
          "name": "_validatorSet",
          "type": "address"
        }
      ],
      "name": "initialize",
      "outputs": [],
      "payable": false,
      "stateMutability": "nonpayable",
      "type": "function"
    },
    {
      "constant": true,
      "inputs": [],
      "name": "isInitialized",
      "outputs": [
        {
          "internalType": "bool",
          "name": "",
          "type": "bool"
        }
      ],
      "payable": false,
      "stateMutability": "view",
      "type": "function"
    },
    {
      "constant": true,
      "inputs": [],
      "name": "nativeRewardUndistributed",
      "outputs": [
        {
          "internalType": "uint256",
          "name": "",
          "type": "uint256"
        }
      ],
      "payable": false,
      "stateMutability": "view",
      "type": "function"
    },
    {
      "constant": true,
      "inputs": [],
      "name": "reinsertPot",
      "outputs": [
        {
          "internalType": "uint256",
          "name": "",
          "type": "uint256"
        }
      ],
      "payable": false,
      "stateMutability": "view",
      "type": "function"
    },
    {
      "constant": true,
      "inputs": [],
      "name": "reinsertPotPayoutFraction",
      "outputs": [
        {
          "internalType": "uint256",
          "name": "",
          "type": "uint256"
        }
      ],
      "payable": false,
      "stateMutability": "view",
      "type": "function"
    },
    {
      "constant": false,
      "inputs": [
        {
          "internalType": "bool",
          "name": "_isEpochEndBlock",
          "type": "bool"
        }
      ],
      "name": "reward",
      "outputs": [
        {
          "internalType": "uint256",
          "name": "rewardsNative",
          "type": "uint256"
        }
      ],
      "payable": false,
      "stateMutability": "nonpayable",
      "type": "function"
    },
    {
      "constant": false,
      "inputs": [
        {
          "internalType": "uint256",
          "name": "_value",
          "type": "uint256"
        }
      ],
      "name": "setReinsertPotPayoutFraction",
      "outputs": [],
      "payable": false,
      "stateMutability": "nonpayable",
      "type": "function"
    },
    {
      "constant": false,
      "inputs": [
        {
          "internalType": "uint256",
          "name": "_value",
          "type": "uint256"
        }
      ],
      "name": "setdeltaPotPayoutFraction",
      "outputs": [],
      "payable": false,
      "stateMutability": "nonpayable",
      "type": "function"
    },
    {
      "constant": true,
      "inputs": [
        {
          "internalType": "uint256",
          "name": "",
          "type": "uint256"
        },
        {
          "internalType": "address",
          "name": "",
          "type": "address"
        }
      ],
      "name": "snapshotPoolTotalStakeAmount",
      "outputs": [
        {
          "internalType": "uint256",
          "name": "",
          "type": "uint256"
        }
      ],
      "payable": false,
      "stateMutability": "view",
      "type": "function"
    },
    {
      "constant": true,
      "inputs": [
        {
          "internalType": "uint256",
          "name": "",
          "type": "uint256"
        },
        {
          "internalType": "address",
          "name": "",
          "type": "address"
        }
      ],
      "name": "snapshotPoolValidatorStakeAmount",
      "outputs": [
        {
          "internalType": "uint256",
          "name": "",
          "type": "uint256"
        }
      ],
      "payable": false,
      "stateMutability": "view",
      "type": "function"
    },
    {
      "constant": true,
      "inputs": [
        {
          "internalType": "uint256",
          "name": "",
          "type": "uint256"
        }
      ],
      "name": "validatorMinRewardPercent",
      "outputs": [
        {
          "internalType": "uint256",
          "name": "",
          "type": "uint256"
        }
      ],
      "payable": false,
      "stateMutability": "view",
      "type": "function"
    },
    {
      "constant": true,
      "inputs": [
        {
          "internalType": "address",
          "name": "_stakingAddress",
          "type": "address"
        }
      ],
      "name": "validatorRewardPercent",
      "outputs": [
        {
          "internalType": "uint256",
          "name": "",
          "type": "uint256"
        }
      ],
      "payable": false,
      "stateMutability": "view",
      "type": "function"
    },
    {
      "constant": true,
      "inputs": [],
      "name": "validatorSetContract",
      "outputs": [
        {
          "internalType": "contract IValidatorSetHbbft",
          "name": "",
          "type": "address"
        }
      ],
      "payable": false,
      "stateMutability": "view",
      "type": "function"
    },
    {
      "constant": true,
      "inputs": [
        {
          "internalType": "uint256",
          "name": "_stakingEpoch",
          "type": "uint256"
        },
        {
          "internalType": "uint256",
          "name": "_validatorStaked",
          "type": "uint256"
        },
        {
          "internalType": "uint256",
          "name": "_totalStaked",
          "type": "uint256"
        },
        {
          "internalType": "uint256",
          "name": "_poolReward",
          "type": "uint256"
        }
      ],
      "name": "validatorShare",
      "outputs": [
        {
          "internalType": "uint256",
          "name": "",
          "type": "uint256"
        }
      ],
      "payable": false,
      "stateMutability": "view",
      "type": "function"
    },
    {
      "constant": false,
      "inputs": [],
      "name": "sendCoins",
      "outputs": [],
      "payable": true,
      "stateMutability": "payable",
      "type": "function"
    },
    {
      "constant": false,
      "inputs": [
        {
          "internalType": "address",
          "name": "_address",
          "type": "address"
        }
      ],
      "name": "setSystemAddress",
      "outputs": [],
      "payable": false,
      "stateMutability": "nonpayable",
      "type": "function"
    },
    {
      "constant": false,
      "inputs": [
        {
          "internalType": "uint256",
          "name": "_stakingEpoch",
          "type": "uint256"
        },
        {
          "internalType": "uint256",
          "name": "_percent",
          "type": "uint256"
        }
      ],
      "name": "setValidatorMinRewardPercent",
      "outputs": [],
      "payable": false,
      "stateMutability": "nonpayable",
      "type": "function"
    },
    {
      "constant": false,
      "inputs": [
        {
          "internalType": "contract IStakingHbbft",
          "name": "_stakingContract",
          "type": "address"
        },
        {
          "internalType": "uint256",
          "name": "_stakingEpoch",
          "type": "uint256"
        },
        {
          "internalType": "address",
          "name": "_miningAddress",
          "type": "address"
        }
      ],
      "name": "snapshotPoolStakeAmounts",
      "outputs": [],
      "payable": false,
      "stateMutability": "nonpayable",
      "type": "function"
    },
    {
      "constant": false,
      "inputs": [
        {
          "internalType": "uint256",
          "name": "_stakingEpoch",
          "type": "uint256"
        },
        {
          "internalType": "address",
          "name": "_poolMiningAddress",
          "type": "address"
        },
        {
          "internalType": "uint256",
          "name": "_amount",
          "type": "uint256"
        }
      ],
      "name": "setSnapshotPoolValidatorStakeAmount",
      "outputs": [],
      "payable": false,
      "stateMutability": "nonpayable",
      "type": "function"
    }
  ],
  "bytecode": "0x6080604052603c60075534801561001557600080fd5b5061247a806100256000396000f3fe6080604052600436106101e25760003560e01c80638737929a11610102578063cb68d12711610095578063dd03f5b911610064578063dd03f5b9146106bb578063dfc8bf4e146106ee578063e58edc3814610703578063f302163d14610718576101e2565b8063cb68d127146105f4578063cdf7a0901461061e578063d0899cb414610648578063d88aebd714610678576101e2565b8063af182535116100d1578063af18253514610587578063b10c75481461058f578063c4d66de814610597578063c6cc9333146105ca576101e2565b80638737929a1461050c57806391b57986146105485780639a64ca2c1461055d578063adc481a714610572576101e2565b8063392e53cd1161017a5780635c57a801116101495780635c57a801146104675780635fba554e1461047c578063728345db146104be57806373f12958146104f7576101e2565b8063392e53cd1461036b5780633c2c943c146103945780634de6c036146103a9578063527d8bc414610434576101e2565b80631274fa09116101b65780631274fa09146102b35780631345b8a5146102c857806319cee8971461030157806333d6992114610332576101e2565b8062067a84146101ec578063062101971461022a5780630c0d41731461025f5780630dcbf15514610274575b6008805434019055005b3480156101f857600080fd5b506102186004803603602081101561020f57600080fd5b50351515610720565b60408051918252519081900360200190f35b34801561023657600080fd5b5061025d6004803603602081101561024d57600080fd5b50356001600160a01b0316610ede565b005b34801561026b57600080fd5b50610218610f00565b34801561028057600080fd5b5061025d6004803603606081101561029757600080fd5b508035906001600160a01b036020820135169060400135610f05565b3480156102bf57600080fd5b50610218610f2b565b3480156102d457600080fd5b50610218600480360360408110156102eb57600080fd5b50803590602001356001600160a01b0316610f31565b34801561030d57600080fd5b50610316610f4e565b604080516001600160a01b039092168252519081900360200190f35b34801561033e57600080fd5b506102186004803603604081101561035557600080fd5b50803590602001356001600160a01b0316610f5d565b34801561037757600080fd5b50610380610f7a565b604080519115158252519081900360200190f35b3480156103a057600080fd5b50610218610f8b565b3480156103b557600080fd5b506103e4600480360360408110156103cc57600080fd5b506001600160a01b0381358116916020013516610f91565b60408051602080825283518183015283519192839290830191858101910280838360005b83811015610420578181015183820152602001610408565b505050509050019250505060405180910390f35b34801561044057600080fd5b506102186004803603602081101561045757600080fd5b50356001600160a01b03166113b1565b34801561047357600080fd5b50610218611709565b34801561048857600080fd5b50610218600480360360a081101561049f57600080fd5b508035906020810135906040810135906060810135906080013561170f565b3480156104ca57600080fd5b50610218600480360360408110156104e157600080fd5b50803590602001356001600160a01b03166117a1565b34801561050357600080fd5b506102186117be565b34801561051857600080fd5b506102186004803603608081101561052f57600080fd5b50803590602081013590604081013590606001356117c4565b34801561055457600080fd5b50610218611840565b34801561056957600080fd5b50610218611846565b34801561057e57600080fd5b5061021861184c565b61025d611852565b61025d61185c565b3480156105a357600080fd5b5061025d600480360360208110156105ba57600080fd5b50356001600160a01b0316611866565b3480156105d657600080fd5b5061025d600480360360208110156105ed57600080fd5b5035611a21565b34801561060057600080fd5b5061025d6004803603602081101561061757600080fd5b5035611acf565b34801561062a57600080fd5b506102186004803603602081101561064157600080fd5b5035611b7d565b34801561065457600080fd5b5061025d6004803603604081101561066b57600080fd5b5080359060200135611b8f565b34801561068457600080fd5b5061025d6004803603606081101561069b57600080fd5b506001600160a01b03813581169160208101359160409091013516611ba1565b3480156106c757600080fd5b506103e4600480360360208110156106de57600080fd5b50356001600160a01b0316611bb1565b3480156106fa57600080fd5b50610316611c1b565b34801561070f57600080fd5b50610218611c2a565b61025d611c31565b600061072a611c33565b6001600160a01b0316336001600160a01b03161461074757600080fd5b600a5460408051633ba6481760e21b815290516000926001600160a01b03169163ee99205c916004808301926020929190829003018186803b15801561078c57600080fd5b505afa1580156107a0573d6000803e3d6000fd5b505050506040513d60208110156107b657600080fd5b505190508215610b84576000816001600160a01b031663794c0c686040518163ffffffff1660e01b815260040160206040518083038186803b1580156107fb57600080fd5b505afa15801561080f573d6000803e3d6000fd5b505050506040513d602081101561082557600080fd5b505190506000811561083d5761083a82611c42565b90505b6000808360010190506060600a60009054906101000a90046001600160a01b03166001600160a01b031663eebc7a396040518163ffffffff1660e01b815260040160006040518083038186803b15801561089657600080fd5b505afa1580156108aa573d6000803e3d6000fd5b505050506040513d6000823e601f3d908101601f1916820160405260208110156108d357600080fd5b8101908080516040519392919084600160201b8211156108f257600080fd5b90830190602082018581111561090757600080fd5b82518660208202830111600160201b8211171561092357600080fd5b82525081516020918201928201910280838360005b83811015610950578181015183820152602001610938565b505050509050016040525050509050600092505b80518310156109965761098b868383868151811061097e57fe5b602002602001015161214f565b600190920191610964565b600a60009054906101000a90046001600160a01b03166001600160a01b031663b7ab4db56040518163ffffffff1660e01b815260040160006040518083038186803b1580156109e457600080fd5b505afa1580156109f8573d6000803e3d6000fd5b505050506040513d6000823e601f3d908101601f191682016040526020811015610a2157600080fd5b8101908080516040519392919084600160201b821115610a4057600080fd5b908301906020820185811115610a5557600080fd5b82518660208202830111600160201b82111715610a7157600080fd5b82525081516020918201928201910280838360005b83811015610a9e578181015183820152602001610a86565b505050509050016040525050509050600092505b8051831015610ad757610acc868383868151811061097e57fe5b600190920191610ab2565b600082815260056020526040808220601e9055600a548151637528621160e01b815291516001600160a01b03909116926375286211926004808201939182900301818387803b158015610b2957600080fd5b505af1158015610b3d573d6000803e3d6000fd5b50506040805187815290517ff32b9551d3414b67f8e66e20ac15e62694b9d1230abb2e2e48f9dc2e1964c4299350908190036020019150a160009650505050505050610ed9565b6000816001600160a01b031663c6912cc06040518163ffffffff1660e01b815260040160206040518083038186803b158015610bbf57600080fd5b505afa158015610bd3573d6000803e3d6000fd5b505050506040513d6020811015610be957600080fd5b5051600a5460408051636c9230db60e01b815290519293506000926001600160a01b0390921691636c9230db91600480820192602092909190829003018186803b158015610c3657600080fd5b505afa158015610c4a573d6000803e3d6000fd5b505050506040513d6020811015610c6057600080fd5b505190506000828210801590610d8b5750600a60009054906101000a90046001600160a01b03166001600160a01b031663eebc7a396040518163ffffffff1660e01b815260040160006040518083038186803b158015610cbf57600080fd5b505afa158015610cd3573d6000803e3d6000fd5b505050506040513d6000823e601f3d908101601f191682016040526020811015610cfc57600080fd5b8101908080516040519392919084600160201b821115610d1b57600080fd5b908301906020820185811115610d3057600080fd5b82518660208202830111600160201b82111715610d4c57600080fd5b82525081516020918201928201910280838360005b83811015610d79578181015183820152602001610d61565b50505050905001604052505050516000145b90508015610e0057600a60009054906101000a90046001600160a01b03166001600160a01b0316635ccee1de6040518163ffffffff1660e01b8152600401600060405180830381600087803b158015610de357600080fd5b505af1158015610df7573d6000803e3d6000fd5b50505050610ed4565b836001600160a01b03166322e3d9866040518163ffffffff1660e01b815260040160206040518083038186803b158015610e3957600080fd5b505afa158015610e4d573d6000803e3d6000fd5b505050506040513d6020811015610e6357600080fd5b50518210610ed457600a60009054906101000a90046001600160a01b03166001600160a01b031663ade1900a6040518163ffffffff1660e01b8152600401600060405180830381600087803b158015610ebb57600080fd5b505af1158015610ecf573d6000803e3d6000fd5b505050505b505050505b919050565b600e80546001600160a01b0319166001600160a01b0392909216919091179055565b601e81565b60009283526004602090815260408085206001600160a01b039094168552929052912055565b60095481565b600460209081526000928352604080842090915290825290205481565b600b546001600160a01b031681565b600160209081526000928352604080842090915290825290205481565b600a546001600160a01b0316151590565b600d5481565b600a54604080516253517560e01b81526001600160a01b0385811660048301529151606093600093169162535175916024808301926020929190829003018186803b158015610fdf57600080fd5b505afa158015610ff3573d6000803e3d6000fd5b505050506040513d602081101561100957600080fd5b5051600a5460408051633ba6481760e21b815290519293506000926001600160a01b039092169163ee99205c91600480820192602092909190829003018186803b15801561105657600080fd5b505afa15801561106a573d6000803e3d6000fd5b505050506040513d602081101561108057600080fd5b505190506001600160a01b038581169085161480159060009081906111c15760408051632b2cdba160e11b81526001600160a01b038a811660048301528981166024830152915191861691635659b74291604480820192602092909190829003018186803b1580156110f157600080fd5b505afa158015611105573d6000803e3d6000fd5b505050506040513d602081101561111b57600080fd5b505191508161114057505060408051600081526020810190915293506113ab92505050565b6040805163bc9eb2c360e01b81526001600160a01b038a81166004830152898116602483015291519186169163bc9eb2c391604480820192602092909190829003018186803b15801561119257600080fd5b505afa1580156111a6573d6000803e3d6000fd5b505050506040513d60208110156111bc57600080fd5b505190505b6001600160a01b038516600090815260208181526040918290208054835181815281840281019093019093529190606090828015611209578160200160208202803883390190505b5090506000805b8381101561133357600085828154811061122657fe5b9060005260206000200154905088156112615787811015611247575061132b565b80871115801561125657508615155b156112615750611333565b896001600160a01b031663317277308f8f846040518463ffffffff1660e01b815260040180846001600160a01b03166001600160a01b03168152602001836001600160a01b03166001600160a01b03168152602001828152602001935050505060206040518083038186803b1580156112d957600080fd5b505afa1580156112ed573d6000803e3d6000fd5b505050506040513d602081101561130357600080fd5b5051611329578084848060010195508151811061131c57fe5b6020026020010181815250505b505b600101611210565b8160405190808252806020026020018201604052801561135d578160200160208202803883390190505b509a50600090505b818110156113a05782818151811061137957fe5b60200260200101518b828151811061138d57fe5b6020908102919091010152600101611365565b505050505050505050505b92915050565b600080600a60009054906101000a90046001600160a01b03166001600160a01b031663ee99205c6040518163ffffffff1660e01b815260040160206040518083038186803b15801561140257600080fd5b505afa158015611416573d6000803e3d6000fd5b505050506040513d602081101561142c57600080fd5b505160408051630f29818d60e31b815290519192506000916001600160a01b0384169163794c0c68916004808301926020929190829003018186803b15801561147457600080fd5b505afa158015611488573d6000803e3d6000fd5b505050506040513d602081101561149e57600080fd5b50519050806114b257600092505050610ed9565b600a54604080516253517560e01b81526001600160a01b038781166004830152915160009392909216916253517591602480820192602092909190829003018186803b15801561150157600080fd5b505afa158015611515573d6000803e3d6000fd5b505050506040513d602081101561152b57600080fd5b5051600a546040805163a0d16cad60e01b81526001600160a01b038085166004830152915193945091169163a0d16cad91602480820192602092909190829003018186803b15801561157c57600080fd5b505afa158015611590573d6000803e3d6000fd5b505050506040513d60208110156115a657600080fd5b5051156115fe5760008281526004602090815260408083206001600160a01b03851680855290835281842054868552600384528285209185529252909120546115f4918491620f42406117c4565b9350505050610ed9565b6040805163a697ecff60e01b81526001600160a01b0387811660048301819052602483015291516117009285929087169163a697ecff91604480820192602092909190829003018186803b15801561165557600080fd5b505afa158015611669573d6000803e3d6000fd5b505050506040513d602081101561167f57600080fd5b505160408051632933f0eb60e11b81526001600160a01b038a81166004830152915191881691635267e1d691602480820192602092909190829003018186803b1580156116cb57600080fd5b505afa1580156116df573d6000803e3d6000fd5b505050506040513d60208110156116f557600080fd5b5051620f42406117c4565b95945050505050565b60065481565b600084158061171c575083155b80611725575082155b1561173257506000611700565b60008085851015611744576000611748565b8585035b60008981526005602052604090205490915080820260648290038802111561177d57858886028161177557fe5b049250611794565b8160640281606403898702028161179057fe5b0492505b5090979650505050505050565b600360209081526000928352604080842090915290825290205481565b60085481565b60008315806117d1575082155b156117de57506000611838565b600080858510156117f05760006117f4565b8585035b60008881526005602052604090205490915080820260648290038802111561182957858786028161182157fe5b049250611832565b60648582020492505b50909150505b949350505050565b600c5481565b60075481565b60025481565b6008805434019055565b6006805434019055565b61186e612345565b6001600160a01b0316336001600160a01b031614806118a55750611890612345565b6001600160a01b0316326001600160a01b0316145b806118be57506118b3612345565b6001600160a01b0316155b806118c7575043155b6119025760405162461bcd60e51b815260040180806020018281038252603081526020018061238f6030913960400191505060405180910390fd5b61190a610f7a565b156119465760405162461bcd60e51b815260040180806020018281038252602481526020018061236b6024913960400191505060405180910390fd5b6001600160a01b0381166119a1576040805162461bcd60e51b815260206004820152601a60248201527f56616c696461746f72536574206d757374206e6f742062652030000000000000604482015290519081900360640190fd5b600a80546001600160a01b039092166001600160a01b0319928316178155600080526005602052601e7f05b8ccbb9d4d8fb16ea74ce3c29a41f1b461fbdaff4714a0d9a8eb05499746bc556117706007819055600955600b805490921673da0da0da0da0da0da0da00da0da0da0da0da0da0179091556001600c55600d55565b611a29612345565b6001600160a01b0316336001600160a01b031614611a785760405162461bcd60e51b815260040180806020018281038252602b81526020018061241b602b913960400191505060405180910390fd5b80611aca576040805162461bcd60e51b815260206004820152601d60248201527f5061796f7574206672616374696f6e206d757374206e6f742062652030000000604482015290519081900360640190fd5b600955565b611ad7612345565b6001600160a01b0316336001600160a01b031614611b265760405162461bcd60e51b815260040180806020018281038252602b81526020018061241b602b913960400191505060405180910390fd5b80611b78576040805162461bcd60e51b815260206004820152601d60248201527f5061796f7574206672616374696f6e206d757374206e6f742062652030000000604482015290519081900360640190fd5b600755565b60056020526000908152604090205481565b60009182526005602052604090912055565b611bac83838361214f565b505050565b6001600160a01b03811660009081526020818152604091829020805483518184028101840190945280845260609392830182828015611c0f57602002820191906000526020600020905b815481526020019060010190808311611bfb575b50505050509050919050565b600a546001600160a01b031681565b620f424081565b565b600e546001600160a01b031690565b60006060600a60009054906101000a90046001600160a01b03166001600160a01b031663b7ab4db56040518163ffffffff1660e01b815260040160006040518083038186803b158015611c9457600080fd5b505afa158015611ca8573d6000803e3d6000fd5b505050506040513d6000823e601f3d908101601f191682016040526020811015611cd157600080fd5b8101908080516040519392919084600160201b821115611cf057600080fd5b908301906020820185811115611d0557600080fd5b82518660208202830111600160201b82111715611d2157600080fd5b82525081516020918201928201910280838360005b83811015611d4e578181015183820152602001611d36565b505050509190910160405250508251929350505080611dab576040805162461bcd60e51b8152602060048201526014602482015273115b5c1d1e4815985b1a59185d1bdc881b1a5cdd60621b604482015290519081900360640190fd5b600060075460065481611dba57fe5b04905080600660008282540392505081905550600060095460085481611ddc57fe5b60088054929091049182900390556002549091508282010180611e0757600095505050505050610ed9565b6000600d54600c54830281611e1857fe5b600b546040519290910492506001600160a01b03169082156108fc029083906000818181858888f19350505050158015611e56573d6000803e3d6000fd5b5060008183039050606086604051908082528060200260200182016040528015611e8a578160200160208202803883390190505b5090506000805b8951811015611fc057600a548a516001600160a01b039091169063a92252ae908c9084908110611ebd57fe5b60200260200101516040518263ffffffff1660e01b815260040180826001600160a01b03166001600160a01b0316815260200191505060206040518083038186803b158015611f0b57600080fd5b505afa158015611f1f573d6000803e3d6000fd5b505050506040513d6020811015611f3557600080fd5b5051158015611f8e5750600460008d815260200190815260200160002060008b8381518110611f6057fe5b60200260200101516001600160a01b03166001600160a01b0316815260200190815260200160002054600014155b15611fb8576001838281518110611fa157fe5b911515602092830291909101909101526001909101905b600101611e91565b5080611fd85760009950505050505050505050610ed9565b6000818481611fe357fe5b049050801561213a5760005b898110156121385783818151811061200357fe5b60200260200101511561213057600160008e815260200190815260200160002060008c838151811061203157fe5b60200260200101516001600160a01b03166001600160a01b03168152602001908152602001600020546000146120985760405162461bcd60e51b815260040180806020018281038252605c8152602001806123bf605c913960600191505060405180910390fd5b60008d81526001602052604081208c518492908e90859081106120b757fe5b60200260200101516001600160a01b03166001600160a01b031681526020019081526020016000208190555081860195506000808c83815181106120f757fe5b6020908102919091018101516001600160a01b031682528181019290925260400160009081208054600181018255908252919020018d90555b600101611fef565b505b50505050908190036002559695505050505050565b60008281526003602090815260408083206001600160a01b03851684529091529020541561217c57611bac565b600a54604080516307b9342f60e21b81526001600160a01b03848116600483015291516000939290921691631ee4d0bc91602480820192602092909190829003018186803b1580156121cd57600080fd5b505afa1580156121e1573d6000803e3d6000fd5b505050506040513d60208110156121f757600080fd5b505160408051632933f0eb60e11b81526001600160a01b038084166004830152915192935060009291871691635267e1d691602480820192602092909190829003018186803b15801561224957600080fd5b505afa15801561225d573d6000803e3d6000fd5b505050506040513d602081101561227357600080fd5b5051905080612283575050611bac565b60008481526003602090815260408083206001600160a01b03808816855290835292819020849055805163a697ecff60e01b815285841660048201819052602482015290519288169263a697ecff92604480840193919291829003018186803b1580156122ef57600080fd5b505afa158015612303573d6000803e3d6000fd5b505050506040513d602081101561231957600080fd5b505160008581526004602090815260408083206001600160a01b03881684529091529020555050505050565b7fb53127684a568b3173ae13b9f8a6016e243e63b6e8ee1178d6a717850b5d6103549056fe696e697469616c697a6174696f6e2063616e206f6e6c7920626520646f6e65206f6e6365496e697469616c697a6174696f6e206f6e6c79206f6e2067656e6573697320626c6f636b206f722062792061646d696e63616e74206469737472696275746520726577617264733a20746865726520697320616c7265616479206120706f6f6c2072657761726420646566696e656420666f7220746869732065706f636820616e642076616c696461746f726f6e6c792061646d696e20697320616c6c6f77656420746f2063616c6c20746869732066756e6374696f6ea265627a7a723158209bc0df95b3fdd1f3500500d7f5b7ad5dd8e8426b81b9a8e1e23a4e437124e2f264736f6c63430005100032",
  "source": "pragma solidity ^0.5.16;\n\nimport '../../contracts/base/BlockRewardHbbftBase.sol';\n\n\ncontract BlockRewardHbbftBaseMock is BlockRewardHbbftBase {\n\n    address internal _systemAddress;\n\n    // ============================================== Modifiers =======================================================\n\n    modifier onlySystem() {\n        require(msg.sender == _getSystemAddress());\n        _;\n    }\n\n    // =============================================== Setters ========================================================\n\n    function sendCoins()\n    public\n    payable {\n    }\n\n    function setSystemAddress(address _address)\n    public {\n        _systemAddress = _address;\n    }\n\n    function setValidatorMinRewardPercent(uint256 _stakingEpoch, uint256 _percent)\n    public {\n        validatorMinRewardPercent[_stakingEpoch] = _percent;\n    }\n\n    function snapshotPoolStakeAmounts(\n        IStakingHbbft _stakingContract,\n        uint256 _stakingEpoch,\n        address _miningAddress\n    ) public {\n        _snapshotPoolStakeAmounts(_stakingContract, _stakingEpoch, _miningAddress);\n    }\n\n    function setSnapshotPoolValidatorStakeAmount(uint256 _stakingEpoch, address _poolMiningAddress, uint256 _amount)\n    public {\n        snapshotPoolValidatorStakeAmount[_stakingEpoch][_poolMiningAddress] = _amount;\n    }\n\n    // =============================================== Private ========================================================\n\n    function _getSystemAddress()\n    internal\n    view\n    returns(address) {\n        return _systemAddress;\n    }\n\n}\n",
  "sourcePath": "/home/sn/dmd/dmd-meta/hbbft-posdao-contracts/contracts/mockContracts/BlockRewardHbbftBaseMock.sol",
  "compiler": {
    "name": "solc",
    "version": "0.5.16+commit.9c3226ce.Emscripten.clang"
  },
  "schemaVersion": "3.3.1",
  "updatedAt": "2021-03-11T19:43:44.240Z",
  "devdoc": {
    "methods": {
      "delegatorShare(uint256,uint256,uint256,uint256,uint256)": {
        "details": "Calculates delegator's share for the given pool reward amount and the specified staking epoch. Used by the `StakingHbbft.claimReward` function.",
        "params": {
          "_delegatorStaked": "The amount staked by a delegator.",
          "_poolReward": "The value of pool reward.",
          "_stakingEpoch": "The number of staking epoch.",
          "_totalStaked": "The total amount staked by a validator and their delegators.",
          "_validatorStaked": "The amount staked by a validator."
        }
      },
      "epochsPoolGotRewardFor(address)": {
        "details": "Returns an array of epoch numbers for which the specified pool (mining address) got a non-zero reward."
      },
      "epochsToClaimRewardFrom(address,address)": {
        "details": "Returns an array of epoch numbers for which the specified staker can claim a reward from the specified pool by the `StakingHbbft.claimReward` function.",
        "params": {
          "_poolStakingAddress": "The pool staking address.",
          "_staker": "The staker's address (delegator or candidate/validator)."
        }
      },
      "initialize(address)": {
        "details": "Initializes the contract at network startup. Can only be called by the constructor of the `InitializerHbbft` contract or owner.",
        "params": {
          "_validatorSet": "The address of the `ValidatorSetHbbft` contract."
        }
      },
      "isInitialized()": {
        "details": "Returns a boolean flag indicating if the `initialize` function has been called."
      },
      "reward(bool)": {
        "details": "Called by the engine when producing and closing a block, see https://wiki.parity.io/Block-Reward-Contract.html. This function performs all of the automatic operations needed for accumulating block producing statistics, starting a new staking epoch, snapshotting staking amounts for the upcoming staking epoch, and rewards distributing at the end of a staking epoch.",
        "params": {
          "_isEpochEndBlock": "Indicates if this is the last block of the current epoch i.e. just before the pending validators are fiinalized."
        }
      },
      "validatorRewardPercent(address)": {
        "details": "Returns the reward coefficient for the specified validator. The given value should be divided by 10000 to get the value of the reward percent (since EVM doesn't support floating values). If the specified staking address is an address of a candidate that is not about to be a validator in the upcoming staking epoch the potentially possible reward coefficient is returned.",
        "params": {
          "_stakingAddress": "The staking address of the validator/candidate pool for which the getter must return the coefficient."
        }
      },
      "validatorShare(uint256,uint256,uint256,uint256)": {
        "details": "Calculates validator's share for the given pool reward amount and the specified staking epoch. Used by the `validatorRewardPercent` and `StakingHbbft.claimReward` functions.",
        "params": {
          "_poolReward": "The value of pool reward.",
          "_stakingEpoch": "The number of staking epoch.",
          "_totalStaked": "The total amount staked by a validator and their delegators.",
          "_validatorStaked": "The amount staked by a validator."
        }
      }
    }
  },
  "userdoc": {
    "methods": {}
  }
}