{
  "contractName": "BlockRewardHbbftBase",
  "abi": [
    {
      "anonymous": false,
      "inputs": [
        {
          "indexed": false,
          "internalType": "uint256",
          "name": "rewards",
          "type": "uint256"
        }
      ],
      "name": "CoinsRewarded",
      "type": "event"
    },
    {
      "payable": true,
      "stateMutability": "payable",
      "type": "fallback"
    },
    {
      "constant": true,
      "inputs": [],
      "name": "REWARD_PERCENT_MULTIPLIER",
      "outputs": [
        {
          "internalType": "uint256",
          "name": "",
          "type": "uint256"
        }
      ],
      "payable": false,
      "stateMutability": "view",
      "type": "function"
    },
    {
      "constant": true,
      "inputs": [],
      "name": "VALIDATOR_MIN_REWARD_PERCENT",
      "outputs": [
        {
          "internalType": "uint256",
          "name": "",
          "type": "uint256"
        }
      ],
      "payable": false,
      "stateMutability": "view",
      "type": "function"
    },
    {
      "constant": true,
      "inputs": [],
      "name": "deltaPot",
      "outputs": [
        {
          "internalType": "uint256",
          "name": "",
          "type": "uint256"
        }
      ],
      "payable": false,
      "stateMutability": "view",
      "type": "function"
    },
    {
      "constant": true,
      "inputs": [],
      "name": "deltaPotPayoutFraction",
      "outputs": [
        {
          "internalType": "uint256",
          "name": "",
          "type": "uint256"
        }
      ],
      "payable": false,
      "stateMutability": "view",
      "type": "function"
    },
    {
      "constant": true,
      "inputs": [
        {
          "internalType": "uint256",
          "name": "",
          "type": "uint256"
        },
        {
          "internalType": "address",
          "name": "",
          "type": "address"
        }
      ],
      "name": "epochPoolNativeReward",
      "outputs": [
        {
          "internalType": "uint256",
          "name": "",
          "type": "uint256"
        }
      ],
      "payable": false,
      "stateMutability": "view",
      "type": "function"
    },
    {
      "constant": true,
      "inputs": [],
      "name": "governancePotAddress",
      "outputs": [
        {
          "internalType": "address payable",
          "name": "",
          "type": "address"
        }
      ],
      "payable": false,
      "stateMutability": "view",
      "type": "function"
    },
    {
      "constant": true,
      "inputs": [],
      "name": "governancePotShareDenominator",
      "outputs": [
        {
          "internalType": "uint256",
          "name": "",
          "type": "uint256"
        }
      ],
      "payable": false,
      "stateMutability": "view",
      "type": "function"
    },
    {
      "constant": true,
      "inputs": [],
      "name": "governancePotShareNominator",
      "outputs": [
        {
          "internalType": "uint256",
          "name": "",
          "type": "uint256"
        }
      ],
      "payable": false,
      "stateMutability": "view",
      "type": "function"
    },
    {
      "constant": true,
      "inputs": [],
      "name": "nativeRewardUndistributed",
      "outputs": [
        {
          "internalType": "uint256",
          "name": "",
          "type": "uint256"
        }
      ],
      "payable": false,
      "stateMutability": "view",
      "type": "function"
    },
    {
      "constant": true,
      "inputs": [],
      "name": "reinsertPot",
      "outputs": [
        {
          "internalType": "uint256",
          "name": "",
          "type": "uint256"
        }
      ],
      "payable": false,
      "stateMutability": "view",
      "type": "function"
    },
    {
      "constant": true,
      "inputs": [],
      "name": "reinsertPotPayoutFraction",
      "outputs": [
        {
          "internalType": "uint256",
          "name": "",
          "type": "uint256"
        }
      ],
      "payable": false,
      "stateMutability": "view",
      "type": "function"
    },
    {
      "constant": true,
      "inputs": [
        {
          "internalType": "uint256",
          "name": "",
          "type": "uint256"
        },
        {
          "internalType": "address",
          "name": "",
          "type": "address"
        }
      ],
      "name": "snapshotPoolTotalStakeAmount",
      "outputs": [
        {
          "internalType": "uint256",
          "name": "",
          "type": "uint256"
        }
      ],
      "payable": false,
      "stateMutability": "view",
      "type": "function"
    },
    {
      "constant": true,
      "inputs": [
        {
          "internalType": "uint256",
          "name": "",
          "type": "uint256"
        },
        {
          "internalType": "address",
          "name": "",
          "type": "address"
        }
      ],
      "name": "snapshotPoolValidatorStakeAmount",
      "outputs": [
        {
          "internalType": "uint256",
          "name": "",
          "type": "uint256"
        }
      ],
      "payable": false,
      "stateMutability": "view",
      "type": "function"
    },
    {
      "constant": true,
      "inputs": [
        {
          "internalType": "uint256",
          "name": "",
          "type": "uint256"
        }
      ],
      "name": "validatorMinRewardPercent",
      "outputs": [
        {
          "internalType": "uint256",
          "name": "",
          "type": "uint256"
        }
      ],
      "payable": false,
      "stateMutability": "view",
      "type": "function"
    },
    {
      "constant": true,
      "inputs": [],
      "name": "validatorSetContract",
      "outputs": [
        {
          "internalType": "contract IValidatorSetHbbft",
          "name": "",
          "type": "address"
        }
      ],
      "payable": false,
      "stateMutability": "view",
      "type": "function"
    },
    {
      "constant": false,
      "inputs": [
        {
          "internalType": "address",
          "name": "_validatorSet",
          "type": "address"
        }
      ],
      "name": "initialize",
      "outputs": [],
      "payable": false,
      "stateMutability": "nonpayable",
      "type": "function"
    },
    {
      "constant": false,
      "inputs": [],
      "name": "addToDeltaPot",
      "outputs": [],
      "payable": true,
      "stateMutability": "payable",
      "type": "function"
    },
    {
      "constant": false,
      "inputs": [],
      "name": "addToReinsertPot",
      "outputs": [],
      "payable": true,
      "stateMutability": "payable",
      "type": "function"
    },
    {
      "constant": false,
      "inputs": [
        {
          "internalType": "uint256",
          "name": "_value",
          "type": "uint256"
        }
      ],
      "name": "setdeltaPotPayoutFraction",
      "outputs": [],
      "payable": false,
      "stateMutability": "nonpayable",
      "type": "function"
    },
    {
      "constant": false,
      "inputs": [
        {
          "internalType": "uint256",
          "name": "_value",
          "type": "uint256"
        }
      ],
      "name": "setReinsertPotPayoutFraction",
      "outputs": [],
      "payable": false,
      "stateMutability": "nonpayable",
      "type": "function"
    },
    {
      "constant": false,
      "inputs": [
        {
          "internalType": "bool",
          "name": "_isEpochEndBlock",
          "type": "bool"
        }
      ],
      "name": "reward",
      "outputs": [
        {
          "internalType": "uint256",
          "name": "rewardsNative",
          "type": "uint256"
        }
      ],
      "payable": false,
      "stateMutability": "nonpayable",
      "type": "function"
    },
    {
      "constant": true,
      "inputs": [
        {
          "internalType": "address",
          "name": "_miningAddress",
          "type": "address"
        }
      ],
      "name": "epochsPoolGotRewardFor",
      "outputs": [
        {
          "internalType": "uint256[]",
          "name": "",
          "type": "uint256[]"
        }
      ],
      "payable": false,
      "stateMutability": "view",
      "type": "function"
    },
    {
      "constant": true,
      "inputs": [],
      "name": "isInitialized",
      "outputs": [
        {
          "internalType": "bool",
          "name": "",
          "type": "bool"
        }
      ],
      "payable": false,
      "stateMutability": "view",
      "type": "function"
    },
    {
      "constant": true,
      "inputs": [
        {
          "internalType": "address",
          "name": "_poolStakingAddress",
          "type": "address"
        },
        {
          "internalType": "address",
          "name": "_staker",
          "type": "address"
        }
      ],
      "name": "epochsToClaimRewardFrom",
      "outputs": [
        {
          "internalType": "uint256[]",
          "name": "epochsToClaimFrom",
          "type": "uint256[]"
        }
      ],
      "payable": false,
      "stateMutability": "view",
      "type": "function"
    },
    {
      "constant": true,
      "inputs": [
        {
          "internalType": "address",
          "name": "_stakingAddress",
          "type": "address"
        }
      ],
      "name": "validatorRewardPercent",
      "outputs": [
        {
          "internalType": "uint256",
          "name": "",
          "type": "uint256"
        }
      ],
      "payable": false,
      "stateMutability": "view",
      "type": "function"
    },
    {
      "constant": true,
      "inputs": [
        {
          "internalType": "uint256",
          "name": "_stakingEpoch",
          "type": "uint256"
        },
        {
          "internalType": "uint256",
          "name": "_delegatorStaked",
          "type": "uint256"
        },
        {
          "internalType": "uint256",
          "name": "_validatorStaked",
          "type": "uint256"
        },
        {
          "internalType": "uint256",
          "name": "_totalStaked",
          "type": "uint256"
        },
        {
          "internalType": "uint256",
          "name": "_poolReward",
          "type": "uint256"
        }
      ],
      "name": "delegatorShare",
      "outputs": [
        {
          "internalType": "uint256",
          "name": "",
          "type": "uint256"
        }
      ],
      "payable": false,
      "stateMutability": "view",
      "type": "function"
    },
    {
      "constant": true,
      "inputs": [
        {
          "internalType": "uint256",
          "name": "_stakingEpoch",
          "type": "uint256"
        },
        {
          "internalType": "uint256",
          "name": "_validatorStaked",
          "type": "uint256"
        },
        {
          "internalType": "uint256",
          "name": "_totalStaked",
          "type": "uint256"
        },
        {
          "internalType": "uint256",
          "name": "_poolReward",
          "type": "uint256"
        }
      ],
      "name": "validatorShare",
      "outputs": [
        {
          "internalType": "uint256",
          "name": "",
          "type": "uint256"
        }
      ],
      "payable": false,
      "stateMutability": "view",
      "type": "function"
    }
  ],
  "bytecode": "0x6080604052603c60075534801561001557600080fd5b506122ba806100256000396000f3fe60806040526004361061019b5760003560e01c806373f12958116100ec578063c4d66de81161008a578063cdf7a09011610064578063cdf7a09014610565578063dd03f5b91461058f578063dfc8bf4e146105c2578063e58edc38146105d75761019b565b8063c4d66de8146104de578063c6cc933314610511578063cb68d1271461053b5761019b565b80639a64ca2c116100c65780639a64ca2c146104a2578063adc481a7146104b7578063af182535146104cc578063b10c7548146104d65761019b565b806373f129581461043c5780638737929a1461045157806391b579861461048d5761019b565b8063392e53cd11610159578063527d8bc411610133578063527d8bc4146103795780635c57a801146103ac5780635fba554e146103c1578063728345db146104035761019b565b8063392e53cd146102b05780633c2c943c146102d95780634de6c036146102ee5761019b565b8062067a84146101a55780630c0d4173146101e35780631274fa09146101f85780631345b8a51461020d57806319cee8971461024657806333d6992114610277575b6008805434019055005b3480156101b157600080fd5b506101d1600480360360208110156101c857600080fd5b503515156105ec565b60408051918252519081900360200190f35b3480156101ef57600080fd5b506101d1610d98565b34801561020457600080fd5b506101d1610d9d565b34801561021957600080fd5b506101d16004803603604081101561023057600080fd5b50803590602001356001600160a01b0316610da3565b34801561025257600080fd5b5061025b610dc0565b604080516001600160a01b039092168252519081900360200190f35b34801561028357600080fd5b506101d16004803603604081101561029a57600080fd5b50803590602001356001600160a01b0316610dcf565b3480156102bc57600080fd5b506102c5610dec565b604080519115158252519081900360200190f35b3480156102e557600080fd5b506101d1610dfd565b3480156102fa57600080fd5b506103296004803603604081101561031157600080fd5b506001600160a01b0381358116916020013516610e03565b60408051602080825283518183015283519192839290830191858101910280838360005b8381101561036557818101518382015260200161034d565b505050509050019250505060405180910390f35b34801561038557600080fd5b506101d16004803603602081101561039c57600080fd5b50356001600160a01b0316611223565b3480156103b857600080fd5b506101d161157b565b3480156103cd57600080fd5b506101d1600480360360a08110156103e457600080fd5b5080359060208101359060408101359060608101359060800135611581565b34801561040f57600080fd5b506101d16004803603604081101561042657600080fd5b50803590602001356001600160a01b0316611613565b34801561044857600080fd5b506101d1611630565b34801561045d57600080fd5b506101d16004803603608081101561047457600080fd5b5080359060208101359060408101359060600135611636565b34801561049957600080fd5b506101d16116b2565b3480156104ae57600080fd5b506101d16116b8565b3480156104c357600080fd5b506101d16116be565b6104d46116c4565b005b6104d46116ce565b3480156104ea57600080fd5b506104d46004803603602081101561050157600080fd5b50356001600160a01b03166116d8565b34801561051d57600080fd5b506104d46004803603602081101561053457600080fd5b5035611893565b34801561054757600080fd5b506104d46004803603602081101561055e57600080fd5b5035611941565b34801561057157600080fd5b506101d16004803603602081101561058857600080fd5b50356119ef565b34801561059b57600080fd5b50610329600480360360208110156105b257600080fd5b50356001600160a01b0316611a01565b3480156105ce57600080fd5b5061025b611a6b565b3480156105e357600080fd5b506101d1611a7a565b60006002600160a01b03331461060157600080fd5b600a5460408051633ba6481760e21b815290516000926001600160a01b03169163ee99205c916004808301926020929190829003018186803b15801561064657600080fd5b505afa15801561065a573d6000803e3d6000fd5b505050506040513d602081101561067057600080fd5b505190508215610a3e576000816001600160a01b031663794c0c686040518163ffffffff1660e01b815260040160206040518083038186803b1580156106b557600080fd5b505afa1580156106c9573d6000803e3d6000fd5b505050506040513d60208110156106df57600080fd5b50519050600081156106f7576106f482611a81565b90505b6000808360010190506060600a60009054906101000a90046001600160a01b03166001600160a01b031663eebc7a396040518163ffffffff1660e01b815260040160006040518083038186803b15801561075057600080fd5b505afa158015610764573d6000803e3d6000fd5b505050506040513d6000823e601f3d908101601f19168201604052602081101561078d57600080fd5b8101908080516040519392919084600160201b8211156107ac57600080fd5b9083019060208201858111156107c157600080fd5b82518660208202830111600160201b821117156107dd57600080fd5b82525081516020918201928201910280838360005b8381101561080a5781810151838201526020016107f2565b505050509050016040525050509050600092505b805183101561085057610845868383868151811061083857fe5b6020026020010151611f8e565b60019092019161081e565b600a60009054906101000a90046001600160a01b03166001600160a01b031663b7ab4db56040518163ffffffff1660e01b815260040160006040518083038186803b15801561089e57600080fd5b505afa1580156108b2573d6000803e3d6000fd5b505050506040513d6000823e601f3d908101601f1916820160405260208110156108db57600080fd5b8101908080516040519392919084600160201b8211156108fa57600080fd5b90830190602082018581111561090f57600080fd5b82518660208202830111600160201b8211171561092b57600080fd5b82525081516020918201928201910280838360005b83811015610958578181015183820152602001610940565b505050509050016040525050509050600092505b805183101561099157610986868383868151811061083857fe5b60019092019161096c565b600082815260056020526040808220601e9055600a548151637528621160e01b815291516001600160a01b03909116926375286211926004808201939182900301818387803b1580156109e357600080fd5b505af11580156109f7573d6000803e3d6000fd5b50506040805187815290517ff32b9551d3414b67f8e66e20ac15e62694b9d1230abb2e2e48f9dc2e1964c4299350908190036020019150a160009650505050505050610d93565b6000816001600160a01b031663c6912cc06040518163ffffffff1660e01b815260040160206040518083038186803b158015610a7957600080fd5b505afa158015610a8d573d6000803e3d6000fd5b505050506040513d6020811015610aa357600080fd5b5051600a5460408051636c9230db60e01b815290519293506000926001600160a01b0390921691636c9230db91600480820192602092909190829003018186803b158015610af057600080fd5b505afa158015610b04573d6000803e3d6000fd5b505050506040513d6020811015610b1a57600080fd5b505190506000828210801590610c455750600a60009054906101000a90046001600160a01b03166001600160a01b031663eebc7a396040518163ffffffff1660e01b815260040160006040518083038186803b158015610b7957600080fd5b505afa158015610b8d573d6000803e3d6000fd5b505050506040513d6000823e601f3d908101601f191682016040526020811015610bb657600080fd5b8101908080516040519392919084600160201b821115610bd557600080fd5b908301906020820185811115610bea57600080fd5b82518660208202830111600160201b82111715610c0657600080fd5b82525081516020918201928201910280838360005b83811015610c33578181015183820152602001610c1b565b50505050905001604052505050516000145b90508015610cba57600a60009054906101000a90046001600160a01b03166001600160a01b0316635ccee1de6040518163ffffffff1660e01b8152600401600060405180830381600087803b158015610c9d57600080fd5b505af1158015610cb1573d6000803e3d6000fd5b50505050610d8e565b836001600160a01b03166322e3d9866040518163ffffffff1660e01b815260040160206040518083038186803b158015610cf357600080fd5b505afa158015610d07573d6000803e3d6000fd5b505050506040513d6020811015610d1d57600080fd5b50518210610d8e57600a60009054906101000a90046001600160a01b03166001600160a01b031663ade1900a6040518163ffffffff1660e01b8152600401600060405180830381600087803b158015610d7557600080fd5b505af1158015610d89573d6000803e3d6000fd5b505050505b505050505b919050565b601e81565b60095481565b600460209081526000928352604080842090915290825290205481565b600b546001600160a01b031681565b600160209081526000928352604080842090915290825290205481565b600a546001600160a01b0316151590565b600d5481565b600a54604080516253517560e01b81526001600160a01b0385811660048301529151606093600093169162535175916024808301926020929190829003018186803b158015610e5157600080fd5b505afa158015610e65573d6000803e3d6000fd5b505050506040513d6020811015610e7b57600080fd5b5051600a5460408051633ba6481760e21b815290519293506000926001600160a01b039092169163ee99205c91600480820192602092909190829003018186803b158015610ec857600080fd5b505afa158015610edc573d6000803e3d6000fd5b505050506040513d6020811015610ef257600080fd5b505190506001600160a01b038581169085161480159060009081906110335760408051632b2cdba160e11b81526001600160a01b038a811660048301528981166024830152915191861691635659b74291604480820192602092909190829003018186803b158015610f6357600080fd5b505afa158015610f77573d6000803e3d6000fd5b505050506040513d6020811015610f8d57600080fd5b5051915081610fb2575050604080516000815260208101909152935061121d92505050565b6040805163bc9eb2c360e01b81526001600160a01b038a81166004830152898116602483015291519186169163bc9eb2c391604480820192602092909190829003018186803b15801561100457600080fd5b505afa158015611018573d6000803e3d6000fd5b505050506040513d602081101561102e57600080fd5b505190505b6001600160a01b03851660009081526020818152604091829020805483518181528184028101909301909352919060609082801561107b578160200160208202803883390190505b5090506000805b838110156111a557600085828154811061109857fe5b9060005260206000200154905088156110d357878110156110b9575061119d565b8087111580156110c857508615155b156110d357506111a5565b896001600160a01b031663317277308f8f846040518463ffffffff1660e01b815260040180846001600160a01b03166001600160a01b03168152602001836001600160a01b03166001600160a01b03168152602001828152602001935050505060206040518083038186803b15801561114b57600080fd5b505afa15801561115f573d6000803e3d6000fd5b505050506040513d602081101561117557600080fd5b505161119b578084848060010195508151811061118e57fe5b6020026020010181815250505b505b600101611082565b816040519080825280602002602001820160405280156111cf578160200160208202803883390190505b509a50600090505b81811015611212578281815181106111eb57fe5b60200260200101518b82815181106111ff57fe5b60209081029190910101526001016111d7565b505050505050505050505b92915050565b600080600a60009054906101000a90046001600160a01b03166001600160a01b031663ee99205c6040518163ffffffff1660e01b815260040160206040518083038186803b15801561127457600080fd5b505afa158015611288573d6000803e3d6000fd5b505050506040513d602081101561129e57600080fd5b505160408051630f29818d60e31b815290519192506000916001600160a01b0384169163794c0c68916004808301926020929190829003018186803b1580156112e657600080fd5b505afa1580156112fa573d6000803e3d6000fd5b505050506040513d602081101561131057600080fd5b505190508061132457600092505050610d93565b600a54604080516253517560e01b81526001600160a01b038781166004830152915160009392909216916253517591602480820192602092909190829003018186803b15801561137357600080fd5b505afa158015611387573d6000803e3d6000fd5b505050506040513d602081101561139d57600080fd5b5051600a546040805163a0d16cad60e01b81526001600160a01b038085166004830152915193945091169163a0d16cad91602480820192602092909190829003018186803b1580156113ee57600080fd5b505afa158015611402573d6000803e3d6000fd5b505050506040513d602081101561141857600080fd5b5051156114705760008281526004602090815260408083206001600160a01b0385168085529083528184205486855260038452828520918552925290912054611466918491620f4240611636565b9350505050610d93565b6040805163a697ecff60e01b81526001600160a01b0387811660048301819052602483015291516115729285929087169163a697ecff91604480820192602092909190829003018186803b1580156114c757600080fd5b505afa1580156114db573d6000803e3d6000fd5b505050506040513d60208110156114f157600080fd5b505160408051632933f0eb60e11b81526001600160a01b038a81166004830152915191881691635267e1d691602480820192602092909190829003018186803b15801561153d57600080fd5b505afa158015611551573d6000803e3d6000fd5b505050506040513d602081101561156757600080fd5b5051620f4240611636565b95945050505050565b60065481565b600084158061158e575083155b80611597575082155b156115a457506000611572565b600080858510156115b65760006115ba565b8585035b6000898152600560205260409020549091508082026064829003880211156115ef5785888602816115e757fe5b049250611606565b8160640281606403898702028161160257fe5b0492505b5090979650505050505050565b600360209081526000928352604080842090915290825290205481565b60085481565b6000831580611643575082155b15611650575060006116aa565b60008085851015611662576000611666565b8585035b60008881526005602052604090205490915080820260648290038802111561169b57858786028161169357fe5b0492506116a4565b60648582020492505b50909150505b949350505050565b600c5481565b60075481565b60025481565b6008805434019055565b6006805434019055565b6116e0612185565b6001600160a01b0316336001600160a01b031614806117175750611702612185565b6001600160a01b0316326001600160a01b0316145b806117305750611725612185565b6001600160a01b0316155b80611739575043155b6117745760405162461bcd60e51b81526004018080602001828103825260308152602001806121cf6030913960400191505060405180910390fd5b61177c610dec565b156117b85760405162461bcd60e51b81526004018080602001828103825260248152602001806121ab6024913960400191505060405180910390fd5b6001600160a01b038116611813576040805162461bcd60e51b815260206004820152601a60248201527f56616c696461746f72536574206d757374206e6f742062652030000000000000604482015290519081900360640190fd5b600a80546001600160a01b039092166001600160a01b0319928316178155600080526005602052601e7f05b8ccbb9d4d8fb16ea74ce3c29a41f1b461fbdaff4714a0d9a8eb05499746bc556117706007819055600955600b805490921673da0da0da0da0da0da0da00da0da0da0da0da0da0179091556001600c55600d55565b61189b612185565b6001600160a01b0316336001600160a01b0316146118ea5760405162461bcd60e51b815260040180806020018281038252602b81526020018061225b602b913960400191505060405180910390fd5b8061193c576040805162461bcd60e51b815260206004820152601d60248201527f5061796f7574206672616374696f6e206d757374206e6f742062652030000000604482015290519081900360640190fd5b600955565b611949612185565b6001600160a01b0316336001600160a01b0316146119985760405162461bcd60e51b815260040180806020018281038252602b81526020018061225b602b913960400191505060405180910390fd5b806119ea576040805162461bcd60e51b815260206004820152601d60248201527f5061796f7574206672616374696f6e206d757374206e6f742062652030000000604482015290519081900360640190fd5b600755565b60056020526000908152604090205481565b6001600160a01b03811660009081526020818152604091829020805483518184028101840190945280845260609392830182828015611a5f57602002820191906000526020600020905b815481526020019060010190808311611a4b575b50505050509050919050565b600a546001600160a01b031681565b620f424081565b60006060600a60009054906101000a90046001600160a01b03166001600160a01b031663b7ab4db56040518163ffffffff1660e01b815260040160006040518083038186803b158015611ad357600080fd5b505afa158015611ae7573d6000803e3d6000fd5b505050506040513d6000823e601f3d908101601f191682016040526020811015611b1057600080fd5b8101908080516040519392919084600160201b821115611b2f57600080fd5b908301906020820185811115611b4457600080fd5b82518660208202830111600160201b82111715611b6057600080fd5b82525081516020918201928201910280838360005b83811015611b8d578181015183820152602001611b75565b505050509190910160405250508251929350505080611bea576040805162461bcd60e51b8152602060048201526014602482015273115b5c1d1e4815985b1a59185d1bdc881b1a5cdd60621b604482015290519081900360640190fd5b600060075460065481611bf957fe5b04905080600660008282540392505081905550600060095460085481611c1b57fe5b60088054929091049182900390556002549091508282010180611c4657600095505050505050610d93565b6000600d54600c54830281611c5757fe5b600b546040519290910492506001600160a01b03169082156108fc029083906000818181858888f19350505050158015611c95573d6000803e3d6000fd5b5060008183039050606086604051908082528060200260200182016040528015611cc9578160200160208202803883390190505b5090506000805b8951811015611dff57600a548a516001600160a01b039091169063a92252ae908c9084908110611cfc57fe5b60200260200101516040518263ffffffff1660e01b815260040180826001600160a01b03166001600160a01b0316815260200191505060206040518083038186803b158015611d4a57600080fd5b505afa158015611d5e573d6000803e3d6000fd5b505050506040513d6020811015611d7457600080fd5b5051158015611dcd5750600460008d815260200190815260200160002060008b8381518110611d9f57fe5b60200260200101516001600160a01b03166001600160a01b0316815260200190815260200160002054600014155b15611df7576001838281518110611de057fe5b911515602092830291909101909101526001909101905b600101611cd0565b5080611e175760009950505050505050505050610d93565b6000818481611e2257fe5b0490508015611f795760005b89811015611f7757838181518110611e4257fe5b602002602001015115611f6f57600160008e815260200190815260200160002060008c8381518110611e7057fe5b60200260200101516001600160a01b03166001600160a01b0316815260200190815260200160002054600014611ed75760405162461bcd60e51b815260040180806020018281038252605c8152602001806121ff605c913960600191505060405180910390fd5b60008d81526001602052604081208c518492908e9085908110611ef657fe5b60200260200101516001600160a01b03166001600160a01b031681526020019081526020016000208190555081860195506000808c8381518110611f3657fe5b6020908102919091018101516001600160a01b031682528181019290925260400160009081208054600181018255908252919020018d90555b600101611e2e565b505b50505050908190036002559695505050505050565b60008281526003602090815260408083206001600160a01b038516845290915290205415611fbb57612180565b600a54604080516307b9342f60e21b81526001600160a01b03848116600483015291516000939290921691631ee4d0bc91602480820192602092909190829003018186803b15801561200c57600080fd5b505afa158015612020573d6000803e3d6000fd5b505050506040513d602081101561203657600080fd5b505160408051632933f0eb60e11b81526001600160a01b038084166004830152915192935060009291871691635267e1d691602480820192602092909190829003018186803b15801561208857600080fd5b505afa15801561209c573d6000803e3d6000fd5b505050506040513d60208110156120b257600080fd5b50519050806120c2575050612180565b60008481526003602090815260408083206001600160a01b03808816855290835292819020849055805163a697ecff60e01b815285841660048201819052602482015290519288169263a697ecff92604480840193919291829003018186803b15801561212e57600080fd5b505afa158015612142573d6000803e3d6000fd5b505050506040513d602081101561215857600080fd5b505160008581526004602090815260408083206001600160a01b038816845290915290205550505b505050565b7fb53127684a568b3173ae13b9f8a6016e243e63b6e8ee1178d6a717850b5d6103549056fe696e697469616c697a6174696f6e2063616e206f6e6c7920626520646f6e65206f6e6365496e697469616c697a6174696f6e206f6e6c79206f6e2067656e6573697320626c6f636b206f722062792061646d696e63616e74206469737472696275746520726577617264733a20746865726520697320616c7265616479206120706f6f6c2072657761726420646566696e656420666f7220746869732065706f636820616e642076616c696461746f726f6e6c792061646d696e20697320616c6c6f77656420746f2063616c6c20746869732066756e6374696f6ea265627a7a723158203430bccf3c3c50f888f7de5abae15b842b2c54e8e94cbc3283560be7592aedb164736f6c63430005100032",
  "source": "pragma solidity ^0.5.16;\n\nimport \"../interfaces/IBlockRewardHbbft.sol\";\nimport \"../interfaces/IRandomHbbft.sol\";\nimport \"../interfaces/IStakingHbbft.sol\";\nimport \"../interfaces/IValidatorSetHbbft.sol\";\nimport \"../upgradeability/UpgradeableOwned.sol\";\nimport \"../libs/SafeMath.sol\";\n\n\ncontract Sacrifice {\n    constructor(address payable _recipient) public payable {\n        selfdestruct(_recipient);\n    }\n}\n\n\n/// @dev Generates and distributes rewards according to the logic and formulas described in the POSDAO white paper.\ncontract BlockRewardHbbftBase is UpgradeableOwned, IBlockRewardHbbft {\n    using SafeMath for uint256;\n\n    // =============================================== Storage ========================================================\n\n    // WARNING: since this contract is upgradeable, do not remove\n    // existing storage variables and do not change their types!\n\n    mapping(address => uint256[]) internal _epochsPoolGotRewardFor;\n\n    /// @dev The reward amount to be distributed in native coins among participants (the validator and their\n    /// delegators) of the specified pool (mining address) for the specified staking epoch.\n    mapping(uint256 => mapping(address => uint256)) public epochPoolNativeReward;\n\n    /// @dev The total reward amount in native coins which is not yet distributed among pools.\n    uint256 public nativeRewardUndistributed;\n\n    /// @dev The total amount staked into the specified pool (mining address)\n    /// before the specified staking epoch. Filled by the `_snapshotPoolStakeAmounts` function.\n    mapping(uint256 => mapping(address => uint256)) public snapshotPoolTotalStakeAmount;\n\n    /// @dev The validator's amount staked into the specified pool (mining address)\n    /// before the specified staking epoch. Filled by the `_snapshotPoolStakeAmounts` function.\n    mapping(uint256 => mapping(address => uint256)) public snapshotPoolValidatorStakeAmount;\n\n    /// @dev The validator's min reward percent which was actual at the specified staking epoch.\n    /// This percent is taken from the VALIDATOR_MIN_REWARD_PERCENT constant and saved for every staking epoch\n    /// by the `reward` function. Used by the `delegatorShare` and `validatorShare` public getters.\n    /// This is needed to have an ability to change validator's min reward percent in the VALIDATOR_MIN_REWARD_PERCENT\n    /// constant by upgrading the contract.\n    mapping(uint256 => uint256) public validatorMinRewardPercent;\n\n    /// @dev the Delta Pool holds all coins that never got emitted, since the maximum supply is 4,380,000\n    uint256 public deltaPot;\n\n    /// @dev each epoch reward, one Fraction of the delta pool gets payed out.\n    /// the number is the divisor of the fraction. 60 means 1/60 of the delta pool gets payed out.\n    uint256 public deltaPotPayoutFraction = 60;\n\n\n    /// @dev the reinsertPot holds all coins that are designed for getting reinserted into the coin circulation.\n    /// sources are:\n    /// \n    uint256 public reinsertPot;\n\n    /// @dev each epoch reward, one Fraction of the reinsert pool gets payed out.\n    /// the number is the divisor of the fraction. 60 means 1/60 of the reinsert pool gets payed out.\n    uint256 public reinsertPotPayoutFraction;\n\n    /// @dev The address of the `ValidatorSet` contract.\n    IValidatorSetHbbft public validatorSetContract;\n\n    /// @dev parts of the epoch reward get forwarded to a governance fund\n    /// just a dummy function for now.\n    address payable public governancePotAddress;\n\n    uint256 public governancePotShareNominator;\n    uint256 public governancePotShareDenominator;\n\n    uint256 public constant VALIDATOR_MIN_REWARD_PERCENT = 30; // 30%\n    uint256 public constant REWARD_PERCENT_MULTIPLIER = 1000000;\n\n\n    // ================================================ Events ========================================================\n\n    /// @dev Emitted by the `reward` function.\n    /// @param rewards The amount minted and distributed among the validators.\n    event CoinsRewarded(uint256 rewards);\n\n    // ============================================== Modifiers =======================================================\n\n    /// @dev Ensures the `initialize` function was called before.\n    modifier onlyInitialized {\n        require(isInitialized());\n        _;\n    }\n\n    /// @dev Ensures the caller is the SYSTEM_ADDRESS. See https://wiki.parity.io/Block-Reward-Contract.html\n    modifier onlySystem {\n        require(msg.sender == 0xffffFFFfFFffffffffffffffFfFFFfffFFFfFFfE);\n        _;\n    }\n\n    /// @dev Ensures the caller is the StakingHbbft contract address.\n    modifier onlyStakingContract() {\n        require(msg.sender == address(validatorSetContract.stakingContract()));\n        _;\n    }\n\n    /// @dev Ensures the caller is the ValidatorSetHbbft contract address.\n    modifier onlyValidatorSetContract() {\n        require(msg.sender == address(validatorSetContract));\n        _;\n    }\n\n    // =============================================== Setters ========================================================\n\n    /// @dev Fallback function. Prevents direct sending native coins to this contract.\n    function () payable external {\n        reinsertPot += msg.value;\n    }\n\n    /// @dev Initializes the contract at network startup.\n    /// Can only be called by the constructor of the `InitializerHbbft` contract or owner.\n    /// @param _validatorSet The address of the `ValidatorSetHbbft` contract.\n    function initialize(address _validatorSet) external {\n        require(msg.sender == _admin() || tx.origin ==  _admin() || address(0) ==  _admin() || block.number == 0,\n            \"Initialization only on genesis block or by admin\");\n        require(!isInitialized(), \"initialization can only be done once\");\n        require(_validatorSet != address(0), \"ValidatorSet must not be 0\");\n        validatorSetContract = IValidatorSetHbbft(_validatorSet);\n        validatorMinRewardPercent[0] = VALIDATOR_MIN_REWARD_PERCENT;\n\n        deltaPotPayoutFraction = 6000;\n        reinsertPotPayoutFraction = 6000;\n        governancePotAddress = 0xDA0da0da0Da0Da0Da0DA00DA0da0da0DA0DA0dA0;\n        governancePotShareNominator = 1;\n        governancePotShareDenominator = 10;\n    }\n\n    function addToDeltaPot()\n    external\n    payable {\n        deltaPot += msg.value;\n    }\n\n    function addToReinsertPot()\n    external\n    payable {\n        reinsertPot += msg.value;\n    }\n\n    function setdeltaPotPayoutFraction(uint256 _value)\n    external \n    onlyOwner {\n        require(_value != 0, \"Payout fraction must not be 0\");\n        deltaPotPayoutFraction = _value;\n    }\n\n    function setReinsertPotPayoutFraction(uint256 _value)\n    external     \n    onlyOwner {\n        require(_value != 0, \"Payout fraction must not be 0\");\n        reinsertPotPayoutFraction = _value;\n    }\n\n    /// @dev Called by the engine when producing and closing a block,\n    /// see https://wiki.parity.io/Block-Reward-Contract.html.\n    /// This function performs all of the automatic operations needed for accumulating block producing statistics,\n    /// starting a new staking epoch, snapshotting staking amounts for the upcoming staking epoch,\n    /// and rewards distributing at the end of a staking epoch.\n    /// @param _isEpochEndBlock Indicates if this is the last block of the current epoch i.e.\n    /// just before the pending validators are fiinalized.\n    function reward(bool _isEpochEndBlock)\n    external\n    onlySystem\n    returns(uint256 rewardsNative)\n    {\n        IStakingHbbft stakingContract = IStakingHbbft(validatorSetContract.stakingContract());\n        // If this is the last block of the epoch i.e. master key has been generated.\n\n        if (_isEpochEndBlock) {\n\n            \n            uint256 stakingEpoch = stakingContract.stakingEpoch();\n\n            uint256 nativeTotalRewardAmount;\n            // Distribute rewards among validator pools\n            if (stakingEpoch != 0) {\n                nativeTotalRewardAmount = _distributeRewards(stakingEpoch);\n            }\n\n            // Snapshot total amounts staked into the pools\n            uint256 i;\n            uint256 nextStakingEpoch = stakingEpoch + 1;\n            address[] memory miningAddresses;\n            \n            // We need to remember the total staked amounts for the pending addresses\n            // for when these pending addresses are finalized by `ValidatorSetHbbft.finalizeChange()`.\n            miningAddresses = validatorSetContract.getPendingValidators();\n            for (i = 0; i < miningAddresses.length; i++) {\n                _snapshotPoolStakeAmounts(stakingContract, nextStakingEpoch, miningAddresses[i]);\n            }\n\n            // We need to remember the total staked amounts for the current validators\n            // for the possible case when these validators continue to be validators\n            // throughout the upcoming staking epoch (if the new validator set is not finalized\n            // for some reason)\n            miningAddresses = validatorSetContract.getValidators();\n            for (i = 0; i < miningAddresses.length; i++) {\n                _snapshotPoolStakeAmounts(stakingContract, nextStakingEpoch, miningAddresses[i]);\n            }\n            // Remember validator's min reward percent for the upcoming staking epoch\n            validatorMinRewardPercent[nextStakingEpoch] = VALIDATOR_MIN_REWARD_PERCENT;\n\n            // the rewards got distributed, \n            // we now can finalize the epoch and start with a new one.\n            validatorSetContract.finalizeChange();\n\n            emit CoinsRewarded(nativeTotalRewardAmount);\n            return 0;\n\n        } else {\n\n            uint256 phaseTransitionTime = stakingContract.startTimeOfNextPhaseTransition();\n            uint256 currentTimestamp = validatorSetContract.getCurrentTimestamp();\n\n            \n            //we are in a transition to phase 2 if the time for it arrived,\n            // and we do not have pendingValidators yet.\n            bool isPhaseTransition = \n                currentTimestamp >= phaseTransitionTime \n                && validatorSetContract.getPendingValidators().length == 0;\n\n            if (isPhaseTransition) {\n                // Choose new validators\n                validatorSetContract.newValidatorSet();\n            } else {\n\n                if (currentTimestamp >= stakingContract.stakingFixedEpochEndTime() ) {\n                    validatorSetContract.handleFailedKeyGeneration();\n                }\n            }\n        }\n    }\n\n    // =============================================== Getters ========================================================\n    /// @dev Returns an array of epoch numbers for which the specified pool (mining address)\n    /// got a non-zero reward.\n    function epochsPoolGotRewardFor(address _miningAddress)\n    public\n    view\n    returns(uint256[] memory) {\n        return _epochsPoolGotRewardFor[_miningAddress];\n    }\n\n    /// @dev Returns a boolean flag indicating if the `initialize` function has been called.\n    function isInitialized()\n    public\n    view\n    returns(bool) {\n        return validatorSetContract != IValidatorSetHbbft(0);\n    }\n\n    /// @dev Returns an array of epoch numbers for which the specified staker\n    /// can claim a reward from the specified pool by the `StakingHbbft.claimReward` function.\n    /// @param _poolStakingAddress The pool staking address.\n    /// @param _staker The staker's address (delegator or candidate/validator).\n    function epochsToClaimRewardFrom(\n        address _poolStakingAddress,\n        address _staker\n    )\n    public\n    view\n    returns(uint256[] memory epochsToClaimFrom) {\n        address miningAddress = validatorSetContract.miningByStakingAddress(_poolStakingAddress);\n        IStakingHbbft stakingContract = IStakingHbbft(validatorSetContract.stakingContract());\n        bool isDelegator = _poolStakingAddress != _staker;\n        uint256 firstEpoch;\n        uint256 lastEpoch;\n\n        if (isDelegator) {\n            firstEpoch = stakingContract.stakeFirstEpoch(_poolStakingAddress, _staker);\n            if (firstEpoch == 0) {\n                return (new uint256[](0));\n            }\n            lastEpoch = stakingContract.stakeLastEpoch(_poolStakingAddress, _staker);\n        }\n\n        uint256[] storage epochs = _epochsPoolGotRewardFor[miningAddress];\n        uint256 length = epochs.length;\n\n        uint256[] memory tmp = new uint256[](length);\n        uint256 tmpLength = 0;\n        uint256 i;\n\n        for (i = 0; i < length; i++) {\n            uint256 epoch = epochs[i];\n            if (isDelegator) {\n                if (epoch < firstEpoch) {\n                    // If the delegator staked for the first time before\n                    // the `epoch`, skip this staking epoch\n                    continue;\n                }\n                if (lastEpoch <= epoch && lastEpoch != 0) {\n                    // If the delegator withdrew all their stake before the `epoch`,\n                    // don't check this and following epochs since it makes no sense\n                    break;\n                }\n            }\n            if (!stakingContract.rewardWasTaken(_poolStakingAddress, _staker, epoch)) {\n                tmp[tmpLength++] = epoch;\n            }\n        }\n\n        epochsToClaimFrom = new uint256[](tmpLength);\n        for (i = 0; i < tmpLength; i++) {\n            epochsToClaimFrom[i] = tmp[i];\n        }\n    }\n\n    /// @dev Returns the reward coefficient for the specified validator. The given value should be divided by 10000\n    /// to get the value of the reward percent (since EVM doesn't support floating values). If the specified staking\n    /// address is an address of a candidate that is not about to be a validator in the upcoming staking epoch\n    /// the potentially possible reward coefficient is returned.\n    /// @param _stakingAddress The staking address of the validator/candidate\n    /// pool for which the getter must return the coefficient.\n    function validatorRewardPercent(address _stakingAddress)\n    public\n    view\n    returns(uint256) {\n        IStakingHbbft stakingContract = IStakingHbbft(validatorSetContract.stakingContract());\n        uint256 stakingEpoch = stakingContract.stakingEpoch();\n\n        if (stakingEpoch == 0) {\n            // No one gets a reward for the initial staking epoch, so we return zero.\n            return 0;\n        }\n\n        address miningAddress = validatorSetContract.miningByStakingAddress(_stakingAddress);\n\n        if (validatorSetContract.isValidatorOrPending(miningAddress)) {\n            // For the validator or  the candidate that is about to be a validator in the upcoming epoch...\n            // ...we return the coefficient based on snapshotted total amounts.\n            return validatorShare(\n                stakingEpoch,\n                snapshotPoolValidatorStakeAmount[stakingEpoch][miningAddress],\n                snapshotPoolTotalStakeAmount[stakingEpoch][miningAddress],\n                REWARD_PERCENT_MULTIPLIER\n            );\n        }\n\n        // For a pool that is neither a validator not a pending one,\n        // we return the potentially possible reward coefficient\n        return validatorShare(\n            stakingEpoch,\n            stakingContract.stakeAmount(_stakingAddress, _stakingAddress),\n            stakingContract.stakeAmountTotal(_stakingAddress),\n            REWARD_PERCENT_MULTIPLIER\n        );\n    }\n\n    /// @dev Calculates delegator's share for the given pool reward amount and the specified staking epoch.\n    /// Used by the `StakingHbbft.claimReward` function.\n    /// @param _stakingEpoch The number of staking epoch.\n    /// @param _delegatorStaked The amount staked by a delegator.\n    /// @param _validatorStaked The amount staked by a validator.\n    /// @param _totalStaked The total amount staked by a validator and their delegators.\n    /// @param _poolReward The value of pool reward.\n    function delegatorShare(\n        uint256 _stakingEpoch,\n        uint256 _delegatorStaked,\n        uint256 _validatorStaked,\n        uint256 _totalStaked,\n        uint256 _poolReward\n    )\n    public\n    view\n    returns(uint256) {\n        if (_delegatorStaked == 0 || _validatorStaked == 0 || _totalStaked == 0) {\n            return 0;\n        }\n        uint256 share = 0;\n        uint256 delegatorsStaked = _totalStaked >= _validatorStaked ? _totalStaked - _validatorStaked : 0;\n        uint256 validatorMinPercent = validatorMinRewardPercent[_stakingEpoch];\n        if (_validatorStaked * (100 - validatorMinPercent) > delegatorsStaked * validatorMinPercent) {\n            // Validator has more than validatorMinPercent %\n            share = _poolReward * _delegatorStaked / _totalStaked;\n        } else {\n            // Validator has validatorMinPercent %\n            share = _poolReward * _delegatorStaked * (100 - validatorMinPercent) / (delegatorsStaked * 100);\n        }\n        return share;\n    }\n\n    /// @dev Calculates validator's share for the given pool reward amount and the specified staking epoch.\n    /// Used by the `validatorRewardPercent` and `StakingHbbft.claimReward` functions.\n    /// @param _stakingEpoch The number of staking epoch.\n    /// @param _validatorStaked The amount staked by a validator.\n    /// @param _totalStaked The total amount staked by a validator and their delegators.\n    /// @param _poolReward The value of pool reward.\n    function validatorShare(\n        uint256 _stakingEpoch,\n        uint256 _validatorStaked,\n        uint256 _totalStaked,\n        uint256 _poolReward\n    )\n    public\n    view\n    returns(uint256) {\n        if (_validatorStaked == 0 || _totalStaked == 0) {\n            return 0;\n        }\n        uint256 share = 0;\n        uint256 delegatorsStaked = _totalStaked >= _validatorStaked ? _totalStaked - _validatorStaked : 0;\n        uint256 validatorMinPercent = validatorMinRewardPercent[_stakingEpoch];\n        if (_validatorStaked * (100 - validatorMinPercent) > delegatorsStaked * validatorMinPercent) {\n            // Validator has more than validatorMinPercent %\n            share = _poolReward * _validatorStaked / _totalStaked;\n        } else {\n            // Validator has validatorMinPercent %\n            share = _poolReward * validatorMinPercent / 100;\n        }\n        return share;\n    }\n\n    // ============================================== Internal ========================================================\n\n\n    /// @dev Distributes rewards among pools at the latest block of a staking epoch.\n    /// This function is called by the `reward` function.\n    /// @param _stakingEpoch The number of the current staking epoch.\n    /// @return Returns the reward amount in native coins needed to be minted\n    /// and accrued to the balance of this contract.\n    function _distributeRewards(uint256 _stakingEpoch)\n    internal\n    returns(uint256) {\n        \n        address[] memory validators = validatorSetContract.getValidators();\n\n        uint256 numValidators = validators.length;\n        require(numValidators != 0, \"Empty Validator list\");\n\n        uint256 deltaPotShare = deltaPot / deltaPotPayoutFraction;\n        deltaPot -= deltaPotShare;\n\n        // we could reuse the deltaPotShare variable here, to combat the \"stack to deep\" problem.\n        uint256 reinsertPotShare = reinsertPot / reinsertPotPayoutFraction;\n        reinsertPot -= reinsertPotShare;\n\n        uint256 totalReward = deltaPotShare + reinsertPotShare + nativeRewardUndistributed;\n\n        if (totalReward == 0) {\n            return 0;\n        }\n        \n        // we calculate the governance share here, and store it in the distributeAmount variable.\n        // the distributedAmount variable is later resused to track all distributed shares \n        // in order to handle division results in a correct way.\n        // we can not write clean code here, because of EVMs restriction to use only 16 local variables.\n        uint256 distributedAmount = totalReward * governancePotShareNominator / governancePotShareDenominator;\n    \n        governancePotAddress.transfer(distributedAmount);\n\n        uint256 rewardToDistribute = totalReward - distributedAmount;\n\n        // Indicates whether the validator is entitled to share the rewartds or not.\n        bool[] memory isRewardedValidator = new bool[](numValidators);\n        // Number of validators that are being rewarded.\n        uint256 numRewardedValidators;\n\n        for (uint256 i = 0; i < validators.length; i++) {\n            if (\n                !validatorSetContract.isValidatorBanned(validators[i]) &&\n                snapshotPoolValidatorStakeAmount[_stakingEpoch][validators[i]] != 0\n            ) {\n                isRewardedValidator[i] = true;\n                numRewardedValidators++;\n            }\n        }\n\n        // No rewards distributed in this epoch\n        if (numRewardedValidators == 0){\n            return 0;\n        }\n\n        // Share the reward equally among the validators.\n        uint256 poolReward = rewardToDistribute / numRewardedValidators;\n\n        if (poolReward != 0) {\n            for (uint256 i = 0; i < numValidators; i++) {\n                if (isRewardedValidator[i]){\n                    //DEBUG: this require has been added for debug reasons.\n                    require(epochPoolNativeReward[_stakingEpoch][validators[i]] == 0, \n                        'cant distribute rewards: there is already a pool reward defined for this epoch and validator');\n                    epochPoolNativeReward[_stakingEpoch][validators[i]] = poolReward;\n                    \n                    distributedAmount += poolReward;\n\n                    _epochsPoolGotRewardFor[validators[i]].push(_stakingEpoch);\n                }\n            }\n        }\n\n        nativeRewardUndistributed = totalReward - distributedAmount;\n\n        return distributedAmount;\n        \n    }\n\n    /// @dev Makes snapshots of total amount staked into the specified pool\n    /// before the specified staking epoch. Used by the `reward` function.\n    /// @param _stakingContract The address of the `StakingHbbft` contract.\n    /// @param _stakingEpoch The number of upcoming staking epoch.\n    /// @param _miningAddress The mining address of the pool.\n    function _snapshotPoolStakeAmounts(\n        IStakingHbbft _stakingContract,\n        uint256 _stakingEpoch,\n        address _miningAddress\n    )\n    internal {\n        if (snapshotPoolTotalStakeAmount[_stakingEpoch][_miningAddress] != 0) {\n            return;\n        }\n        address stakingAddress = validatorSetContract.stakingByMiningAddress(_miningAddress);\n        uint256 totalAmount = _stakingContract.stakeAmountTotal(stakingAddress);\n        if (totalAmount == 0) {\n            return;\n        }\n        snapshotPoolTotalStakeAmount[_stakingEpoch][_miningAddress] = totalAmount;\n        snapshotPoolValidatorStakeAmount[_stakingEpoch][_miningAddress] =\n            _stakingContract.stakeAmount(stakingAddress, stakingAddress);\n    }\n\n    /// @dev Called by the `transferReward` of a child contract to transfer native coins\n    /// from the balance of the `BlockRewardHbbft` contract to the specified address as a reward.\n    /// @param _amount The amount of native coins to transfer as a reward.\n    /// @param _to The target address to transfer the amounts to.\n    function _transferNativeReward(uint256 _amount, address payable _to)\n    internal {\n        if (_amount != 0 && !_to.send(_amount)) {\n            // We use the `Sacrifice` trick to be sure the coins can be 100% sent to the receiver.\n            // Otherwise, if the receiver is a contract which has a revert in its fallback function,\n            // the sending will fail.\n            (new Sacrifice).value(_amount)(_to);\n        }\n    }\n}\n",
  "sourcePath": "/home/sn/dmd/dmd-meta/hbbft-posdao-contracts/contracts/base/BlockRewardHbbftBase.sol",
  "compiler": {
    "name": "solc",
    "version": "0.5.16+commit.9c3226ce.Emscripten.clang"
  },
  "schemaVersion": "3.3.1",
  "updatedAt": "2021-02-04T17:05:50.524Z",
  "devdoc": {
    "details": "Generates and distributes rewards according to the logic and formulas described in the POSDAO white paper.",
    "methods": {
      "delegatorShare(uint256,uint256,uint256,uint256,uint256)": {
        "details": "Calculates delegator's share for the given pool reward amount and the specified staking epoch. Used by the `StakingHbbft.claimReward` function.",
        "params": {
          "_delegatorStaked": "The amount staked by a delegator.",
          "_poolReward": "The value of pool reward.",
          "_stakingEpoch": "The number of staking epoch.",
          "_totalStaked": "The total amount staked by a validator and their delegators.",
          "_validatorStaked": "The amount staked by a validator."
        }
      },
      "epochsPoolGotRewardFor(address)": {
        "details": "Returns an array of epoch numbers for which the specified pool (mining address) got a non-zero reward."
      },
      "epochsToClaimRewardFrom(address,address)": {
        "details": "Returns an array of epoch numbers for which the specified staker can claim a reward from the specified pool by the `StakingHbbft.claimReward` function.",
        "params": {
          "_poolStakingAddress": "The pool staking address.",
          "_staker": "The staker's address (delegator or candidate/validator)."
        }
      },
      "initialize(address)": {
        "details": "Initializes the contract at network startup. Can only be called by the constructor of the `InitializerHbbft` contract or owner.",
        "params": {
          "_validatorSet": "The address of the `ValidatorSetHbbft` contract."
        }
      },
      "isInitialized()": {
        "details": "Returns a boolean flag indicating if the `initialize` function has been called."
      },
      "reward(bool)": {
        "details": "Called by the engine when producing and closing a block, see https://wiki.parity.io/Block-Reward-Contract.html. This function performs all of the automatic operations needed for accumulating block producing statistics, starting a new staking epoch, snapshotting staking amounts for the upcoming staking epoch, and rewards distributing at the end of a staking epoch.",
        "params": {
          "_isEpochEndBlock": "Indicates if this is the last block of the current epoch i.e. just before the pending validators are fiinalized."
        }
      },
      "validatorRewardPercent(address)": {
        "details": "Returns the reward coefficient for the specified validator. The given value should be divided by 10000 to get the value of the reward percent (since EVM doesn't support floating values). If the specified staking address is an address of a candidate that is not about to be a validator in the upcoming staking epoch the potentially possible reward coefficient is returned.",
        "params": {
          "_stakingAddress": "The staking address of the validator/candidate pool for which the getter must return the coefficient."
        }
      },
      "validatorShare(uint256,uint256,uint256,uint256)": {
        "details": "Calculates validator's share for the given pool reward amount and the specified staking epoch. Used by the `validatorRewardPercent` and `StakingHbbft.claimReward` functions.",
        "params": {
          "_poolReward": "The value of pool reward.",
          "_stakingEpoch": "The number of staking epoch.",
          "_totalStaked": "The total amount staked by a validator and their delegators.",
          "_validatorStaked": "The amount staked by a validator."
        }
      }
    }
  },
  "userdoc": {
    "methods": {}
  }
}