{
  "contractName": "BlockRewardHbbftCoinsMock",
  "abi": [
    {
      "anonymous": false,
      "inputs": [
        {
          "indexed": false,
          "internalType": "uint256",
          "name": "rewards",
          "type": "uint256"
        }
      ],
      "name": "CoinsRewarded",
      "type": "event"
    },
    {
      "payable": true,
      "stateMutability": "payable",
      "type": "fallback"
    },
    {
      "constant": true,
      "inputs": [],
      "name": "REWARD_PERCENT_MULTIPLIER",
      "outputs": [
        {
          "internalType": "uint256",
          "name": "",
          "type": "uint256"
        }
      ],
      "payable": false,
      "stateMutability": "view",
      "type": "function"
    },
    {
      "constant": true,
      "inputs": [],
      "name": "VALIDATOR_MIN_REWARD_PERCENT",
      "outputs": [
        {
          "internalType": "uint256",
          "name": "",
          "type": "uint256"
        }
      ],
      "payable": false,
      "stateMutability": "view",
      "type": "function"
    },
    {
      "constant": false,
      "inputs": [],
      "name": "addToDeltaPot",
      "outputs": [],
      "payable": true,
      "stateMutability": "payable",
      "type": "function"
    },
    {
      "constant": false,
      "inputs": [],
      "name": "addToReinsertPot",
      "outputs": [],
      "payable": true,
      "stateMutability": "payable",
      "type": "function"
    },
    {
      "constant": true,
      "inputs": [
        {
          "internalType": "uint256",
          "name": "_stakingEpoch",
          "type": "uint256"
        },
        {
          "internalType": "uint256",
          "name": "_delegatorStaked",
          "type": "uint256"
        },
        {
          "internalType": "uint256",
          "name": "_validatorStaked",
          "type": "uint256"
        },
        {
          "internalType": "uint256",
          "name": "_totalStaked",
          "type": "uint256"
        },
        {
          "internalType": "uint256",
          "name": "_poolReward",
          "type": "uint256"
        }
      ],
      "name": "delegatorShare",
      "outputs": [
        {
          "internalType": "uint256",
          "name": "",
          "type": "uint256"
        }
      ],
      "payable": false,
      "stateMutability": "view",
      "type": "function"
    },
    {
      "constant": true,
      "inputs": [],
      "name": "deltaPot",
      "outputs": [
        {
          "internalType": "uint256",
          "name": "",
          "type": "uint256"
        }
      ],
      "payable": false,
      "stateMutability": "view",
      "type": "function"
    },
    {
      "constant": true,
      "inputs": [],
      "name": "deltaPotPayoutFraction",
      "outputs": [
        {
          "internalType": "uint256",
          "name": "",
          "type": "uint256"
        }
      ],
      "payable": false,
      "stateMutability": "view",
      "type": "function"
    },
    {
      "constant": true,
      "inputs": [
        {
          "internalType": "uint256",
          "name": "",
          "type": "uint256"
        },
        {
          "internalType": "address",
          "name": "",
          "type": "address"
        }
      ],
      "name": "epochPoolNativeReward",
      "outputs": [
        {
          "internalType": "uint256",
          "name": "",
          "type": "uint256"
        }
      ],
      "payable": false,
      "stateMutability": "view",
      "type": "function"
    },
    {
      "constant": true,
      "inputs": [
        {
          "internalType": "address",
          "name": "_miningAddress",
          "type": "address"
        }
      ],
      "name": "epochsPoolGotRewardFor",
      "outputs": [
        {
          "internalType": "uint256[]",
          "name": "",
          "type": "uint256[]"
        }
      ],
      "payable": false,
      "stateMutability": "view",
      "type": "function"
    },
    {
      "constant": true,
      "inputs": [
        {
          "internalType": "address",
          "name": "_poolStakingAddress",
          "type": "address"
        },
        {
          "internalType": "address",
          "name": "_staker",
          "type": "address"
        }
      ],
      "name": "epochsToClaimRewardFrom",
      "outputs": [
        {
          "internalType": "uint256[]",
          "name": "epochsToClaimFrom",
          "type": "uint256[]"
        }
      ],
      "payable": false,
      "stateMutability": "view",
      "type": "function"
    },
    {
      "constant": true,
      "inputs": [
        {
          "internalType": "uint256",
          "name": "_delegatorStake",
          "type": "uint256"
        },
        {
          "internalType": "uint256",
          "name": "_stakingEpoch",
          "type": "uint256"
        },
        {
          "internalType": "address",
          "name": "_poolMiningAddress",
          "type": "address"
        }
      ],
      "name": "getDelegatorReward",
      "outputs": [
        {
          "internalType": "uint256",
          "name": "nativeReward",
          "type": "uint256"
        }
      ],
      "payable": false,
      "stateMutability": "view",
      "type": "function"
    },
    {
      "constant": true,
      "inputs": [
        {
          "internalType": "uint256",
          "name": "_stakingEpoch",
          "type": "uint256"
        },
        {
          "internalType": "address",
          "name": "_poolMiningAddress",
          "type": "address"
        }
      ],
      "name": "getValidatorReward",
      "outputs": [
        {
          "internalType": "uint256",
          "name": "nativeReward",
          "type": "uint256"
        }
      ],
      "payable": false,
      "stateMutability": "view",
      "type": "function"
    },
    {
      "constant": true,
      "inputs": [],
      "name": "governancePotAddress",
      "outputs": [
        {
          "internalType": "address payable",
          "name": "",
          "type": "address"
        }
      ],
      "payable": false,
      "stateMutability": "view",
      "type": "function"
    },
    {
      "constant": true,
      "inputs": [],
      "name": "governancePotShareDenominator",
      "outputs": [
        {
          "internalType": "uint256",
          "name": "",
          "type": "uint256"
        }
      ],
      "payable": false,
      "stateMutability": "view",
      "type": "function"
    },
    {
      "constant": true,
      "inputs": [],
      "name": "governancePotShareNominator",
      "outputs": [
        {
          "internalType": "uint256",
          "name": "",
          "type": "uint256"
        }
      ],
      "payable": false,
      "stateMutability": "view",
      "type": "function"
    },
    {
      "constant": false,
      "inputs": [
        {
          "internalType": "address",
          "name": "_validatorSet",
          "type": "address"
        }
      ],
      "name": "initialize",
      "outputs": [],
      "payable": false,
      "stateMutability": "nonpayable",
      "type": "function"
    },
    {
      "constant": true,
      "inputs": [],
      "name": "isInitialized",
      "outputs": [
        {
          "internalType": "bool",
          "name": "",
          "type": "bool"
        }
      ],
      "payable": false,
      "stateMutability": "view",
      "type": "function"
    },
    {
      "constant": true,
      "inputs": [],
      "name": "nativeRewardUndistributed",
      "outputs": [
        {
          "internalType": "uint256",
          "name": "",
          "type": "uint256"
        }
      ],
      "payable": false,
      "stateMutability": "view",
      "type": "function"
    },
    {
      "constant": true,
      "inputs": [],
      "name": "reinsertPot",
      "outputs": [
        {
          "internalType": "uint256",
          "name": "",
          "type": "uint256"
        }
      ],
      "payable": false,
      "stateMutability": "view",
      "type": "function"
    },
    {
      "constant": true,
      "inputs": [],
      "name": "reinsertPotPayoutFraction",
      "outputs": [
        {
          "internalType": "uint256",
          "name": "",
          "type": "uint256"
        }
      ],
      "payable": false,
      "stateMutability": "view",
      "type": "function"
    },
    {
      "constant": false,
      "inputs": [
        {
          "internalType": "bool",
          "name": "_isEpochEndBlock",
          "type": "bool"
        }
      ],
      "name": "reward",
      "outputs": [
        {
          "internalType": "uint256",
          "name": "rewardsNative",
          "type": "uint256"
        }
      ],
      "payable": false,
      "stateMutability": "nonpayable",
      "type": "function"
    },
    {
      "constant": false,
      "inputs": [],
      "name": "sendCoins",
      "outputs": [],
      "payable": true,
      "stateMutability": "payable",
      "type": "function"
    },
    {
      "constant": false,
      "inputs": [
        {
          "internalType": "uint256",
          "name": "_value",
          "type": "uint256"
        }
      ],
      "name": "setReinsertPotPayoutFraction",
      "outputs": [],
      "payable": false,
      "stateMutability": "nonpayable",
      "type": "function"
    },
    {
      "constant": false,
      "inputs": [
        {
          "internalType": "uint256",
          "name": "_stakingEpoch",
          "type": "uint256"
        },
        {
          "internalType": "address",
          "name": "_poolMiningAddress",
          "type": "address"
        },
        {
          "internalType": "uint256",
          "name": "_amount",
          "type": "uint256"
        }
      ],
      "name": "setSnapshotPoolValidatorStakeAmount",
      "outputs": [],
      "payable": false,
      "stateMutability": "nonpayable",
      "type": "function"
    },
    {
      "constant": false,
      "inputs": [
        {
          "internalType": "address",
          "name": "_address",
          "type": "address"
        }
      ],
      "name": "setSystemAddress",
      "outputs": [],
      "payable": false,
      "stateMutability": "nonpayable",
      "type": "function"
    },
    {
      "constant": false,
      "inputs": [
        {
          "internalType": "uint256",
          "name": "_stakingEpoch",
          "type": "uint256"
        },
        {
          "internalType": "uint256",
          "name": "_percent",
          "type": "uint256"
        }
      ],
      "name": "setValidatorMinRewardPercent",
      "outputs": [],
      "payable": false,
      "stateMutability": "nonpayable",
      "type": "function"
    },
    {
      "constant": false,
      "inputs": [
        {
          "internalType": "uint256",
          "name": "_value",
          "type": "uint256"
        }
      ],
      "name": "setdeltaPotPayoutFraction",
      "outputs": [],
      "payable": false,
      "stateMutability": "nonpayable",
      "type": "function"
    },
    {
      "constant": false,
      "inputs": [
        {
          "internalType": "contract IStakingHbbft",
          "name": "_stakingContract",
          "type": "address"
        },
        {
          "internalType": "uint256",
          "name": "_stakingEpoch",
          "type": "uint256"
        },
        {
          "internalType": "address",
          "name": "_miningAddress",
          "type": "address"
        }
      ],
      "name": "snapshotPoolStakeAmounts",
      "outputs": [],
      "payable": false,
      "stateMutability": "nonpayable",
      "type": "function"
    },
    {
      "constant": true,
      "inputs": [
        {
          "internalType": "uint256",
          "name": "",
          "type": "uint256"
        },
        {
          "internalType": "address",
          "name": "",
          "type": "address"
        }
      ],
      "name": "snapshotPoolTotalStakeAmount",
      "outputs": [
        {
          "internalType": "uint256",
          "name": "",
          "type": "uint256"
        }
      ],
      "payable": false,
      "stateMutability": "view",
      "type": "function"
    },
    {
      "constant": true,
      "inputs": [
        {
          "internalType": "uint256",
          "name": "",
          "type": "uint256"
        },
        {
          "internalType": "address",
          "name": "",
          "type": "address"
        }
      ],
      "name": "snapshotPoolValidatorStakeAmount",
      "outputs": [
        {
          "internalType": "uint256",
          "name": "",
          "type": "uint256"
        }
      ],
      "payable": false,
      "stateMutability": "view",
      "type": "function"
    },
    {
      "constant": false,
      "inputs": [
        {
          "internalType": "uint256",
          "name": "_nativeCoins",
          "type": "uint256"
        },
        {
          "internalType": "address payable",
          "name": "_to",
          "type": "address"
        }
      ],
      "name": "transferReward",
      "outputs": [],
      "payable": false,
      "stateMutability": "nonpayable",
      "type": "function"
    },
    {
      "constant": true,
      "inputs": [
        {
          "internalType": "uint256",
          "name": "",
          "type": "uint256"
        }
      ],
      "name": "validatorMinRewardPercent",
      "outputs": [
        {
          "internalType": "uint256",
          "name": "",
          "type": "uint256"
        }
      ],
      "payable": false,
      "stateMutability": "view",
      "type": "function"
    },
    {
      "constant": true,
      "inputs": [
        {
          "internalType": "address",
          "name": "_stakingAddress",
          "type": "address"
        }
      ],
      "name": "validatorRewardPercent",
      "outputs": [
        {
          "internalType": "uint256",
          "name": "",
          "type": "uint256"
        }
      ],
      "payable": false,
      "stateMutability": "view",
      "type": "function"
    },
    {
      "constant": true,
      "inputs": [],
      "name": "validatorSetContract",
      "outputs": [
        {
          "internalType": "contract IValidatorSetHbbft",
          "name": "",
          "type": "address"
        }
      ],
      "payable": false,
      "stateMutability": "view",
      "type": "function"
    },
    {
      "constant": true,
      "inputs": [
        {
          "internalType": "uint256",
          "name": "_stakingEpoch",
          "type": "uint256"
        },
        {
          "internalType": "uint256",
          "name": "_validatorStaked",
          "type": "uint256"
        },
        {
          "internalType": "uint256",
          "name": "_totalStaked",
          "type": "uint256"
        },
        {
          "internalType": "uint256",
          "name": "_poolReward",
          "type": "uint256"
        }
      ],
      "name": "validatorShare",
      "outputs": [
        {
          "internalType": "uint256",
          "name": "",
          "type": "uint256"
        }
      ],
      "payable": false,
      "stateMutability": "view",
      "type": "function"
    },
    {
      "constant": false,
      "inputs": [
        {
          "internalType": "uint256",
          "name": "_stakingEpoch",
          "type": "uint256"
        },
        {
          "internalType": "address",
          "name": "_poolMiningAddress",
          "type": "address"
        }
      ],
      "name": "setEpochPoolReward",
      "outputs": [],
      "payable": true,
      "stateMutability": "payable",
      "type": "function"
    }
  ],
  "bytecode": "0x6080604052603c60075534801561001557600080fd5b50612a75806100256000396000f3fe60806040526004361061020e5760003560e01c80638737929a11610118578063cb68d127116100a0578063dd03f5b91161006f578063dd03f5b914610785578063dfc8bf4e146107b8578063e1ab96d8146107cd578063e58edc381461080c578063f302163d146108215761020e565b8063cb68d127146106be578063cdf7a090146106e8578063d0899cb414610712578063d88aebd7146107425761020e565b8063af182535116100e7578063af18253514610618578063b10c754814610620578063ba2d759714610628578063c4d66de814610661578063c6cc9333146106945761020e565b80638737929a1461059d57806391b57986146105d95780639a64ca2c146105ee578063adc481a7146106035761020e565b8063392e53cd1161019b578063527d8bc41161016a578063527d8bc4146104c55780635c57a801146104f85780635fba554e1461050d578063728345db1461054f57806373f12958146105885761020e565b8063392e53cd146103c35780633c2c943c146103ec578063469507c6146104015780634de6c0361461043a5761020e565b80630dcbf155116101e25780630dcbf155146102cc5780631274fa091461030b5780631345b8a51461032057806319cee8971461035957806333d699211461038a5761020e565b8062067a841461021857806306210197146102565780630c0d41731461028b5780630c556d66146102a0575b6008805434019055005b34801561022457600080fd5b506102446004803603602081101561023b57600080fd5b50351515610829565b60408051918252519081900360200190f35b34801561026257600080fd5b506102896004803603602081101561027957600080fd5b50356001600160a01b0316610fe7565b005b34801561029757600080fd5b50610244611009565b610289600480360360408110156102b657600080fd5b50803590602001356001600160a01b031661100e565b3480156102d857600080fd5b50610289600480360360608110156102ef57600080fd5b508035906001600160a01b036020820135169060400135611233565b34801561031757600080fd5b50610244611259565b34801561032c57600080fd5b506102446004803603604081101561034357600080fd5b50803590602001356001600160a01b031661125f565b34801561036557600080fd5b5061036e61127c565b604080516001600160a01b039092168252519081900360200190f35b34801561039657600080fd5b50610244600480360360408110156103ad57600080fd5b50803590602001356001600160a01b031661128b565b3480156103cf57600080fd5b506103d86112a8565b604080519115158252519081900360200190f35b3480156103f857600080fd5b506102446112b9565b34801561040d57600080fd5b506102896004803603604081101561042457600080fd5b50803590602001356001600160a01b03166112bf565b34801561044657600080fd5b506104756004803603604081101561045d57600080fd5b506001600160a01b038135811691602001351661135b565b60408051602080825283518183015283519192839290830191858101910280838360005b838110156104b1578181015183820152602001610499565b505050509050019250505060405180910390f35b3480156104d157600080fd5b50610244600480360360208110156104e857600080fd5b50356001600160a01b031661177b565b34801561050457600080fd5b50610244611ad3565b34801561051957600080fd5b50610244600480360360a081101561053057600080fd5b5080359060208101359060408101359060608101359060800135611ad9565b34801561055b57600080fd5b506102446004803603604081101561057257600080fd5b50803590602001356001600160a01b0316611b6b565b34801561059457600080fd5b50610244611b88565b3480156105a957600080fd5b50610244600480360360808110156105c057600080fd5b5080359060208101359060408101359060600135611b8e565b3480156105e557600080fd5b50610244611c0a565b3480156105fa57600080fd5b50610244611c10565b34801561060f57600080fd5b50610244611c16565b610289611c1c565b610289611c26565b34801561063457600080fd5b506102446004803603604081101561064b57600080fd5b50803590602001356001600160a01b0316611c30565b34801561066d57600080fd5b506102896004803603602081101561068457600080fd5b50356001600160a01b0316611c8c565b3480156106a057600080fd5b50610289600480360360208110156106b757600080fd5b5035611e47565b3480156106ca57600080fd5b50610289600480360360208110156106e157600080fd5b5035611ef5565b3480156106f457600080fd5b506102446004803603602081101561070b57600080fd5b5035611fa3565b34801561071e57600080fd5b506102896004803603604081101561073557600080fd5b5080359060200135611fb5565b34801561074e57600080fd5b506102896004803603606081101561076557600080fd5b506001600160a01b03813581169160208101359160409091013516611fc7565b34801561079157600080fd5b50610475600480360360208110156107a857600080fd5b50356001600160a01b0316611fd7565b3480156107c457600080fd5b5061036e612041565b3480156107d957600080fd5b50610244600480360360608110156107f057600080fd5b50803590602081013590604001356001600160a01b0316612050565b34801561081857600080fd5b506102446120b8565b6102896120bf565b60006108336120c1565b6001600160a01b0316336001600160a01b03161461085057600080fd5b600a5460408051633ba6481760e21b815290516000926001600160a01b03169163ee99205c916004808301926020929190829003018186803b15801561089557600080fd5b505afa1580156108a9573d6000803e3d6000fd5b505050506040513d60208110156108bf57600080fd5b505190508215610c8d576000816001600160a01b031663794c0c686040518163ffffffff1660e01b815260040160206040518083038186803b15801561090457600080fd5b505afa158015610918573d6000803e3d6000fd5b505050506040513d602081101561092e57600080fd5b505190506000811561094657610943826120d0565b90505b6000808360010190506060600a60009054906101000a90046001600160a01b03166001600160a01b031663eebc7a396040518163ffffffff1660e01b815260040160006040518083038186803b15801561099f57600080fd5b505afa1580156109b3573d6000803e3d6000fd5b505050506040513d6000823e601f3d908101601f1916820160405260208110156109dc57600080fd5b8101908080516040519392919084600160201b8211156109fb57600080fd5b908301906020820185811115610a1057600080fd5b82518660208202830111600160201b82111715610a2c57600080fd5b82525081516020918201928201910280838360005b83811015610a59578181015183820152602001610a41565b505050509050016040525050509050600092505b8051831015610a9f57610a948683838681518110610a8757fe5b60200260200101516125dd565b600190920191610a6d565b600a60009054906101000a90046001600160a01b03166001600160a01b031663b7ab4db56040518163ffffffff1660e01b815260040160006040518083038186803b158015610aed57600080fd5b505afa158015610b01573d6000803e3d6000fd5b505050506040513d6000823e601f3d908101601f191682016040526020811015610b2a57600080fd5b8101908080516040519392919084600160201b821115610b4957600080fd5b908301906020820185811115610b5e57600080fd5b82518660208202830111600160201b82111715610b7a57600080fd5b82525081516020918201928201910280838360005b83811015610ba7578181015183820152602001610b8f565b505050509050016040525050509050600092505b8051831015610be057610bd58683838681518110610a8757fe5b600190920191610bbb565b600082815260056020526040808220601e9055600a548151637528621160e01b815291516001600160a01b03909116926375286211926004808201939182900301818387803b158015610c3257600080fd5b505af1158015610c46573d6000803e3d6000fd5b50506040805187815290517ff32b9551d3414b67f8e66e20ac15e62694b9d1230abb2e2e48f9dc2e1964c4299350908190036020019150a160009650505050505050610fe2565b6000816001600160a01b031663c6912cc06040518163ffffffff1660e01b815260040160206040518083038186803b158015610cc857600080fd5b505afa158015610cdc573d6000803e3d6000fd5b505050506040513d6020811015610cf257600080fd5b5051600a5460408051636c9230db60e01b815290519293506000926001600160a01b0390921691636c9230db91600480820192602092909190829003018186803b158015610d3f57600080fd5b505afa158015610d53573d6000803e3d6000fd5b505050506040513d6020811015610d6957600080fd5b505190506000828210801590610e945750600a60009054906101000a90046001600160a01b03166001600160a01b031663eebc7a396040518163ffffffff1660e01b815260040160006040518083038186803b158015610dc857600080fd5b505afa158015610ddc573d6000803e3d6000fd5b505050506040513d6000823e601f3d908101601f191682016040526020811015610e0557600080fd5b8101908080516040519392919084600160201b821115610e2457600080fd5b908301906020820185811115610e3957600080fd5b82518660208202830111600160201b82111715610e5557600080fd5b82525081516020918201928201910280838360005b83811015610e82578181015183820152602001610e6a565b50505050905001604052505050516000145b90508015610f0957600a60009054906101000a90046001600160a01b03166001600160a01b0316635ccee1de6040518163ffffffff1660e01b8152600401600060405180830381600087803b158015610eec57600080fd5b505af1158015610f00573d6000803e3d6000fd5b50505050610fdd565b836001600160a01b03166322e3d9866040518163ffffffff1660e01b815260040160206040518083038186803b158015610f4257600080fd5b505afa158015610f56573d6000803e3d6000fd5b505050506040513d6020811015610f6c57600080fd5b50518210610fdd57600a60009054906101000a90046001600160a01b03166001600160a01b031663ade1900a6040518163ffffffff1660e01b8152600401600060405180830381600087803b158015610fc457600080fd5b505af1158015610fd8573d6000803e3d6000fd5b505050505b505050505b919050565b600e80546001600160a01b0319166001600160a01b0392909216919091179055565b601e81565b8161104a5760405162461bcd60e51b81526004018080602001828103825260248152602001806129f26024913960400191505060405180910390fd5b6001600160a01b03811661108f5760405162461bcd60e51b81526004018080602001828103825260248152602001806129f26024913960400191505060405180910390fd5b346110cb5760405162461bcd60e51b81526004018080602001828103825260258152602001806129376025913960400191505060405180910390fd5b60008281526001602090815260408083206001600160a01b03851684529091529020541561112a5760405162461bcd60e51b81526004018080602001828103825260358152602001806128d26035913960400191505060405180910390fd5b60008281526001602090815260408083206001600160a01b038516845282528083203490558282529182902080548351818402810184019094528084526060939283018282801561119a57602002820191906000526020600020905b815481526020019060010190808311611186575b50939450600093505050505b815181101561120957838282815181106111bc57fe5b602002602001015114156112015760405162461bcd60e51b815260040180806020018281038252603a8152602001806129b8603a913960400191505060405180910390fd5b6001016111a6565b50506001600160a01b03166000908152602081815260408220805460018101825590835291200155565b60009283526004602090815260408085206001600160a01b039094168552929052912055565b60095481565b600460209081526000928352604080842090915290825290205481565b600b546001600160a01b031681565b600160209081526000928352604080842090915290825290205481565b600a546001600160a01b0316151590565b600d5481565b600a60009054906101000a90046001600160a01b03166001600160a01b031663ee99205c6040518163ffffffff1660e01b815260040160206040518083038186803b15801561130d57600080fd5b505afa158015611321573d6000803e3d6000fd5b505050506040513d602081101561133757600080fd5b50516001600160a01b0316331461134d57600080fd5b61135782826127d3565b5050565b600a54604080516253517560e01b81526001600160a01b0385811660048301529151606093600093169162535175916024808301926020929190829003018186803b1580156113a957600080fd5b505afa1580156113bd573d6000803e3d6000fd5b505050506040513d60208110156113d357600080fd5b5051600a5460408051633ba6481760e21b815290519293506000926001600160a01b039092169163ee99205c91600480820192602092909190829003018186803b15801561142057600080fd5b505afa158015611434573d6000803e3d6000fd5b505050506040513d602081101561144a57600080fd5b505190506001600160a01b0385811690851614801590600090819061158b5760408051632b2cdba160e11b81526001600160a01b038a811660048301528981166024830152915191861691635659b74291604480820192602092909190829003018186803b1580156114bb57600080fd5b505afa1580156114cf573d6000803e3d6000fd5b505050506040513d60208110156114e557600080fd5b505191508161150a575050604080516000815260208101909152935061177592505050565b6040805163bc9eb2c360e01b81526001600160a01b038a81166004830152898116602483015291519186169163bc9eb2c391604480820192602092909190829003018186803b15801561155c57600080fd5b505afa158015611570573d6000803e3d6000fd5b505050506040513d602081101561158657600080fd5b505190505b6001600160a01b0385166000908152602081815260409182902080548351818152818402810190930190935291906060908280156115d3578160200160208202803883390190505b5090506000805b838110156116fd5760008582815481106115f057fe5b90600052602060002001549050881561162b578781101561161157506116f5565b80871115801561162057508615155b1561162b57506116fd565b896001600160a01b031663317277308f8f846040518463ffffffff1660e01b815260040180846001600160a01b03166001600160a01b03168152602001836001600160a01b03166001600160a01b03168152602001828152602001935050505060206040518083038186803b1580156116a357600080fd5b505afa1580156116b7573d6000803e3d6000fd5b505050506040513d60208110156116cd57600080fd5b50516116f357808484806001019550815181106116e657fe5b6020026020010181815250505b505b6001016115da565b81604051908082528060200260200182016040528015611727578160200160208202803883390190505b509a50600090505b8181101561176a5782818151811061174357fe5b60200260200101518b828151811061175757fe5b602090810291909101015260010161172f565b505050505050505050505b92915050565b600080600a60009054906101000a90046001600160a01b03166001600160a01b031663ee99205c6040518163ffffffff1660e01b815260040160206040518083038186803b1580156117cc57600080fd5b505afa1580156117e0573d6000803e3d6000fd5b505050506040513d60208110156117f657600080fd5b505160408051630f29818d60e31b815290519192506000916001600160a01b0384169163794c0c68916004808301926020929190829003018186803b15801561183e57600080fd5b505afa158015611852573d6000803e3d6000fd5b505050506040513d602081101561186857600080fd5b505190508061187c57600092505050610fe2565b600a54604080516253517560e01b81526001600160a01b038781166004830152915160009392909216916253517591602480820192602092909190829003018186803b1580156118cb57600080fd5b505afa1580156118df573d6000803e3d6000fd5b505050506040513d60208110156118f557600080fd5b5051600a546040805163a0d16cad60e01b81526001600160a01b038085166004830152915193945091169163a0d16cad91602480820192602092909190829003018186803b15801561194657600080fd5b505afa15801561195a573d6000803e3d6000fd5b505050506040513d602081101561197057600080fd5b5051156119c85760008281526004602090815260408083206001600160a01b03851680855290835281842054868552600384528285209185529252909120546119be918491620f4240611b8e565b9350505050610fe2565b6040805163a697ecff60e01b81526001600160a01b038781166004830181905260248301529151611aca9285929087169163a697ecff91604480820192602092909190829003018186803b158015611a1f57600080fd5b505afa158015611a33573d6000803e3d6000fd5b505050506040513d6020811015611a4957600080fd5b505160408051632933f0eb60e11b81526001600160a01b038a81166004830152915191881691635267e1d691602480820192602092909190829003018186803b158015611a9557600080fd5b505afa158015611aa9573d6000803e3d6000fd5b505050506040513d6020811015611abf57600080fd5b5051620f4240611b8e565b95945050505050565b60065481565b6000841580611ae6575083155b80611aef575082155b15611afc57506000611aca565b60008085851015611b0e576000611b12565b8585035b600089815260056020526040902054909150808202606482900388021115611b47578588860281611b3f57fe5b049250611b5e565b81606402816064038987020281611b5a57fe5b0492505b5090979650505050505050565b600360209081526000928352604080842090915290825290205481565b60085481565b6000831580611b9b575082155b15611ba857506000611c02565b60008085851015611bba576000611bbe565b8585035b600088815260056020526040902054909150808202606482900388021115611bf3578587860281611beb57fe5b049250611bfc565b60648582020492505b50909150505b949350505050565b600c5481565b60075481565b60025481565b6008805434019055565b6006805434019055565b60008281526004602090815260408083206001600160a01b0385168085529083528184205486855260038452828520828652845282852054878652600185528386209286529190935290832054611aca90869084908490611b8e565b611c9461284a565b6001600160a01b0316336001600160a01b03161480611ccb5750611cb661284a565b6001600160a01b0316326001600160a01b0316145b80611ce45750611cd961284a565b6001600160a01b0316155b80611ced575043155b611d285760405162461bcd60e51b81526004018080602001828103825260308152602001806129076030913960400191505060405180910390fd5b611d306112a8565b15611d6c5760405162461bcd60e51b81526004018080602001828103825260248152602001806128ae6024913960400191505060405180910390fd5b6001600160a01b038116611dc7576040805162461bcd60e51b815260206004820152601a60248201527f56616c696461746f72536574206d757374206e6f742062652030000000000000604482015290519081900360640190fd5b600a80546001600160a01b039092166001600160a01b0319928316178155600080526005602052601e7f05b8ccbb9d4d8fb16ea74ce3c29a41f1b461fbdaff4714a0d9a8eb05499746bc556117706007819055600955600b805490921673da0da0da0da0da0da0da00da0da0da0da0da0da0179091556001600c55600d55565b611e4f61284a565b6001600160a01b0316336001600160a01b031614611e9e5760405162461bcd60e51b815260040180806020018281038252602b815260200180612a16602b913960400191505060405180910390fd5b80611ef0576040805162461bcd60e51b815260206004820152601d60248201527f5061796f7574206672616374696f6e206d757374206e6f742062652030000000604482015290519081900360640190fd5b600955565b611efd61284a565b6001600160a01b0316336001600160a01b031614611f4c5760405162461bcd60e51b815260040180806020018281038252602b815260200180612a16602b913960400191505060405180910390fd5b80611f9e576040805162461bcd60e51b815260206004820152601d60248201527f5061796f7574206672616374696f6e206d757374206e6f742062652030000000604482015290519081900360640190fd5b600755565b60056020526000908152604090205481565b60009182526005602052604090912055565b611fd28383836125dd565b505050565b6001600160a01b0381166000908152602081815260409182902080548351818402810184019094528084526060939283018282801561203557602002820191906000526020600020905b815481526020019060010190808311612021575b50505050509050919050565b600a546001600160a01b031681565b60008281526004602090815260408083206001600160a01b03851680855290835281842054868552600384528285208286528452828520548786526001855283862092865291909352908320546120ae908690889085908590611ad9565b9695505050505050565b620f424081565b565b600e546001600160a01b031690565b60006060600a60009054906101000a90046001600160a01b03166001600160a01b031663b7ab4db56040518163ffffffff1660e01b815260040160006040518083038186803b15801561212257600080fd5b505afa158015612136573d6000803e3d6000fd5b505050506040513d6000823e601f3d908101601f19168201604052602081101561215f57600080fd5b8101908080516040519392919084600160201b82111561217e57600080fd5b90830190602082018581111561219357600080fd5b82518660208202830111600160201b821117156121af57600080fd5b82525081516020918201928201910280838360005b838110156121dc5781810151838201526020016121c4565b505050509190910160405250508251929350505080612239576040805162461bcd60e51b8152602060048201526014602482015273115b5c1d1e4815985b1a59185d1bdc881b1a5cdd60621b604482015290519081900360640190fd5b60006007546006548161224857fe5b0490508060066000828254039250508190555060006009546008548161226a57fe5b6008805492909104918290039055600254909150828201018061229557600095505050505050610fe2565b6000600d54600c548302816122a657fe5b600b546040519290910492506001600160a01b03169082156108fc029083906000818181858888f193505050501580156122e4573d6000803e3d6000fd5b5060008183039050606086604051908082528060200260200182016040528015612318578160200160208202803883390190505b5090506000805b895181101561244e57600a548a516001600160a01b039091169063a92252ae908c908490811061234b57fe5b60200260200101516040518263ffffffff1660e01b815260040180826001600160a01b03166001600160a01b0316815260200191505060206040518083038186803b15801561239957600080fd5b505afa1580156123ad573d6000803e3d6000fd5b505050506040513d60208110156123c357600080fd5b505115801561241c5750600460008d815260200190815260200160002060008b83815181106123ee57fe5b60200260200101516001600160a01b03166001600160a01b0316815260200190815260200160002054600014155b1561244657600183828151811061242f57fe5b911515602092830291909101909101526001909101905b60010161231f565b50806124665760009950505050505050505050610fe2565b600081848161247157fe5b04905080156125c85760005b898110156125c65783818151811061249157fe5b6020026020010151156125be57600160008e815260200190815260200160002060008c83815181106124bf57fe5b60200260200101516001600160a01b03166001600160a01b03168152602001908152602001600020546000146125265760405162461bcd60e51b815260040180806020018281038252605c81526020018061295c605c913960600191505060405180910390fd5b60008d81526001602052604081208c518492908e908590811061254557fe5b60200260200101516001600160a01b03166001600160a01b031681526020019081526020016000208190555081860195506000808c838151811061258557fe5b6020908102919091018101516001600160a01b031682528181019290925260400160009081208054600181018255908252919020018d90555b60010161247d565b505b50505050908190036002559695505050505050565b60008281526003602090815260408083206001600160a01b03851684529091529020541561260a57611fd2565b600a54604080516307b9342f60e21b81526001600160a01b03848116600483015291516000939290921691631ee4d0bc91602480820192602092909190829003018186803b15801561265b57600080fd5b505afa15801561266f573d6000803e3d6000fd5b505050506040513d602081101561268557600080fd5b505160408051632933f0eb60e11b81526001600160a01b038084166004830152915192935060009291871691635267e1d691602480820192602092909190829003018186803b1580156126d757600080fd5b505afa1580156126eb573d6000803e3d6000fd5b505050506040513d602081101561270157600080fd5b5051905080612711575050611fd2565b60008481526003602090815260408083206001600160a01b03808816855290835292819020849055805163a697ecff60e01b815285841660048201819052602482015290519288169263a697ecff92604480840193919291829003018186803b15801561277d57600080fd5b505afa158015612791573d6000803e3d6000fd5b505050506040513d60208110156127a757600080fd5b505160008581526004602090815260408083206001600160a01b03881684529091529020555050505050565b811580159061280457506040516001600160a01b0382169083156108fc029084906000818181858888f19350505050155b156113575781816040516128179061286f565b6001600160a01b039091168152604051908190036020019082f080158015612843573d6000803e3d6000fd5b5050505050565b7fb53127684a568b3173ae13b9f8a6016e243e63b6e8ee1178d6a717850b5d61035490565b60328061287c8339019056fe60806040526040516032380380603283398181016040526020811015602357600080fd5b50516001600160a01b038116fffe696e697469616c697a6174696f6e2063616e206f6e6c7920626520646f6e65206f6e636553657445706f6368506f6f6c5265776172643a2065706f6368506f6f6c4e617469766552657761726420616c726561647920736574496e697469616c697a6174696f6e206f6e6c79206f6e2067656e6573697320626c6f636b206f722062792061646d696e53657445706f6368506f6f6c5265776172643a207265776172642063616e2774206265203063616e74206469737472696275746520726577617264733a20746865726520697320616c7265616479206120706f6f6c2072657761726420646566696e656420666f7220746869732065706f636820616e642076616c696461746f72546865726520697320616c72656164792061205265776172642070656e64696e6720666f722074686973206d696e696e6720616464726573732153657445706f6368506f6f6c5265776172643a2065706f63682063616e277420626520306f6e6c792061646d696e20697320616c6c6f77656420746f2063616c6c20746869732066756e6374696f6ea265627a7a72315820c4c2317a27e56a973aa39b093922721e1eb27923eb5d1d5091ce139d46a2e4fa64736f6c63430005110032",
  "source": "pragma solidity ^0.5.16;\n\nimport './BlockRewardHbbftBaseMock.sol';\nimport '../../contracts/base/BlockRewardHbbftCoins.sol';\n\n\ncontract BlockRewardHbbftCoinsMock is BlockRewardHbbftCoins, BlockRewardHbbftBaseMock {\n    function setEpochPoolReward(\n        uint256 _stakingEpoch,\n        address _poolMiningAddress\n    ) public payable {\n        require(_stakingEpoch != 0, \"SetEpochPoolReward: epoch can't be 0\");\n        require(_poolMiningAddress != address(0), \"SetEpochPoolReward: epoch can't be 0\");\n        require(msg.value != 0, \"SetEpochPoolReward: reward can't be 0\");\n        require(epochPoolNativeReward[_stakingEpoch][_poolMiningAddress] == 0,\n            \"SetEpochPoolReward: epochPoolNativeReward already set\");\n        epochPoolNativeReward[_stakingEpoch][_poolMiningAddress] = msg.value;\n\n        uint256[] memory thisPoolsRewards = _epochsPoolGotRewardFor[_poolMiningAddress];\n        for(uint i = 0; i < thisPoolsRewards.length; i++) {\n            require(thisPoolsRewards[i] != _stakingEpoch, \n                \"There is already a Reward pending for this mining address!\");\n        }\n\n        _epochsPoolGotRewardFor[_poolMiningAddress].push(_stakingEpoch);\n    }\n}\n",
  "sourcePath": "/home/sn/dmd/dmd-meta/hbbft-posdao-contracts/contracts/mockContracts/BlockRewardHbbftCoinsMock.sol",
  "compiler": {
    "name": "solc",
    "version": "0.5.17+commit.d19bba13.Emscripten.clang"
  },
  "schemaVersion": "3.3.1",
  "updatedAt": "2021-03-29T20:18:15.974Z",
  "devdoc": {
    "methods": {
      "delegatorShare(uint256,uint256,uint256,uint256,uint256)": {
        "details": "Calculates delegator's share for the given pool reward amount and the specified staking epoch. Used by the `StakingHbbft.claimReward` function.",
        "params": {
          "_delegatorStaked": "The amount staked by a delegator.",
          "_poolReward": "The value of pool reward.",
          "_stakingEpoch": "The number of staking epoch.",
          "_totalStaked": "The total amount staked by a validator and their delegators.",
          "_validatorStaked": "The amount staked by a validator."
        }
      },
      "epochsPoolGotRewardFor(address)": {
        "details": "Returns an array of epoch numbers for which the specified pool (mining address) got a non-zero reward."
      },
      "epochsToClaimRewardFrom(address,address)": {
        "details": "Returns an array of epoch numbers for which the specified staker can claim a reward from the specified pool by the `StakingHbbft.claimReward` function.",
        "params": {
          "_poolStakingAddress": "The pool staking address.",
          "_staker": "The staker's address (delegator or candidate/validator)."
        }
      },
      "getDelegatorReward(uint256,uint256,address)": {
        "details": "Returns the reward amount in native coins for some delegator with the specified stake amount placed into the specified pool before the specified staking epoch. Used by the `StakingHbbft.claimReward` function.",
        "params": {
          "_delegatorStake": "The stake amount placed by some delegator into the `_poolMiningAddress` pool.",
          "_poolMiningAddress": "The pool mining address.",
          "_stakingEpoch": "The serial number of staking epoch."
        },
        "return": "`uint256 nativeReward` - the reward amount in native coins."
      },
      "getValidatorReward(uint256,address)": {
        "details": "Returns the reward amount in native coins for the specified validator and for the specified staking epoch. Used by the `StakingHbbft.claimReward` function.",
        "params": {
          "_poolMiningAddress": "The pool mining address.",
          "_stakingEpoch": "The serial number of staking epoch."
        },
        "return": "`uint256 nativeReward` - the reward amount in native coins."
      },
      "initialize(address)": {
        "details": "Initializes the contract at network startup. Can only be called by the constructor of the `InitializerHbbft` contract or owner.",
        "params": {
          "_validatorSet": "The address of the `ValidatorSetHbbft` contract."
        }
      },
      "isInitialized()": {
        "details": "Returns a boolean flag indicating if the `initialize` function has been called."
      },
      "reward(bool)": {
        "details": "Called by the engine when producing and closing a block, see https://wiki.parity.io/Block-Reward-Contract.html. This function performs all of the automatic operations needed for accumulating block producing statistics, starting a new staking epoch, snapshotting staking amounts for the upcoming staking epoch, and rewards distributing at the end of a staking epoch.",
        "params": {
          "_isEpochEndBlock": "Indicates if this is the last block of the current epoch i.e. just before the pending validators are fiinalized."
        }
      },
      "transferReward(uint256,address)": {
        "details": "Called by the `StakingHbbft.claimReward` function to transfer native coins from the balance of the `BlockRewardHbbft` contract to the specified address as a reward.",
        "params": {
          "_nativeCoins": "The amount of native coins to transfer as a reward.",
          "_to": "The target address to transfer the amounts to."
        }
      },
      "validatorRewardPercent(address)": {
        "details": "Returns the reward coefficient for the specified validator. The given value should be divided by 10000 to get the value of the reward percent (since EVM doesn't support floating values). If the specified staking address is an address of a candidate that is not about to be a validator in the upcoming staking epoch the potentially possible reward coefficient is returned.",
        "params": {
          "_stakingAddress": "The staking address of the validator/candidate pool for which the getter must return the coefficient."
        }
      },
      "validatorShare(uint256,uint256,uint256,uint256)": {
        "details": "Calculates validator's share for the given pool reward amount and the specified staking epoch. Used by the `validatorRewardPercent` and `StakingHbbft.claimReward` functions.",
        "params": {
          "_poolReward": "The value of pool reward.",
          "_stakingEpoch": "The number of staking epoch.",
          "_totalStaked": "The total amount staked by a validator and their delegators.",
          "_validatorStaked": "The amount staked by a validator."
        }
      }
    }
  },
  "userdoc": {
    "methods": {}
  }
}