{
  "contractName": "KeyGenHistory",
  "abi": [
    {
      "anonymous": false,
      "inputs": [
        {
          "indexed": false,
          "internalType": "address[]",
          "name": "newValidatorSet",
          "type": "address[]"
        }
      ],
      "name": "NewValidatorsSet",
      "type": "event"
    },
    {
      "constant": true,
      "inputs": [
        {
          "internalType": "address",
          "name": "",
          "type": "address"
        },
        {
          "internalType": "uint256",
          "name": "",
          "type": "uint256"
        }
      ],
      "name": "acks",
      "outputs": [
        {
          "internalType": "bytes",
          "name": "",
          "type": "bytes"
        }
      ],
      "payable": false,
      "stateMutability": "view",
      "type": "function"
    },
    {
      "constant": true,
      "inputs": [],
      "name": "numberOfAcksWritten",
      "outputs": [
        {
          "internalType": "uint128",
          "name": "",
          "type": "uint128"
        }
      ],
      "payable": false,
      "stateMutability": "view",
      "type": "function"
    },
    {
      "constant": true,
      "inputs": [],
      "name": "numberOfPartsWritten",
      "outputs": [
        {
          "internalType": "uint128",
          "name": "",
          "type": "uint128"
        }
      ],
      "payable": false,
      "stateMutability": "view",
      "type": "function"
    },
    {
      "constant": true,
      "inputs": [
        {
          "internalType": "address",
          "name": "",
          "type": "address"
        }
      ],
      "name": "parts",
      "outputs": [
        {
          "internalType": "bytes",
          "name": "",
          "type": "bytes"
        }
      ],
      "payable": false,
      "stateMutability": "view",
      "type": "function"
    },
    {
      "constant": true,
      "inputs": [
        {
          "internalType": "uint256",
          "name": "",
          "type": "uint256"
        }
      ],
      "name": "validatorSet",
      "outputs": [
        {
          "internalType": "address",
          "name": "",
          "type": "address"
        }
      ],
      "payable": false,
      "stateMutability": "view",
      "type": "function"
    },
    {
      "constant": true,
      "inputs": [],
      "name": "validatorSetContract",
      "outputs": [
        {
          "internalType": "contract IValidatorSetHbbft",
          "name": "",
          "type": "address"
        }
      ],
      "payable": false,
      "stateMutability": "view",
      "type": "function"
    },
    {
      "constant": false,
      "inputs": [
        {
          "internalType": "address[]",
          "name": "_prevValidators",
          "type": "address[]"
        }
      ],
      "name": "clearPrevKeyGenState",
      "outputs": [],
      "payable": false,
      "stateMutability": "nonpayable",
      "type": "function"
    },
    {
      "constant": false,
      "inputs": [
        {
          "internalType": "address",
          "name": "_validatorSetContract",
          "type": "address"
        },
        {
          "internalType": "address[]",
          "name": "_validators",
          "type": "address[]"
        },
        {
          "internalType": "bytes[]",
          "name": "_parts",
          "type": "bytes[]"
        },
        {
          "internalType": "bytes[][]",
          "name": "_acks",
          "type": "bytes[][]"
        }
      ],
      "name": "initialize",
      "outputs": [],
      "payable": false,
      "stateMutability": "nonpayable",
      "type": "function"
    },
    {
      "constant": false,
      "inputs": [
        {
          "internalType": "uint256",
          "name": "_upcommingEpoch",
          "type": "uint256"
        },
        {
          "internalType": "bytes",
          "name": "_part",
          "type": "bytes"
        }
      ],
      "name": "writePart",
      "outputs": [],
      "payable": false,
      "stateMutability": "nonpayable",
      "type": "function"
    },
    {
      "constant": false,
      "inputs": [
        {
          "internalType": "uint256",
          "name": "_upcommingEpoch",
          "type": "uint256"
        },
        {
          "internalType": "bytes[]",
          "name": "_acks",
          "type": "bytes[]"
        }
      ],
      "name": "writeAcks",
      "outputs": [],
      "payable": false,
      "stateMutability": "nonpayable",
      "type": "function"
    },
    {
      "constant": true,
      "inputs": [
        {
          "internalType": "address",
          "name": "_val",
          "type": "address"
        }
      ],
      "name": "getPart",
      "outputs": [
        {
          "internalType": "bytes",
          "name": "",
          "type": "bytes"
        }
      ],
      "payable": false,
      "stateMutability": "view",
      "type": "function"
    },
    {
      "constant": true,
      "inputs": [
        {
          "internalType": "address",
          "name": "val",
          "type": "address"
        }
      ],
      "name": "getAcksLength",
      "outputs": [
        {
          "internalType": "uint256",
          "name": "",
          "type": "uint256"
        }
      ],
      "payable": false,
      "stateMutability": "view",
      "type": "function"
    },
    {
      "constant": true,
      "inputs": [],
      "name": "getNumberOfKeyFragmentsWritten",
      "outputs": [
        {
          "internalType": "uint128",
          "name": "",
          "type": "uint128"
        },
        {
          "internalType": "uint128",
          "name": "",
          "type": "uint128"
        }
      ],
      "payable": false,
      "stateMutability": "view",
      "type": "function"
    },
    {
      "constant": true,
      "inputs": [],
      "name": "isInitialized",
      "outputs": [
        {
          "internalType": "bool",
          "name": "",
          "type": "bool"
        }
      ],
      "payable": false,
      "stateMutability": "view",
      "type": "function"
    }
  ],
  "bytecode": "0x608060405234801561001057600080fd5b506118af806100206000396000f3fe608060405234801561001057600080fd5b50600436106100ea5760003560e01c8063be1689341161008c578063dd7761f811610066578063dd7761f8146101cc578063dfc8bf4e146101ec578063e64808f314610201578063f362753314610221576100ea565b8063be16893414610193578063c56aef48146101a6578063ca3edc81146101b9576100ea565b8063778b8a15116100c8578063778b8a15146101355780637be02c2b14610155578063827d467d1461016b57806399de1a4314610180576100ea565b80630334657d146100ef578063392e53cd146101045780635f17497e14610122575b600080fd5b6101026100fd3660046112a4565b610229565b005b61010c610469565b604051610119919061162e565b60405180910390f35b6101026101303660046111c0565b61047b565b610148610143366004611099565b610564565b604051610119919061163c565b61015d6105fe565b604051610119929190611720565b610173610619565b6040516101199190611712565b61014861018e366004611099565b61062f565b6101026101a13660046110dd565b6106d9565b6101026101b436600461125c565b61090b565b6101486101c7366004611186565b610b2a565b6101df6101da366004611099565b610bab565b604051610119919061173b565b6101f4610bc6565b6040516101199190611654565b61021461020f366004611220565b610bd5565b6040516101199190611612565b610173610bfc565b6004805460408051633ba6481760e21b81529051859384936001600160a01b03169263ee99205c9281830192602092829003018186803b15801561026c57600080fd5b505afa158015610280573d6000803e3d6000fd5b505050506040513d601f19601f820116820180604052506102a491908101906110bf565b6001600160a01b031663794c0c686040518163ffffffff1660e01b815260040160206040518083038186803b1580156102dc57600080fd5b505afa1580156102f0573d6000803e3d6000fd5b505050506040513d601f19601f82011682018060405250610314919081019061123e565b6001011461033d5760405162461bcd60e51b8152600401610334906116d2565b60405180910390fd5b6004805460405163fb64aac160e01b81526001600160a01b039091169163fb64aac19161036c91339101611620565b60206040518083038186803b15801561038457600080fd5b505afa158015610398573d6000803e3d6000fd5b505050506040513d601f19601f820116820180604052506103bc9190810190611202565b6103d85760405162461bcd60e51b8152600401610334906116e2565b3360009081526001602081905260409091205460029181161561010002600019011604156104185760405162461bcd60e51b8152600401610334906116c2565b336000908152600160209081526040909120835161043892850190610c30565b5050600380546001600160801b03808216600101166fffffffffffffffffffffffffffffffff199091161790555050565b6004546001600160a01b031615155b90565b6004546001600160a01b031633146104a55760405162461bcd60e51b815260040161033490611692565b60005b8181101561055a57600160008484848181106104c057fe5b90506020020160206104d59190810190611099565b6001600160a01b03166001600160a01b0316815260200190815260200160002060006105019190610cae565b6002600084848481811061051157fe5b90506020020160206105269190810190611099565b6001600160a01b03166001600160a01b0316815260200190815260200160002060006105529190610cf5565b6001016104a8565b5050600060035550565b60016020818152600092835260409283902080548451600294821615610100026000190190911693909304601f81018390048302840183019094528383529192908301828280156105f65780601f106105cb576101008083540402835291602001916105f6565b820191906000526020600020905b8154815290600101906020018083116105d957829003601f168201915b505050505081565b6003546001600160801b0380821691600160801b9004169091565b600354600160801b90046001600160801b031681565b6001600160a01b03811660009081526001602081815260409283902080548451600294821615610100026000190190911693909304601f810183900483028401830190945283835260609390918301828280156106cd5780601f106106a2576101008083540402835291602001916106cd565b820191906000526020600020905b8154815290600101906020018083116106b057829003601f168201915b50505050509050919050565b6106e1610c0b565b6001600160a01b0316336001600160a01b031614806107185750610703610c0b565b6001600160a01b0316326001600160a01b0316145b806107315750610726610c0b565b6001600160a01b0316155b8061073a575043155b6107565760405162461bcd60e51b815260040161033490611682565b61075e610469565b1561077b5760405162461bcd60e51b815260040161033490611662565b82516107995760405162461bcd60e51b8152600401610334906116b2565b81518351146107ba5760405162461bcd60e51b8152600401610334906116a2565b80518351146107db5760405162461bcd60e51b815260040161033490611702565b6001600160a01b0384166108015760405162461bcd60e51b815260040161033490611672565b600480546001600160a01b0319166001600160a01b038616179055825161082f906000906020860190610d13565b5060005b83518110156109045782818151811061084857fe5b60200260200101516001600086848151811061086057fe5b60200260200101516001600160a01b03166001600160a01b03168152602001908152602001600020908051906020019061089b929190610c30565b508181815181106108a857fe5b6020026020010151600260008684815181106108c057fe5b60200260200101516001600160a01b03166001600160a01b0316815260200190815260200160002090805190602001906108fb929190610d74565b50600101610833565b5050505050565b6004805460408051633ba6481760e21b81529051859384936001600160a01b03169263ee99205c9281830192602092829003018186803b15801561094e57600080fd5b505afa158015610962573d6000803e3d6000fd5b505050506040513d601f19601f8201168201806040525061098691908101906110bf565b6001600160a01b031663794c0c686040518163ffffffff1660e01b815260040160206040518083038186803b1580156109be57600080fd5b505afa1580156109d2573d6000803e3d6000fd5b505050506040513d601f19601f820116820180604052506109f6919081019061123e565b60010114610a165760405162461bcd60e51b8152600401610334906116d2565b6004805460405163fb64aac160e01b81526001600160a01b039091169163fb64aac191610a4591339101611620565b60206040518083038186803b158015610a5d57600080fd5b505afa158015610a71573d6000803e3d6000fd5b505050506040513d601f19601f82011682018060405250610a959190810190611202565b610ab15760405162461bcd60e51b8152600401610334906116e2565b3360009081526002602052604090205415610ade5760405162461bcd60e51b8152600401610334906116f2565b3360009081526002602090815260409091208351610afe92850190610d74565b50506003805460016001600160801b03600160801b808404821692909201811690910291161790555050565b60026020528160005260406000208181548110610b4357fe5b600091825260209182902001805460408051601f600260001961010060018716150201909416939093049283018590048502810185019091528181529450909250908301828280156105f65780601f106105cb576101008083540402835291602001916105f6565b6001600160a01b031660009081526002602052604090205490565b6004546001600160a01b031681565b60008181548110610be257fe5b6000918252602090912001546001600160a01b0316905081565b6003546001600160801b031681565b7fb53127684a568b3173ae13b9f8a6016e243e63b6e8ee1178d6a717850b5d61035490565b828054600181600116156101000203166002900490600052602060002090601f016020900481019282601f10610c7157805160ff1916838001178555610c9e565b82800160010185558215610c9e579182015b82811115610c9e578251825591602001919060010190610c83565b50610caa929150610dcd565b5090565b50805460018160011615610100020316600290046000825580601f10610cd45750610cf2565b601f016020900490600052602060002090810190610cf29190610dcd565b50565b5080546000825590600052602060002090810190610cf29190610de7565b828054828255906000526020600020908101928215610d68579160200282015b82811115610d6857825182546001600160a01b0319166001600160a01b03909116178255602090920191600190910190610d33565b50610caa929150610e0a565b828054828255906000526020600020908101928215610dc1579160200282015b82811115610dc15782518051610db1918491602090910190610c30565b5091602001919060010190610d94565b50610caa929150610de7565b61047891905b80821115610caa5760008155600101610dd3565b61047891905b80821115610caa576000610e018282610cae565b50600101610ded565b61047891905b80821115610caa5780546001600160a01b0319168155600101610e10565b8035610e3981611846565b92915050565b8051610e3981611846565b60008083601f840112610e5c57600080fd5b50813567ffffffffffffffff811115610e7457600080fd5b602083019150836020820283011115610e8c57600080fd5b9250929050565b600082601f830112610ea457600080fd5b8135610eb7610eb282611770565b611749565b91508181835260208401935060208101905083856020840282011115610edc57600080fd5b60005b83811015610f085781610ef28882610e2e565b8452506020928301929190910190600101610edf565b5050505092915050565b600082601f830112610f2357600080fd5b8135610f31610eb282611770565b81815260209384019390925082018360005b83811015610f085781358601610f598882610f6f565b8452506020928301929190910190600101610f43565b600082601f830112610f8057600080fd5b8135610f8e610eb282611770565b81815260209384019390925082018360005b83811015610f085781358601610fb68882611034565b8452506020928301929190910190600101610fa0565b600082601f830112610fdd57600080fd5b8135610feb610eb282611770565b81815260209384019390925082018360005b83811015610f0857813586016110138882611034565b8452506020928301929190910190600101610ffd565b8051610e398161185a565b600082601f83011261104557600080fd5b8135611053610eb282611791565b9150808252602083016020830185838301111561106f57600080fd5b61107a838284611800565b50505092915050565b8035610e3981611863565b8051610e3981611863565b6000602082840312156110ab57600080fd5b60006110b78484610e2e565b949350505050565b6000602082840312156110d157600080fd5b60006110b78484610e3f565b600080600080608085870312156110f357600080fd5b60006110ff8787610e2e565b945050602085013567ffffffffffffffff81111561111c57600080fd5b61112887828801610e93565b935050604085013567ffffffffffffffff81111561114557600080fd5b61115187828801610fcc565b925050606085013567ffffffffffffffff81111561116e57600080fd5b61117a87828801610f12565b91505092959194509250565b6000806040838503121561119957600080fd5b60006111a58585610e2e565b92505060206111b685828601611083565b9150509250929050565b600080602083850312156111d357600080fd5b823567ffffffffffffffff8111156111ea57600080fd5b6111f685828601610e4a565b92509250509250929050565b60006020828403121561121457600080fd5b60006110b78484611029565b60006020828403121561123257600080fd5b60006110b78484611083565b60006020828403121561125057600080fd5b60006110b7848461108e565b6000806040838503121561126f57600080fd5b600061127b8585611083565b925050602083013567ffffffffffffffff81111561129857600080fd5b6111b685828601610fcc565b600080604083850312156112b757600080fd5b60006112c38585611083565b925050602083013567ffffffffffffffff8111156112e057600080fd5b6111b685828601611034565b6112f5816117ee565b82525050565b6112f5816117c6565b6112f5816117d1565b6000611318826117b9565b61132281856117bd565b935061133281856020860161180c565b61133b8161183c565b9093019392505050565b6112f5816117f5565b600061135b6024836117bd565b7f696e697469616c697a6174696f6e2063616e206f6e6c7920626520646f6e65208152636f6e636560e01b602082015260400192915050565b60006113a16027836117bd565b7f56616c696461746f7220636f6e747261637420616464726573732063616e6e6f8152663a10313290181760c91b602082015260400192915050565b60006113ea6014836117bd565b7329b2b73232b91036bab9ba1031329030b236b4b760611b815260200192915050565b600061141a6028836117bd565b7f4d7573742062792065786563757465642062792076616c696461746f7253657481526710dbdb9d1c9858dd60c21b602082015260400192915050565b60006114646016836117bd565b7557726f6e67206e756d626572206f662050617274732160501b815260200192915050565b6000611496601f836117bd565b7f56616c696461746f7273206d757374206265206d6f7265207468616e20302e00815260200192915050565b60006114cf6018836117bd565b7f506172747320616c7265616479207375626d6974746564210000000000000000815260200192915050565b6000611508603b836117bd565b7f4b65792047656e65726174696f6e2066756e6374696f6e2063616c6c6564207781527f6974682077726f6e67205f65706f636820706172616d657465722e0000000000602082015260400192915050565b60006115676021836117bd565b7f53656e646572206973206e6f7420612070656e64696e672076616c696461746f8152603960f91b602082015260400192915050565b60006115aa6016836117bd565b751058dadcc8185b1c9958591e481cdd589b5a5d1d195960521b815260200192915050565b60006115dc6015836117bd565b7457726f6e67206e756d626572206f662041636b732160581b815260200192915050565b6112f5816117d6565b6112f581610478565b60208101610e3982846112fb565b60208101610e3982846112ec565b60208101610e398284611304565b6020808252810161164d818461130d565b9392505050565b60208101610e398284611345565b60208082528101610e398161134e565b60208082528101610e3981611394565b60208082528101610e39816113dd565b60208082528101610e398161140d565b60208082528101610e3981611457565b60208082528101610e3981611489565b60208082528101610e39816114c2565b60208082528101610e39816114fb565b60208082528101610e398161155a565b60208082528101610e398161159d565b60208082528101610e39816115cf565b60208101610e398284611600565b6040810161172e8285611600565b61164d6020830184611600565b60208101610e398284611609565b60405181810167ffffffffffffffff8111828210171561176857600080fd5b604052919050565b600067ffffffffffffffff82111561178757600080fd5b5060209081020190565b600067ffffffffffffffff8211156117a857600080fd5b506020601f91909101601f19160190565b5190565b90815260200190565b6000610e39826117e2565b151590565b6001600160801b031690565b6001600160a01b031690565b6000610e39825b6000610e39826117c6565b82818337506000910152565b60005b8381101561182757818101518382015260200161180f565b83811115611836576000848401525b50505050565b601f01601f191690565b61184f816117c6565b8114610cf257600080fd5b61184f816117d1565b61184f8161047856fea365627a7a72315820c43dad0d16c30208a3ded75e902dbfd9a0714ddb5f63097de459e538dc03edd76c6578706572696d656e74616cf564736f6c63430005110040",
  "source": "pragma solidity ^0.5.16;\npragma experimental ABIEncoderV2;\n\nimport \"./interfaces/IKeyGenHistory.sol\";\nimport \"./interfaces/IValidatorSetHbbft.sol\";\nimport \"./upgradeability/UpgradeabilityAdmin.sol\";\nimport \"./interfaces/IStakingHbbft.sol\";\n\ncontract KeyGenHistory is UpgradeabilityAdmin, IKeyGenHistory {\n\n    // =============================================== Storage ========================================================\n\n    // WARNING: since this contract is upgradeable, do not remove\n    // existing storage variables and do not change their types!\n\n    // the current validator addresses\n    address[] public validatorSet;\n    mapping(address => bytes) public parts;\n    mapping(address => bytes[]) public acks;\n\n    /// @dev number of parts written in this key generation round.\n    uint128 public numberOfPartsWritten;\n\n    /// @dev number of full ack sets written in this key generation round.\n    uint128 public numberOfAcksWritten;\n\n    /// @dev The address of the `ValidatorSetHbbft` contract.\n    IValidatorSetHbbft public validatorSetContract;\n\n    event NewValidatorsSet(address[] newValidatorSet);\n\n    /// @dev Ensures the `initialize` function was called before.\n    modifier onlyInitialized {\n        require(isInitialized(), \"KeyGenHistory requires to be initialized\");\n        _;\n    }\n\n    /// @dev Ensures the caller is the SYSTEM_ADDRESS. See https://wiki.parity.io/Validator-Set.html\n    modifier onlySystem() {\n        require(msg.sender == 0xffffFFFfFFffffffffffffffFfFFFfffFFFfFFfE, \"Must be executed by System\");\n        _;\n    }\n\n    /// @dev Ensures the caller is ValidatorSet contract.\n    modifier onlyValidatorSet() {\n        require(msg.sender == address(validatorSetContract), \"Must by executed by validatorSetContract\");\n        _;\n    }\n\n    /// @dev ensures that Key Generation functions are called with wrong _epoch \n    /// parameter to prevent old and wrong transactions get picked up.\n    modifier onlyUpcommingEpoch(uint _epoch) {\n        require(IStakingHbbft(validatorSetContract.stakingContract()).stakingEpoch() + 1 == _epoch, \n            \"Key Generation function called with wrong _epoch parameter.\");\n        _;\n    }\n\n    /// @dev Clears the state (acks and parts of previous validators.\n    /// @param _prevValidators The list of previous validators.\n    function clearPrevKeyGenState(address[] calldata _prevValidators)\n    external\n    onlyValidatorSet {\n\n        for (uint256 i = 0; i < _prevValidators.length; i++) {\n            delete parts[_prevValidators[i]];\n            delete acks[_prevValidators[i]];\n        }\n        numberOfPartsWritten = 0;\n        numberOfAcksWritten = 0;\n    }\n\n    function initialize(\n        address _validatorSetContract,\n        address[] memory _validators,\n        bytes[] memory _parts,\n        bytes[][] memory _acks\n    ) public {\n        // Unit Tests may deploy at block numbers other than 0.\n        require(msg.sender == _admin() || tx.origin ==  _admin() \n            || address(0) ==  _admin() || block.number == 0, \"Sender must be admin\");\n        require(!isInitialized(), \"initialization can only be done once\"); // initialization can only be done once\n        require(_validators.length != 0, \"Validators must be more than 0.\");\n        require(_validators.length == _parts.length, \"Wrong number of Parts!\");\n        require(_validators.length == _acks.length, \"Wrong number of Acks!\");\n        require(_validatorSetContract != address(0), \"Validator contract address cannot be 0.\");\n\n        validatorSetContract = IValidatorSetHbbft(_validatorSetContract);\n        validatorSet = _validators;\n\n        for (uint256 i = 0; i < _validators.length; i++) {\n            parts[_validators[i]] = _parts[i];\n            acks[_validators[i]] = _acks[i];\n        }\n    }\n\n    function writePart(uint256 _upcommingEpoch, bytes memory _part)\n    public\n    onlyUpcommingEpoch(_upcommingEpoch) {\n        // It can only be called by a new validator which is elected but not yet finalized...\n        // ...or by a validator which is already in the validator set.\n        require(validatorSetContract.isPendingValidator(msg.sender), \"Sender is not a pending validator\");\n        require(parts[msg.sender].length == 0, \"Parts already submitted!\");\n        parts[msg.sender] = _part;\n        numberOfPartsWritten++;\n    }\n\n    function writeAcks(uint256 _upcommingEpoch, bytes[] memory _acks)\n    public\n    onlyUpcommingEpoch(_upcommingEpoch) {\n        // It can only be called by a new validator which is elected but not yet finalized...\n        // ...or by a validator which is already in the validator set.\n        require(validatorSetContract.isPendingValidator(msg.sender), \"Sender is not a pending validator\");\n        require(acks[msg.sender].length == 0, \"Acks already submitted\");\n        acks[msg.sender] = _acks;\n        numberOfAcksWritten++;\n    }\n\n    function getPart(address _val)\n    external\n    view\n    returns (bytes memory) {\n        return parts[_val];\n    }\n\n    function getAcksLength(address val)\n    external\n    view\n    returns(uint256) {\n        return acks[val].length;\n    }\n\n    function getNumberOfKeyFragmentsWritten()\n    external\n    view \n    returns(uint128, uint128) {\n        return (numberOfPartsWritten, numberOfAcksWritten);\n    }\n\n    /// @dev Returns a boolean flag indicating if the `initialize` function has been called.\n    function isInitialized()\n    public\n    view\n    returns(bool) {\n        return validatorSetContract != IValidatorSetHbbft(0);\n    }\n}\n",
  "sourcePath": "/home/sn/dmd/dmd-meta/hbbft-posdao-contracts/contracts/KeyGenHistory.sol",
  "compiler": {
    "name": "solc",
    "version": "0.5.17+commit.d19bba13.Emscripten.clang"
  },
  "schemaVersion": "3.3.1",
  "updatedAt": "2021-03-29T20:18:15.797Z",
  "devdoc": {
    "methods": {
      "clearPrevKeyGenState(address[])": {
        "details": "Clears the state (acks and parts of previous validators.",
        "params": {
          "_prevValidators": "The list of previous validators."
        }
      },
      "isInitialized()": {
        "details": "Returns a boolean flag indicating if the `initialize` function has been called."
      }
    }
  },
  "userdoc": {
    "methods": {}
  }
}