{
  "contractName": "KeyGenHistory",
  "abi": [
    {
      "anonymous": false,
      "inputs": [
        {
          "indexed": false,
          "internalType": "address[]",
          "name": "newValidatorSet",
          "type": "address[]"
        }
      ],
      "name": "NewValidatorsSet",
      "type": "event"
    },
    {
      "constant": true,
      "inputs": [
        {
          "internalType": "address",
          "name": "",
          "type": "address"
        },
        {
          "internalType": "uint256",
          "name": "",
          "type": "uint256"
        }
      ],
      "name": "acks",
      "outputs": [
        {
          "internalType": "bytes",
          "name": "",
          "type": "bytes"
        }
      ],
      "payable": false,
      "stateMutability": "view",
      "type": "function"
    },
    {
      "constant": true,
      "inputs": [],
      "name": "numberOfAcksWritten",
      "outputs": [
        {
          "internalType": "uint128",
          "name": "",
          "type": "uint128"
        }
      ],
      "payable": false,
      "stateMutability": "view",
      "type": "function"
    },
    {
      "constant": true,
      "inputs": [],
      "name": "numberOfPartsWritten",
      "outputs": [
        {
          "internalType": "uint128",
          "name": "",
          "type": "uint128"
        }
      ],
      "payable": false,
      "stateMutability": "view",
      "type": "function"
    },
    {
      "constant": true,
      "inputs": [
        {
          "internalType": "address",
          "name": "",
          "type": "address"
        }
      ],
      "name": "parts",
      "outputs": [
        {
          "internalType": "bytes",
          "name": "",
          "type": "bytes"
        }
      ],
      "payable": false,
      "stateMutability": "view",
      "type": "function"
    },
    {
      "constant": true,
      "inputs": [
        {
          "internalType": "uint256",
          "name": "",
          "type": "uint256"
        }
      ],
      "name": "validatorSet",
      "outputs": [
        {
          "internalType": "address",
          "name": "",
          "type": "address"
        }
      ],
      "payable": false,
      "stateMutability": "view",
      "type": "function"
    },
    {
      "constant": true,
      "inputs": [],
      "name": "validatorSetContract",
      "outputs": [
        {
          "internalType": "contract IValidatorSetHbbft",
          "name": "",
          "type": "address"
        }
      ],
      "payable": false,
      "stateMutability": "view",
      "type": "function"
    },
    {
      "constant": false,
      "inputs": [
        {
          "internalType": "address[]",
          "name": "_prevValidators",
          "type": "address[]"
        }
      ],
      "name": "clearPrevKeyGenState",
      "outputs": [],
      "payable": false,
      "stateMutability": "nonpayable",
      "type": "function"
    },
    {
      "constant": false,
      "inputs": [
        {
          "internalType": "address",
          "name": "_validatorSetContract",
          "type": "address"
        },
        {
          "internalType": "address[]",
          "name": "_validators",
          "type": "address[]"
        },
        {
          "internalType": "bytes[]",
          "name": "_parts",
          "type": "bytes[]"
        },
        {
          "internalType": "bytes[][]",
          "name": "_acks",
          "type": "bytes[][]"
        }
      ],
      "name": "initialize",
      "outputs": [],
      "payable": false,
      "stateMutability": "nonpayable",
      "type": "function"
    },
    {
      "constant": false,
      "inputs": [
        {
          "internalType": "uint256",
          "name": "_upcommingEpoch",
          "type": "uint256"
        },
        {
          "internalType": "bytes",
          "name": "_part",
          "type": "bytes"
        }
      ],
      "name": "writePart",
      "outputs": [],
      "payable": false,
      "stateMutability": "nonpayable",
      "type": "function"
    },
    {
      "constant": false,
      "inputs": [
        {
          "internalType": "uint256",
          "name": "_upcommingEpoch",
          "type": "uint256"
        },
        {
          "internalType": "bytes[]",
          "name": "_acks",
          "type": "bytes[]"
        }
      ],
      "name": "writeAcks",
      "outputs": [],
      "payable": false,
      "stateMutability": "nonpayable",
      "type": "function"
    },
    {
      "constant": true,
      "inputs": [
        {
          "internalType": "address",
          "name": "_val",
          "type": "address"
        }
      ],
      "name": "getPart",
      "outputs": [
        {
          "internalType": "bytes",
          "name": "",
          "type": "bytes"
        }
      ],
      "payable": false,
      "stateMutability": "view",
      "type": "function"
    },
    {
      "constant": true,
      "inputs": [
        {
          "internalType": "address",
          "name": "val",
          "type": "address"
        }
      ],
      "name": "getAcksLength",
      "outputs": [
        {
          "internalType": "uint256",
          "name": "",
          "type": "uint256"
        }
      ],
      "payable": false,
      "stateMutability": "view",
      "type": "function"
    },
    {
      "constant": true,
      "inputs": [],
      "name": "getNumberOfKeyFragmentsWritten",
      "outputs": [
        {
          "internalType": "uint128",
          "name": "",
          "type": "uint128"
        },
        {
          "internalType": "uint128",
          "name": "",
          "type": "uint128"
        }
      ],
      "payable": false,
      "stateMutability": "view",
      "type": "function"
    },
    {
      "constant": true,
      "inputs": [],
      "name": "isInitialized",
      "outputs": [
        {
          "internalType": "bool",
          "name": "",
          "type": "bool"
        }
      ],
      "payable": false,
      "stateMutability": "view",
      "type": "function"
    }
  ],
  "bytecode": "0x608060405234801561001057600080fd5b50611968806100206000396000f3fe608060405234801561001057600080fd5b50600436106100ea5760003560e01c8063be1689341161008c578063dd7761f811610066578063dd7761f8146101cc578063dfc8bf4e146101ec578063e64808f314610201578063f362753314610221576100ea565b8063be16893414610193578063c56aef48146101a6578063ca3edc81146101b9576100ea565b8063778b8a15116100c8578063778b8a15146101355780637be02c2b14610155578063827d467d1461016b57806399de1a4314610180576100ea565b80630334657d146100ef578063392e53cd146101045780635f17497e14610122575b600080fd5b6101026100fd36600461134f565b610229565b005b61010c610464565b60405161011991906116e7565b60405180910390f35b61010261013036600461126b565b610476565b610148610143366004611144565b61055f565b60405161011991906116f5565b61015d6105f9565b6040516101199291906117d9565b610173610614565b60405161011991906117cb565b61014861018e366004611144565b61062a565b6101026101a1366004611188565b6106d4565b6101026101b4366004611307565b610906565b6101486101c7366004611231565b610b25565b6101df6101da366004611144565b610ba6565b60405161011991906117f4565b6101f4610bc1565b604051610119919061170d565b61021461020f3660046112cb565b610bd0565b60405161011991906116cb565b610173610bf7565b6004805460408051633ba6481760e21b81529051869384936001600160a01b03169263ee99205c9281830192602092829003018186803b15801561026c57600080fd5b505afa158015610280573d6000803e3d6000fd5b505050506040513d601f19601f820116820180604052506102a4919081019061116a565b6001600160a01b031663794c0c686040518163ffffffff1660e01b815260040160206040518083038186803b1580156102dc57600080fd5b505afa1580156102f0573d6000803e3d6000fd5b505050506040513d601f19601f8201168201806040525061031491908101906112e9565b6001011461033d5760405162461bcd60e51b81526004016103349061178b565b60405180910390fd5b6004805460405163fb64aac160e01b81526001600160a01b039091169163fb64aac19161036c913391016116d9565b60206040518083038186803b15801561038457600080fd5b505afa158015610398573d6000803e3d6000fd5b505050506040513d601f19601f820116820180604052506103bc91908101906112ad565b6103d85760405162461bcd60e51b81526004016103349061179b565b3360009081526001602081905260409091205460029181161561010002600019011604156104185760405162461bcd60e51b81526004016103349061177b565b336000908152600160205260409020610432908484610c2b565b5050600380546001600160801b03808216600101166fffffffffffffffffffffffffffffffff19909116179055505050565b6004546001600160a01b031615155b90565b6004546001600160a01b031633146104a05760405162461bcd60e51b81526004016103349061174b565b60005b8181101561055557600160008484848181106104bb57fe5b90506020020160206104d09190810190611144565b6001600160a01b03166001600160a01b0316815260200190815260200160002060006104fc9190610ca9565b6002600084848481811061050c57fe5b90506020020160206105219190810190611144565b6001600160a01b03166001600160a01b03168152602001908152602001600020600061054d9190610cf0565b6001016104a3565b5050600060035550565b60016020818152600092835260409283902080548451600294821615610100026000190190911693909304601f81018390048302840183019094528383529192908301828280156105f15780601f106105c6576101008083540402835291602001916105f1565b820191906000526020600020905b8154815290600101906020018083116105d457829003601f168201915b505050505081565b6003546001600160801b0380821691600160801b9004169091565b600354600160801b90046001600160801b031681565b6001600160a01b03811660009081526001602081815260409283902080548451600294821615610100026000190190911693909304601f810183900483028401830190945283835260609390918301828280156106c85780601f1061069d576101008083540402835291602001916106c8565b820191906000526020600020905b8154815290600101906020018083116106ab57829003601f168201915b50505050509050919050565b6106dc610c06565b6001600160a01b0316336001600160a01b0316148061071357506106fe610c06565b6001600160a01b0316326001600160a01b0316145b8061072c5750610721610c06565b6001600160a01b0316155b80610735575043155b6107515760405162461bcd60e51b81526004016103349061173b565b610759610464565b156107765760405162461bcd60e51b81526004016103349061171b565b82516107945760405162461bcd60e51b81526004016103349061176b565b81518351146107b55760405162461bcd60e51b81526004016103349061175b565b80518351146107d65760405162461bcd60e51b8152600401610334906117bb565b6001600160a01b0384166107fc5760405162461bcd60e51b81526004016103349061172b565b600480546001600160a01b0319166001600160a01b038616179055825161082a906000906020860190610d0e565b5060005b83518110156108ff5782818151811061084357fe5b60200260200101516001600086848151811061085b57fe5b60200260200101516001600160a01b03166001600160a01b031681526020019081526020016000209080519060200190610896929190610d6f565b508181815181106108a357fe5b6020026020010151600260008684815181106108bb57fe5b60200260200101516001600160a01b03166001600160a01b0316815260200190815260200160002090805190602001906108f6929190610ddd565b5060010161082e565b5050505050565b6004805460408051633ba6481760e21b81529051859384936001600160a01b03169263ee99205c9281830192602092829003018186803b15801561094957600080fd5b505afa15801561095d573d6000803e3d6000fd5b505050506040513d601f19601f82011682018060405250610981919081019061116a565b6001600160a01b031663794c0c686040518163ffffffff1660e01b815260040160206040518083038186803b1580156109b957600080fd5b505afa1580156109cd573d6000803e3d6000fd5b505050506040513d601f19601f820116820180604052506109f191908101906112e9565b60010114610a115760405162461bcd60e51b81526004016103349061178b565b6004805460405163fb64aac160e01b81526001600160a01b039091169163fb64aac191610a40913391016116d9565b60206040518083038186803b158015610a5857600080fd5b505afa158015610a6c573d6000803e3d6000fd5b505050506040513d601f19601f82011682018060405250610a9091908101906112ad565b610aac5760405162461bcd60e51b81526004016103349061179b565b3360009081526002602052604090205415610ad95760405162461bcd60e51b8152600401610334906117ab565b3360009081526002602090815260409091208351610af992850190610ddd565b50506003805460016001600160801b03600160801b808404821692909201811690910291161790555050565b60026020528160005260406000208181548110610b3e57fe5b600091825260209182902001805460408051601f600260001961010060018716150201909416939093049283018590048502810185019091528181529450909250908301828280156105f15780601f106105c6576101008083540402835291602001916105f1565b6001600160a01b031660009081526002602052604090205490565b6004546001600160a01b031681565b60008181548110610bdd57fe5b6000918252602090912001546001600160a01b0316905081565b6003546001600160801b031681565b7fb53127684a568b3173ae13b9f8a6016e243e63b6e8ee1178d6a717850b5d61035490565b828054600181600116156101000203166002900490600052602060002090601f016020900481019282601f10610c6c5782800160ff19823516178555610c99565b82800160010185558215610c99579182015b82811115610c99578235825591602001919060010190610c7e565b50610ca5929150610e36565b5090565b50805460018160011615610100020316600290046000825580601f10610ccf5750610ced565b601f016020900490600052602060002090810190610ced9190610e36565b50565b5080546000825590600052602060002090810190610ced9190610e50565b828054828255906000526020600020908101928215610d63579160200282015b82811115610d6357825182546001600160a01b0319166001600160a01b03909116178255602090920191600190910190610d2e565b50610ca5929150610e73565b828054600181600116156101000203166002900490600052602060002090601f016020900481019282601f10610db057805160ff1916838001178555610c99565b82800160010185558215610c99579182015b82811115610c99578251825591602001919060010190610dc2565b828054828255906000526020600020908101928215610e2a579160200282015b82811115610e2a5782518051610e1a918491602090910190610d6f565b5091602001919060010190610dfd565b50610ca5929150610e50565b61047391905b80821115610ca55760008155600101610e3c565b61047391905b80821115610ca5576000610e6a8282610ca9565b50600101610e56565b61047391905b80821115610ca55780546001600160a01b0319168155600101610e79565b8035610ea2816118ff565b92915050565b8051610ea2816118ff565b60008083601f840112610ec557600080fd5b50813567ffffffffffffffff811115610edd57600080fd5b602083019150836020820283011115610ef557600080fd5b9250929050565b600082601f830112610f0d57600080fd5b8135610f20610f1b82611829565b611802565b91508181835260208401935060208101905083856020840282011115610f4557600080fd5b60005b83811015610f715781610f5b8882610e97565b8452506020928301929190910190600101610f48565b5050505092915050565b600082601f830112610f8c57600080fd5b8135610f9a610f1b82611829565b81815260209384019390925082018360005b83811015610f715781358601610fc28882610fd8565b8452506020928301929190910190600101610fac565b600082601f830112610fe957600080fd5b8135610ff7610f1b82611829565b81815260209384019390925082018360005b83811015610f71578135860161101f88826110df565b8452506020928301929190910190600101611009565b600082601f83011261104657600080fd5b8135611054610f1b82611829565b81815260209384019390925082018360005b83811015610f71578135860161107c88826110df565b8452506020928301929190910190600101611066565b8051610ea281611913565b60008083601f8401126110af57600080fd5b50813567ffffffffffffffff8111156110c757600080fd5b602083019150836001820283011115610ef557600080fd5b600082601f8301126110f057600080fd5b81356110fe610f1b8261184a565b9150808252602083016020830185838301111561111a57600080fd5b6111258382846118b9565b50505092915050565b8035610ea28161191c565b8051610ea28161191c565b60006020828403121561115657600080fd5b60006111628484610e97565b949350505050565b60006020828403121561117c57600080fd5b60006111628484610ea8565b6000806000806080858703121561119e57600080fd5b60006111aa8787610e97565b945050602085013567ffffffffffffffff8111156111c757600080fd5b6111d387828801610efc565b935050604085013567ffffffffffffffff8111156111f057600080fd5b6111fc87828801611035565b925050606085013567ffffffffffffffff81111561121957600080fd5b61122587828801610f7b565b91505092959194509250565b6000806040838503121561124457600080fd5b60006112508585610e97565b92505060206112618582860161112e565b9150509250929050565b6000806020838503121561127e57600080fd5b823567ffffffffffffffff81111561129557600080fd5b6112a185828601610eb3565b92509250509250929050565b6000602082840312156112bf57600080fd5b60006111628484611092565b6000602082840312156112dd57600080fd5b6000611162848461112e565b6000602082840312156112fb57600080fd5b60006111628484611139565b6000806040838503121561131a57600080fd5b6000611326858561112e565b925050602083013567ffffffffffffffff81111561134357600080fd5b61126185828601611035565b60008060006040848603121561136457600080fd5b6000611370868661112e565b935050602084013567ffffffffffffffff81111561138d57600080fd5b6113998682870161109d565b92509250509250925092565b6113ae816118a7565b82525050565b6113ae8161187f565b6113ae8161188a565b60006113d182611872565b6113db8185611876565b93506113eb8185602086016118c5565b6113f4816118f5565b9093019392505050565b6113ae816118ae565b6000611414602483611876565b7f696e697469616c697a6174696f6e2063616e206f6e6c7920626520646f6e65208152636f6e636560e01b602082015260400192915050565b600061145a602783611876565b7f56616c696461746f7220636f6e747261637420616464726573732063616e6e6f8152663a10313290181760c91b602082015260400192915050565b60006114a3601483611876565b7329b2b73232b91036bab9ba1031329030b236b4b760611b815260200192915050565b60006114d3602883611876565b7f4d7573742062792065786563757465642062792076616c696461746f7253657481526710dbdb9d1c9858dd60c21b602082015260400192915050565b600061151d601683611876565b7557726f6e67206e756d626572206f662050617274732160501b815260200192915050565b600061154f601f83611876565b7f56616c696461746f7273206d757374206265206d6f7265207468616e20302e00815260200192915050565b6000611588601883611876565b7f506172747320616c7265616479207375626d6974746564210000000000000000815260200192915050565b60006115c1603b83611876565b7f4b65792047656e65726174696f6e2066756e6374696f6e2063616c6c6564207781527f6974682077726f6e67205f65706f636820706172616d657465722e0000000000602082015260400192915050565b6000611620602183611876565b7f53656e646572206973206e6f7420612070656e64696e672076616c696461746f8152603960f91b602082015260400192915050565b6000611663601683611876565b751058dadcc8185b1c9958591e481cdd589b5a5d1d195960521b815260200192915050565b6000611695601583611876565b7457726f6e67206e756d626572206f662041636b732160581b815260200192915050565b6113ae8161188f565b6113ae81610473565b60208101610ea282846113b4565b60208101610ea282846113a5565b60208101610ea282846113bd565b6020808252810161170681846113c6565b9392505050565b60208101610ea282846113fe565b60208082528101610ea281611407565b60208082528101610ea28161144d565b60208082528101610ea281611496565b60208082528101610ea2816114c6565b60208082528101610ea281611510565b60208082528101610ea281611542565b60208082528101610ea28161157b565b60208082528101610ea2816115b4565b60208082528101610ea281611613565b60208082528101610ea281611656565b60208082528101610ea281611688565b60208101610ea282846116b9565b604081016117e782856116b9565b61170660208301846116b9565b60208101610ea282846116c2565b60405181810167ffffffffffffffff8111828210171561182157600080fd5b604052919050565b600067ffffffffffffffff82111561184057600080fd5b5060209081020190565b600067ffffffffffffffff82111561186157600080fd5b506020601f91909101601f19160190565b5190565b90815260200190565b6000610ea28261189b565b151590565b6001600160801b031690565b6001600160a01b031690565b6000610ea2825b6000610ea28261187f565b82818337506000910152565b60005b838110156118e05781810151838201526020016118c8565b838111156118ef576000848401525b50505050565b601f01601f191690565b6119088161187f565b8114610ced57600080fd5b6119088161188a565b6119088161047356fea365627a7a72315820dc6f43d59166df5cff2b3c635852733a42d5a92367d44795da6c6083727f938e6c6578706572696d656e74616cf564736f6c63430005100040",
  "source": "pragma solidity ^0.5.16;\npragma experimental ABIEncoderV2;\n\nimport \"./interfaces/IKeyGenHistory.sol\";\nimport \"./interfaces/IValidatorSetHbbft.sol\";\nimport \"./upgradeability/UpgradeabilityAdmin.sol\";\nimport \"./interfaces/IStakingHbbft.sol\";\n\ncontract KeyGenHistory is UpgradeabilityAdmin, IKeyGenHistory {\n\n    // =============================================== Storage ========================================================\n\n    // WARNING: since this contract is upgradeable, do not remove\n    // existing storage variables and do not change their types!\n\n    // the current validator addresses\n    address[] public validatorSet;\n    mapping(address => bytes) public parts;\n    mapping(address => bytes[]) public acks;\n\n    /// @dev number of parts written in this key generation round.\n    uint128 public numberOfPartsWritten;\n\n    /// @dev number of full ack sets written in this key generation round.\n    uint128 public numberOfAcksWritten;\n\n    /// @dev The address of the `ValidatorSetHbbft` contract.\n    IValidatorSetHbbft public validatorSetContract;\n\n    event NewValidatorsSet(address[] newValidatorSet);\n\n    /// @dev Ensures the `initialize` function was called before.\n    modifier onlyInitialized {\n        require(isInitialized(), \"KeyGenHistory requires to be initialized\");\n        _;\n    }\n\n    /// @dev Ensures the caller is the SYSTEM_ADDRESS. See https://wiki.parity.io/Validator-Set.html\n    modifier onlySystem() {\n        require(msg.sender == 0xffffFFFfFFffffffffffffffFfFFFfffFFFfFFfE, \"Must be executed by System\");\n        _;\n    }\n\n    /// @dev Ensures the caller is ValidatorSet contract.\n    modifier onlyValidatorSet() {\n        require(msg.sender == address(validatorSetContract), \"Must by executed by validatorSetContract\");\n        _;\n    }\n\n    /// @dev ensures that Key Generation functions are called with wrong _epoch \n    /// parameter to prevent old and wrong transactions get picked up.\n    modifier onlyUpcommingEpoch(uint _epoch) {\n        require(IStakingHbbft(validatorSetContract.stakingContract()).stakingEpoch() + 1 == _epoch, \n            \"Key Generation function called with wrong _epoch parameter.\");\n        _;\n    }\n\n    /// @dev Clears the state (acks and parts of previous validators.\n    /// @param _prevValidators The list of previous validators.\n    function clearPrevKeyGenState(address[] calldata _prevValidators)\n    external\n    onlyValidatorSet {\n\n        for (uint256 i = 0; i < _prevValidators.length; i++) {\n            delete parts[_prevValidators[i]];\n            delete acks[_prevValidators[i]];\n        }\n        numberOfPartsWritten = 0;\n        numberOfAcksWritten = 0;\n    }\n\n    function initialize(\n        address _validatorSetContract,\n        address[] memory _validators,\n        bytes[] memory _parts,\n        bytes[][] memory _acks\n    ) public {\n        // Unit Tests may deploy at block numbers other than 0.\n        require(msg.sender == _admin() || tx.origin ==  _admin() \n            || address(0) ==  _admin() || block.number == 0, \"Sender must be admin\");\n        require(!isInitialized(), \"initialization can only be done once\"); // initialization can only be done once\n        require(_validators.length != 0, \"Validators must be more than 0.\");\n        require(_validators.length == _parts.length, \"Wrong number of Parts!\");\n        require(_validators.length == _acks.length, \"Wrong number of Acks!\");\n        require(_validatorSetContract != address(0), \"Validator contract address cannot be 0.\");\n\n        validatorSetContract = IValidatorSetHbbft(_validatorSetContract);\n        validatorSet = _validators;\n\n        for (uint256 i = 0; i < _validators.length; i++) {\n            parts[_validators[i]] = _parts[i];\n            acks[_validators[i]] = _acks[i];\n        }\n    }\n\n    function writePart(uint _upcommingEpoch, bytes calldata _part)\n    external\n    onlyUpcommingEpoch(_upcommingEpoch) {\n        // It can only be called by a new validator which is elected but not yet finalized...\n        // ...or by a validator which is already in the validator set.\n        require(validatorSetContract.isPendingValidator(msg.sender), \"Sender is not a pending validator\");\n        require(parts[msg.sender].length == 0, \"Parts already submitted!\");\n        parts[msg.sender] = _part;\n        numberOfPartsWritten++;\n    }\n\n    function writeAcks(uint _upcommingEpoch, bytes[] memory _acks)\n    public\n    onlyUpcommingEpoch(_upcommingEpoch) {\n        // It can only be called by a new validator which is elected but not yet finalized...\n        // ...or by a validator which is already in the validator set.\n        require(validatorSetContract.isPendingValidator(msg.sender), \"Sender is not a pending validator\");\n        require(acks[msg.sender].length == 0, \"Acks already submitted\");\n        acks[msg.sender] = _acks;\n        numberOfAcksWritten++;\n    }\n\n    function getPart(address _val)\n    external\n    view\n    returns (bytes memory) {\n        return parts[_val];\n    }\n\n    function getAcksLength(address val)\n    external\n    view\n    returns(uint256) {\n        return acks[val].length;\n    }\n\n    function getNumberOfKeyFragmentsWritten()\n    external\n    view \n    returns(uint128, uint128) {\n        return (numberOfPartsWritten, numberOfAcksWritten);\n    }\n\n    /// @dev Returns a boolean flag indicating if the `initialize` function has been called.\n    function isInitialized()\n    public\n    view\n    returns(bool) {\n        return validatorSetContract != IValidatorSetHbbft(0);\n    }\n}\n",
  "sourcePath": "/home/sn/dmd/dmd-meta/hbbft-posdao-contracts/contracts/KeyGenHistory.sol",
  "compiler": {
    "name": "solc",
    "version": "0.5.16+commit.9c3226ce.Emscripten.clang"
  },
  "schemaVersion": "3.3.1",
  "updatedAt": "2021-02-04T17:05:50.458Z",
  "devdoc": {
    "methods": {
      "clearPrevKeyGenState(address[])": {
        "details": "Clears the state (acks and parts of previous validators.",
        "params": {
          "_prevValidators": "The list of previous validators."
        }
      },
      "isInitialized()": {
        "details": "Returns a boolean flag indicating if the `initialize` function has been called."
      }
    }
  },
  "userdoc": {
    "methods": {}
  }
}