{
  "contractName": "StakingHbbftCoinsMock",
  "abi": [
    {
      "anonymous": false,
      "inputs": [
        {
          "indexed": true,
          "internalType": "address",
          "name": "fromPoolStakingAddress",
          "type": "address"
        },
        {
          "indexed": true,
          "internalType": "address",
          "name": "staker",
          "type": "address"
        },
        {
          "indexed": true,
          "internalType": "uint256",
          "name": "stakingEpoch",
          "type": "uint256"
        },
        {
          "indexed": false,
          "internalType": "uint256",
          "name": "amount",
          "type": "uint256"
        }
      ],
      "name": "ClaimedOrderedWithdrawal",
      "type": "event"
    },
    {
      "anonymous": false,
      "inputs": [
        {
          "indexed": true,
          "internalType": "address",
          "name": "fromPoolStakingAddress",
          "type": "address"
        },
        {
          "indexed": true,
          "internalType": "address",
          "name": "staker",
          "type": "address"
        },
        {
          "indexed": true,
          "internalType": "uint256",
          "name": "stakingEpoch",
          "type": "uint256"
        },
        {
          "indexed": false,
          "internalType": "uint256",
          "name": "nativeCoinsAmount",
          "type": "uint256"
        }
      ],
      "name": "ClaimedReward",
      "type": "event"
    },
    {
      "anonymous": false,
      "inputs": [
        {
          "indexed": false,
          "internalType": "address",
          "name": "fromPoolStakingAddress",
          "type": "address"
        },
        {
          "indexed": true,
          "internalType": "address",
          "name": "toPoolStakingAddress",
          "type": "address"
        },
        {
          "indexed": true,
          "internalType": "address",
          "name": "staker",
          "type": "address"
        },
        {
          "indexed": true,
          "internalType": "uint256",
          "name": "stakingEpoch",
          "type": "uint256"
        },
        {
          "indexed": false,
          "internalType": "uint256",
          "name": "amount",
          "type": "uint256"
        }
      ],
      "name": "MovedStake",
      "type": "event"
    },
    {
      "anonymous": false,
      "inputs": [
        {
          "indexed": true,
          "internalType": "address",
          "name": "fromPoolStakingAddress",
          "type": "address"
        },
        {
          "indexed": true,
          "internalType": "address",
          "name": "staker",
          "type": "address"
        },
        {
          "indexed": true,
          "internalType": "uint256",
          "name": "stakingEpoch",
          "type": "uint256"
        },
        {
          "indexed": false,
          "internalType": "int256",
          "name": "amount",
          "type": "int256"
        }
      ],
      "name": "OrderedWithdrawal",
      "type": "event"
    },
    {
      "anonymous": false,
      "inputs": [
        {
          "indexed": true,
          "internalType": "address",
          "name": "toPoolStakingAddress",
          "type": "address"
        },
        {
          "indexed": true,
          "internalType": "address",
          "name": "staker",
          "type": "address"
        },
        {
          "indexed": true,
          "internalType": "uint256",
          "name": "stakingEpoch",
          "type": "uint256"
        },
        {
          "indexed": false,
          "internalType": "uint256",
          "name": "amount",
          "type": "uint256"
        }
      ],
      "name": "PlacedStake",
      "type": "event"
    },
    {
      "anonymous": false,
      "inputs": [
        {
          "indexed": true,
          "internalType": "address",
          "name": "fromPoolStakingAddress",
          "type": "address"
        },
        {
          "indexed": true,
          "internalType": "address",
          "name": "staker",
          "type": "address"
        },
        {
          "indexed": true,
          "internalType": "uint256",
          "name": "stakingEpoch",
          "type": "uint256"
        },
        {
          "indexed": false,
          "internalType": "uint256",
          "name": "amount",
          "type": "uint256"
        }
      ],
      "name": "WithdrewStake",
      "type": "event"
    },
    {
      "payable": true,
      "stateMutability": "payable",
      "type": "fallback"
    },
    {
      "constant": true,
      "inputs": [],
      "name": "MAX_CANDIDATES",
      "outputs": [
        {
          "internalType": "uint256",
          "name": "",
          "type": "uint256"
        }
      ],
      "payable": false,
      "stateMutability": "view",
      "type": "function"
    },
    {
      "constant": false,
      "inputs": [
        {
          "internalType": "address",
          "name": "_miningAddress",
          "type": "address"
        },
        {
          "internalType": "bytes",
          "name": "_publicKey",
          "type": "bytes"
        },
        {
          "internalType": "bytes16",
          "name": "_ip",
          "type": "bytes16"
        }
      ],
      "name": "addPool",
      "outputs": [],
      "payable": true,
      "stateMutability": "payable",
      "type": "function"
    },
    {
      "constant": false,
      "inputs": [
        {
          "internalType": "address",
          "name": "_stakingAddress",
          "type": "address"
        }
      ],
      "name": "addPoolActiveMock",
      "outputs": [],
      "payable": false,
      "stateMutability": "nonpayable",
      "type": "function"
    },
    {
      "constant": false,
      "inputs": [
        {
          "internalType": "address",
          "name": "_stakingAddress",
          "type": "address"
        }
      ],
      "name": "addPoolInactiveMock",
      "outputs": [],
      "payable": false,
      "stateMutability": "nonpayable",
      "type": "function"
    },
    {
      "constant": true,
      "inputs": [],
      "name": "areStakeAndWithdrawAllowed",
      "outputs": [
        {
          "internalType": "bool",
          "name": "",
          "type": "bool"
        }
      ],
      "payable": false,
      "stateMutability": "view",
      "type": "function"
    },
    {
      "constant": true,
      "inputs": [],
      "name": "candidateMinStake",
      "outputs": [
        {
          "internalType": "uint256",
          "name": "",
          "type": "uint256"
        }
      ],
      "payable": false,
      "stateMutability": "view",
      "type": "function"
    },
    {
      "constant": false,
      "inputs": [
        {
          "internalType": "address",
          "name": "_poolStakingAddress",
          "type": "address"
        }
      ],
      "name": "claimOrderedWithdraw",
      "outputs": [],
      "payable": false,
      "stateMutability": "nonpayable",
      "type": "function"
    },
    {
      "constant": false,
      "inputs": [
        {
          "internalType": "uint256[]",
          "name": "_stakingEpochs",
          "type": "uint256[]"
        },
        {
          "internalType": "address",
          "name": "_poolStakingAddress",
          "type": "address"
        }
      ],
      "name": "claimReward",
      "outputs": [],
      "payable": false,
      "stateMutability": "nonpayable",
      "type": "function"
    },
    {
      "constant": false,
      "inputs": [
        {
          "internalType": "address",
          "name": "_poolStakingAddress",
          "type": "address"
        },
        {
          "internalType": "address",
          "name": "_delegator",
          "type": "address"
        },
        {
          "internalType": "uint256",
          "name": "_stakingEpoch",
          "type": "uint256"
        }
      ],
      "name": "clearDelegatorStakeSnapshot",
      "outputs": [],
      "payable": false,
      "stateMutability": "nonpayable",
      "type": "function"
    },
    {
      "constant": false,
      "inputs": [
        {
          "internalType": "address",
          "name": "_poolStakingAddress",
          "type": "address"
        },
        {
          "internalType": "address",
          "name": "_staker",
          "type": "address"
        },
        {
          "internalType": "uint256",
          "name": "_epoch",
          "type": "uint256"
        }
      ],
      "name": "clearRewardWasTaken",
      "outputs": [],
      "payable": false,
      "stateMutability": "nonpayable",
      "type": "function"
    },
    {
      "constant": true,
      "inputs": [],
      "name": "currentKeyGenExtraTimeWindow",
      "outputs": [
        {
          "internalType": "uint256",
          "name": "",
          "type": "uint256"
        }
      ],
      "payable": false,
      "stateMutability": "view",
      "type": "function"
    },
    {
      "constant": true,
      "inputs": [],
      "name": "delegatorMinStake",
      "outputs": [
        {
          "internalType": "uint256",
          "name": "",
          "type": "uint256"
        }
      ],
      "payable": false,
      "stateMutability": "view",
      "type": "function"
    },
    {
      "constant": true,
      "inputs": [
        {
          "internalType": "address",
          "name": "",
          "type": "address"
        },
        {
          "internalType": "address",
          "name": "",
          "type": "address"
        },
        {
          "internalType": "uint256",
          "name": "",
          "type": "uint256"
        }
      ],
      "name": "delegatorStakeSnapshot",
      "outputs": [
        {
          "internalType": "uint256",
          "name": "",
          "type": "uint256"
        }
      ],
      "payable": false,
      "stateMutability": "view",
      "type": "function"
    },
    {
      "constant": true,
      "inputs": [
        {
          "internalType": "address",
          "name": "_poolAddress",
          "type": "address"
        }
      ],
      "name": "getPoolInternetAddress",
      "outputs": [
        {
          "internalType": "bytes16",
          "name": "",
          "type": "bytes16"
        }
      ],
      "payable": false,
      "stateMutability": "view",
      "type": "function"
    },
    {
      "constant": true,
      "inputs": [
        {
          "internalType": "address",
          "name": "_poolAddress",
          "type": "address"
        }
      ],
      "name": "getPoolPublicKey",
      "outputs": [
        {
          "internalType": "bytes",
          "name": "",
          "type": "bytes"
        }
      ],
      "payable": false,
      "stateMutability": "view",
      "type": "function"
    },
    {
      "constant": true,
      "inputs": [],
      "name": "getPools",
      "outputs": [
        {
          "internalType": "address[]",
          "name": "",
          "type": "address[]"
        }
      ],
      "payable": false,
      "stateMutability": "view",
      "type": "function"
    },
    {
      "constant": true,
      "inputs": [],
      "name": "getPoolsInactive",
      "outputs": [
        {
          "internalType": "address[]",
          "name": "",
          "type": "address[]"
        }
      ],
      "payable": false,
      "stateMutability": "view",
      "type": "function"
    },
    {
      "constant": true,
      "inputs": [],
      "name": "getPoolsLikelihood",
      "outputs": [
        {
          "internalType": "uint256[]",
          "name": "likelihoods",
          "type": "uint256[]"
        },
        {
          "internalType": "uint256",
          "name": "sum",
          "type": "uint256"
        }
      ],
      "payable": false,
      "stateMutability": "view",
      "type": "function"
    },
    {
      "constant": true,
      "inputs": [],
      "name": "getPoolsToBeElected",
      "outputs": [
        {
          "internalType": "address[]",
          "name": "",
          "type": "address[]"
        }
      ],
      "payable": false,
      "stateMutability": "view",
      "type": "function"
    },
    {
      "constant": true,
      "inputs": [],
      "name": "getPoolsToBeRemoved",
      "outputs": [
        {
          "internalType": "address[]",
          "name": "",
          "type": "address[]"
        }
      ],
      "payable": false,
      "stateMutability": "view",
      "type": "function"
    },
    {
      "constant": true,
      "inputs": [
        {
          "internalType": "uint256[]",
          "name": "_stakingEpochs",
          "type": "uint256[]"
        },
        {
          "internalType": "address",
          "name": "_poolStakingAddress",
          "type": "address"
        },
        {
          "internalType": "address",
          "name": "_staker",
          "type": "address"
        }
      ],
      "name": "getRewardAmount",
      "outputs": [
        {
          "internalType": "uint256",
          "name": "",
          "type": "uint256"
        }
      ],
      "payable": false,
      "stateMutability": "view",
      "type": "function"
    },
    {
      "constant": false,
      "inputs": [],
      "name": "incrementStakingEpoch",
      "outputs": [],
      "payable": false,
      "stateMutability": "nonpayable",
      "type": "function"
    },
    {
      "constant": false,
      "inputs": [
        {
          "internalType": "address",
          "name": "_validatorSetContract",
          "type": "address"
        },
        {
          "internalType": "address[]",
          "name": "_initialStakingAddresses",
          "type": "address[]"
        },
        {
          "internalType": "uint256",
          "name": "_delegatorMinStake",
          "type": "uint256"
        },
        {
          "internalType": "uint256",
          "name": "_candidateMinStake",
          "type": "uint256"
        },
        {
          "internalType": "uint256",
          "name": "_stakingFixedEpochDuration",
          "type": "uint256"
        },
        {
          "internalType": "uint256",
          "name": "_stakingTransitionTimeframeLength",
          "type": "uint256"
        },
        {
          "internalType": "uint256",
          "name": "_stakingWithdrawDisallowPeriod",
          "type": "uint256"
        },
        {
          "internalType": "bytes32[]",
          "name": "_publicKeys",
          "type": "bytes32[]"
        },
        {
          "internalType": "bytes16[]",
          "name": "_internetAddresses",
          "type": "bytes16[]"
        }
      ],
      "name": "initialize",
      "outputs": [],
      "payable": false,
      "stateMutability": "nonpayable",
      "type": "function"
    },
    {
      "constant": true,
      "inputs": [],
      "name": "isInitialized",
      "outputs": [
        {
          "internalType": "bool",
          "name": "",
          "type": "bool"
        }
      ],
      "payable": false,
      "stateMutability": "view",
      "type": "function"
    },
    {
      "constant": true,
      "inputs": [
        {
          "internalType": "address",
          "name": "_stakingAddress",
          "type": "address"
        }
      ],
      "name": "isPoolActive",
      "outputs": [
        {
          "internalType": "bool",
          "name": "",
          "type": "bool"
        }
      ],
      "payable": false,
      "stateMutability": "view",
      "type": "function"
    },
    {
      "constant": true,
      "inputs": [
        {
          "internalType": "address",
          "name": "_poolStakingAddress",
          "type": "address"
        },
        {
          "internalType": "address",
          "name": "_staker",
          "type": "address"
        }
      ],
      "name": "maxWithdrawAllowed",
      "outputs": [
        {
          "internalType": "uint256",
          "name": "",
          "type": "uint256"
        }
      ],
      "payable": false,
      "stateMutability": "view",
      "type": "function"
    },
    {
      "constant": true,
      "inputs": [
        {
          "internalType": "address",
          "name": "_poolStakingAddress",
          "type": "address"
        },
        {
          "internalType": "address",
          "name": "_staker",
          "type": "address"
        }
      ],
      "name": "maxWithdrawOrderAllowed",
      "outputs": [
        {
          "internalType": "uint256",
          "name": "",
          "type": "uint256"
        }
      ],
      "payable": false,
      "stateMutability": "view",
      "type": "function"
    },
    {
      "constant": false,
      "inputs": [
        {
          "internalType": "address",
          "name": "_fromPoolStakingAddress",
          "type": "address"
        },
        {
          "internalType": "address",
          "name": "_toPoolStakingAddress",
          "type": "address"
        },
        {
          "internalType": "uint256",
          "name": "_amount",
          "type": "uint256"
        }
      ],
      "name": "moveStake",
      "outputs": [],
      "payable": false,
      "stateMutability": "nonpayable",
      "type": "function"
    },
    {
      "constant": false,
      "inputs": [
        {
          "internalType": "address",
          "name": "_stakingAddress",
          "type": "address"
        }
      ],
      "name": "notifyAvailability",
      "outputs": [],
      "payable": false,
      "stateMutability": "nonpayable",
      "type": "function"
    },
    {
      "constant": false,
      "inputs": [],
      "name": "notifyKeyGenFailed",
      "outputs": [],
      "payable": false,
      "stateMutability": "nonpayable",
      "type": "function"
    },
    {
      "constant": false,
      "inputs": [
        {
          "internalType": "address",
          "name": "_poolStakingAddress",
          "type": "address"
        },
        {
          "internalType": "int256",
          "name": "_amount",
          "type": "int256"
        }
      ],
      "name": "orderWithdraw",
      "outputs": [],
      "payable": false,
      "stateMutability": "nonpayable",
      "type": "function"
    },
    {
      "constant": true,
      "inputs": [
        {
          "internalType": "address",
          "name": "",
          "type": "address"
        },
        {
          "internalType": "address",
          "name": "",
          "type": "address"
        }
      ],
      "name": "orderWithdrawEpoch",
      "outputs": [
        {
          "internalType": "uint256",
          "name": "",
          "type": "uint256"
        }
      ],
      "payable": false,
      "stateMutability": "view",
      "type": "function"
    },
    {
      "constant": true,
      "inputs": [
        {
          "internalType": "address",
          "name": "",
          "type": "address"
        },
        {
          "internalType": "address",
          "name": "",
          "type": "address"
        }
      ],
      "name": "orderedWithdrawAmount",
      "outputs": [
        {
          "internalType": "uint256",
          "name": "",
          "type": "uint256"
        }
      ],
      "payable": false,
      "stateMutability": "view",
      "type": "function"
    },
    {
      "constant": true,
      "inputs": [
        {
          "internalType": "address",
          "name": "",
          "type": "address"
        }
      ],
      "name": "orderedWithdrawAmountTotal",
      "outputs": [
        {
          "internalType": "uint256",
          "name": "",
          "type": "uint256"
        }
      ],
      "payable": false,
      "stateMutability": "view",
      "type": "function"
    },
    {
      "constant": true,
      "inputs": [
        {
          "internalType": "address",
          "name": "",
          "type": "address"
        },
        {
          "internalType": "address",
          "name": "",
          "type": "address"
        }
      ],
      "name": "poolDelegatorInactiveIndex",
      "outputs": [
        {
          "internalType": "uint256",
          "name": "",
          "type": "uint256"
        }
      ],
      "payable": false,
      "stateMutability": "view",
      "type": "function"
    },
    {
      "constant": true,
      "inputs": [
        {
          "internalType": "address",
          "name": "",
          "type": "address"
        },
        {
          "internalType": "address",
          "name": "",
          "type": "address"
        }
      ],
      "name": "poolDelegatorIndex",
      "outputs": [
        {
          "internalType": "uint256",
          "name": "",
          "type": "uint256"
        }
      ],
      "payable": false,
      "stateMutability": "view",
      "type": "function"
    },
    {
      "constant": true,
      "inputs": [
        {
          "internalType": "address",
          "name": "_poolStakingAddress",
          "type": "address"
        }
      ],
      "name": "poolDelegators",
      "outputs": [
        {
          "internalType": "address[]",
          "name": "",
          "type": "address[]"
        }
      ],
      "payable": false,
      "stateMutability": "view",
      "type": "function"
    },
    {
      "constant": true,
      "inputs": [
        {
          "internalType": "address",
          "name": "_poolStakingAddress",
          "type": "address"
        }
      ],
      "name": "poolDelegatorsInactive",
      "outputs": [
        {
          "internalType": "address[]",
          "name": "",
          "type": "address[]"
        }
      ],
      "payable": false,
      "stateMutability": "view",
      "type": "function"
    },
    {
      "constant": true,
      "inputs": [
        {
          "internalType": "address",
          "name": "",
          "type": "address"
        }
      ],
      "name": "poolInactiveIndex",
      "outputs": [
        {
          "internalType": "uint256",
          "name": "",
          "type": "uint256"
        }
      ],
      "payable": false,
      "stateMutability": "view",
      "type": "function"
    },
    {
      "constant": true,
      "inputs": [
        {
          "internalType": "address",
          "name": "",
          "type": "address"
        }
      ],
      "name": "poolIndex",
      "outputs": [
        {
          "internalType": "uint256",
          "name": "",
          "type": "uint256"
        }
      ],
      "payable": false,
      "stateMutability": "view",
      "type": "function"
    },
    {
      "constant": true,
      "inputs": [
        {
          "internalType": "address",
          "name": "",
          "type": "address"
        }
      ],
      "name": "poolInfo",
      "outputs": [
        {
          "internalType": "bytes",
          "name": "publicKey",
          "type": "bytes"
        },
        {
          "internalType": "bytes16",
          "name": "internetAddress",
          "type": "bytes16"
        }
      ],
      "payable": false,
      "stateMutability": "view",
      "type": "function"
    },
    {
      "constant": true,
      "inputs": [
        {
          "internalType": "address",
          "name": "",
          "type": "address"
        }
      ],
      "name": "poolToBeElectedIndex",
      "outputs": [
        {
          "internalType": "uint256",
          "name": "",
          "type": "uint256"
        }
      ],
      "payable": false,
      "stateMutability": "view",
      "type": "function"
    },
    {
      "constant": true,
      "inputs": [
        {
          "internalType": "address",
          "name": "",
          "type": "address"
        }
      ],
      "name": "poolToBeRemovedIndex",
      "outputs": [
        {
          "internalType": "uint256",
          "name": "",
          "type": "uint256"
        }
      ],
      "payable": false,
      "stateMutability": "view",
      "type": "function"
    },
    {
      "constant": false,
      "inputs": [],
      "name": "removeMyPool",
      "outputs": [],
      "payable": false,
      "stateMutability": "nonpayable",
      "type": "function"
    },
    {
      "constant": false,
      "inputs": [
        {
          "internalType": "address",
          "name": "_stakingAddress",
          "type": "address"
        }
      ],
      "name": "removePool",
      "outputs": [],
      "payable": false,
      "stateMutability": "nonpayable",
      "type": "function"
    },
    {
      "constant": false,
      "inputs": [],
      "name": "removePools",
      "outputs": [],
      "payable": false,
      "stateMutability": "nonpayable",
      "type": "function"
    },
    {
      "constant": true,
      "inputs": [
        {
          "internalType": "address",
          "name": "",
          "type": "address"
        },
        {
          "internalType": "address",
          "name": "",
          "type": "address"
        },
        {
          "internalType": "uint256",
          "name": "",
          "type": "uint256"
        }
      ],
      "name": "rewardWasTaken",
      "outputs": [
        {
          "internalType": "bool",
          "name": "",
          "type": "bool"
        }
      ],
      "payable": false,
      "stateMutability": "view",
      "type": "function"
    },
    {
      "constant": false,
      "inputs": [
        {
          "internalType": "uint256",
          "name": "_minStake",
          "type": "uint256"
        }
      ],
      "name": "setCandidateMinStake",
      "outputs": [],
      "payable": false,
      "stateMutability": "nonpayable",
      "type": "function"
    },
    {
      "constant": false,
      "inputs": [
        {
          "internalType": "uint256",
          "name": "_minStake",
          "type": "uint256"
        }
      ],
      "name": "setDelegatorMinStake",
      "outputs": [],
      "payable": false,
      "stateMutability": "nonpayable",
      "type": "function"
    },
    {
      "constant": false,
      "inputs": [
        {
          "internalType": "bytes",
          "name": "_publicKey",
          "type": "bytes"
        },
        {
          "internalType": "bytes16",
          "name": "_ip",
          "type": "bytes16"
        }
      ],
      "name": "setPoolInfo",
      "outputs": [],
      "payable": false,
      "stateMutability": "nonpayable",
      "type": "function"
    },
    {
      "constant": false,
      "inputs": [
        {
          "internalType": "address",
          "name": "_poolStakingAddress",
          "type": "address"
        },
        {
          "internalType": "uint256",
          "name": "_amount",
          "type": "uint256"
        }
      ],
      "name": "setStakeAmountTotal",
      "outputs": [],
      "payable": false,
      "stateMutability": "nonpayable",
      "type": "function"
    },
    {
      "constant": false,
      "inputs": [
        {
          "internalType": "address",
          "name": "_poolStakingAddress",
          "type": "address"
        },
        {
          "internalType": "address",
          "name": "_delegator",
          "type": "address"
        },
        {
          "internalType": "uint256",
          "name": "_value",
          "type": "uint256"
        }
      ],
      "name": "setStakeFirstEpoch",
      "outputs": [],
      "payable": false,
      "stateMutability": "nonpayable",
      "type": "function"
    },
    {
      "constant": false,
      "inputs": [
        {
          "internalType": "address",
          "name": "_poolStakingAddress",
          "type": "address"
        },
        {
          "internalType": "address",
          "name": "_delegator",
          "type": "address"
        },
        {
          "internalType": "uint256",
          "name": "_value",
          "type": "uint256"
        }
      ],
      "name": "setStakeLastEpoch",
      "outputs": [],
      "payable": false,
      "stateMutability": "nonpayable",
      "type": "function"
    },
    {
      "constant": false,
      "inputs": [
        {
          "internalType": "uint256",
          "name": "_stakingEpoch",
          "type": "uint256"
        }
      ],
      "name": "setStakingEpoch",
      "outputs": [],
      "payable": false,
      "stateMutability": "nonpayable",
      "type": "function"
    },
    {
      "constant": false,
      "inputs": [
        {
          "internalType": "uint256",
          "name": "_timestamp",
          "type": "uint256"
        }
      ],
      "name": "setStakingEpochStartTime",
      "outputs": [],
      "payable": false,
      "stateMutability": "nonpayable",
      "type": "function"
    },
    {
      "constant": false,
      "inputs": [
        {
          "internalType": "contract IValidatorSetHbbft",
          "name": "_validatorSetAddress",
          "type": "address"
        }
      ],
      "name": "setValidatorSetAddress",
      "outputs": [],
      "payable": false,
      "stateMutability": "nonpayable",
      "type": "function"
    },
    {
      "constant": false,
      "inputs": [
        {
          "internalType": "address",
          "name": "_toPoolStakingAddress",
          "type": "address"
        }
      ],
      "name": "stake",
      "outputs": [],
      "payable": true,
      "stateMutability": "payable",
      "type": "function"
    },
    {
      "constant": true,
      "inputs": [
        {
          "internalType": "address",
          "name": "",
          "type": "address"
        },
        {
          "internalType": "address",
          "name": "",
          "type": "address"
        }
      ],
      "name": "stakeAmount",
      "outputs": [
        {
          "internalType": "uint256",
          "name": "",
          "type": "uint256"
        }
      ],
      "payable": false,
      "stateMutability": "view",
      "type": "function"
    },
    {
      "constant": true,
      "inputs": [
        {
          "internalType": "address",
          "name": "_poolStakingAddress",
          "type": "address"
        },
        {
          "internalType": "address",
          "name": "_staker",
          "type": "address"
        }
      ],
      "name": "stakeAmountByCurrentEpoch",
      "outputs": [
        {
          "internalType": "uint256",
          "name": "",
          "type": "uint256"
        }
      ],
      "payable": false,
      "stateMutability": "view",
      "type": "function"
    },
    {
      "constant": true,
      "inputs": [
        {
          "internalType": "address",
          "name": "",
          "type": "address"
        }
      ],
      "name": "stakeAmountTotal",
      "outputs": [
        {
          "internalType": "uint256",
          "name": "",
          "type": "uint256"
        }
      ],
      "payable": false,
      "stateMutability": "view",
      "type": "function"
    },
    {
      "constant": true,
      "inputs": [
        {
          "internalType": "address",
          "name": "",
          "type": "address"
        },
        {
          "internalType": "address",
          "name": "",
          "type": "address"
        }
      ],
      "name": "stakeFirstEpoch",
      "outputs": [
        {
          "internalType": "uint256",
          "name": "",
          "type": "uint256"
        }
      ],
      "payable": false,
      "stateMutability": "view",
      "type": "function"
    },
    {
      "constant": true,
      "inputs": [
        {
          "internalType": "address",
          "name": "",
          "type": "address"
        },
        {
          "internalType": "address",
          "name": "",
          "type": "address"
        }
      ],
      "name": "stakeLastEpoch",
      "outputs": [
        {
          "internalType": "uint256",
          "name": "",
          "type": "uint256"
        }
      ],
      "payable": false,
      "stateMutability": "view",
      "type": "function"
    },
    {
      "constant": true,
      "inputs": [],
      "name": "stakingEpoch",
      "outputs": [
        {
          "internalType": "uint256",
          "name": "",
          "type": "uint256"
        }
      ],
      "payable": false,
      "stateMutability": "view",
      "type": "function"
    },
    {
      "constant": true,
      "inputs": [],
      "name": "stakingEpochStartBlock",
      "outputs": [
        {
          "internalType": "uint256",
          "name": "",
          "type": "uint256"
        }
      ],
      "payable": false,
      "stateMutability": "view",
      "type": "function"
    },
    {
      "constant": true,
      "inputs": [],
      "name": "stakingEpochStartTime",
      "outputs": [
        {
          "internalType": "uint256",
          "name": "",
          "type": "uint256"
        }
      ],
      "payable": false,
      "stateMutability": "view",
      "type": "function"
    },
    {
      "constant": true,
      "inputs": [],
      "name": "stakingFixedEpochDuration",
      "outputs": [
        {
          "internalType": "uint256",
          "name": "",
          "type": "uint256"
        }
      ],
      "payable": false,
      "stateMutability": "view",
      "type": "function"
    },
    {
      "constant": true,
      "inputs": [],
      "name": "stakingFixedEpochEndTime",
      "outputs": [
        {
          "internalType": "uint256",
          "name": "",
          "type": "uint256"
        }
      ],
      "payable": false,
      "stateMutability": "view",
      "type": "function"
    },
    {
      "constant": true,
      "inputs": [],
      "name": "stakingTransitionTimeframeLength",
      "outputs": [
        {
          "internalType": "uint256",
          "name": "",
          "type": "uint256"
        }
      ],
      "payable": false,
      "stateMutability": "view",
      "type": "function"
    },
    {
      "constant": true,
      "inputs": [],
      "name": "stakingWithdrawDisallowPeriod",
      "outputs": [
        {
          "internalType": "uint256",
          "name": "",
          "type": "uint256"
        }
      ],
      "payable": false,
      "stateMutability": "view",
      "type": "function"
    },
    {
      "constant": true,
      "inputs": [],
      "name": "startTimeOfNextPhaseTransition",
      "outputs": [
        {
          "internalType": "uint256",
          "name": "",
          "type": "uint256"
        }
      ],
      "payable": false,
      "stateMutability": "view",
      "type": "function"
    },
    {
      "constant": true,
      "inputs": [],
      "name": "validatorSetContract",
      "outputs": [
        {
          "internalType": "contract IValidatorSetHbbft",
          "name": "",
          "type": "address"
        }
      ],
      "payable": false,
      "stateMutability": "view",
      "type": "function"
    },
    {
      "constant": false,
      "inputs": [
        {
          "internalType": "address",
          "name": "_fromPoolStakingAddress",
          "type": "address"
        },
        {
          "internalType": "uint256",
          "name": "_amount",
          "type": "uint256"
        }
      ],
      "name": "withdraw",
      "outputs": [],
      "payable": false,
      "stateMutability": "nonpayable",
      "type": "function"
    }
  ],
  "bytecode": "0x608060405234801561001057600080fd5b5061662480620000216000396000f3fe60806040526004361061041a5760003560e01c8063950a65131161021e578063d290c21d11610123578063edd7db75116100ab578063f3fef3a31161007a578063f3fef3a3146113ef578063f494250114611428578063fa4aaf471461143d578063fb367a9b14611470578063ffada862146115345761041a565b8063edd7db751461137d578063edf94b8214611392578063ee435f55146113c5578063f0786096146113da5761041a565b8063df6f55f5116100f2578063df6f55f514611290578063dfc8bf4e146112a5578063e2a43cd9146112d6578063e9ab03001461130f578063eb3efa161461134a5761041a565b8063d290c21d146111ae578063d958e2e9146111c3578063da7a9b6a14611248578063dadee88a1461125d5761041a565b8063a711e6a1116101a6578063b61ed63a11610175578063b61ed63a146110af578063bc9eb2c3146110e8578063bd30d31d14611123578063c6912cc014611166578063cfef14411461117b5761041a565b8063a711e6a11461101f578063adddc0cf14611052578063ae1aaf8014611067578063b42754a51461107c5761041a565b80639b03d744116101ed5780639b03d74414610f4c5780639ea8082b14610f61578063a420596714610f94578063a5d54f6514610fcf578063a697ecff14610fe45761041a565b8063950a651314610da05780639518c48114610ddb578063957950a714610e165780639a7b5f1114610e865761041a565b80634f9a8d8f11610324578063673a2a1f116102ac57806373c218031161027b57806373c2180314610cc0578063750dd2a114610cf3578063794c0c6814610d2e5780637b15b94c14610d435780638247a23914610d765761041a565b8063673a2a1f14610bc85780636bda157714610c2d5780636eda21dc14610c685780637069e74614610cab5761041a565b80635ca2b650116102f35780635ca2b65014610ae05780635fef764314610b0a578063611d760c14610b1f5780636421314714610b525780636511391814610b955761041a565b80634f9a8d8f146109d55780635267e1d6146109ea5780635659b74214610a1d57806356e4d6c214610a585761041a565b80632bafde8d116103a75780633b7d0946116103765780633b7d0946146106cd5780633ea15d621461070057806348aaa4a2146107b95780634d73b02c146107e35780634e9b426d1461092d5761041a565b80632bafde8d14610622578063317277301461064c578063379b046a146106a3578063392e53cd146106b85761041a565b80631555371c116103ee5780631555371c1461053f5780631fb31e431461055457806322e3d986146105a4578063251441a9146105b957806326476204146105fc5761041a565b80622ceebc14610455578063028b8bdb146104aa57806303a81065146104bf5780630868c0d614610504575b6040805162461bcd60e51b815260206004820152600b60248201526a4e6f742070617961626c6560a81b604482015290519081900360640190fd5b34801561046157600080fd5b506104986004803603606081101561047857600080fd5b506001600160a01b03813581169160208101359091169060400135611567565b60408051918252519081900360200190f35b3480156104b657600080fd5b5061049861158a565b3480156104cb57600080fd5b50610502600480360360608110156104e257600080fd5b506001600160a01b03813581169160208101359091169060400135611590565b005b34801561051057600080fd5b506104986004803603604081101561052757600080fd5b506001600160a01b03813581169160200135166115c3565b34801561054b57600080fd5b506105026115e0565b34801561056057600080fd5b506105876004803603602081101561057757600080fd5b50356001600160a01b03166116c8565b604080516001600160801b03199092168252519081900360200190f35b3480156105b057600080fd5b506104986116e9565b3480156105c557600080fd5b50610502600480360360608110156105dc57600080fd5b506001600160a01b03813581169160208101359091169060400135611716565b6105026004803603602081101561061257600080fd5b50356001600160a01b031661185b565b34801561062e57600080fd5b506105026004803603602081101561064557600080fd5b50356118af565b34801561065857600080fd5b5061068f6004803603606081101561066f57600080fd5b506001600160a01b03813581169160208101359091169060400135611952565b604080519115158252519081900360200190f35b3480156106af57600080fd5b50610498611978565b3480156106c457600080fd5b5061068f61197e565b3480156106d957600080fd5b50610502600480360360208110156106f057600080fd5b50356001600160a01b031661198f565b34801561070c57600080fd5b506105026004803603604081101561072357600080fd5b810190602081018135600160201b81111561073d57600080fd5b82018360208201111561074f57600080fd5b803590602001918460208302840111600160201b8311171561077057600080fd5b919080806020026020016040519081016040528093929190818152602001838360200280828437600092019190915250929550505090356001600160a01b031691506119ee9050565b3480156107c557600080fd5b50610502600480360360208110156107dc57600080fd5b503561213d565b3480156107ef57600080fd5b50610502600480360361012081101561080757600080fd5b6001600160a01b038235169190810190604081016020820135600160201b81111561083157600080fd5b82018360208201111561084357600080fd5b803590602001918460208302840111600160201b8311171561086457600080fd5b91939092823592602081013592604082013592606083013592608081013592919060c081019060a00135600160201b81111561089f57600080fd5b8201836020820111156108b157600080fd5b803590602001918460208302840111600160201b831117156108d257600080fd5b919390929091602081019035600160201b8111156108ef57600080fd5b82018360208201111561090157600080fd5b803590602001918460208302840111600160201b8311171561092257600080fd5b5090925090506121e0565b34801561093957600080fd5b506109606004803603602081101561095057600080fd5b50356001600160a01b031661247f565b6040805160208082528351818301528351919283929083019185019080838360005b8381101561099a578181015183820152602001610982565b50505050905090810190601f1680156109c75780820380516001836020036101000a031916815260200191505b509250505060405180910390f35b3480156109e157600080fd5b5061049861252a565b3480156109f657600080fd5b5061049860048036036020811015610a0d57600080fd5b50356001600160a01b0316612530565b348015610a2957600080fd5b5061049860048036036040811015610a4057600080fd5b506001600160a01b0381358116916020013516612541565b61050260048036036060811015610a6e57600080fd5b6001600160a01b038235169190810190604081016020820135600160201b811115610a9857600080fd5b820183602082011115610aaa57600080fd5b803590602001918460018302840111600160201b83111715610acb57600080fd5b9193509150356001600160801b03191661255e565b348015610aec57600080fd5b5061050260048036036020811015610b0357600080fd5b5035612677565b348015610b1657600080fd5b5061049861267c565b348015610b2b57600080fd5b5061050260048036036020811015610b4257600080fd5b50356001600160a01b0316612682565b348015610b5e57600080fd5b5061050260048036036060811015610b7557600080fd5b506001600160a01b0381358116916020810135909116906040013561268d565b348015610ba157600080fd5b5061049860048036036020811015610bb857600080fd5b50356001600160a01b03166126b9565b348015610bd457600080fd5b50610bdd6126cb565b60408051602080825283518183015283519192839290830191858101910280838360005b83811015610c19578181015183820152602001610c01565b505050509050019250505060405180910390f35b348015610c3957600080fd5b5061049860048036036040811015610c5057600080fd5b506001600160a01b038135811691602001351661272d565b348015610c7457600080fd5b5061050260048036036060811015610c8b57600080fd5b506001600160a01b03813581169160208101359091169060400135612894565b348015610cb757600080fd5b506104986128cc565b348015610ccc57600080fd5b50610bdd60048036036020811015610ce357600080fd5b50356001600160a01b03166128d2565b348015610cff57600080fd5b5061049860048036036040811015610d1657600080fd5b506001600160a01b0381358116916020013516612947565b348015610d3a57600080fd5b5061049861297c565b348015610d4f57600080fd5b5061050260048036036020811015610d6657600080fd5b50356001600160a01b0316612982565b348015610d8257600080fd5b5061050260048036036020811015610d9957600080fd5b5035612a09565b348015610dac57600080fd5b5061049860048036036040811015610dc357600080fd5b506001600160a01b0381358116916020013516612a65565b348015610de757600080fd5b5061049860048036036040811015610dfe57600080fd5b506001600160a01b0381358116916020013516612bd5565b348015610e2257600080fd5b50610e2b612bf2565b6040518080602001838152602001828103825284818151815260200191508051906020019060200280838360005b83811015610e71578181015183820152602001610e59565b50505050905001935050505060405180910390f35b348015610e9257600080fd5b50610eb960048036036020811015610ea957600080fd5b50356001600160a01b0316612c55565b6040518080602001836001600160801b0319166001600160801b0319168152602001828103825284818151815260200191508051906020019080838360005b83811015610f10578181015183820152602001610ef8565b50505050905090810190601f168015610f3d5780820380516001836020036101000a031916815260200191505b50935050505060405180910390f35b348015610f5857600080fd5b50610498612cff565b348015610f6d57600080fd5b50610bdd60048036036020811015610f8457600080fd5b50356001600160a01b0316612d05565b348015610fa057600080fd5b5061049860048036036040811015610fb757600080fd5b506001600160a01b0381358116916020013516612d79565b348015610fdb57600080fd5b50610bdd612d96565b348015610ff057600080fd5b506104986004803603604081101561100757600080fd5b506001600160a01b0381358116916020013516612df6565b34801561102b57600080fd5b5061068f6004803603602081101561104257600080fd5b50356001600160a01b0316612e13565b34801561105e57600080fd5b50610502612e6c565b34801561107357600080fd5b50610498612ecd565b34801561108857600080fd5b506104986004803603602081101561109f57600080fd5b50356001600160a01b0316612ed3565b3480156110bb57600080fd5b50610502600480360360408110156110d257600080fd5b506001600160a01b038135169060200135612ee5565b3480156110f457600080fd5b506104986004803603604081101561110b57600080fd5b506001600160a01b03813581169160200135166133e4565b34801561112f57600080fd5b506105026004803603606081101561114657600080fd5b506001600160a01b03813581169160208101359091169060400135613401565b34801561117257600080fd5b5061049861342d565b34801561118757600080fd5b506105026004803603602081101561119e57600080fd5b50356001600160a01b031661343b565b3480156111ba57600080fd5b50610bdd61374d565b3480156111cf57600080fd5b50610502600480360360408110156111e657600080fd5b810190602081018135600160201b81111561120057600080fd5b82018360208201111561121257600080fd5b803590602001918460018302840111600160201b8311171561123357600080fd5b9193509150356001600160801b0319166137ad565b34801561125457600080fd5b506104986137f6565b34801561126957600080fd5b506104986004803603602081101561128057600080fd5b50356001600160a01b03166137fc565b34801561129c57600080fd5b50610bdd61380e565b3480156112b157600080fd5b506112ba61386e565b604080516001600160a01b039092168252519081900360200190f35b3480156112e257600080fd5b50610502600480360360408110156112f957600080fd5b506001600160a01b03813516906020013561387d565b34801561131b57600080fd5b506104986004803603604081101561133257600080fd5b506001600160a01b0381358116916020013516613898565b34801561135657600080fd5b506105026004803603602081101561136d57600080fd5b50356001600160a01b03166138b5565b34801561138957600080fd5b506105026138d7565b34801561139e57600080fd5b50610498600480360360208110156113b557600080fd5b50356001600160a01b0316613aa8565b3480156113d157600080fd5b50610502613aba565b3480156113e657600080fd5b50610498613b1d565b3480156113fb57600080fd5b506105026004803603604081101561141257600080fd5b506001600160a01b038135169060200135613b23565b34801561143457600080fd5b5061068f613c15565b34801561144957600080fd5b506104986004803603602081101561146057600080fd5b50356001600160a01b0316613c1a565b34801561147c57600080fd5b506104986004803603606081101561149357600080fd5b810190602081018135600160201b8111156114ad57600080fd5b8201836020820111156114bf57600080fd5b803590602001918460208302840111600160201b831117156114e057600080fd5b919080806020026020016040519081016040528093929190818152602001838360200280828437600092019190915250929550506001600160a01b038335811694506020909301359092169150613c2c9050565b34801561154057600080fd5b506105026004803603602081101561155757600080fd5b50356001600160a01b031661418e565b600b60209081526000938452604080852082529284528284209052825290205481565b60195481565b6001600160a01b039283166000908152600b60209081526040808320949095168252928352838120918152915290812055565b600f60209081526000928352604080842090915290825290205481565b6021546001600160a01b03163314611633576040805162461bcd60e51b815260206004820152601160248201527013db9b1e4815985b1a59185d1bdc94d95d607a1b604482015290519081900360640190fd5b6060600380548060200260200160405190810160405280929190818152602001828054801561168b57602002820191906000526020600020905b81546001600160a01b0316815260019091019060200180831161166d575b50939450600093505050505b81518110156116c4576116bc8282815181106116af57fe5b6020026020010151614197565b600101611697565b5050565b6001600160a01b031660009081526022602052604090206001015460801b90565b601d54601b5460009190156116ff576001611702565b60005b60ff16601f54601b54830101039150505b90565b3a611758576040805162461bcd60e51b815260206004820152600d60248201526c04761735072696365206973203609c1b604482015290519081900360640190fd5b61176061197e565b61179f576040805162461bcd60e51b81526020600482015260186024820152600080516020616406833981519152604482015290519081900360640190fd5b816001600160a01b0316836001600160a01b031614156117f05760405162461bcd60e51b81526004018080602001828103825260278152602001806164266027913960400191505060405180910390fd5b336117fc8482846142b8565b611807838284614534565b601a54604080516001600160a01b03878116825260208201869052825181861693918816927f4480d8e4b1e9095b94bf513961d26fe1d32386ebdd103d18fe8738cf4b2223ff92908290030190a450505050565b3a61189d576040805162461bcd60e51b815260206004820152600d60248201526c04761735072696365206973203609c1b604482015290519081900360640190fd5b33346118aa838383614534565b505050565b6118b76149db565b6001600160a01b0316336001600160a01b0316146119065760405162461bcd60e51b815260040180806020018281038252602b81526020018061655a602b913960400191505060405180910390fd5b61190e61197e565b61194d576040805162461bcd60e51b81526020600482015260186024820152600080516020616406833981519152604482015290519081900360640190fd5b600a55565b601560209081526000938452604080852082529284528284209052825290205460ff1681565b601f5481565b6021546001600160a01b0316151590565b6021546001600160a01b031633146119e2576040805162461bcd60e51b815260206004820152601160248201527013db9b1e4815985b1a59185d1bdc94d95d607a1b604482015290519081900360640190fd5b6119eb81614197565b50565b3a611a30576040805162461bcd60e51b815260206004820152600d60248201526c04761735072696365206973203609c1b604482015290519081900360640190fd5b611a3861197e565b611a77576040805162461bcd60e51b81526020600482015260186024820152600080516020616406833981519152604482015290519081900360640190fd5b336000806001600160a01b0384168314611b2d576001600160a01b03808516600090815260176020908152604080832093871683529290522054915081611b05576040805162461bcd60e51b815260206004820152601d60248201527f436c61696d3a2066697273742065706f63682063616e27742062652030000000604482015290519081900360640190fd5b506001600160a01b038084166000908152601860209081526040808320938616835292905220545b60215460408051632b5aa5d760e11b815290516000926001600160a01b0316916356b54bae916004808301926020929190829003018186803b158015611b7257600080fd5b505afa158015611b86573d6000803e3d6000fd5b505050506040513d6020811015611b9c57600080fd5b5051602154604080516253517560e01b81526001600160a01b0389811660048301529151939450600093919092169162535175916024808301926020929190829003018186803b158015611bef57600080fd5b505afa158015611c03573d6000803e3d6000fd5b505050506040513d6020811015611c1957600080fd5b505187519091506000908190611d4957836001600160a01b031663dd03f5b9846040518263ffffffff1660e01b815260040180826001600160a01b03166001600160a01b0316815260200191505060006040518083038186803b158015611c7f57600080fd5b505afa158015611c93573d6000803e3d6000fd5b505050506040513d6000823e601f3d908101601f191682016040526020811015611cbc57600080fd5b8101908080516040519392919084600160201b821115611cdb57600080fd5b908301906020820185811115611cf057600080fd5b82518660208202830111600160201b82111715611d0c57600080fd5b82525081516020918201928201910280838360005b83811015611d39578181015183820152602001611d21565b5050505090500160405250505098505b60005b89518110156120b95760008a8281518110611d6357fe5b602002602001015190508160001480611d9157508a6001830381518110611d8657fe5b602002602001015181115b611dcc5760405162461bcd60e51b81526004018080602001828103825260258152602001806160e86025913960400191505060405180910390fd5b601a548110611e22576040805162461bcd60e51b815260206004820181905260248201527f436c61696d3a206f6e6c79206265666f72652063757272656e742065706f6368604482015290519081900360640190fd5b6001600160a01b03808b166000908152601560209081526040808320938d1683529281528282208483529052205460ff1615611e5e57506120b1565b6000896001600160a01b03168b6001600160a01b031614611f515788821015611e885750506120b1565b818811158015611e9757508715155b15611ea35750506120b9565b611eb0828a868e8e614a00565b9350816001019850866001600160a01b031663e1ab96d88584896040518463ffffffff1660e01b815260040180848152602001838152602001826001600160a01b03166001600160a01b03168152602001935050505060206040518083038186803b158015611f1e57600080fd5b505afa158015611f32573d6000803e3d6000fd5b505050506040513d6020811015611f4857600080fd5b50519050611fde565b866001600160a01b031663ba2d759783886040518363ffffffff1660e01b815260040180838152602001826001600160a01b03166001600160a01b031681526020019250505060206040518083038186803b158015611faf57600080fd5b505afa158015611fc3573d6000803e3d6000fd5b505050506040513d6020811015611fd957600080fd5b505190505b611fee858263ffffffff614a7516565b94506001601560008d6001600160a01b03166001600160a01b0316815260200190815260200160002060008c6001600160a01b03166001600160a01b03168152602001908152602001600020600084815260200190815260200160002060006101000a81548160ff021916908315150217905550818a6001600160a01b03168c6001600160a01b03167fd3208fd5300db64b97bc442f47ade72b7ebcd9272aaecdcc04c777bb762861b9846040518082815260200191505060405180910390a450505b600101611d4c565b50836001600160a01b031663469507c683896040518363ffffffff1660e01b815260040180838152602001826001600160a01b03166001600160a01b0316815260200192505050600060405180830381600087803b15801561211a57600080fd5b505af115801561212e573d6000803e3d6000fd5b50505050505050505050505050565b6121456149db565b6001600160a01b0316336001600160a01b0316146121945760405162461bcd60e51b815260040180806020018281038252602b81526020018061655a602b913960400191505060405180910390fd5b61219c61197e565b6121db576040805162461bcd60e51b81526020600482015260186024820152600080516020616406833981519152604482015290519081900360640190fd5b600955565b86612232576040805162461bcd60e51b815260206004820152601760248201527f466978656445706f63684475726174696f6e2069732030000000000000000000604482015290519081900360640190fd5b8487116122705760405162461bcd60e51b815260040180806020018281038252603d815260200180616319603d913960400191505060405180910390fd5b846122c2576040805162461bcd60e51b815260206004820152601b60248201527f5769746864726177446973616c6c6f77506572696f6420697320300000000000604482015290519081900360640190fd5b856122fe5760405162461bcd60e51b815260040180806020018281038252602e8152602001806162c6602e913960400191505060405180910390fd5b86861061233c5760405162461bcd60e51b81526004018080602001828103825260408152602001806164c66040913960400191505060405180910390fd5b6123ee8c8c8c80806020026020016040519081016040528093929190818152602001838360200280828437600081840152601f19601f820116905080830192505050505050508b8b88888080602002602001604051908101604052809392919081815260200183836020028082843760009201919091525050604080516020808c0282810182019093528b82529093508b92508a918291850190849080828437600092019190915250614a8792505050565b601b879055601985905560215460408051636c9230db60e01b815290516001600160a01b0390921691636c9230db91600480820192602092909190829003018186803b15801561243d57600080fd5b505afa158015612451573d6000803e3d6000fd5b505050506040513d602081101561246757600080fd5b5051601d55505050601c929092555050505050505050565b6001600160a01b03811660009081526022602090815260409182902080548351601f600260001961010060018616150201909316929092049182018490048402810184019094528084526060939283018282801561251e5780601f106124f35761010080835404028352916020019161251e565b820191906000526020600020905b81548152906001019060200180831161250157829003601f168201915b50505050509050919050565b601b5481565b602080526000908152604090205481565b601760209081526000928352604080842090915290825290205481565b3a6125a0576040805162461bcd60e51b815260206004820152600d60248201526c04761735072696365206973203609c1b604482015290519081900360640190fd5b60215460408051630526083960e11b81526001600160a01b0387811660048301523360248301819052925192933493911691630a4c107291604480830192600092919082900301818387803b1580156125f857600080fd5b505af115801561260c573d6000803e3d6000fd5b5050505061261b828383614534565b6001600160a01b038216600090815260226020526040902061263e908686615f4b565b50506001600160a01b0316600090815260226020526040902060010180546001600160801b03191660809290921c919091179055505050565b601a55565b60095481565b6119eb816001614f1c565b6001600160a01b0392831660009081526018602090815260408083209490951682529290925291902055565b60116020526000908152604090205481565b6060600080548060200260200160405190810160405280929190818152602001828054801561272357602002820191906000526020600020905b81546001600160a01b03168152600190910190602001808311612705575b5050505050905090565b602154604080516253517560e01b81526001600160a01b03858116600483015291516000938493169162535175916024808301926020929190829003018186803b15801561277a57600080fd5b505afa15801561278e573d6000803e3d6000fd5b505050506040513d60208110156127a457600080fd5b505190506127c1816001600160a01b038681169086161415614ff8565b6127cf57600091505061288e565b6001600160a01b038085166000908152601660209081526040808320878516845282529182902054602154835163a0d16cad60e01b8152868616600482015293519194169263a0d16cad926024808301939192829003018186803b15801561283657600080fd5b505afa15801561284a573d6000803e3d6000fd5b505050506040513d602081101561286057600080fd5b505161286f57915061288e9050565b600061287b8686612947565b905080821115612889578091505b509150505b92915050565b6001600160a01b039283166000908152601560209081526040808320949095168252928352838120918152915220805460ff19169055565b601e5481565b6001600160a01b03811660009081526007602090815260409182902080548351818402810184019094528084526060939283018282801561251e57602002820191906000526020600020905b81546001600160a01b0316815260019091019060200180831161291e5750505050509050919050565b6001600160a01b039182166000908152600860209081526040808320939094168252918252828120601a548252909152205490565b601a5481565b6021546001600160a01b031633146129d5576040805162461bcd60e51b815260206004820152601160248201527013db9b1e4815985b1a59185d1bdc94d95d607a1b604482015290519081900360640190fd5b6009546001600160a01b0382166000908152601660209081526040808320909152902054106119eb576119eb816001614f1c565b6021546001600160a01b03163314612a5c576040805162461bcd60e51b815260206004820152601160248201527013db9b1e4815985b1a59185d1bdc94d95d607a1b604482015290519081900360640190fd5b601d5543601e55565b602154604080516253517560e01b81526001600160a01b03858116600483015291516000938493169162535175916024808301926020929190829003018186803b158015612ab257600080fd5b505afa158015612ac6573d6000803e3d6000fd5b505050506040513d6020811015612adc57600080fd5b50519050612af9816001600160a01b038681169086161415614ff8565b612b0757600091505061288e565b6021546040805163a0d16cad60e01b81526001600160a01b0384811660048301529151919092169163a0d16cad916024808301926020929190829003018186803b158015612b5457600080fd5b505afa158015612b68573d6000803e3d6000fd5b505050506040513d6020811015612b7e57600080fd5b5051612b8e57600091505061288e565b612bcd612b9b8585612947565b6001600160a01b038087166000908152601660209081526040808320938916835292905220549063ffffffff61512e16565b949350505050565b601060209081526000928352604080842090915290825290205481565b60606000600460055481805480602002602001604051908101604052809291908181526020018280548015612c4657602002820191906000526020600020905b815481526020019060010190808311612c32575b50505050509150915091509091565b60226020908152600091825260409182902080548351601f60026000196101006001861615020190931692909204918201849004840281018401909452808452909291839190830182828015612cec5780601f10612cc157610100808354040283529160200191612cec565b820191906000526020600020905b815481529060010190602001808311612ccf57829003601f168201915b5050506001909301549192505060801b82565b601d5481565b6001600160a01b03811660009081526006602090815260409182902080548351818402810184019094528084526060939283018282801561251e576020028201919060005260206000209081546001600160a01b0316815260019091019060200180831161291e5750505050509050919050565b600e60209081526000928352604080842090915290825290205481565b60606002805480602002602001604051908101604052809291908181526020018280548015612723576020028201919060005260206000209081546001600160a01b03168152600190910190602001808311612705575050505050905090565b601660209081526000928352604080842090915290825290205481565b6001600160a01b038116600090815260126020526040812054815481108015612e655750826001600160a01b031660008281548110612e4e57fe5b6000918252602090912001546001600160a01b0316145b9392505050565b6021546001600160a01b03163314612ebf576040805162461bcd60e51b815260206004820152601160248201527013db9b1e4815985b1a59185d1bdc94d95d607a1b604482015290519081900360640190fd5b601c54601f80549091019055565b601c5481565b60126020526000908152604090205481565b3a612f27576040805162461bcd60e51b815260206004820152600d60248201526c04761735072696365206973203609c1b604482015290519081900360640190fd5b612f2f61197e565b612f6e576040805162461bcd60e51b81526020600482015260186024820152600080516020616406833981519152604482015290519081900360640190fd5b6001600160a01b038216612fb35760405162461bcd60e51b815260040180806020018281038252602281526020018061616b6022913960400191505060405180910390fd5b80612fef5760405162461bcd60e51b81526004018080602001828103825260258152602001806162f46025913960400191505060405180910390fd5b602154604080516253517560e01b81526001600160a01b0385811660048301529151339361307e93169162535175916024808301926020929190829003018186803b15801561303d57600080fd5b505afa158015613051573d6000803e3d6000fd5b505050506040513d602081101561306757600080fd5b50516001600160a01b038381169086161415614ff8565b6130cf576040805162461bcd60e51b815260206004820152601a60248201527f4f7264657257697468647261773a206e6f7420616c6c6f776564000000000000604482015290519081900360640190fd5b6001600160a01b038084166000818152600c6020908152604080832094861680845294825280832054848452600d8352818420546016845282852096855295835281842054948452918052822054909392918613156131e957856131338887612a65565b8111156131715760405162461bcd60e51b815260040180806020018281038252602f8152602001806165c1602f913960400191505060405180910390fd5b613181858263ffffffff614a7516565b9450613193848263ffffffff614a7516565b93506131a5838263ffffffff61512e16565b92506131b7828263ffffffff61512e16565b601a546001600160a01b03808b166000908152600e60209081526040808320938c168352929052205591506132389050565b60008690036131fe858263ffffffff61512e16565b9450613210848263ffffffff61512e16565b9350613222838263ffffffff614a7516565b9250613234828263ffffffff614a7516565b9150505b6001600160a01b038088166000818152600c60209081526040808320948a16808452948252808320899055838352600d825280832088905560168252808320858452825280832087905583835290805290208390551415613309578115806132a257506009548210155b6132dd5760405162461bcd60e51b815260040180806020018281038252603381526020018061618d6033913960400191505060405180910390fd5b60008613156132f957816132f4576132f487615143565b613304565b613304876001614f1c565b613384565b8115806133185750600a548210155b6133535760405162461bcd60e51b815260040180806020018281038252603381526020018061618d6033913960400191505060405180910390fd5b6000861315613370578161336b5761336b8786615201565b61337a565b61337a8786615359565b6133848786615422565b61338d87615514565b601a54856001600160a01b0316886001600160a01b03167f80d5c777e5f7ac6ee89723223803ca5c0ec0204f89e99c1b0cde973c66a64594896040518082815260200191505060405180910390a450505050505050565b601860209081526000928352604080842090915290825290205481565b6001600160a01b0392831660009081526017602090815260408083209490951682529290925291902055565b601c54601b54601d54010390565b3a61347d576040805162461bcd60e51b815260206004820152600d60248201526c04761735072696365206973203609c1b604482015290519081900360640190fd5b61348561197e565b6134c4576040805162461bcd60e51b81526020600482015260186024820152600080516020616406833981519152604482015290519081900360640190fd5b6001600160a01b0381166000908152600e6020908152604080832033808552925290912054601a54116135285760405162461bcd60e51b815260040180806020018281038252603f81526020018061637f603f913960400191505060405180910390fd5b602154604080516253517560e01b81526001600160a01b03858116600483015291516135b99392909216916253517591602480820192602092909190829003018186803b15801561357857600080fd5b505afa15801561358c573d6000803e3d6000fd5b505050506040513d60208110156135a257600080fd5b50516001600160a01b038381169085161415614ff8565b6135f45760405162461bcd60e51b815260040180806020018281038252602a815260200180616530602a913960400191505060405180910390fd5b6001600160a01b038083166000908152600c60209081526040808320938516835292905220548061366c576040805162461bcd60e51b815260206004820152601a60248201527f636c61696d20616d6f756e74206d757374206e6f742062652030000000000000604482015290519081900360640190fd5b6001600160a01b038084166000818152600c602090815260408083209487168352938152838220829055918152600d90915220546136b0908263ffffffff61512e16565b6001600160a01b038085166000908152600d60209081526040808320949094556016815283822092861682529190915220546136f0576136f083836155d3565b6136fa8282615726565b601a54826001600160a01b0316846001600160a01b03167ff380b0bc887e00f5b50d3c9d4eaaf5c9a0afd97b956316b995159384c4ede9b3846040518082815260200191505060405180910390a4505050565b60606003805480602002602001604051908101604052809291908181526020018280548015612723576020028201919060005260206000209081546001600160a01b03168152600190910190602001808311612705575050505050905090565b3360009081526022602052604090206137c7908484615f4b565b5033600090815260226020526040902060010180546001600160801b03191660809290921c9190911790555050565b600a5481565b600d6020526000908152604090205481565b60606001805480602002602001604051908101604052809291908181526020018280548015612723576020028201919060005260206000209081546001600160a01b03168152600190910190602001808311612705575050505050905090565b6021546001600160a01b031681565b6001600160a01b039091166000908152602080526040902055565b600c60209081526000928352604080842090915290825290205481565b602180546001600160a01b0319166001600160a01b0392909216919091179055565b3a613919576040805162461bcd60e51b815260206004820152600d60248201526c04761735072696365206973203609c1b604482015290519081900360640190fd5b61392161197e565b613960576040805162461bcd60e51b81526020600482015260186024820152600080516020616406833981519152604482015290519081900360640190fd5b602154604080516253517560e01b81523360048201819052915191926000926001600160a01b039091169162535175916024808301926020929190829003018186803b1580156139af57600080fd5b505afa1580156139c3573d6000803e3d6000fd5b505050506040513d60208110156139d957600080fd5b5051601a54909150151580613a6457506021546040805163facd743b60e01b81526001600160a01b0384811660048301529151919092169163facd743b916024808301926020929190829003018186803b158015613a3657600080fd5b505afa158015613a4a573d6000803e3d6000fd5b505050506040513d6020811015613a6057600080fd5b5051155b613a9f5760405162461bcd60e51b815260040180806020018281038252602a815260200180616506602a913960400191505060405180910390fd5b6116c482614197565b60146020526000908152604090205481565b6021546001600160a01b03163314613b0d576040805162461bcd60e51b815260206004820152601160248201527013db9b1e4815985b1a59185d1bdc94d95d607a1b604482015290519081900360640190fd5b601a805460010190556000601f55565b610bb881565b3a613b65576040805162461bcd60e51b815260206004820152600d60248201526c04761735072696365206973203609c1b604482015290519081900360640190fd5b613b6d61197e565b613bac576040805162461bcd60e51b81526020600482015260186024820152600080516020616406833981519152604482015290519081900360640190fd5b33613bb88382846142b8565b613bc28183615726565b601a54816001600160a01b0316846001600160a01b03167fa7c0f0cac6bd4d18042007706c84a8abe823751cf289b69c01e83eef7b5915c7856040518082815260200191505060405180910390a4505050565b600190565b60136020526000908152604090205481565b6000806000836001600160a01b0316856001600160a01b031614613cd6576001600160a01b03808616600090815260176020908152604080832093881683529290522054915081613cae5760405162461bcd60e51b815260040180806020018281038252602e81526020018061610d602e913960400191505060405180910390fd5b506001600160a01b038085166000908152601860209081526040808320938716835292905220545b60215460408051632b5aa5d760e11b815290516000926001600160a01b0316916356b54bae916004808301926020929190829003018186803b158015613d1b57600080fd5b505afa158015613d2f573d6000803e3d6000fd5b505050506040513d6020811015613d4557600080fd5b5051602154604080516253517560e01b81526001600160a01b038a811660048301529151939450600093919092169162535175916024808301926020929190829003018186803b158015613d9857600080fd5b505afa158015613dac573d6000803e3d6000fd5b505050506040513d6020811015613dc257600080fd5b505188519091506000908190613ef257836001600160a01b031663dd03f5b9846040518263ffffffff1660e01b815260040180826001600160a01b03166001600160a01b0316815260200191505060006040518083038186803b158015613e2857600080fd5b505afa158015613e3c573d6000803e3d6000fd5b505050506040513d6000823e601f3d908101601f191682016040526020811015613e6557600080fd5b8101908080516040519392919084600160201b821115613e8457600080fd5b908301906020820185811115613e9957600080fd5b82518660208202830111600160201b82111715613eb557600080fd5b82525081516020918201928201910280838360005b83811015613ee2578181015183820152602001613eca565b5050505090500160405250505099505b60005b8a518110156141805760008b8281518110613f0c57fe5b602002602001015190508160001480613f3a57508b6001830381518110613f2f57fe5b602002602001015181115b613f755760405162461bcd60e51b81526004018080602001828103825260368152602001806161e56036913960400191505060405180910390fd5b601a548110613fb55760405162461bcd60e51b815260040180806020018281038252603c815260200180616585603c913960400191505060405180910390fd5b6001600160a01b03808c166000908152601560209081526040808320938e1683529281528282208483529052205460ff1615613ff15750614178565b60008a6001600160a01b03168c6001600160a01b0316146140e4578882101561401b575050614178565b81881115801561402a57508715155b15614036575050614180565b614043828a878f8f614a00565b9450816001019850866001600160a01b031663e1ab96d88684896040518463ffffffff1660e01b815260040180848152602001838152602001826001600160a01b03166001600160a01b03168152602001935050505060206040518083038186803b1580156140b157600080fd5b505afa1580156140c5573d6000803e3d6000fd5b505050506040513d60208110156140db57600080fd5b50519050614171565b866001600160a01b031663ba2d759783886040518363ffffffff1660e01b815260040180838152602001826001600160a01b03166001600160a01b031681526020019250505060206040518083038186803b15801561414257600080fd5b505afa158015614156573d6000803e3d6000fd5b505050506040513d602081101561416c57600080fd5b505190505b9290920191505b600101613ef5565b509998505050505050505050565b6119eb81615789565b6001600160a01b0381166000908152601260205260408120549054811080156141e95750816001600160a01b0316600082815481106141d257fe5b6000918252602090912001546001600160a01b0316145b1561428157600080548190600019810190811061420257fe5b600091825260208220015481546001600160a01b0390911692508291908490811061422957fe5b600091825260208083209190910180546001600160a01b0319166001600160a01b039485161790558383168252601290526040808220859055918516815290812081905580549061427e906000198301615fc9565b50505b61428a82615841565b1561429d576142988261587e565b6142a6565b6142a682615789565b6142af8261596a565b6116c482615b0e565b6001600160a01b0383166142fd5760405162461bcd60e51b815260040180806020018281038252602e81526020018061621b602e913960400191505060405180910390fd5b8061434f576040805162461bcd60e51b815260206004820181905260248201527f616d6f756e7420746f207769746864726177206d757374206e6f742062652030604482015290519081900360640190fd5b614359838361272d565b8111156143975760405162461bcd60e51b81526004018080602001828103825260258152602001806161c06025913960400191505060405180910390fd5b6001600160a01b0380841660009081526016602090815260408083209386168352929052908120546143cf908363ffffffff61512e16565b90506000836001600160a01b0316856001600160a01b0316146143f457600a546143f8565b6009545b90508115806144075750808210155b6144425760405162461bcd60e51b815260040180806020018281038252603981526020018061648d6039913960400191505060405180910390fd5b6001600160a01b03808616600090815260166020908152604080832093881683529290529081208390556144768686612947565b90508381101561448757600061448b565b8381035b6001600160a01b038088166000818152600860209081526040808320948b168352938152838220601a5483528152838220949094559081529180529020546144d9908563ffffffff61512e16565b6001600160a01b0387166000908152602080526040902055826145005761450086866155d3565b856001600160a01b0316856001600160a01b031614614523576145238686615422565b61452c86615514565b505050505050565b602154604080516253517560e01b81526001600160a01b038681166004830152915160009392909216916253517591602480820192602092909190829003018186803b15801561458357600080fd5b505afa158015614597573d6000803e3d6000fd5b505050506040513d60208110156145ad57600080fd5b505190506001600160a01b0381166145f65760405162461bcd60e51b815260040180806020018281038252604081526020018061644d6040913960400191505060405180910390fd5b6001600160a01b038416614651576040805162461bcd60e51b815260206004820152601a60248201527f5374616b653a207374616b696e67416464726573732069732030000000000000604482015290519081900360640190fd5b816146a3576040805162461bcd60e51b815260206004820152601960248201527f5374616b653a207374616b696e67416d6f756e74206973203000000000000000604482015290519081900360640190fd5b60215460408051635491295760e11b81526001600160a01b0384811660048301529151919092169163a92252ae916024808301926020929190829003018186803b1580156146f057600080fd5b505afa158015614704573d6000803e3d6000fd5b505050506040513d602081101561471a57600080fd5b50511561476e576040805162461bcd60e51b815260206004820152601f60248201527f5374616b653a204d696e696e6720616464726573732069732062616e6e656400604482015290519081900360640190fd5b6001600160a01b0380851660009081526016602090815260408083209387168352929052908120546147a6908463ffffffff614a7516565b9050846001600160a01b0316846001600160a01b03161415614808576009548110156148035760405162461bcd60e51b81526004018080602001828103825260318152602001806162736031913960400191505060405180910390fd5b6148a5565b600a548110156148495760405162461bcd60e51b81526004018080602001828103825260348152602001806160b46034913960400191505060405180910390fd5b6001600160a01b03851660009081526016602090815260408083209091529020546148a55760405162461bcd60e51b81526004018080602001828103825260238152602001806163e36023913960400191505060405180910390fd5b6001600160a01b0380861660009081526016602090815260408083209388168352929052208190556148e7836148db8787612947565b9063ffffffff614a7516565b6001600160a01b038087166000818152600860209081526040808320948a168352938152838220601a548352815283822094909455908152918052902054614935908463ffffffff614a7516565b6001600160a01b0380871660008181526020805260409020929092558516141561496957614964856001614f1c565b61497d565b6149738585615359565b61497d8585615422565b61498685615514565b601a54846001600160a01b0316866001600160a01b03167f2273de02cb1f69ba6259d22c4bc22c60e4c94c193265ef6afee324a04a9b6d22866040518082815260200191505060405180910390a45050505050565b7fb53127684a568b3173ae13b9f8a6016e243e63b6e8ee1178d6a717850b5d61035490565b60005b506001600160a01b038083166000908152600b602090815260408083209385168352928152828220888352905220548015614a51576000198114614a475780614a4a565b60005b9050614a6c565b84861415614a60575082614a6c565b60001990950194614a03565b95945050505050565b600082820183811015612e6557600080fd5b614a8f6149db565b6001600160a01b0316336001600160a01b03161480614ac65750614ab16149db565b6001600160a01b0316326001600160a01b0316145b80614adf5750614ad46149db565b6001600160a01b0316155b80614ae8575043155b614b235760405162461bcd60e51b815260040180806020018281038252603081526020018061613b6030913960400191505060405180910390fd5b614b2b61197e565b15614b73576040805162461bcd60e51b8152602060048201526013602482015272105b1c9958591e481a5b9a5d1a585b1a5e9959606a1b604482015290519081900360640190fd5b6001600160a01b038616614bce576040805162461bcd60e51b815260206004820152601760248201527f56616c696461746f725365742063616e27742062652030000000000000000000604482015290519081900360640190fd5b6000855111614c0e5760405162461bcd60e51b81526004018080602001828103825260258152602001806163be6025913960400191505060405180910390fd5b81518551614c2390600263ffffffff615bfa16565b14614c5f5760405162461bcd60e51b81526004018080602001828103825260298152602001806163566029913960400191505060405180910390fd5b8051855114614c9f5760405162461bcd60e51b815260040180806020018281038252602a815260200180616249602a913960400191505060405180910390fd5b83614cea576040805162461bcd60e51b8152602060048201526016602482015275044656c656761746f724d696e5374616b6520697320360541b604482015290519081900360640190fd5b82614d35576040805162461bcd60e51b8152602060048201526016602482015275043616e6469646174654d696e5374616b6520697320360541b604482015290519081900360640190fd5b602180546001600160a01b0319166001600160a01b03881617905560005b8551811015614f0c5760006001600160a01b0316868281518110614d7357fe5b60200260200101516001600160a01b03161415614dc15760405162461bcd60e51b81526004018080602001828103825260228152602001806162a46022913960400191505060405180910390fd5b614ddf868281518110614dd057fe5b60200260200101516000614f1c565b614dfb868281518110614dee57fe5b6020026020010151615143565b828160020281518110614e0a57fe5b6020026020010151838260020260010181518110614e2457fe5b6020026020010151604051602001808381526020018281526020019250505060405160208183030381529060405260226000888481518110614e6257fe5b60200260200101516001600160a01b03166001600160a01b031681526020019081526020016000206000019080519060200190614ea0929190615fed565b50818181518110614ead57fe5b602002602001015160226000888481518110614ec557fe5b6020908102919091018101516001600160a01b03168252810191909152604001600020600190810180546001600160801b03191660809390931c9290921790915501614d53565b505050600a919091556009555050565b614f2582612e13565b614fe057600080546001600160a01b0384168083526012602052604083208290556001820183559180527f290decd9548b62a8d60345a988386fc84ba6bc95484008f6362f93160ef3e5630180546001600160a01b0319169091179055614f8a615c21565b6000541115614fe0576040805162461bcd60e51b815260206004820152601d60248201527f4d41585f43414e4449444154455320706f6f6c73206578636565646564000000604482015290519081900360640190fd5b614fe98261587e565b80156116c4576116c482615c26565b6000811561508b576021546040805163a881c5fd60e01b81526001600160a01b0386811660048301529151919092169163a881c5fd916024808301926020929190829003018186803b15801561504d57600080fd5b505afa158015615061573d6000803e3d6000fd5b505050506040513d602081101561507757600080fd5b5051156150865750600061288e565b615111565b60215460408051635491295760e11b81526001600160a01b0386811660048301529151919092169163a92252ae916024808301926020929190829003018186803b1580156150d857600080fd5b505afa1580156150ec573d6000803e3d6000fd5b505050506040513d602081101561510257600080fd5b5051156151115750600061288e565b615119613c15565b6151255750600061288e565b50600192915050565b60008282111561513d57600080fd5b50900390565b6001600160a01b03811660009081526014602052604090205460035480821015806151985750826001600160a01b03166003838154811061518057fe5b6000918252602090912001546001600160a01b031614155b156151f8576001600160a01b03831660008181526014602052604081208390556003805460018101825591527fc2575a0e9e593c00f959f8c92f12db2869c3395a3b0502d05e2516446f71f85b0180546001600160a01b03191690911790555b6118aa8361596a565b6001600160a01b038083166000908152600660209081526040808320600f83528184209486168452939091529020548154811080156152685750826001600160a01b031682828154811061525157fe5b6000918252602090912001546001600160a01b0316145b1561530f5781546000908390600019810190811061528257fe5b9060005260206000200160009054906101000a90046001600160a01b03169050808383815481106152af57fe5b600091825260208083209190910180546001600160a01b0319166001600160a01b039485161790558783168252600f815260408083208585168452909152808220859055918616815290812055825461530c846000198301615fc9565b50505b6001600160a01b038085166000908152600c602090815260408083209387168352929052205415615349576153448484615d15565b615353565b6153538484615dd3565b50505050565b6001600160a01b038083166000908152600660209081526040808320600f8352818420948616845293909152902054815480821015806153c25750836001600160a01b03168383815481106153aa57fe5b6000918252602090912001546001600160a01b031614155b15615411576001600160a01b038086166000908152600f602090815260408083209388168084529382528220849055855460018101875586835291200180546001600160a01b03191690911790555b61541b8585615dd3565b5050505050565b601a546001600160a01b038084166000908152601660209081526040808320938616835292905220546001909101908061545e57600019615460565b805b6001600160a01b038086166000818152600b602090815260408083209489168084529482528083208884528252808320959095559181526017825283812092815291905220546154d3576001600160a01b0380851660009081526017602090815260408083209387168352929052208290555b80156154e05760006154e2565b815b6001600160a01b0394851660009081526018602090815260408083209690971682529490945293909220929092555050565b60008061552083615ede565b91509150816155305750506119eb565b60006004828154811061553f57fe5b90600052602060002001549050600060206000866001600160a01b03166001600160a01b03168152602001908152602001600020549050806004848154811061558457fe5b6000918252602090912001558181106155b4576005546155ac9083830363ffffffff614a7516565b60055561541b565b6005546155c99082840363ffffffff61512e16565b6005555050505050565b816001600160a01b0316816001600160a01b0316141561570557602154604080516253517560e01b81526001600160a01b038581166004830152915160009392909216916253517591602480820192602092909190829003018186803b15801561563c57600080fd5b505afa158015615650573d6000803e3d6000fd5b505050506040513d602081101561566657600080fd5b50516021546040805163facd743b60e01b81526001600160a01b038085166004830152915193945091169163facd743b91602480820192602092909190829003018186803b1580156156b757600080fd5b505afa1580156156cb573d6000803e3d6000fd5b505050506040513d60208110156156e157600080fd5b5051156156f6576156f183615143565b6156ff565b6156ff83614197565b506116c4565b61570f8282615201565b61571882615841565b156116c4576116c48261587e565b6040516001600160a01b0383169082156108fc029083906000818181858888f193505050506116c457808260405161575d9061605b565b6001600160a01b039091168152604051908190036020019082f08015801561541b573d6000803e3d6000fd5b6001600160a01b03811660009081526011602052604090205460015480821015806157de5750826001600160a01b0316600183815481106157c657fe5b6000918252602090912001546001600160a01b031614155b156118aa576001600160a01b038316600081815260116020526040812083905560018054808201825591527fb10e2d527612073b26eecdfd717e6a320cf44b4afac2b0732d9fcbe2b7fa0cf60180546001600160a01b0319169091179055505050565b6001600160a01b038116600090815260208052604081205415801561288e5750506001600160a01b03166000908152600d60205260409020541590565b6001600160a01b038116600090815260116020526040902054600154811080156158d15750816001600160a01b0316600182815481106158ba57fe5b6000918252602090912001546001600160a01b0316145b156116c457600180546000919060001981019081106158ec57fe5b600091825260209091200154600180546001600160a01b03909216925082918490811061591557fe5b600091825260208083209190910180546001600160a01b0319166001600160a01b0394851617905583831682526011905260408082208590559185168152908120556001805490615353906000198301615fc9565b6004546002541461597a576119eb565b6001600160a01b038116600090815260136020526040902054600254811080156159cd5750816001600160a01b0316600282815481106159b657fe5b6000918252602090912001546001600160a01b0316145b156116c457600481815481106159df57fe5b906000526020600020015460055410615a1a57600481815481106159ff57fe5b60009182526020909120015460058054919091039055615a20565b60006005555b6002805460001981019160009183908110615a3757fe5b600091825260209091200154600280546001600160a01b039092169250829185908110615a6057fe5b9060005260206000200160006101000a8154816001600160a01b0302191690836001600160a01b0316021790555060048281548110615a9b57fe5b906000526020600020015460048481548110615ab357fe5b60009182526020808320909101929092556001600160a01b038084168252601390925260408082208690559186168152908120556002805490615afa906000198301615fc9565b50600480549061541b906000198301615fc9565b6001600160a01b03811660009081526014602052604090205460035481108015615b615750816001600160a01b031660038281548110615b4a57fe5b6000918252602090912001546001600160a01b0316145b156116c45760038054600091906000198101908110615b7c57fe5b600091825260209091200154600380546001600160a01b039092169250829184908110615ba557fe5b600091825260208083209190910180546001600160a01b0319166001600160a01b0394851617905583831682526014905260408082208590559185168152908120556003805490615353906000198301615fc9565b600082615c095750600061288e565b82820282848281615c1657fe5b0414612e6557600080fd5b606490565b6001600160a01b0381166000908152601360205260409020546002548082101580615c7b5750826001600160a01b031660028381548110615c6357fe5b6000918252602090912001546001600160a01b031614155b15615d0c576001600160a01b03831660008181526013602052604081208390556002805460018181019092557f405787fa12a823e0f2b7631cc41b3ba8828b3321ca811111fa75cd3aa3bb5ace0180546001600160a01b03191690931790925560048054928301815581527f8a35acfbc15ff81a39ae7d344fd709f28e8600b4aa8c65c6b64bfe7fe36bd19b909101555b6118aa83615b0e565b6001600160a01b0380831660009081526007602090815260408083206010835281842094861684529390915290205481548082101580615d7e5750836001600160a01b0316838381548110615d6657fe5b6000918252602090912001546001600160a01b031614155b1561541b576001600160a01b0380861660009081526010602090815260408083209388168084529382528220849055855460018101875586835291200180546001600160a01b03191690911790555050505050565b6001600160a01b03808316600090815260076020908152604080832060108352818420948616845293909152902054815481108015615e3a5750826001600160a01b0316828281548110615e2357fe5b6000918252602090912001546001600160a01b0316145b1561535357815460009083906000198101908110615e5457fe5b9060005260206000200160009054906101000a90046001600160a01b0316905080838381548110615e8157fe5b600091825260208083209190910180546001600160a01b0319166001600160a01b0394851617905587831682526010815260408083208585168452909152808220859055918616815290812055825461452c846000198301615fc9565b6001600160a01b03811660009081526013602052604081205460025481108015615f315750826001600160a01b031660028281548110615f1a57fe5b6000918252602090912001546001600160a01b0316145b15615f3f5760019150615f46565b5060009050805b915091565b828054600181600116156101000203166002900490600052602060002090601f016020900481019282601f10615f8c5782800160ff19823516178555615fb9565b82800160010185558215615fb9579182015b82811115615fb9578235825591602001919060010190615f9e565b50615fc5929150616067565b5090565b8154818355818111156118aa576000838152602090206118aa918101908301616067565b828054600181600116156101000203166002900490600052602060002090601f016020900481019282601f1061602e57805160ff1916838001178555615fb9565b82800160010185558215615fb9579182015b82811115615fb9578251825591602001919060010190616040565b60328061608283390190565b61171391905b80821115615fc5576000815560010161606d56fe60806040526040516032380380603283398181016040526020811015602357600080fd5b50516001600160a01b038116fffe5374616b653a2064656c656761746f725374616b65206973206c657373207468616e2064656c656761746f724d696e5374616b65436c61696d3a206e656564207374726963746c7920696e6372656173696e67206f72646572556e61626c6520746f206765742072657761726420616d6f756e74206966206e6f2066697273742065706f63682e496e697469616c697a6174696f6e206f6e6c79206f6e2067656e6573697320626c6f636b206f722062792061646d696e706f6f6c5374616b696e6741646472657373206d757374206e6f74206265203078306e65775374616b6520416d6f756e74206d7573742062652067726561746572207468616e20746865206d696e207374616b652e57697468647261773a206d61785769746864726177416c6c6f776564206578636565646564696e7465726e616c204572726f723a205374616b696e672045706f63687320726571756972656420746f206265206f7264657265642e576974686472617720706f6f6c207374616b696e672061646472657373206d757374206e6f74206265206e756c6c4d7573742070726f7669646520636f7272656374206e756d626572206f662049502061647265737365735374616b653a2063616e6469646174655374616b65206c657373207468616e2063616e6469646174654d696e5374616b65496e697469616c5374616b696e674164647265737365732063616e27742062652030546865207472616e736974696f6e2074696d656672616d65206d757374206265206c6f6e676572207468616e20306f72646572656420776974686472617720616d6f756e74206d757374206e6f742062652030466978656445706f63684475726174696f6e206d757374206265206c6f6e676572207468616e207769746864726177446973616c6c6f77506572696f644d7573742070726f7669646520636f7272656374206e756d626572206f66207075626c69634b65797363616e6e6f7420636c61696d206f72646572656420776974686472617720696e207468652073616d652065706f636820697420776173206f7264657265642e4d7573742070726f7669646520696e697469616c206d696e696e67206164647265737365735374616b653a2063616e27742064656c656761746520696e20656d70747920706f6f6c436f6e7472616374206e6f7420696e697469616c697a656400000000000000004d6f76655374616b653a2073726320616e642064737420706f6f6c206973207468652073616d65506f6f6c20646f6573206e6f742065786973742e206d696e696e674164647265737320666f722074686174207374616b696e67206164647265737320697320306e65775374616b6520616d6f756e74206d757374206265206772656174657220657175616c207468616e20746865206d696e207374616b652e546865207472616e736974696f6e2074696d656672616d65206d7573742062652073686f72746572207468656e207468652065706f6368206475726174696f6e43616e27742072656d6f766520706f6f6c20647572696e6720317374207374616b696e672065706f6368436c61696d4f72646572656457697468647261773a205769746864726177206e6f7420616c6c6f7765646f6e6c792061646d696e20697320616c6c6f77656420746f2063616c6c20746869732066756e6374696f6e696e7465726e616c204572726f723a2065706f6368206d757374206e6f74206265206c6573736572207468616e2063757272656e742065706f63682e4f7264657257697468647261773a206d617857697468647261774f72646572416c6c6f776564206578636565646564a265627a7a72315820eb7099245712ed7ec80c06b4d90d269e4095c84c99b47ce34cae831a27f67db064736f6c63430005100032",
  "source": "pragma solidity ^0.5.16;\n\nimport './StakingHbbftBaseMock.sol';\nimport '../../contracts/base/StakingHbbftCoins.sol';\n\n\ncontract StakingHbbftCoinsMock is StakingHbbftCoins, StakingHbbftBaseMock {\n\n}\n",
  "sourcePath": "/home/sn/dmd/dmd-meta/hbbft-posdao-contracts/contracts/mockContracts/StakingHbbftCoinsMock.sol",
  "compiler": {
    "name": "solc",
    "version": "0.5.16+commit.9c3226ce.Emscripten.clang"
  },
  "schemaVersion": "3.3.1",
  "updatedAt": "2021-03-11T19:43:44.260Z",
  "devdoc": {
    "methods": {
      "addPool(address,bytes,bytes16)": {
        "details": "Adds a new candidate's pool to the list of active pools (see the `getPools` getter) and moves the specified amount of staking coins from the candidate's staking address to the candidate's pool. A participant calls this function using their staking address when they want to create a pool. This is a wrapper for the `stake` function.",
        "params": {
          "_miningAddress": "The mining address of the candidate. The mining address is bound to the staking address (msg.sender). This address cannot be equal to `msg.sender`."
        }
      },
      "areStakeAndWithdrawAllowed()": {
        "details": "Determines whether staking/withdrawal operations are allowed at the moment. Used by all staking/withdrawal functions."
      },
      "claimOrderedWithdraw(address)": {
        "details": "Withdraws the staking coins from the specified pool ordered during the previous staking epochs with the `orderWithdraw` function. The ordered amount can be retrieved by the `orderedWithdrawAmount` getter.",
        "params": {
          "_poolStakingAddress": "The staking address of the pool from which the ordered coins are withdrawn."
        }
      },
      "claimReward(uint256[],address)": {
        "details": "Withdraws a reward from the specified pool for the specified staking epochs to the staker address (msg.sender).",
        "params": {
          "_poolStakingAddress": "The staking address of the pool from which the reward needs to be withdrawn.",
          "_stakingEpochs": "The list of staking epochs in ascending order. If the list is empty, it is taken with `BlockRewardHbbft.epochsPoolGotRewardFor` getter."
        }
      },
      "getPools()": {
        "details": "Returns an array of the current active pools (the staking addresses of candidates and validators). The size of the array cannot exceed MAX_CANDIDATES. A pool can be added to this array with the `_addPoolActive` internal function which is called by the `stake` or `orderWithdraw` function. A pool is considered active if its address has at least the minimum stake and this stake is not ordered to be withdrawn."
      },
      "getPoolsInactive()": {
        "details": "Returns an array of the current inactive pools (the staking addresses of former candidates). A pool can be added to this array with the `_addPoolInactive` internal function which is called by `_removePool`. A pool is considered inactive if it is banned for some reason, if its address has zero stake, or if its entire stake is ordered to be withdrawn."
      },
      "getPoolsLikelihood()": {
        "details": "Returns the array of stake amounts for each corresponding address in the `poolsToBeElected` array (see the `getPoolsToBeElected` getter) and a sum of these amounts. Used by the `ValidatorSetHbbft.newValidatorSet` function when randomly selecting new validators at the last block of a staking epoch. An array value is updated every time any staked amount is changed in this pool (see the `_setLikelihood` internal function).",
        "return": "`uint256[] likelihoods` - The array of the coefficients. The array length is always equal to the length of the `poolsToBeElected` array. `uint256 sum` - The total sum of the amounts."
      },
      "getPoolsToBeElected()": {
        "details": "Returns the list of pools (their staking addresses) which will participate in a new validator set selection process in the `ValidatorSetHbbft.newValidatorSet` function. This is an array of pools which will be considered as candidates when forming a new validator set (at the last block of a staking epoch). This array is kept updated by the `_addPoolToBeElected` and `_deletePoolToBeElected` internal functions."
      },
      "getPoolsToBeRemoved()": {
        "details": "Returns the list of pools (their staking addresses) which will be removed by the `ValidatorSetHbbft.newValidatorSet` function from the active `pools` array (at the last block of a staking epoch). This array is kept updated by the `_addPoolToBeRemoved` and `_deletePoolToBeRemoved` internal functions. A pool is added to this array when the pool's address withdraws (or orders) all of its own staking coins from the pool, inactivating the pool."
      },
      "getRewardAmount(uint256[],address,address)": {
        "details": "Returns reward amount in native coins for the specified pool, the specified staking epochs, and the specified staker address (delegator or validator).",
        "params": {
          "_poolStakingAddress": "The staking address of the pool for which the amounts need to be returned.",
          "_staker": "The staker address (validator's staking address or delegator's address).",
          "_stakingEpochs": "The list of staking epochs in ascending order. If the list is empty, it is taken with `BlockRewardHbbft.epochsPoolGotRewardFor` getter."
        }
      },
      "incrementStakingEpoch()": {
        "details": "Increments the serial number of the current staking epoch. Called by the `ValidatorSetHbbft.newValidatorSet` at the last block of the finished staking epoch."
      },
      "initialize(address,address[],uint256,uint256,uint256,uint256,uint256,bytes32[],bytes16[])": {
        "details": "Initializes the network parameters. Can only be called by the constructor of the `InitializerHbbft` contract or owner.",
        "params": {
          "_candidateMinStake": "The minimum allowed amount of candidate/validator stake in Wei.",
          "_delegatorMinStake": "The minimum allowed amount of delegator stake in Wei.",
          "_initialStakingAddresses": "The array of initial validators' staking addresses.",
          "_stakingFixedEpochDuration": "The fixed duration of each epoch before keyGen starts.",
          "_stakingTransitionTimeframeLength": "Length of the timeframe in seconds for the transition to the new validator set.",
          "_stakingWithdrawDisallowPeriod": "The duration period at the end of a staking epoch during which participants cannot stake/withdraw/order/claim their staking coins",
          "_validatorSetContract": "The address of the `ValidatorSetHbbft` contract."
        }
      },
      "isInitialized()": {
        "details": "Returns a boolean flag indicating if the `initialize` function has been called."
      },
      "isPoolActive(address)": {
        "details": "Returns a flag indicating whether a specified address is in the `pools` array. See the `getPools` getter.",
        "params": {
          "_stakingAddress": "The staking address of the pool."
        }
      },
      "maxWithdrawAllowed(address,address)": {
        "details": "Returns the maximum amount which can be withdrawn from the specified pool by the specified staker at the moment. Used by the `withdraw` and `moveStake` functions.",
        "params": {
          "_poolStakingAddress": "The pool staking address from which the withdrawal will be made.",
          "_staker": "The staker address that is going to withdraw."
        }
      },
      "maxWithdrawOrderAllowed(address,address)": {
        "details": "Returns the maximum amount which can be ordered to be withdrawn from the specified pool by the specified staker at the moment. Used by the `orderWithdraw` function.",
        "params": {
          "_poolStakingAddress": "The pool staking address from which the withdrawal will be ordered.",
          "_staker": "The staker address that is going to order the withdrawal."
        }
      },
      "moveStake(address,address,uint256)": {
        "details": "Moves staking coins from one pool to another. A staker calls this function when they want to move their coins from one pool to another without withdrawing their coins.",
        "params": {
          "_amount": "The amount of staking coins to be moved. The amount cannot exceed the value returned by the `maxWithdrawAllowed` getter.",
          "_fromPoolStakingAddress": "The staking address of the source pool.",
          "_toPoolStakingAddress": "The staking address of the target pool."
        }
      },
      "notifyAvailability(address)": {
        "details": "Notifies hbbft staking contract that a validator asociated with the given `_stakingAddress` became available again and can be put on to the list  of available nodes again."
      },
      "notifyKeyGenFailed()": {
        "details": "Notifies hbbft staking contract that the key generation has failed, and a new round  of keygeneration starts."
      },
      "orderWithdraw(address,int256)": {
        "details": "Orders coins withdrawal from the staking address of the specified pool to the staker's address. The requested coins can be claimed after the current staking epoch is complete using the `claimOrderedWithdraw` function.",
        "params": {
          "_amount": "The amount to be withdrawn. A positive value means the staker wants to either set or increase their withdrawal amount. A negative value means the staker wants to decrease a withdrawal amount that was previously set. The amount cannot exceed the value returned by the `maxWithdrawOrderAllowed` getter.",
          "_poolStakingAddress": "The staking address of the pool from which the amount will be withdrawn."
        }
      },
      "poolDelegators(address)": {
        "details": "Returns an array of the current active delegators of the specified pool. A delegator is considered active if they have staked into the specified pool and their stake is not ordered to be withdrawn.",
        "params": {
          "_poolStakingAddress": "The pool staking address."
        }
      },
      "poolDelegatorsInactive(address)": {
        "details": "Returns an array of the current inactive delegators of the specified pool. A delegator is considered inactive if their entire stake is ordered to be withdrawn but not yet claimed.",
        "params": {
          "_poolStakingAddress": "The pool staking address."
        }
      },
      "removeMyPool()": {
        "details": "Removes the candidate's or validator's pool from the `pools` array (a list of active pools which can be retrieved by the `getPools` getter). When a candidate or validator wants to remove their pool, they should call this function from their staking address."
      },
      "removePool(address)": {
        "details": "Removes a specified pool from the `pools` array (a list of active pools which can be retrieved by the `getPools` getter). Called by the `ValidatorSetHbbft._removeMaliciousValidator` internal function when a pool must be removed by the algorithm.",
        "params": {
          "_stakingAddress": "The staking address of the pool to be removed."
        }
      },
      "removePools()": {
        "details": "Removes pools which are in the `_poolsToBeRemoved` internal array from the `pools` array. Called by the `ValidatorSetHbbft.newValidatorSet` function when a pool must be removed by the algorithm."
      },
      "setCandidateMinStake(uint256)": {
        "details": "Sets (updates) the limit of the minimum candidate stake (CANDIDATE_MIN_STAKE). Can only be called by the `owner`.",
        "params": {
          "_minStake": "The value of a new limit in Wei."
        }
      },
      "setDelegatorMinStake(uint256)": {
        "details": "Sets (updates) the limit of the minimum delegator stake (DELEGATOR_MIN_STAKE). Can only be called by the `owner`.",
        "params": {
          "_minStake": "The value of a new limit in Wei."
        }
      },
      "setStakingEpochStartTime(uint256)": {
        "details": "Sets the timetamp of the current epoch's last block as the start time of the upcoming staking epoch. Called by the `ValidatorSetHbbft.newValidatorSet` function at the last block of a staking epoch.",
        "params": {
          "_timestamp": "The starting time of the very first block in the upcoming staking epoch."
        }
      },
      "stake(address)": {
        "details": "Moves the specified amount of staking coins from the staker's address to the staking address of the specified pool. Actually, the amount is stored in a balance of this StakingHbbft contract. A staker calls this function when they want to make a stake into a pool.",
        "params": {
          "_toPoolStakingAddress": "The staking address of the pool where the coins should be staked."
        }
      },
      "stakeAmountByCurrentEpoch(address,address)": {
        "details": "Returns the amount of staking coins staked into the specified pool by the specified staker during the current staking epoch (see the `stakingEpoch` getter). Used by the `stake`, `withdraw`, and `orderWithdraw` functions.",
        "params": {
          "_poolStakingAddress": "The pool staking address.",
          "_staker": "The staker's address."
        }
      },
      "stakingFixedEpochEndTime()": {
        "details": "Returns an indicative time of the last block of the current staking epoch before key generation starts."
      },
      "startTimeOfNextPhaseTransition()": {
        "details": "indicates the time when the new validatorset for the next epoch gets chosen. this is the start of a timeframe before the end of the epoch, that is long enough for the validators to create a new shared key."
      },
      "withdraw(address,uint256)": {
        "details": "Moves the specified amount of staking coins from the staking address of the specified pool to the staker's address. A staker calls this function when they want to withdraw their coins.",
        "params": {
          "_amount": "The amount of coins to be withdrawn. The amount cannot exceed the value returned by the `maxWithdrawAllowed` getter.",
          "_fromPoolStakingAddress": "The staking address of the pool from which the coins should be withdrawn."
        }
      }
    }
  },
  "userdoc": {
    "methods": {}
  }
}