{
  "contractName": "StakingHbbft",
  "abi": [
    {
      "anonymous": false,
      "inputs": [
        {
          "indexed": true,
          "internalType": "address",
          "name": "fromPoolStakingAddress",
          "type": "address"
        },
        {
          "indexed": true,
          "internalType": "address",
          "name": "staker",
          "type": "address"
        },
        {
          "indexed": true,
          "internalType": "uint256",
          "name": "stakingEpoch",
          "type": "uint256"
        },
        {
          "indexed": false,
          "internalType": "uint256",
          "name": "amount",
          "type": "uint256"
        }
      ],
      "name": "ClaimedOrderedWithdrawal",
      "type": "event"
    },
    {
      "anonymous": false,
      "inputs": [
        {
          "indexed": true,
          "internalType": "address",
          "name": "fromPoolStakingAddress",
          "type": "address"
        },
        {
          "indexed": true,
          "internalType": "address",
          "name": "staker",
          "type": "address"
        },
        {
          "indexed": true,
          "internalType": "uint256",
          "name": "stakingEpoch",
          "type": "uint256"
        },
        {
          "indexed": false,
          "internalType": "uint256",
          "name": "nativeCoinsAmount",
          "type": "uint256"
        }
      ],
      "name": "ClaimedReward",
      "type": "event"
    },
    {
      "anonymous": false,
      "inputs": [
        {
          "indexed": false,
          "internalType": "address",
          "name": "fromPoolStakingAddress",
          "type": "address"
        },
        {
          "indexed": true,
          "internalType": "address",
          "name": "toPoolStakingAddress",
          "type": "address"
        },
        {
          "indexed": true,
          "internalType": "address",
          "name": "staker",
          "type": "address"
        },
        {
          "indexed": true,
          "internalType": "uint256",
          "name": "stakingEpoch",
          "type": "uint256"
        },
        {
          "indexed": false,
          "internalType": "uint256",
          "name": "amount",
          "type": "uint256"
        }
      ],
      "name": "MovedStake",
      "type": "event"
    },
    {
      "anonymous": false,
      "inputs": [
        {
          "indexed": true,
          "internalType": "address",
          "name": "fromPoolStakingAddress",
          "type": "address"
        },
        {
          "indexed": true,
          "internalType": "address",
          "name": "staker",
          "type": "address"
        },
        {
          "indexed": true,
          "internalType": "uint256",
          "name": "stakingEpoch",
          "type": "uint256"
        },
        {
          "indexed": false,
          "internalType": "int256",
          "name": "amount",
          "type": "int256"
        }
      ],
      "name": "OrderedWithdrawal",
      "type": "event"
    },
    {
      "anonymous": false,
      "inputs": [
        {
          "indexed": true,
          "internalType": "address",
          "name": "toPoolStakingAddress",
          "type": "address"
        },
        {
          "indexed": true,
          "internalType": "address",
          "name": "staker",
          "type": "address"
        },
        {
          "indexed": true,
          "internalType": "uint256",
          "name": "stakingEpoch",
          "type": "uint256"
        },
        {
          "indexed": false,
          "internalType": "uint256",
          "name": "amount",
          "type": "uint256"
        }
      ],
      "name": "PlacedStake",
      "type": "event"
    },
    {
      "anonymous": false,
      "inputs": [
        {
          "indexed": true,
          "internalType": "address",
          "name": "fromPoolStakingAddress",
          "type": "address"
        },
        {
          "indexed": true,
          "internalType": "address",
          "name": "staker",
          "type": "address"
        },
        {
          "indexed": true,
          "internalType": "uint256",
          "name": "stakingEpoch",
          "type": "uint256"
        },
        {
          "indexed": false,
          "internalType": "uint256",
          "name": "amount",
          "type": "uint256"
        }
      ],
      "name": "WithdrewStake",
      "type": "event"
    },
    {
      "payable": true,
      "stateMutability": "payable",
      "type": "fallback"
    },
    {
      "constant": true,
      "inputs": [],
      "name": "MAX_CANDIDATES",
      "outputs": [
        {
          "internalType": "uint256",
          "name": "",
          "type": "uint256"
        }
      ],
      "payable": false,
      "stateMutability": "view",
      "type": "function"
    },
    {
      "constant": false,
      "inputs": [
        {
          "internalType": "address",
          "name": "_miningAddress",
          "type": "address"
        },
        {
          "internalType": "bytes",
          "name": "_publicKey",
          "type": "bytes"
        },
        {
          "internalType": "bytes16",
          "name": "_ip",
          "type": "bytes16"
        }
      ],
      "name": "addPool",
      "outputs": [],
      "payable": true,
      "stateMutability": "payable",
      "type": "function"
    },
    {
      "constant": true,
      "inputs": [],
      "name": "areStakeAndWithdrawAllowed",
      "outputs": [
        {
          "internalType": "bool",
          "name": "",
          "type": "bool"
        }
      ],
      "payable": false,
      "stateMutability": "view",
      "type": "function"
    },
    {
      "constant": true,
      "inputs": [],
      "name": "candidateMinStake",
      "outputs": [
        {
          "internalType": "uint256",
          "name": "",
          "type": "uint256"
        }
      ],
      "payable": false,
      "stateMutability": "view",
      "type": "function"
    },
    {
      "constant": false,
      "inputs": [
        {
          "internalType": "address",
          "name": "_poolStakingAddress",
          "type": "address"
        }
      ],
      "name": "claimOrderedWithdraw",
      "outputs": [],
      "payable": false,
      "stateMutability": "nonpayable",
      "type": "function"
    },
    {
      "constant": false,
      "inputs": [
        {
          "internalType": "uint256[]",
          "name": "_stakingEpochs",
          "type": "uint256[]"
        },
        {
          "internalType": "address",
          "name": "_poolStakingAddress",
          "type": "address"
        }
      ],
      "name": "claimReward",
      "outputs": [],
      "payable": false,
      "stateMutability": "nonpayable",
      "type": "function"
    },
    {
      "constant": true,
      "inputs": [],
      "name": "currentKeyGenExtraTimeWindow",
      "outputs": [
        {
          "internalType": "uint256",
          "name": "",
          "type": "uint256"
        }
      ],
      "payable": false,
      "stateMutability": "view",
      "type": "function"
    },
    {
      "constant": true,
      "inputs": [],
      "name": "delegatorMinStake",
      "outputs": [
        {
          "internalType": "uint256",
          "name": "",
          "type": "uint256"
        }
      ],
      "payable": false,
      "stateMutability": "view",
      "type": "function"
    },
    {
      "constant": true,
      "inputs": [
        {
          "internalType": "address",
          "name": "",
          "type": "address"
        },
        {
          "internalType": "address",
          "name": "",
          "type": "address"
        },
        {
          "internalType": "uint256",
          "name": "",
          "type": "uint256"
        }
      ],
      "name": "delegatorStakeSnapshot",
      "outputs": [
        {
          "internalType": "uint256",
          "name": "",
          "type": "uint256"
        }
      ],
      "payable": false,
      "stateMutability": "view",
      "type": "function"
    },
    {
      "constant": true,
      "inputs": [
        {
          "internalType": "address",
          "name": "_poolAddress",
          "type": "address"
        }
      ],
      "name": "getPoolInternetAddress",
      "outputs": [
        {
          "internalType": "bytes16",
          "name": "",
          "type": "bytes16"
        }
      ],
      "payable": false,
      "stateMutability": "view",
      "type": "function"
    },
    {
      "constant": true,
      "inputs": [
        {
          "internalType": "address",
          "name": "_poolAddress",
          "type": "address"
        }
      ],
      "name": "getPoolPublicKey",
      "outputs": [
        {
          "internalType": "bytes",
          "name": "",
          "type": "bytes"
        }
      ],
      "payable": false,
      "stateMutability": "view",
      "type": "function"
    },
    {
      "constant": true,
      "inputs": [],
      "name": "getPools",
      "outputs": [
        {
          "internalType": "address[]",
          "name": "",
          "type": "address[]"
        }
      ],
      "payable": false,
      "stateMutability": "view",
      "type": "function"
    },
    {
      "constant": true,
      "inputs": [],
      "name": "getPoolsInactive",
      "outputs": [
        {
          "internalType": "address[]",
          "name": "",
          "type": "address[]"
        }
      ],
      "payable": false,
      "stateMutability": "view",
      "type": "function"
    },
    {
      "constant": true,
      "inputs": [],
      "name": "getPoolsLikelihood",
      "outputs": [
        {
          "internalType": "uint256[]",
          "name": "likelihoods",
          "type": "uint256[]"
        },
        {
          "internalType": "uint256",
          "name": "sum",
          "type": "uint256"
        }
      ],
      "payable": false,
      "stateMutability": "view",
      "type": "function"
    },
    {
      "constant": true,
      "inputs": [],
      "name": "getPoolsToBeElected",
      "outputs": [
        {
          "internalType": "address[]",
          "name": "",
          "type": "address[]"
        }
      ],
      "payable": false,
      "stateMutability": "view",
      "type": "function"
    },
    {
      "constant": true,
      "inputs": [],
      "name": "getPoolsToBeRemoved",
      "outputs": [
        {
          "internalType": "address[]",
          "name": "",
          "type": "address[]"
        }
      ],
      "payable": false,
      "stateMutability": "view",
      "type": "function"
    },
    {
      "constant": true,
      "inputs": [
        {
          "internalType": "uint256[]",
          "name": "_stakingEpochs",
          "type": "uint256[]"
        },
        {
          "internalType": "address",
          "name": "_poolStakingAddress",
          "type": "address"
        },
        {
          "internalType": "address",
          "name": "_staker",
          "type": "address"
        }
      ],
      "name": "getRewardAmount",
      "outputs": [
        {
          "internalType": "uint256",
          "name": "",
          "type": "uint256"
        }
      ],
      "payable": false,
      "stateMutability": "view",
      "type": "function"
    },
    {
      "constant": false,
      "inputs": [],
      "name": "incrementStakingEpoch",
      "outputs": [],
      "payable": false,
      "stateMutability": "nonpayable",
      "type": "function"
    },
    {
      "constant": false,
      "inputs": [
        {
          "internalType": "address",
          "name": "_validatorSetContract",
          "type": "address"
        },
        {
          "internalType": "address[]",
          "name": "_initialStakingAddresses",
          "type": "address[]"
        },
        {
          "internalType": "uint256",
          "name": "_delegatorMinStake",
          "type": "uint256"
        },
        {
          "internalType": "uint256",
          "name": "_candidateMinStake",
          "type": "uint256"
        },
        {
          "internalType": "uint256",
          "name": "_stakingFixedEpochDuration",
          "type": "uint256"
        },
        {
          "internalType": "uint256",
          "name": "_stakingTransitionTimeframeLength",
          "type": "uint256"
        },
        {
          "internalType": "uint256",
          "name": "_stakingWithdrawDisallowPeriod",
          "type": "uint256"
        },
        {
          "internalType": "bytes32[]",
          "name": "_publicKeys",
          "type": "bytes32[]"
        },
        {
          "internalType": "bytes16[]",
          "name": "_internetAddresses",
          "type": "bytes16[]"
        }
      ],
      "name": "initialize",
      "outputs": [],
      "payable": false,
      "stateMutability": "nonpayable",
      "type": "function"
    },
    {
      "constant": true,
      "inputs": [],
      "name": "isInitialized",
      "outputs": [
        {
          "internalType": "bool",
          "name": "",
          "type": "bool"
        }
      ],
      "payable": false,
      "stateMutability": "view",
      "type": "function"
    },
    {
      "constant": true,
      "inputs": [
        {
          "internalType": "address",
          "name": "_stakingAddress",
          "type": "address"
        }
      ],
      "name": "isPoolActive",
      "outputs": [
        {
          "internalType": "bool",
          "name": "",
          "type": "bool"
        }
      ],
      "payable": false,
      "stateMutability": "view",
      "type": "function"
    },
    {
      "constant": true,
      "inputs": [
        {
          "internalType": "address",
          "name": "_poolStakingAddress",
          "type": "address"
        },
        {
          "internalType": "address",
          "name": "_staker",
          "type": "address"
        }
      ],
      "name": "maxWithdrawAllowed",
      "outputs": [
        {
          "internalType": "uint256",
          "name": "",
          "type": "uint256"
        }
      ],
      "payable": false,
      "stateMutability": "view",
      "type": "function"
    },
    {
      "constant": true,
      "inputs": [
        {
          "internalType": "address",
          "name": "_poolStakingAddress",
          "type": "address"
        },
        {
          "internalType": "address",
          "name": "_staker",
          "type": "address"
        }
      ],
      "name": "maxWithdrawOrderAllowed",
      "outputs": [
        {
          "internalType": "uint256",
          "name": "",
          "type": "uint256"
        }
      ],
      "payable": false,
      "stateMutability": "view",
      "type": "function"
    },
    {
      "constant": false,
      "inputs": [
        {
          "internalType": "address",
          "name": "_fromPoolStakingAddress",
          "type": "address"
        },
        {
          "internalType": "address",
          "name": "_toPoolStakingAddress",
          "type": "address"
        },
        {
          "internalType": "uint256",
          "name": "_amount",
          "type": "uint256"
        }
      ],
      "name": "moveStake",
      "outputs": [],
      "payable": false,
      "stateMutability": "nonpayable",
      "type": "function"
    },
    {
      "constant": false,
      "inputs": [
        {
          "internalType": "address",
          "name": "_stakingAddress",
          "type": "address"
        }
      ],
      "name": "notifyAvailability",
      "outputs": [],
      "payable": false,
      "stateMutability": "nonpayable",
      "type": "function"
    },
    {
      "constant": false,
      "inputs": [],
      "name": "notifyKeyGenFailed",
      "outputs": [],
      "payable": false,
      "stateMutability": "nonpayable",
      "type": "function"
    },
    {
      "constant": false,
      "inputs": [
        {
          "internalType": "address",
          "name": "_poolStakingAddress",
          "type": "address"
        },
        {
          "internalType": "int256",
          "name": "_amount",
          "type": "int256"
        }
      ],
      "name": "orderWithdraw",
      "outputs": [],
      "payable": false,
      "stateMutability": "nonpayable",
      "type": "function"
    },
    {
      "constant": true,
      "inputs": [
        {
          "internalType": "address",
          "name": "",
          "type": "address"
        },
        {
          "internalType": "address",
          "name": "",
          "type": "address"
        }
      ],
      "name": "orderWithdrawEpoch",
      "outputs": [
        {
          "internalType": "uint256",
          "name": "",
          "type": "uint256"
        }
      ],
      "payable": false,
      "stateMutability": "view",
      "type": "function"
    },
    {
      "constant": true,
      "inputs": [
        {
          "internalType": "address",
          "name": "",
          "type": "address"
        },
        {
          "internalType": "address",
          "name": "",
          "type": "address"
        }
      ],
      "name": "orderedWithdrawAmount",
      "outputs": [
        {
          "internalType": "uint256",
          "name": "",
          "type": "uint256"
        }
      ],
      "payable": false,
      "stateMutability": "view",
      "type": "function"
    },
    {
      "constant": true,
      "inputs": [
        {
          "internalType": "address",
          "name": "",
          "type": "address"
        }
      ],
      "name": "orderedWithdrawAmountTotal",
      "outputs": [
        {
          "internalType": "uint256",
          "name": "",
          "type": "uint256"
        }
      ],
      "payable": false,
      "stateMutability": "view",
      "type": "function"
    },
    {
      "constant": true,
      "inputs": [
        {
          "internalType": "address",
          "name": "",
          "type": "address"
        },
        {
          "internalType": "address",
          "name": "",
          "type": "address"
        }
      ],
      "name": "poolDelegatorInactiveIndex",
      "outputs": [
        {
          "internalType": "uint256",
          "name": "",
          "type": "uint256"
        }
      ],
      "payable": false,
      "stateMutability": "view",
      "type": "function"
    },
    {
      "constant": true,
      "inputs": [
        {
          "internalType": "address",
          "name": "",
          "type": "address"
        },
        {
          "internalType": "address",
          "name": "",
          "type": "address"
        }
      ],
      "name": "poolDelegatorIndex",
      "outputs": [
        {
          "internalType": "uint256",
          "name": "",
          "type": "uint256"
        }
      ],
      "payable": false,
      "stateMutability": "view",
      "type": "function"
    },
    {
      "constant": true,
      "inputs": [
        {
          "internalType": "address",
          "name": "_poolStakingAddress",
          "type": "address"
        }
      ],
      "name": "poolDelegators",
      "outputs": [
        {
          "internalType": "address[]",
          "name": "",
          "type": "address[]"
        }
      ],
      "payable": false,
      "stateMutability": "view",
      "type": "function"
    },
    {
      "constant": true,
      "inputs": [
        {
          "internalType": "address",
          "name": "_poolStakingAddress",
          "type": "address"
        }
      ],
      "name": "poolDelegatorsInactive",
      "outputs": [
        {
          "internalType": "address[]",
          "name": "",
          "type": "address[]"
        }
      ],
      "payable": false,
      "stateMutability": "view",
      "type": "function"
    },
    {
      "constant": true,
      "inputs": [
        {
          "internalType": "address",
          "name": "",
          "type": "address"
        }
      ],
      "name": "poolInactiveIndex",
      "outputs": [
        {
          "internalType": "uint256",
          "name": "",
          "type": "uint256"
        }
      ],
      "payable": false,
      "stateMutability": "view",
      "type": "function"
    },
    {
      "constant": true,
      "inputs": [
        {
          "internalType": "address",
          "name": "",
          "type": "address"
        }
      ],
      "name": "poolIndex",
      "outputs": [
        {
          "internalType": "uint256",
          "name": "",
          "type": "uint256"
        }
      ],
      "payable": false,
      "stateMutability": "view",
      "type": "function"
    },
    {
      "constant": true,
      "inputs": [
        {
          "internalType": "address",
          "name": "",
          "type": "address"
        }
      ],
      "name": "poolInfo",
      "outputs": [
        {
          "internalType": "bytes",
          "name": "publicKey",
          "type": "bytes"
        },
        {
          "internalType": "bytes16",
          "name": "internetAddress",
          "type": "bytes16"
        }
      ],
      "payable": false,
      "stateMutability": "view",
      "type": "function"
    },
    {
      "constant": true,
      "inputs": [
        {
          "internalType": "address",
          "name": "",
          "type": "address"
        }
      ],
      "name": "poolToBeElectedIndex",
      "outputs": [
        {
          "internalType": "uint256",
          "name": "",
          "type": "uint256"
        }
      ],
      "payable": false,
      "stateMutability": "view",
      "type": "function"
    },
    {
      "constant": true,
      "inputs": [
        {
          "internalType": "address",
          "name": "",
          "type": "address"
        }
      ],
      "name": "poolToBeRemovedIndex",
      "outputs": [
        {
          "internalType": "uint256",
          "name": "",
          "type": "uint256"
        }
      ],
      "payable": false,
      "stateMutability": "view",
      "type": "function"
    },
    {
      "constant": false,
      "inputs": [],
      "name": "removeMyPool",
      "outputs": [],
      "payable": false,
      "stateMutability": "nonpayable",
      "type": "function"
    },
    {
      "constant": false,
      "inputs": [
        {
          "internalType": "address",
          "name": "_stakingAddress",
          "type": "address"
        }
      ],
      "name": "removePool",
      "outputs": [],
      "payable": false,
      "stateMutability": "nonpayable",
      "type": "function"
    },
    {
      "constant": false,
      "inputs": [],
      "name": "removePools",
      "outputs": [],
      "payable": false,
      "stateMutability": "nonpayable",
      "type": "function"
    },
    {
      "constant": true,
      "inputs": [
        {
          "internalType": "address",
          "name": "",
          "type": "address"
        },
        {
          "internalType": "address",
          "name": "",
          "type": "address"
        },
        {
          "internalType": "uint256",
          "name": "",
          "type": "uint256"
        }
      ],
      "name": "rewardWasTaken",
      "outputs": [
        {
          "internalType": "bool",
          "name": "",
          "type": "bool"
        }
      ],
      "payable": false,
      "stateMutability": "view",
      "type": "function"
    },
    {
      "constant": false,
      "inputs": [
        {
          "internalType": "uint256",
          "name": "_minStake",
          "type": "uint256"
        }
      ],
      "name": "setCandidateMinStake",
      "outputs": [],
      "payable": false,
      "stateMutability": "nonpayable",
      "type": "function"
    },
    {
      "constant": false,
      "inputs": [
        {
          "internalType": "uint256",
          "name": "_minStake",
          "type": "uint256"
        }
      ],
      "name": "setDelegatorMinStake",
      "outputs": [],
      "payable": false,
      "stateMutability": "nonpayable",
      "type": "function"
    },
    {
      "constant": false,
      "inputs": [
        {
          "internalType": "bytes",
          "name": "_publicKey",
          "type": "bytes"
        },
        {
          "internalType": "bytes16",
          "name": "_ip",
          "type": "bytes16"
        }
      ],
      "name": "setPoolInfo",
      "outputs": [],
      "payable": false,
      "stateMutability": "nonpayable",
      "type": "function"
    },
    {
      "constant": false,
      "inputs": [
        {
          "internalType": "uint256",
          "name": "_timestamp",
          "type": "uint256"
        }
      ],
      "name": "setStakingEpochStartTime",
      "outputs": [],
      "payable": false,
      "stateMutability": "nonpayable",
      "type": "function"
    },
    {
      "constant": false,
      "inputs": [
        {
          "internalType": "address",
          "name": "_toPoolStakingAddress",
          "type": "address"
        }
      ],
      "name": "stake",
      "outputs": [],
      "payable": true,
      "stateMutability": "payable",
      "type": "function"
    },
    {
      "constant": true,
      "inputs": [
        {
          "internalType": "address",
          "name": "",
          "type": "address"
        },
        {
          "internalType": "address",
          "name": "",
          "type": "address"
        }
      ],
      "name": "stakeAmount",
      "outputs": [
        {
          "internalType": "uint256",
          "name": "",
          "type": "uint256"
        }
      ],
      "payable": false,
      "stateMutability": "view",
      "type": "function"
    },
    {
      "constant": true,
      "inputs": [
        {
          "internalType": "address",
          "name": "_poolStakingAddress",
          "type": "address"
        },
        {
          "internalType": "address",
          "name": "_staker",
          "type": "address"
        }
      ],
      "name": "stakeAmountByCurrentEpoch",
      "outputs": [
        {
          "internalType": "uint256",
          "name": "",
          "type": "uint256"
        }
      ],
      "payable": false,
      "stateMutability": "view",
      "type": "function"
    },
    {
      "constant": true,
      "inputs": [
        {
          "internalType": "address",
          "name": "",
          "type": "address"
        }
      ],
      "name": "stakeAmountTotal",
      "outputs": [
        {
          "internalType": "uint256",
          "name": "",
          "type": "uint256"
        }
      ],
      "payable": false,
      "stateMutability": "view",
      "type": "function"
    },
    {
      "constant": true,
      "inputs": [
        {
          "internalType": "address",
          "name": "",
          "type": "address"
        },
        {
          "internalType": "address",
          "name": "",
          "type": "address"
        }
      ],
      "name": "stakeFirstEpoch",
      "outputs": [
        {
          "internalType": "uint256",
          "name": "",
          "type": "uint256"
        }
      ],
      "payable": false,
      "stateMutability": "view",
      "type": "function"
    },
    {
      "constant": true,
      "inputs": [
        {
          "internalType": "address",
          "name": "",
          "type": "address"
        },
        {
          "internalType": "address",
          "name": "",
          "type": "address"
        }
      ],
      "name": "stakeLastEpoch",
      "outputs": [
        {
          "internalType": "uint256",
          "name": "",
          "type": "uint256"
        }
      ],
      "payable": false,
      "stateMutability": "view",
      "type": "function"
    },
    {
      "constant": true,
      "inputs": [],
      "name": "stakingEpoch",
      "outputs": [
        {
          "internalType": "uint256",
          "name": "",
          "type": "uint256"
        }
      ],
      "payable": false,
      "stateMutability": "view",
      "type": "function"
    },
    {
      "constant": true,
      "inputs": [],
      "name": "stakingEpochStartBlock",
      "outputs": [
        {
          "internalType": "uint256",
          "name": "",
          "type": "uint256"
        }
      ],
      "payable": false,
      "stateMutability": "view",
      "type": "function"
    },
    {
      "constant": true,
      "inputs": [],
      "name": "stakingEpochStartTime",
      "outputs": [
        {
          "internalType": "uint256",
          "name": "",
          "type": "uint256"
        }
      ],
      "payable": false,
      "stateMutability": "view",
      "type": "function"
    },
    {
      "constant": true,
      "inputs": [],
      "name": "stakingFixedEpochDuration",
      "outputs": [
        {
          "internalType": "uint256",
          "name": "",
          "type": "uint256"
        }
      ],
      "payable": false,
      "stateMutability": "view",
      "type": "function"
    },
    {
      "constant": true,
      "inputs": [],
      "name": "stakingFixedEpochEndTime",
      "outputs": [
        {
          "internalType": "uint256",
          "name": "",
          "type": "uint256"
        }
      ],
      "payable": false,
      "stateMutability": "view",
      "type": "function"
    },
    {
      "constant": true,
      "inputs": [],
      "name": "stakingTransitionTimeframeLength",
      "outputs": [
        {
          "internalType": "uint256",
          "name": "",
          "type": "uint256"
        }
      ],
      "payable": false,
      "stateMutability": "view",
      "type": "function"
    },
    {
      "constant": true,
      "inputs": [],
      "name": "stakingWithdrawDisallowPeriod",
      "outputs": [
        {
          "internalType": "uint256",
          "name": "",
          "type": "uint256"
        }
      ],
      "payable": false,
      "stateMutability": "view",
      "type": "function"
    },
    {
      "constant": true,
      "inputs": [],
      "name": "startTimeOfNextPhaseTransition",
      "outputs": [
        {
          "internalType": "uint256",
          "name": "",
          "type": "uint256"
        }
      ],
      "payable": false,
      "stateMutability": "view",
      "type": "function"
    },
    {
      "constant": true,
      "inputs": [],
      "name": "validatorSetContract",
      "outputs": [
        {
          "internalType": "contract IValidatorSetHbbft",
          "name": "",
          "type": "address"
        }
      ],
      "payable": false,
      "stateMutability": "view",
      "type": "function"
    },
    {
      "constant": false,
      "inputs": [
        {
          "internalType": "address",
          "name": "_fromPoolStakingAddress",
          "type": "address"
        },
        {
          "internalType": "uint256",
          "name": "_amount",
          "type": "uint256"
        }
      ],
      "name": "withdraw",
      "outputs": [],
      "payable": false,
      "stateMutability": "nonpayable",
      "type": "function"
    }
  ],
  "bytecode": "0x608060405234801561001057600080fd5b506162a180620000216000396000f3fe6080604052600436106103b75760003560e01c8063950a6513116101f2578063cfef14411161010d578063edd7db75116100a0578063f3fef3a31161006f578063f3fef3a3146111b7578063f4942501146111f0578063fa4aaf4714611205578063fb367a9b14611238576103b7565b8063edd7db7514611145578063edf94b821461115a578063ee435f551461118d578063f0786096146111a2576103b7565b8063dadee88a116100dc578063dadee88a14611091578063df6f55f5146110c4578063dfc8bf4e146110d9578063e9ab03001461110a576103b7565b8063cfef144114610faf578063d290c21d14610fe2578063d958e2e914610ff7578063da7a9b6a1461107c576103b7565b8063a697ecff11610185578063b42754a511610154578063b42754a514610ef3578063b61ed63a14610f26578063bc9eb2c314610f5f578063c6912cc014610f9a576103b7565b8063a697ecff14610e5b578063a711e6a114610e96578063adddc0cf14610ec9578063ae1aaf8014610ede576103b7565b80639b03d744116101c15780639b03d74414610dc35780639ea8082b14610dd8578063a420596714610e0b578063a5d54f6514610e46576103b7565b8063950a651314610c175780639518c48114610c52578063957950a714610c8d5780639a7b5f1114610cfd576103b7565b80634d73b02c116102e2578063673a2a1f11610275578063750dd2a111610244578063750dd2a114610b6a578063794c0c6814610ba55780637b15b94c14610bba5780638247a23914610bed576103b7565b8063673a2a1f14610a825780636bda157714610ae75780637069e74614610b2257806373c2180314610b37576103b7565b80635659b742116102b15780635659b7421461097757806356e4d6c2146109b25780635fef764314610a3a5780636511391814610a4f576103b7565b80634d73b02c1461073d5780634e9b426d146108875780634f9a8d8f1461092f5780635267e1d614610944576103b7565b8063264762041161035a578063392e53cd11610329578063392e53cd146106125780633b7d0946146106275780633ea15d621461065a57806348aaa4a214610713576103b7565b806326476204146105565780632bafde8d1461057c57806331727730146105a6578063379b046a146105fd576103b7565b80631555371c116103965780631555371c146104975780631fb31e43146104ae57806322e3d986146104fe578063251441a914610513576103b7565b80622ceebc146103f2578063028b8bdb146104475780630868c0d61461045c575b6040805162461bcd60e51b815260206004820152600b60248201526a4e6f742070617961626c6560a81b604482015290519081900360640190fd5b3480156103fe57600080fd5b506104356004803603606081101561041557600080fd5b506001600160a01b038135811691602081013590911690604001356112fc565b60408051918252519081900360200190f35b34801561045357600080fd5b5061043561131f565b34801561046857600080fd5b506104356004803603604081101561047f57600080fd5b506001600160a01b0381358116916020013516611325565b3480156104a357600080fd5b506104ac611342565b005b3480156104ba57600080fd5b506104e1600480360360208110156104d157600080fd5b50356001600160a01b031661142a565b604080516001600160801b03199092168252519081900360200190f35b34801561050a57600080fd5b5061043561144b565b34801561051f57600080fd5b506104ac6004803603606081101561053657600080fd5b506001600160a01b03813581169160208101359091169060400135611478565b6104ac6004803603602081101561056c57600080fd5b50356001600160a01b03166115bd565b34801561058857600080fd5b506104ac6004803603602081101561059f57600080fd5b5035611611565b3480156105b257600080fd5b506105e9600480360360608110156105c957600080fd5b506001600160a01b038135811691602081013590911690604001356116b4565b604080519115158252519081900360200190f35b34801561060957600080fd5b506104356116da565b34801561061e57600080fd5b506105e96116e0565b34801561063357600080fd5b506104ac6004803603602081101561064a57600080fd5b50356001600160a01b03166116f1565b34801561066657600080fd5b506104ac6004803603604081101561067d57600080fd5b810190602081018135600160201b81111561069757600080fd5b8201836020820111156106a957600080fd5b803590602001918460208302840111600160201b831117156106ca57600080fd5b919080806020026020016040519081016040528093929190818152602001838360200280828437600092019190915250929550505090356001600160a01b031691506117509050565b34801561071f57600080fd5b506104ac6004803603602081101561073657600080fd5b5035611e9f565b34801561074957600080fd5b506104ac600480360361012081101561076157600080fd5b6001600160a01b038235169190810190604081016020820135600160201b81111561078b57600080fd5b82018360208201111561079d57600080fd5b803590602001918460208302840111600160201b831117156107be57600080fd5b91939092823592602081013592604082013592606083013592608081013592919060c081019060a00135600160201b8111156107f957600080fd5b82018360208201111561080b57600080fd5b803590602001918460208302840111600160201b8311171561082c57600080fd5b919390929091602081019035600160201b81111561084957600080fd5b82018360208201111561085b57600080fd5b803590602001918460208302840111600160201b8311171561087c57600080fd5b509092509050611f42565b34801561089357600080fd5b506108ba600480360360208110156108aa57600080fd5b50356001600160a01b03166121e1565b6040805160208082528351818301528351919283929083019185019080838360005b838110156108f45781810151838201526020016108dc565b50505050905090810190601f1680156109215780820380516001836020036101000a031916815260200191505b509250505060405180910390f35b34801561093b57600080fd5b5061043561228c565b34801561095057600080fd5b506104356004803603602081101561096757600080fd5b50356001600160a01b0316612292565b34801561098357600080fd5b506104356004803603604081101561099a57600080fd5b506001600160a01b03813581169160200135166122a3565b6104ac600480360360608110156109c857600080fd5b6001600160a01b038235169190810190604081016020820135600160201b8111156109f257600080fd5b820183602082011115610a0457600080fd5b803590602001918460018302840111600160201b83111715610a2557600080fd5b9193509150356001600160801b0319166122c0565b348015610a4657600080fd5b506104356123d9565b348015610a5b57600080fd5b5061043560048036036020811015610a7257600080fd5b50356001600160a01b03166123df565b348015610a8e57600080fd5b50610a976123f1565b60408051602080825283518183015283519192839290830191858101910280838360005b83811015610ad3578181015183820152602001610abb565b505050509050019250505060405180910390f35b348015610af357600080fd5b5061043560048036036040811015610b0a57600080fd5b506001600160a01b0381358116916020013516612453565b348015610b2e57600080fd5b506104356125ba565b348015610b4357600080fd5b50610a9760048036036020811015610b5a57600080fd5b50356001600160a01b03166125c0565b348015610b7657600080fd5b5061043560048036036040811015610b8d57600080fd5b506001600160a01b0381358116916020013516612635565b348015610bb157600080fd5b5061043561266a565b348015610bc657600080fd5b506104ac60048036036020811015610bdd57600080fd5b50356001600160a01b0316612670565b348015610bf957600080fd5b506104ac60048036036020811015610c1057600080fd5b50356126f7565b348015610c2357600080fd5b5061043560048036036040811015610c3a57600080fd5b506001600160a01b0381358116916020013516612753565b348015610c5e57600080fd5b5061043560048036036040811015610c7557600080fd5b506001600160a01b03813581169160200135166128c3565b348015610c9957600080fd5b50610ca26128e0565b6040518080602001838152602001828103825284818151815260200191508051906020019060200280838360005b83811015610ce8578181015183820152602001610cd0565b50505050905001935050505060405180910390f35b348015610d0957600080fd5b50610d3060048036036020811015610d2057600080fd5b50356001600160a01b0316612943565b6040518080602001836001600160801b0319166001600160801b0319168152602001828103825284818151815260200191508051906020019080838360005b83811015610d87578181015183820152602001610d6f565b50505050905090810190601f168015610db45780820380516001836020036101000a031916815260200191505b50935050505060405180910390f35b348015610dcf57600080fd5b506104356129ed565b348015610de457600080fd5b50610a9760048036036020811015610dfb57600080fd5b50356001600160a01b03166129f3565b348015610e1757600080fd5b5061043560048036036040811015610e2e57600080fd5b506001600160a01b0381358116916020013516612a67565b348015610e5257600080fd5b50610a97612a84565b348015610e6757600080fd5b5061043560048036036040811015610e7e57600080fd5b506001600160a01b0381358116916020013516612ae4565b348015610ea257600080fd5b506105e960048036036020811015610eb957600080fd5b50356001600160a01b0316612b01565b348015610ed557600080fd5b506104ac612b5a565b348015610eea57600080fd5b50610435612bbb565b348015610eff57600080fd5b5061043560048036036020811015610f1657600080fd5b50356001600160a01b0316612bc1565b348015610f3257600080fd5b506104ac60048036036040811015610f4957600080fd5b506001600160a01b038135169060200135612bd3565b348015610f6b57600080fd5b5061043560048036036040811015610f8257600080fd5b506001600160a01b03813581169160200135166130d2565b348015610fa657600080fd5b506104356130ef565b348015610fbb57600080fd5b506104ac60048036036020811015610fd257600080fd5b50356001600160a01b03166130fd565b348015610fee57600080fd5b50610a9761340f565b34801561100357600080fd5b506104ac6004803603604081101561101a57600080fd5b810190602081018135600160201b81111561103457600080fd5b82018360208201111561104657600080fd5b803590602001918460018302840111600160201b8311171561106757600080fd5b9193509150356001600160801b03191661346f565b34801561108857600080fd5b506104356134b8565b34801561109d57600080fd5b50610435600480360360208110156110b457600080fd5b50356001600160a01b03166134be565b3480156110d057600080fd5b50610a976134d0565b3480156110e557600080fd5b506110ee613530565b604080516001600160a01b039092168252519081900360200190f35b34801561111657600080fd5b506104356004803603604081101561112d57600080fd5b506001600160a01b038135811691602001351661353f565b34801561115157600080fd5b506104ac61355c565b34801561116657600080fd5b506104356004803603602081101561117d57600080fd5b50356001600160a01b031661372d565b34801561119957600080fd5b506104ac61373f565b3480156111ae57600080fd5b506104356137a2565b3480156111c357600080fd5b506104ac600480360360408110156111da57600080fd5b506001600160a01b0381351690602001356137a8565b3480156111fc57600080fd5b506105e961389a565b34801561121157600080fd5b506104356004803603602081101561122857600080fd5b50356001600160a01b031661389f565b34801561124457600080fd5b506104356004803603606081101561125b57600080fd5b810190602081018135600160201b81111561127557600080fd5b82018360208201111561128757600080fd5b803590602001918460208302840111600160201b831117156112a857600080fd5b919080806020026020016040519081016040528093929190818152602001838360200280828437600092019190915250929550506001600160a01b0383358116945060209093013590921691506138b19050565b600b60209081526000938452604080852082529284528284209052825290205481565b60195481565b600f60209081526000928352604080842090915290825290205481565b6021546001600160a01b03163314611395576040805162461bcd60e51b815260206004820152601160248201527013db9b1e4815985b1a59185d1bdc94d95d607a1b604482015290519081900360640190fd5b606060038054806020026020016040519081016040528092919081815260200182805480156113ed57602002820191906000526020600020905b81546001600160a01b031681526001909101906020018083116113cf575b50939450600093505050505b81518110156114265761141e82828151811061141157fe5b6020026020010151613e13565b6001016113f9565b5050565b6001600160a01b031660009081526022602052604090206001015460801b90565b601d54601b546000919015611461576001611464565b60005b60ff16601f54601b54830101039150505b90565b3a6114ba576040805162461bcd60e51b815260206004820152600d60248201526c04761735072696365206973203609c1b604482015290519081900360640190fd5b6114c26116e0565b611501576040805162461bcd60e51b81526020600482015260186024820152600080516020616083833981519152604482015290519081900360640190fd5b816001600160a01b0316836001600160a01b031614156115525760405162461bcd60e51b81526004018080602001828103825260278152602001806160a36027913960400191505060405180910390fd5b3361155e848284613f34565b6115698382846141b0565b601a54604080516001600160a01b03878116825260208201869052825181861693918816927f4480d8e4b1e9095b94bf513961d26fe1d32386ebdd103d18fe8738cf4b2223ff92908290030190a450505050565b3a6115ff576040805162461bcd60e51b815260206004820152600d60248201526c04761735072696365206973203609c1b604482015290519081900360640190fd5b333461160c8383836141b0565b505050565b611619614657565b6001600160a01b0316336001600160a01b0316146116685760405162461bcd60e51b815260040180806020018281038252602b8152602001806161d7602b913960400191505060405180910390fd5b6116706116e0565b6116af576040805162461bcd60e51b81526020600482015260186024820152600080516020616083833981519152604482015290519081900360640190fd5b600a55565b601560209081526000938452604080852082529284528284209052825290205460ff1681565b601f5481565b6021546001600160a01b0316151590565b6021546001600160a01b03163314611744576040805162461bcd60e51b815260206004820152601160248201527013db9b1e4815985b1a59185d1bdc94d95d607a1b604482015290519081900360640190fd5b61174d81613e13565b50565b3a611792576040805162461bcd60e51b815260206004820152600d60248201526c04761735072696365206973203609c1b604482015290519081900360640190fd5b61179a6116e0565b6117d9576040805162461bcd60e51b81526020600482015260186024820152600080516020616083833981519152604482015290519081900360640190fd5b336000806001600160a01b038416831461188f576001600160a01b03808516600090815260176020908152604080832093871683529290522054915081611867576040805162461bcd60e51b815260206004820152601d60248201527f436c61696d3a2066697273742065706f63682063616e27742062652030000000604482015290519081900360640190fd5b506001600160a01b038084166000908152601860209081526040808320938616835292905220545b60215460408051632b5aa5d760e11b815290516000926001600160a01b0316916356b54bae916004808301926020929190829003018186803b1580156118d457600080fd5b505afa1580156118e8573d6000803e3d6000fd5b505050506040513d60208110156118fe57600080fd5b5051602154604080516253517560e01b81526001600160a01b0389811660048301529151939450600093919092169162535175916024808301926020929190829003018186803b15801561195157600080fd5b505afa158015611965573d6000803e3d6000fd5b505050506040513d602081101561197b57600080fd5b505187519091506000908190611aab57836001600160a01b031663dd03f5b9846040518263ffffffff1660e01b815260040180826001600160a01b03166001600160a01b0316815260200191505060006040518083038186803b1580156119e157600080fd5b505afa1580156119f5573d6000803e3d6000fd5b505050506040513d6000823e601f3d908101601f191682016040526020811015611a1e57600080fd5b8101908080516040519392919084600160201b821115611a3d57600080fd5b908301906020820185811115611a5257600080fd5b82518660208202830111600160201b82111715611a6e57600080fd5b82525081516020918201928201910280838360005b83811015611a9b578181015183820152602001611a83565b5050505090500160405250505098505b60005b8951811015611e1b5760008a8281518110611ac557fe5b602002602001015190508160001480611af357508a6001830381518110611ae857fe5b602002602001015181115b611b2e5760405162461bcd60e51b8152600401808060200182810382526025815260200180615d656025913960400191505060405180910390fd5b601a548110611b84576040805162461bcd60e51b815260206004820181905260248201527f436c61696d3a206f6e6c79206265666f72652063757272656e742065706f6368604482015290519081900360640190fd5b6001600160a01b03808b166000908152601560209081526040808320938d1683529281528282208483529052205460ff1615611bc05750611e13565b6000896001600160a01b03168b6001600160a01b031614611cb35788821015611bea575050611e13565b818811158015611bf957508715155b15611c05575050611e1b565b611c12828a868e8e61467c565b9350816001019850866001600160a01b031663e1ab96d88584896040518463ffffffff1660e01b815260040180848152602001838152602001826001600160a01b03166001600160a01b03168152602001935050505060206040518083038186803b158015611c8057600080fd5b505afa158015611c94573d6000803e3d6000fd5b505050506040513d6020811015611caa57600080fd5b50519050611d40565b866001600160a01b031663ba2d759783886040518363ffffffff1660e01b815260040180838152602001826001600160a01b03166001600160a01b031681526020019250505060206040518083038186803b158015611d1157600080fd5b505afa158015611d25573d6000803e3d6000fd5b505050506040513d6020811015611d3b57600080fd5b505190505b611d50858263ffffffff6146f116565b94506001601560008d6001600160a01b03166001600160a01b0316815260200190815260200160002060008c6001600160a01b03166001600160a01b03168152602001908152602001600020600084815260200190815260200160002060006101000a81548160ff021916908315150217905550818a6001600160a01b03168c6001600160a01b03167fd3208fd5300db64b97bc442f47ade72b7ebcd9272aaecdcc04c777bb762861b9846040518082815260200191505060405180910390a450505b600101611aae565b50836001600160a01b031663469507c683896040518363ffffffff1660e01b815260040180838152602001826001600160a01b03166001600160a01b0316815260200192505050600060405180830381600087803b158015611e7c57600080fd5b505af1158015611e90573d6000803e3d6000fd5b50505050505050505050505050565b611ea7614657565b6001600160a01b0316336001600160a01b031614611ef65760405162461bcd60e51b815260040180806020018281038252602b8152602001806161d7602b913960400191505060405180910390fd5b611efe6116e0565b611f3d576040805162461bcd60e51b81526020600482015260186024820152600080516020616083833981519152604482015290519081900360640190fd5b600955565b86611f94576040805162461bcd60e51b815260206004820152601760248201527f466978656445706f63684475726174696f6e2069732030000000000000000000604482015290519081900360640190fd5b848711611fd25760405162461bcd60e51b815260040180806020018281038252603d815260200180615f96603d913960400191505060405180910390fd5b84612024576040805162461bcd60e51b815260206004820152601b60248201527f5769746864726177446973616c6c6f77506572696f6420697320300000000000604482015290519081900360640190fd5b856120605760405162461bcd60e51b815260040180806020018281038252602e815260200180615f43602e913960400191505060405180910390fd5b86861061209e5760405162461bcd60e51b81526004018080602001828103825260408152602001806161436040913960400191505060405180910390fd5b6121508c8c8c80806020026020016040519081016040528093929190818152602001838360200280828437600081840152601f19601f820116905080830192505050505050508b8b88888080602002602001604051908101604052809392919081815260200183836020028082843760009201919091525050604080516020808c0282810182019093528b82529093508b92508a91829185019084908082843760009201919091525061470392505050565b601b879055601985905560215460408051636c9230db60e01b815290516001600160a01b0390921691636c9230db91600480820192602092909190829003018186803b15801561219f57600080fd5b505afa1580156121b3573d6000803e3d6000fd5b505050506040513d60208110156121c957600080fd5b5051601d55505050601c929092555050505050505050565b6001600160a01b03811660009081526022602090815260409182902080548351601f60026000196101006001861615020190931692909204918201849004840281018401909452808452606093928301828280156122805780601f1061225557610100808354040283529160200191612280565b820191906000526020600020905b81548152906001019060200180831161226357829003601f168201915b50505050509050919050565b601b5481565b602080526000908152604090205481565b601760209081526000928352604080842090915290825290205481565b3a612302576040805162461bcd60e51b815260206004820152600d60248201526c04761735072696365206973203609c1b604482015290519081900360640190fd5b60215460408051630526083960e11b81526001600160a01b0387811660048301523360248301819052925192933493911691630a4c107291604480830192600092919082900301818387803b15801561235a57600080fd5b505af115801561236e573d6000803e3d6000fd5b5050505061237d8283836141b0565b6001600160a01b03821660009081526022602052604090206123a0908686615bc8565b50506001600160a01b0316600090815260226020526040902060010180546001600160801b03191660809290921c919091179055505050565b60095481565b60116020526000908152604090205481565b6060600080548060200260200160405190810160405280929190818152602001828054801561244957602002820191906000526020600020905b81546001600160a01b0316815260019091019060200180831161242b575b5050505050905090565b602154604080516253517560e01b81526001600160a01b03858116600483015291516000938493169162535175916024808301926020929190829003018186803b1580156124a057600080fd5b505afa1580156124b4573d6000803e3d6000fd5b505050506040513d60208110156124ca57600080fd5b505190506124e7816001600160a01b038681169086161415614b98565b6124f55760009150506125b4565b6001600160a01b038085166000908152601660209081526040808320878516845282529182902054602154835163a0d16cad60e01b8152868616600482015293519194169263a0d16cad926024808301939192829003018186803b15801561255c57600080fd5b505afa158015612570573d6000803e3d6000fd5b505050506040513d602081101561258657600080fd5b50516125955791506125b49050565b60006125a18686612635565b9050808211156125af578091505b509150505b92915050565b601e5481565b6001600160a01b03811660009081526007602090815260409182902080548351818402810184019094528084526060939283018282801561228057602002820191906000526020600020905b81546001600160a01b0316815260019091019060200180831161260c5750505050509050919050565b6001600160a01b039182166000908152600860209081526040808320939094168252918252828120601a548252909152205490565b601a5481565b6021546001600160a01b031633146126c3576040805162461bcd60e51b815260206004820152601160248201527013db9b1e4815985b1a59185d1bdc94d95d607a1b604482015290519081900360640190fd5b6009546001600160a01b03821660009081526016602090815260408083209091529020541061174d5761174d816001614cce565b6021546001600160a01b0316331461274a576040805162461bcd60e51b815260206004820152601160248201527013db9b1e4815985b1a59185d1bdc94d95d607a1b604482015290519081900360640190fd5b601d5543601e55565b602154604080516253517560e01b81526001600160a01b03858116600483015291516000938493169162535175916024808301926020929190829003018186803b1580156127a057600080fd5b505afa1580156127b4573d6000803e3d6000fd5b505050506040513d60208110156127ca57600080fd5b505190506127e7816001600160a01b038681169086161415614b98565b6127f55760009150506125b4565b6021546040805163a0d16cad60e01b81526001600160a01b0384811660048301529151919092169163a0d16cad916024808301926020929190829003018186803b15801561284257600080fd5b505afa158015612856573d6000803e3d6000fd5b505050506040513d602081101561286c57600080fd5b505161287c5760009150506125b4565b6128bb6128898585612635565b6001600160a01b038087166000908152601660209081526040808320938916835292905220549063ffffffff614daa16565b949350505050565b601060209081526000928352604080842090915290825290205481565b6060600060046005548180548060200260200160405190810160405280929190818152602001828054801561293457602002820191906000526020600020905b815481526020019060010190808311612920575b50505050509150915091509091565b60226020908152600091825260409182902080548351601f600260001961010060018616150201909316929092049182018490048402810184019094528084529092918391908301828280156129da5780601f106129af576101008083540402835291602001916129da565b820191906000526020600020905b8154815290600101906020018083116129bd57829003601f168201915b5050506001909301549192505060801b82565b601d5481565b6001600160a01b038116600090815260066020908152604091829020805483518184028101840190945280845260609392830182828015612280576020028201919060005260206000209081546001600160a01b0316815260019091019060200180831161260c5750505050509050919050565b600e60209081526000928352604080842090915290825290205481565b60606002805480602002602001604051908101604052809291908181526020018280548015612449576020028201919060005260206000209081546001600160a01b0316815260019091019060200180831161242b575050505050905090565b601660209081526000928352604080842090915290825290205481565b6001600160a01b038116600090815260126020526040812054815481108015612b535750826001600160a01b031660008281548110612b3c57fe5b6000918252602090912001546001600160a01b0316145b9392505050565b6021546001600160a01b03163314612bad576040805162461bcd60e51b815260206004820152601160248201527013db9b1e4815985b1a59185d1bdc94d95d607a1b604482015290519081900360640190fd5b601c54601f80549091019055565b601c5481565b60126020526000908152604090205481565b3a612c15576040805162461bcd60e51b815260206004820152600d60248201526c04761735072696365206973203609c1b604482015290519081900360640190fd5b612c1d6116e0565b612c5c576040805162461bcd60e51b81526020600482015260186024820152600080516020616083833981519152604482015290519081900360640190fd5b6001600160a01b038216612ca15760405162461bcd60e51b8152600401808060200182810382526022815260200180615de86022913960400191505060405180910390fd5b80612cdd5760405162461bcd60e51b8152600401808060200182810382526025815260200180615f716025913960400191505060405180910390fd5b602154604080516253517560e01b81526001600160a01b03858116600483015291513393612d6c93169162535175916024808301926020929190829003018186803b158015612d2b57600080fd5b505afa158015612d3f573d6000803e3d6000fd5b505050506040513d6020811015612d5557600080fd5b50516001600160a01b038381169086161415614b98565b612dbd576040805162461bcd60e51b815260206004820152601a60248201527f4f7264657257697468647261773a206e6f7420616c6c6f776564000000000000604482015290519081900360640190fd5b6001600160a01b038084166000818152600c6020908152604080832094861680845294825280832054848452600d835281842054601684528285209685529583528184205494845291805282205490939291861315612ed75785612e218887612753565b811115612e5f5760405162461bcd60e51b815260040180806020018281038252602f81526020018061623e602f913960400191505060405180910390fd5b612e6f858263ffffffff6146f116565b9450612e81848263ffffffff6146f116565b9350612e93838263ffffffff614daa16565b9250612ea5828263ffffffff614daa16565b601a546001600160a01b03808b166000908152600e60209081526040808320938c16835292905220559150612f269050565b6000869003612eec858263ffffffff614daa16565b9450612efe848263ffffffff614daa16565b9350612f10838263ffffffff6146f116565b9250612f22828263ffffffff6146f116565b9150505b6001600160a01b038088166000818152600c60209081526040808320948a16808452948252808320899055838352600d825280832088905560168252808320858452825280832087905583835290805290208390551415612ff757811580612f9057506009548210155b612fcb5760405162461bcd60e51b8152600401808060200182810382526033815260200180615e0a6033913960400191505060405180910390fd5b6000861315612fe75781612fe257612fe287614dbf565b612ff2565b612ff2876001614cce565b613072565b8115806130065750600a548210155b6130415760405162461bcd60e51b8152600401808060200182810382526033815260200180615e0a6033913960400191505060405180910390fd5b600086131561305e5781613059576130598786614e7d565b613068565b6130688786614fd5565b613072878661509e565b61307b87615190565b601a54856001600160a01b0316886001600160a01b03167f80d5c777e5f7ac6ee89723223803ca5c0ec0204f89e99c1b0cde973c66a64594896040518082815260200191505060405180910390a450505050505050565b601860209081526000928352604080842090915290825290205481565b601c54601b54601d54010390565b3a61313f576040805162461bcd60e51b815260206004820152600d60248201526c04761735072696365206973203609c1b604482015290519081900360640190fd5b6131476116e0565b613186576040805162461bcd60e51b81526020600482015260186024820152600080516020616083833981519152604482015290519081900360640190fd5b6001600160a01b0381166000908152600e6020908152604080832033808552925290912054601a54116131ea5760405162461bcd60e51b815260040180806020018281038252603f815260200180615ffc603f913960400191505060405180910390fd5b602154604080516253517560e01b81526001600160a01b038581166004830152915161327b9392909216916253517591602480820192602092909190829003018186803b15801561323a57600080fd5b505afa15801561324e573d6000803e3d6000fd5b505050506040513d602081101561326457600080fd5b50516001600160a01b038381169085161415614b98565b6132b65760405162461bcd60e51b815260040180806020018281038252602a8152602001806161ad602a913960400191505060405180910390fd5b6001600160a01b038083166000908152600c60209081526040808320938516835292905220548061332e576040805162461bcd60e51b815260206004820152601a60248201527f636c61696d20616d6f756e74206d757374206e6f742062652030000000000000604482015290519081900360640190fd5b6001600160a01b038084166000818152600c602090815260408083209487168352938152838220829055918152600d9091522054613372908263ffffffff614daa16565b6001600160a01b038085166000908152600d60209081526040808320949094556016815283822092861682529190915220546133b2576133b2838361524f565b6133bc82826153a2565b601a54826001600160a01b0316846001600160a01b03167ff380b0bc887e00f5b50d3c9d4eaaf5c9a0afd97b956316b995159384c4ede9b3846040518082815260200191505060405180910390a4505050565b60606003805480602002602001604051908101604052809291908181526020018280548015612449576020028201919060005260206000209081546001600160a01b0316815260019091019060200180831161242b575050505050905090565b336000908152602260205260409020613489908484615bc8565b5033600090815260226020526040902060010180546001600160801b03191660809290921c9190911790555050565b600a5481565b600d6020526000908152604090205481565b60606001805480602002602001604051908101604052809291908181526020018280548015612449576020028201919060005260206000209081546001600160a01b0316815260019091019060200180831161242b575050505050905090565b6021546001600160a01b031681565b600c60209081526000928352604080842090915290825290205481565b3a61359e576040805162461bcd60e51b815260206004820152600d60248201526c04761735072696365206973203609c1b604482015290519081900360640190fd5b6135a66116e0565b6135e5576040805162461bcd60e51b81526020600482015260186024820152600080516020616083833981519152604482015290519081900360640190fd5b602154604080516253517560e01b81523360048201819052915191926000926001600160a01b039091169162535175916024808301926020929190829003018186803b15801561363457600080fd5b505afa158015613648573d6000803e3d6000fd5b505050506040513d602081101561365e57600080fd5b5051601a549091501515806136e957506021546040805163facd743b60e01b81526001600160a01b0384811660048301529151919092169163facd743b916024808301926020929190829003018186803b1580156136bb57600080fd5b505afa1580156136cf573d6000803e3d6000fd5b505050506040513d60208110156136e557600080fd5b5051155b6137245760405162461bcd60e51b815260040180806020018281038252602a815260200180616183602a913960400191505060405180910390fd5b61142682613e13565b60146020526000908152604090205481565b6021546001600160a01b03163314613792576040805162461bcd60e51b815260206004820152601160248201527013db9b1e4815985b1a59185d1bdc94d95d607a1b604482015290519081900360640190fd5b601a805460010190556000601f55565b610bb881565b3a6137ea576040805162461bcd60e51b815260206004820152600d60248201526c04761735072696365206973203609c1b604482015290519081900360640190fd5b6137f26116e0565b613831576040805162461bcd60e51b81526020600482015260186024820152600080516020616083833981519152604482015290519081900360640190fd5b3361383d838284613f34565b61384781836153a2565b601a54816001600160a01b0316846001600160a01b03167fa7c0f0cac6bd4d18042007706c84a8abe823751cf289b69c01e83eef7b5915c7856040518082815260200191505060405180910390a4505050565b600190565b60136020526000908152604090205481565b6000806000836001600160a01b0316856001600160a01b03161461395b576001600160a01b038086166000908152601760209081526040808320938816835292905220549150816139335760405162461bcd60e51b815260040180806020018281038252602e815260200180615d8a602e913960400191505060405180910390fd5b506001600160a01b038085166000908152601860209081526040808320938716835292905220545b60215460408051632b5aa5d760e11b815290516000926001600160a01b0316916356b54bae916004808301926020929190829003018186803b1580156139a057600080fd5b505afa1580156139b4573d6000803e3d6000fd5b505050506040513d60208110156139ca57600080fd5b5051602154604080516253517560e01b81526001600160a01b038a811660048301529151939450600093919092169162535175916024808301926020929190829003018186803b158015613a1d57600080fd5b505afa158015613a31573d6000803e3d6000fd5b505050506040513d6020811015613a4757600080fd5b505188519091506000908190613b7757836001600160a01b031663dd03f5b9846040518263ffffffff1660e01b815260040180826001600160a01b03166001600160a01b0316815260200191505060006040518083038186803b158015613aad57600080fd5b505afa158015613ac1573d6000803e3d6000fd5b505050506040513d6000823e601f3d908101601f191682016040526020811015613aea57600080fd5b8101908080516040519392919084600160201b821115613b0957600080fd5b908301906020820185811115613b1e57600080fd5b82518660208202830111600160201b82111715613b3a57600080fd5b82525081516020918201928201910280838360005b83811015613b67578181015183820152602001613b4f565b5050505090500160405250505099505b60005b8a51811015613e055760008b8281518110613b9157fe5b602002602001015190508160001480613bbf57508b6001830381518110613bb457fe5b602002602001015181115b613bfa5760405162461bcd60e51b8152600401808060200182810382526036815260200180615e626036913960400191505060405180910390fd5b601a548110613c3a5760405162461bcd60e51b815260040180806020018281038252603c815260200180616202603c913960400191505060405180910390fd5b6001600160a01b03808c166000908152601560209081526040808320938e1683529281528282208483529052205460ff1615613c765750613dfd565b60008a6001600160a01b03168c6001600160a01b031614613d695788821015613ca0575050613dfd565b818811158015613caf57508715155b15613cbb575050613e05565b613cc8828a878f8f61467c565b9450816001019850866001600160a01b031663e1ab96d88684896040518463ffffffff1660e01b815260040180848152602001838152602001826001600160a01b03166001600160a01b03168152602001935050505060206040518083038186803b158015613d3657600080fd5b505afa158015613d4a573d6000803e3d6000fd5b505050506040513d6020811015613d6057600080fd5b50519050613df6565b866001600160a01b031663ba2d759783886040518363ffffffff1660e01b815260040180838152602001826001600160a01b03166001600160a01b031681526020019250505060206040518083038186803b158015613dc757600080fd5b505afa158015613ddb573d6000803e3d6000fd5b505050506040513d6020811015613df157600080fd5b505190505b9290920191505b600101613b7a565b509998505050505050505050565b6001600160a01b038116600090815260126020526040812054905481108015613e655750816001600160a01b031660008281548110613e4e57fe5b6000918252602090912001546001600160a01b0316145b15613efd576000805481906000198101908110613e7e57fe5b600091825260208220015481546001600160a01b03909116925082919084908110613ea557fe5b600091825260208083209190910180546001600160a01b0319166001600160a01b0394851617905583831682526012905260408082208590559185168152908120819055805490613efa906000198301615c46565b50505b613f0682615405565b15613f1957613f1482615442565b613f22565b613f228261552e565b613f2b826155e6565b6114268261578a565b6001600160a01b038316613f795760405162461bcd60e51b815260040180806020018281038252602e815260200180615e98602e913960400191505060405180910390fd5b80613fcb576040805162461bcd60e51b815260206004820181905260248201527f616d6f756e7420746f207769746864726177206d757374206e6f742062652030604482015290519081900360640190fd5b613fd58383612453565b8111156140135760405162461bcd60e51b8152600401808060200182810382526025815260200180615e3d6025913960400191505060405180910390fd5b6001600160a01b03808416600090815260166020908152604080832093861683529290529081205461404b908363ffffffff614daa16565b90506000836001600160a01b0316856001600160a01b03161461407057600a54614074565b6009545b90508115806140835750808210155b6140be5760405162461bcd60e51b815260040180806020018281038252603981526020018061610a6039913960400191505060405180910390fd5b6001600160a01b03808616600090815260166020908152604080832093881683529290529081208390556140f28686612635565b905083811015614103576000614107565b8381035b6001600160a01b038088166000818152600860209081526040808320948b168352938152838220601a548352815283822094909455908152918052902054614155908563ffffffff614daa16565b6001600160a01b03871660009081526020805260409020558261417c5761417c868661524f565b856001600160a01b0316856001600160a01b03161461419f5761419f868661509e565b6141a886615190565b505050505050565b602154604080516253517560e01b81526001600160a01b038681166004830152915160009392909216916253517591602480820192602092909190829003018186803b1580156141ff57600080fd5b505afa158015614213573d6000803e3d6000fd5b505050506040513d602081101561422957600080fd5b505190506001600160a01b0381166142725760405162461bcd60e51b81526004018080602001828103825260408152602001806160ca6040913960400191505060405180910390fd5b6001600160a01b0384166142cd576040805162461bcd60e51b815260206004820152601a60248201527f5374616b653a207374616b696e67416464726573732069732030000000000000604482015290519081900360640190fd5b8161431f576040805162461bcd60e51b815260206004820152601960248201527f5374616b653a207374616b696e67416d6f756e74206973203000000000000000604482015290519081900360640190fd5b60215460408051635491295760e11b81526001600160a01b0384811660048301529151919092169163a92252ae916024808301926020929190829003018186803b15801561436c57600080fd5b505afa158015614380573d6000803e3d6000fd5b505050506040513d602081101561439657600080fd5b5051156143ea576040805162461bcd60e51b815260206004820152601f60248201527f5374616b653a204d696e696e6720616464726573732069732062616e6e656400604482015290519081900360640190fd5b6001600160a01b038085166000908152601660209081526040808320938716835292905290812054614422908463ffffffff6146f116565b9050846001600160a01b0316846001600160a01b031614156144845760095481101561447f5760405162461bcd60e51b8152600401808060200182810382526031815260200180615ef06031913960400191505060405180910390fd5b614521565b600a548110156144c55760405162461bcd60e51b8152600401808060200182810382526034815260200180615d316034913960400191505060405180910390fd5b6001600160a01b03851660009081526016602090815260408083209091529020546145215760405162461bcd60e51b81526004018080602001828103825260238152602001806160606023913960400191505060405180910390fd5b6001600160a01b038086166000908152601660209081526040808320938816835292905220819055614563836145578787612635565b9063ffffffff6146f116565b6001600160a01b038087166000818152600860209081526040808320948a168352938152838220601a5483528152838220949094559081529180529020546145b1908463ffffffff6146f116565b6001600160a01b038087166000818152602080526040902092909255851614156145e5576145e0856001614cce565b6145f9565b6145ef8585614fd5565b6145f9858561509e565b61460285615190565b601a54846001600160a01b0316866001600160a01b03167f2273de02cb1f69ba6259d22c4bc22c60e4c94c193265ef6afee324a04a9b6d22866040518082815260200191505060405180910390a45050505050565b7fb53127684a568b3173ae13b9f8a6016e243e63b6e8ee1178d6a717850b5d61035490565b60005b506001600160a01b038083166000908152600b6020908152604080832093851683529281528282208883529052205480156146cd5760001981146146c357806146c6565b60005b90506146e8565b848614156146dc5750826146e8565b6000199095019461467f565b95945050505050565b600082820183811015612b5357600080fd5b61470b614657565b6001600160a01b0316336001600160a01b03161480614742575061472d614657565b6001600160a01b0316326001600160a01b0316145b8061475b5750614750614657565b6001600160a01b0316155b80614764575043155b61479f5760405162461bcd60e51b8152600401808060200182810382526030815260200180615db86030913960400191505060405180910390fd5b6147a76116e0565b156147ef576040805162461bcd60e51b8152602060048201526013602482015272105b1c9958591e481a5b9a5d1a585b1a5e9959606a1b604482015290519081900360640190fd5b6001600160a01b03861661484a576040805162461bcd60e51b815260206004820152601760248201527f56616c696461746f725365742063616e27742062652030000000000000000000604482015290519081900360640190fd5b600085511161488a5760405162461bcd60e51b815260040180806020018281038252602581526020018061603b6025913960400191505060405180910390fd5b8151855161489f90600263ffffffff61587616565b146148db5760405162461bcd60e51b8152600401808060200182810382526029815260200180615fd36029913960400191505060405180910390fd5b805185511461491b5760405162461bcd60e51b815260040180806020018281038252602a815260200180615ec6602a913960400191505060405180910390fd5b83614966576040805162461bcd60e51b8152602060048201526016602482015275044656c656761746f724d696e5374616b6520697320360541b604482015290519081900360640190fd5b826149b1576040805162461bcd60e51b8152602060048201526016602482015275043616e6469646174654d696e5374616b6520697320360541b604482015290519081900360640190fd5b602180546001600160a01b0319166001600160a01b03881617905560005b8551811015614b885760006001600160a01b03168682815181106149ef57fe5b60200260200101516001600160a01b03161415614a3d5760405162461bcd60e51b8152600401808060200182810382526022815260200180615f216022913960400191505060405180910390fd5b614a5b868281518110614a4c57fe5b60200260200101516000614cce565b614a77868281518110614a6a57fe5b6020026020010151614dbf565b828160020281518110614a8657fe5b6020026020010151838260020260010181518110614aa057fe5b6020026020010151604051602001808381526020018281526020019250505060405160208183030381529060405260226000888481518110614ade57fe5b60200260200101516001600160a01b03166001600160a01b031681526020019081526020016000206000019080519060200190614b1c929190615c6a565b50818181518110614b2957fe5b602002602001015160226000888481518110614b4157fe5b6020908102919091018101516001600160a01b03168252810191909152604001600020600190810180546001600160801b03191660809390931c92909217909155016149cf565b505050600a919091556009555050565b60008115614c2b576021546040805163a881c5fd60e01b81526001600160a01b0386811660048301529151919092169163a881c5fd916024808301926020929190829003018186803b158015614bed57600080fd5b505afa158015614c01573d6000803e3d6000fd5b505050506040513d6020811015614c1757600080fd5b505115614c26575060006125b4565b614cb1565b60215460408051635491295760e11b81526001600160a01b0386811660048301529151919092169163a92252ae916024808301926020929190829003018186803b158015614c7857600080fd5b505afa158015614c8c573d6000803e3d6000fd5b505050506040513d6020811015614ca257600080fd5b505115614cb1575060006125b4565b614cb961389a565b614cc5575060006125b4565b50600192915050565b614cd782612b01565b614d9257600080546001600160a01b0384168083526012602052604083208290556001820183559180527f290decd9548b62a8d60345a988386fc84ba6bc95484008f6362f93160ef3e5630180546001600160a01b0319169091179055614d3c61589d565b6000541115614d92576040805162461bcd60e51b815260206004820152601d60248201527f4d41585f43414e4449444154455320706f6f6c73206578636565646564000000604482015290519081900360640190fd5b614d9b82615442565b801561142657611426826158a3565b600082821115614db957600080fd5b50900390565b6001600160a01b0381166000908152601460205260409020546003548082101580614e145750826001600160a01b031660038381548110614dfc57fe5b6000918252602090912001546001600160a01b031614155b15614e74576001600160a01b03831660008181526014602052604081208390556003805460018101825591527fc2575a0e9e593c00f959f8c92f12db2869c3395a3b0502d05e2516446f71f85b0180546001600160a01b03191690911790555b61160c836155e6565b6001600160a01b038083166000908152600660209081526040808320600f8352818420948616845293909152902054815481108015614ee45750826001600160a01b0316828281548110614ecd57fe5b6000918252602090912001546001600160a01b0316145b15614f8b57815460009083906000198101908110614efe57fe5b9060005260206000200160009054906101000a90046001600160a01b0316905080838381548110614f2b57fe5b600091825260208083209190910180546001600160a01b0319166001600160a01b039485161790558783168252600f8152604080832085851684529091528082208590559186168152908120558254614f88846000198301615c46565b50505b6001600160a01b038085166000908152600c602090815260408083209387168352929052205415614fc557614fc08484615992565b614fcf565b614fcf8484615a50565b50505050565b6001600160a01b038083166000908152600660209081526040808320600f83528184209486168452939091529020548154808210158061503e5750836001600160a01b031683838154811061502657fe5b6000918252602090912001546001600160a01b031614155b1561508d576001600160a01b038086166000908152600f602090815260408083209388168084529382528220849055855460018101875586835291200180546001600160a01b03191690911790555b6150978585615a50565b5050505050565b601a546001600160a01b03808416600090815260166020908152604080832093861683529290522054600190910190806150da576000196150dc565b805b6001600160a01b038086166000818152600b6020908152604080832094891680845294825280832088845282528083209590955591815260178252838120928152919052205461514f576001600160a01b0380851660009081526017602090815260408083209387168352929052208290555b801561515c57600061515e565b815b6001600160a01b0394851660009081526018602090815260408083209690971682529490945293909220929092555050565b60008061519c83615b5b565b91509150816151ac57505061174d565b6000600482815481106151bb57fe5b90600052602060002001549050600060206000866001600160a01b03166001600160a01b03168152602001908152602001600020549050806004848154811061520057fe5b600091825260209091200155818110615230576005546152289083830363ffffffff6146f116565b600555615097565b6005546152459082840363ffffffff614daa16565b6005555050505050565b816001600160a01b0316816001600160a01b0316141561538157602154604080516253517560e01b81526001600160a01b038581166004830152915160009392909216916253517591602480820192602092909190829003018186803b1580156152b857600080fd5b505afa1580156152cc573d6000803e3d6000fd5b505050506040513d60208110156152e257600080fd5b50516021546040805163facd743b60e01b81526001600160a01b038085166004830152915193945091169163facd743b91602480820192602092909190829003018186803b15801561533357600080fd5b505afa158015615347573d6000803e3d6000fd5b505050506040513d602081101561535d57600080fd5b5051156153725761536d83614dbf565b61537b565b61537b83613e13565b50611426565b61538b8282614e7d565b61539482615405565b156114265761142682615442565b6040516001600160a01b0383169082156108fc029083906000818181858888f193505050506114265780826040516153d990615cd8565b6001600160a01b039091168152604051908190036020019082f080158015615097573d6000803e3d6000fd5b6001600160a01b03811660009081526020805260408120541580156125b45750506001600160a01b03166000908152600d60205260409020541590565b6001600160a01b038116600090815260116020526040902054600154811080156154955750816001600160a01b03166001828154811061547e57fe5b6000918252602090912001546001600160a01b0316145b1561142657600180546000919060001981019081106154b057fe5b600091825260209091200154600180546001600160a01b0390921692508291849081106154d957fe5b600091825260208083209190910180546001600160a01b0319166001600160a01b0394851617905583831682526011905260408082208590559185168152908120556001805490614fcf906000198301615c46565b6001600160a01b03811660009081526011602052604090205460015480821015806155835750826001600160a01b03166001838154811061556b57fe5b6000918252602090912001546001600160a01b031614155b1561160c576001600160a01b038316600081815260116020526040812083905560018054808201825591527fb10e2d527612073b26eecdfd717e6a320cf44b4afac2b0732d9fcbe2b7fa0cf60180546001600160a01b0319169091179055505050565b600454600254146155f65761174d565b6001600160a01b038116600090815260136020526040902054600254811080156156495750816001600160a01b03166002828154811061563257fe5b6000918252602090912001546001600160a01b0316145b15611426576004818154811061565b57fe5b906000526020600020015460055410615696576004818154811061567b57fe5b6000918252602090912001546005805491909103905561569c565b60006005555b60028054600019810191600091839081106156b357fe5b600091825260209091200154600280546001600160a01b0390921692508291859081106156dc57fe5b9060005260206000200160006101000a8154816001600160a01b0302191690836001600160a01b031602179055506004828154811061571757fe5b90600052602060002001546004848154811061572f57fe5b60009182526020808320909101929092556001600160a01b038084168252601390925260408082208690559186168152908120556002805490615776906000198301615c46565b506004805490615097906000198301615c46565b6001600160a01b038116600090815260146020526040902054600354811080156157dd5750816001600160a01b0316600382815481106157c657fe5b6000918252602090912001546001600160a01b0316145b1561142657600380546000919060001981019081106157f857fe5b600091825260209091200154600380546001600160a01b03909216925082918490811061582157fe5b600091825260208083209190910180546001600160a01b0319166001600160a01b0394851617905583831682526014905260408082208590559185168152908120556003805490614fcf906000198301615c46565b600082615885575060006125b4565b8282028284828161589257fe5b0414612b5357600080fd5b610bb890565b6001600160a01b03811660009081526013602052604090205460025480821015806158f85750826001600160a01b0316600283815481106158e057fe5b6000918252602090912001546001600160a01b031614155b15615989576001600160a01b03831660008181526013602052604081208390556002805460018181019092557f405787fa12a823e0f2b7631cc41b3ba8828b3321ca811111fa75cd3aa3bb5ace0180546001600160a01b03191690931790925560048054928301815581527f8a35acfbc15ff81a39ae7d344fd709f28e8600b4aa8c65c6b64bfe7fe36bd19b909101555b61160c8361578a565b6001600160a01b03808316600090815260076020908152604080832060108352818420948616845293909152902054815480821015806159fb5750836001600160a01b03168383815481106159e357fe5b6000918252602090912001546001600160a01b031614155b15615097576001600160a01b0380861660009081526010602090815260408083209388168084529382528220849055855460018101875586835291200180546001600160a01b03191690911790555050505050565b6001600160a01b03808316600090815260076020908152604080832060108352818420948616845293909152902054815481108015615ab75750826001600160a01b0316828281548110615aa057fe5b6000918252602090912001546001600160a01b0316145b15614fcf57815460009083906000198101908110615ad157fe5b9060005260206000200160009054906101000a90046001600160a01b0316905080838381548110615afe57fe5b600091825260208083209190910180546001600160a01b0319166001600160a01b039485161790558783168252601081526040808320858516845290915280822085905591861681529081205582546141a8846000198301615c46565b6001600160a01b03811660009081526013602052604081205460025481108015615bae5750826001600160a01b031660028281548110615b9757fe5b6000918252602090912001546001600160a01b0316145b15615bbc5760019150615bc3565b5060009050805b915091565b828054600181600116156101000203166002900490600052602060002090601f016020900481019282601f10615c095782800160ff19823516178555615c36565b82800160010185558215615c36579182015b82811115615c36578235825591602001919060010190615c1b565b50615c42929150615ce4565b5090565b81548183558181111561160c5760008381526020902061160c918101908301615ce4565b828054600181600116156101000203166002900490600052602060002090601f016020900481019282601f10615cab57805160ff1916838001178555615c36565b82800160010185558215615c36579182015b82811115615c36578251825591602001919060010190615cbd565b603280615cff83390190565b61147591905b80821115615c425760008155600101615cea56fe60806040526040516032380380603283398181016040526020811015602357600080fd5b50516001600160a01b038116fffe5374616b653a2064656c656761746f725374616b65206973206c657373207468616e2064656c656761746f724d696e5374616b65436c61696d3a206e656564207374726963746c7920696e6372656173696e67206f72646572556e61626c6520746f206765742072657761726420616d6f756e74206966206e6f2066697273742065706f63682e496e697469616c697a6174696f6e206f6e6c79206f6e2067656e6573697320626c6f636b206f722062792061646d696e706f6f6c5374616b696e6741646472657373206d757374206e6f74206265203078306e65775374616b6520416d6f756e74206d7573742062652067726561746572207468616e20746865206d696e207374616b652e57697468647261773a206d61785769746864726177416c6c6f776564206578636565646564696e7465726e616c204572726f723a205374616b696e672045706f63687320726571756972656420746f206265206f7264657265642e576974686472617720706f6f6c207374616b696e672061646472657373206d757374206e6f74206265206e756c6c4d7573742070726f7669646520636f7272656374206e756d626572206f662049502061647265737365735374616b653a2063616e6469646174655374616b65206c657373207468616e2063616e6469646174654d696e5374616b65496e697469616c5374616b696e674164647265737365732063616e27742062652030546865207472616e736974696f6e2074696d656672616d65206d757374206265206c6f6e676572207468616e20306f72646572656420776974686472617720616d6f756e74206d757374206e6f742062652030466978656445706f63684475726174696f6e206d757374206265206c6f6e676572207468616e207769746864726177446973616c6c6f77506572696f644d7573742070726f7669646520636f7272656374206e756d626572206f66207075626c69634b65797363616e6e6f7420636c61696d206f72646572656420776974686472617720696e207468652073616d652065706f636820697420776173206f7264657265642e4d7573742070726f7669646520696e697469616c206d696e696e67206164647265737365735374616b653a2063616e27742064656c656761746520696e20656d70747920706f6f6c436f6e7472616374206e6f7420696e697469616c697a656400000000000000004d6f76655374616b653a2073726320616e642064737420706f6f6c206973207468652073616d65506f6f6c20646f6573206e6f742065786973742e206d696e696e674164647265737320666f722074686174207374616b696e67206164647265737320697320306e65775374616b6520616d6f756e74206d757374206265206772656174657220657175616c207468616e20746865206d696e207374616b652e546865207472616e736974696f6e2074696d656672616d65206d7573742062652073686f72746572207468656e207468652065706f6368206475726174696f6e43616e27742072656d6f766520706f6f6c20647572696e6720317374207374616b696e672065706f6368436c61696d4f72646572656457697468647261773a205769746864726177206e6f7420616c6c6f7765646f6e6c792061646d696e20697320616c6c6f77656420746f2063616c6c20746869732066756e6374696f6e696e7465726e616c204572726f723a2065706f6368206d757374206e6f74206265206c6573736572207468616e2063757272656e742065706f63682e4f7264657257697468647261773a206d617857697468647261774f72646572416c6c6f776564206578636565646564a265627a7a7231582061c64eac628f64a0989d5be17db6659e27b2fc0d8311d40f592f0e3e0f067b4964736f6c63430005110032",
  "source": "pragma solidity ^0.5.16;\n\nimport \"./base/StakingHbbftCoins.sol\";\n\n\ncontract StakingHbbft is StakingHbbftCoins {}\n",
  "sourcePath": "/home/sn/dmd/dmd-meta/hbbft-posdao-contracts/contracts/StakingHbbft.sol",
  "compiler": {
    "name": "solc",
    "version": "0.5.17+commit.d19bba13.Emscripten.clang"
  },
  "schemaVersion": "3.3.1",
  "updatedAt": "2021-03-29T20:18:15.805Z",
  "devdoc": {
    "methods": {
      "addPool(address,bytes,bytes16)": {
        "details": "Adds a new candidate's pool to the list of active pools (see the `getPools` getter) and moves the specified amount of staking coins from the candidate's staking address to the candidate's pool. A participant calls this function using their staking address when they want to create a pool. This is a wrapper for the `stake` function.",
        "params": {
          "_miningAddress": "The mining address of the candidate. The mining address is bound to the staking address (msg.sender). This address cannot be equal to `msg.sender`."
        }
      },
      "areStakeAndWithdrawAllowed()": {
        "details": "Determines whether staking/withdrawal operations are allowed at the moment. Used by all staking/withdrawal functions."
      },
      "claimOrderedWithdraw(address)": {
        "details": "Withdraws the staking coins from the specified pool ordered during the previous staking epochs with the `orderWithdraw` function. The ordered amount can be retrieved by the `orderedWithdrawAmount` getter.",
        "params": {
          "_poolStakingAddress": "The staking address of the pool from which the ordered coins are withdrawn."
        }
      },
      "claimReward(uint256[],address)": {
        "details": "Withdraws a reward from the specified pool for the specified staking epochs to the staker address (msg.sender).",
        "params": {
          "_poolStakingAddress": "The staking address of the pool from which the reward needs to be withdrawn.",
          "_stakingEpochs": "The list of staking epochs in ascending order. If the list is empty, it is taken with `BlockRewardHbbft.epochsPoolGotRewardFor` getter."
        }
      },
      "getPools()": {
        "details": "Returns an array of the current active pools (the staking addresses of candidates and validators). The size of the array cannot exceed MAX_CANDIDATES. A pool can be added to this array with the `_addPoolActive` internal function which is called by the `stake` or `orderWithdraw` function. A pool is considered active if its address has at least the minimum stake and this stake is not ordered to be withdrawn."
      },
      "getPoolsInactive()": {
        "details": "Returns an array of the current inactive pools (the staking addresses of former candidates). A pool can be added to this array with the `_addPoolInactive` internal function which is called by `_removePool`. A pool is considered inactive if it is banned for some reason, if its address has zero stake, or if its entire stake is ordered to be withdrawn."
      },
      "getPoolsLikelihood()": {
        "details": "Returns the array of stake amounts for each corresponding address in the `poolsToBeElected` array (see the `getPoolsToBeElected` getter) and a sum of these amounts. Used by the `ValidatorSetHbbft.newValidatorSet` function when randomly selecting new validators at the last block of a staking epoch. An array value is updated every time any staked amount is changed in this pool (see the `_setLikelihood` internal function).",
        "return": "`uint256[] likelihoods` - The array of the coefficients. The array length is always equal to the length of the `poolsToBeElected` array. `uint256 sum` - The total sum of the amounts."
      },
      "getPoolsToBeElected()": {
        "details": "Returns the list of pools (their staking addresses) which will participate in a new validator set selection process in the `ValidatorSetHbbft.newValidatorSet` function. This is an array of pools which will be considered as candidates when forming a new validator set (at the last block of a staking epoch). This array is kept updated by the `_addPoolToBeElected` and `_deletePoolToBeElected` internal functions."
      },
      "getPoolsToBeRemoved()": {
        "details": "Returns the list of pools (their staking addresses) which will be removed by the `ValidatorSetHbbft.newValidatorSet` function from the active `pools` array (at the last block of a staking epoch). This array is kept updated by the `_addPoolToBeRemoved` and `_deletePoolToBeRemoved` internal functions. A pool is added to this array when the pool's address withdraws (or orders) all of its own staking coins from the pool, inactivating the pool."
      },
      "getRewardAmount(uint256[],address,address)": {
        "details": "Returns reward amount in native coins for the specified pool, the specified staking epochs, and the specified staker address (delegator or validator).",
        "params": {
          "_poolStakingAddress": "The staking address of the pool for which the amounts need to be returned.",
          "_staker": "The staker address (validator's staking address or delegator's address).",
          "_stakingEpochs": "The list of staking epochs in ascending order. If the list is empty, it is taken with `BlockRewardHbbft.epochsPoolGotRewardFor` getter."
        }
      },
      "incrementStakingEpoch()": {
        "details": "Increments the serial number of the current staking epoch. Called by the `ValidatorSetHbbft.newValidatorSet` at the last block of the finished staking epoch."
      },
      "initialize(address,address[],uint256,uint256,uint256,uint256,uint256,bytes32[],bytes16[])": {
        "details": "Initializes the network parameters. Can only be called by the constructor of the `InitializerHbbft` contract or owner.",
        "params": {
          "_candidateMinStake": "The minimum allowed amount of candidate/validator stake in Wei.",
          "_delegatorMinStake": "The minimum allowed amount of delegator stake in Wei.",
          "_initialStakingAddresses": "The array of initial validators' staking addresses.",
          "_stakingFixedEpochDuration": "The fixed duration of each epoch before keyGen starts.",
          "_stakingTransitionTimeframeLength": "Length of the timeframe in seconds for the transition to the new validator set.",
          "_stakingWithdrawDisallowPeriod": "The duration period at the end of a staking epoch during which participants cannot stake/withdraw/order/claim their staking coins",
          "_validatorSetContract": "The address of the `ValidatorSetHbbft` contract."
        }
      },
      "isInitialized()": {
        "details": "Returns a boolean flag indicating if the `initialize` function has been called."
      },
      "isPoolActive(address)": {
        "details": "Returns a flag indicating whether a specified address is in the `pools` array. See the `getPools` getter.",
        "params": {
          "_stakingAddress": "The staking address of the pool."
        }
      },
      "maxWithdrawAllowed(address,address)": {
        "details": "Returns the maximum amount which can be withdrawn from the specified pool by the specified staker at the moment. Used by the `withdraw` and `moveStake` functions.",
        "params": {
          "_poolStakingAddress": "The pool staking address from which the withdrawal will be made.",
          "_staker": "The staker address that is going to withdraw."
        }
      },
      "maxWithdrawOrderAllowed(address,address)": {
        "details": "Returns the maximum amount which can be ordered to be withdrawn from the specified pool by the specified staker at the moment. Used by the `orderWithdraw` function.",
        "params": {
          "_poolStakingAddress": "The pool staking address from which the withdrawal will be ordered.",
          "_staker": "The staker address that is going to order the withdrawal."
        }
      },
      "moveStake(address,address,uint256)": {
        "details": "Moves staking coins from one pool to another. A staker calls this function when they want to move their coins from one pool to another without withdrawing their coins.",
        "params": {
          "_amount": "The amount of staking coins to be moved. The amount cannot exceed the value returned by the `maxWithdrawAllowed` getter.",
          "_fromPoolStakingAddress": "The staking address of the source pool.",
          "_toPoolStakingAddress": "The staking address of the target pool."
        }
      },
      "notifyAvailability(address)": {
        "details": "Notifies hbbft staking contract that a validator asociated with the given `_stakingAddress` became available again and can be put on to the list  of available nodes again."
      },
      "notifyKeyGenFailed()": {
        "details": "Notifies hbbft staking contract that the key generation has failed, and a new round  of keygeneration starts."
      },
      "orderWithdraw(address,int256)": {
        "details": "Orders coins withdrawal from the staking address of the specified pool to the staker's address. The requested coins can be claimed after the current staking epoch is complete using the `claimOrderedWithdraw` function.",
        "params": {
          "_amount": "The amount to be withdrawn. A positive value means the staker wants to either set or increase their withdrawal amount. A negative value means the staker wants to decrease a withdrawal amount that was previously set. The amount cannot exceed the value returned by the `maxWithdrawOrderAllowed` getter.",
          "_poolStakingAddress": "The staking address of the pool from which the amount will be withdrawn."
        }
      },
      "poolDelegators(address)": {
        "details": "Returns an array of the current active delegators of the specified pool. A delegator is considered active if they have staked into the specified pool and their stake is not ordered to be withdrawn.",
        "params": {
          "_poolStakingAddress": "The pool staking address."
        }
      },
      "poolDelegatorsInactive(address)": {
        "details": "Returns an array of the current inactive delegators of the specified pool. A delegator is considered inactive if their entire stake is ordered to be withdrawn but not yet claimed.",
        "params": {
          "_poolStakingAddress": "The pool staking address."
        }
      },
      "removeMyPool()": {
        "details": "Removes the candidate's or validator's pool from the `pools` array (a list of active pools which can be retrieved by the `getPools` getter). When a candidate or validator wants to remove their pool, they should call this function from their staking address."
      },
      "removePool(address)": {
        "details": "Removes a specified pool from the `pools` array (a list of active pools which can be retrieved by the `getPools` getter). Called by the `ValidatorSetHbbft._removeMaliciousValidator` internal function when a pool must be removed by the algorithm.",
        "params": {
          "_stakingAddress": "The staking address of the pool to be removed."
        }
      },
      "removePools()": {
        "details": "Removes pools which are in the `_poolsToBeRemoved` internal array from the `pools` array. Called by the `ValidatorSetHbbft.newValidatorSet` function when a pool must be removed by the algorithm."
      },
      "setCandidateMinStake(uint256)": {
        "details": "Sets (updates) the limit of the minimum candidate stake (CANDIDATE_MIN_STAKE). Can only be called by the `owner`.",
        "params": {
          "_minStake": "The value of a new limit in Wei."
        }
      },
      "setDelegatorMinStake(uint256)": {
        "details": "Sets (updates) the limit of the minimum delegator stake (DELEGATOR_MIN_STAKE). Can only be called by the `owner`.",
        "params": {
          "_minStake": "The value of a new limit in Wei."
        }
      },
      "setStakingEpochStartTime(uint256)": {
        "details": "Sets the timetamp of the current epoch's last block as the start time of the upcoming staking epoch. Called by the `ValidatorSetHbbft.newValidatorSet` function at the last block of a staking epoch.",
        "params": {
          "_timestamp": "The starting time of the very first block in the upcoming staking epoch."
        }
      },
      "stake(address)": {
        "details": "Moves the specified amount of staking coins from the staker's address to the staking address of the specified pool. Actually, the amount is stored in a balance of this StakingHbbft contract. A staker calls this function when they want to make a stake into a pool.",
        "params": {
          "_toPoolStakingAddress": "The staking address of the pool where the coins should be staked."
        }
      },
      "stakeAmountByCurrentEpoch(address,address)": {
        "details": "Returns the amount of staking coins staked into the specified pool by the specified staker during the current staking epoch (see the `stakingEpoch` getter). Used by the `stake`, `withdraw`, and `orderWithdraw` functions.",
        "params": {
          "_poolStakingAddress": "The pool staking address.",
          "_staker": "The staker's address."
        }
      },
      "stakingFixedEpochEndTime()": {
        "details": "Returns an indicative time of the last block of the current staking epoch before key generation starts."
      },
      "startTimeOfNextPhaseTransition()": {
        "details": "indicates the time when the new validatorset for the next epoch gets chosen. this is the start of a timeframe before the end of the epoch, that is long enough for the validators to create a new shared key."
      },
      "withdraw(address,uint256)": {
        "details": "Moves the specified amount of staking coins from the staking address of the specified pool to the staker's address. A staker calls this function when they want to withdraw their coins.",
        "params": {
          "_amount": "The amount of coins to be withdrawn. The amount cannot exceed the value returned by the `maxWithdrawAllowed` getter.",
          "_fromPoolStakingAddress": "The staking address of the pool from which the coins should be withdrawn."
        }
      }
    }
  },
  "userdoc": {
    "methods": {}
  }
}