{
  "contractName": "TxPermissionHbbft",
  "abi": [
    {
      "constant": true,
      "inputs": [],
      "name": "BLOCK_GAS_LIMIT",
      "outputs": [
        {
          "internalType": "uint256",
          "name": "",
          "type": "uint256"
        }
      ],
      "payable": false,
      "stateMutability": "view",
      "type": "function"
    },
    {
      "constant": true,
      "inputs": [],
      "name": "BLOCK_GAS_LIMIT_REDUCED",
      "outputs": [
        {
          "internalType": "uint256",
          "name": "",
          "type": "uint256"
        }
      ],
      "payable": false,
      "stateMutability": "view",
      "type": "function"
    },
    {
      "constant": true,
      "inputs": [],
      "name": "REPORT_MALICIOUS_SIGNATURE",
      "outputs": [
        {
          "internalType": "bytes4",
          "name": "",
          "type": "bytes4"
        }
      ],
      "payable": false,
      "stateMutability": "view",
      "type": "function"
    },
    {
      "constant": true,
      "inputs": [],
      "name": "WRITE_ACKS_SIGNATURE",
      "outputs": [
        {
          "internalType": "bytes4",
          "name": "",
          "type": "bytes4"
        }
      ],
      "payable": false,
      "stateMutability": "view",
      "type": "function"
    },
    {
      "constant": true,
      "inputs": [],
      "name": "WRITE_PART_SIGNATURE",
      "outputs": [
        {
          "internalType": "bytes4",
          "name": "",
          "type": "bytes4"
        }
      ],
      "payable": false,
      "stateMutability": "view",
      "type": "function"
    },
    {
      "constant": true,
      "inputs": [],
      "name": "certifierContract",
      "outputs": [
        {
          "internalType": "contract ICertifier",
          "name": "",
          "type": "address"
        }
      ],
      "payable": false,
      "stateMutability": "view",
      "type": "function"
    },
    {
      "constant": true,
      "inputs": [
        {
          "internalType": "address",
          "name": "",
          "type": "address"
        }
      ],
      "name": "isSenderAllowed",
      "outputs": [
        {
          "internalType": "bool",
          "name": "",
          "type": "bool"
        }
      ],
      "payable": false,
      "stateMutability": "view",
      "type": "function"
    },
    {
      "constant": true,
      "inputs": [],
      "name": "keyGenHistoryContract",
      "outputs": [
        {
          "internalType": "contract IKeyGenHistory",
          "name": "",
          "type": "address"
        }
      ],
      "payable": false,
      "stateMutability": "view",
      "type": "function"
    },
    {
      "constant": true,
      "inputs": [],
      "name": "minimumGasPrice",
      "outputs": [
        {
          "internalType": "uint256",
          "name": "",
          "type": "uint256"
        }
      ],
      "payable": false,
      "stateMutability": "view",
      "type": "function"
    },
    {
      "constant": true,
      "inputs": [],
      "name": "validatorSetContract",
      "outputs": [
        {
          "internalType": "contract IValidatorSetHbbft",
          "name": "",
          "type": "address"
        }
      ],
      "payable": false,
      "stateMutability": "view",
      "type": "function"
    },
    {
      "constant": false,
      "inputs": [
        {
          "internalType": "address[]",
          "name": "_allowed",
          "type": "address[]"
        },
        {
          "internalType": "address",
          "name": "_certifier",
          "type": "address"
        },
        {
          "internalType": "address",
          "name": "_validatorSet",
          "type": "address"
        },
        {
          "internalType": "address",
          "name": "_keyGenHistoryContract",
          "type": "address"
        }
      ],
      "name": "initialize",
      "outputs": [],
      "payable": false,
      "stateMutability": "nonpayable",
      "type": "function"
    },
    {
      "constant": false,
      "inputs": [
        {
          "internalType": "address",
          "name": "_sender",
          "type": "address"
        }
      ],
      "name": "addAllowedSender",
      "outputs": [],
      "payable": false,
      "stateMutability": "nonpayable",
      "type": "function"
    },
    {
      "constant": false,
      "inputs": [
        {
          "internalType": "address",
          "name": "_sender",
          "type": "address"
        }
      ],
      "name": "removeAllowedSender",
      "outputs": [],
      "payable": false,
      "stateMutability": "nonpayable",
      "type": "function"
    },
    {
      "constant": false,
      "inputs": [
        {
          "internalType": "uint256",
          "name": "_value",
          "type": "uint256"
        }
      ],
      "name": "setMinimumGasPrice",
      "outputs": [],
      "payable": false,
      "stateMutability": "nonpayable",
      "type": "function"
    },
    {
      "constant": true,
      "inputs": [],
      "name": "contractName",
      "outputs": [
        {
          "internalType": "string",
          "name": "",
          "type": "string"
        }
      ],
      "payable": false,
      "stateMutability": "pure",
      "type": "function"
    },
    {
      "constant": true,
      "inputs": [],
      "name": "contractNameHash",
      "outputs": [
        {
          "internalType": "bytes32",
          "name": "",
          "type": "bytes32"
        }
      ],
      "payable": false,
      "stateMutability": "pure",
      "type": "function"
    },
    {
      "constant": true,
      "inputs": [],
      "name": "contractVersion",
      "outputs": [
        {
          "internalType": "uint256",
          "name": "",
          "type": "uint256"
        }
      ],
      "payable": false,
      "stateMutability": "pure",
      "type": "function"
    },
    {
      "constant": true,
      "inputs": [],
      "name": "allowedSenders",
      "outputs": [
        {
          "internalType": "address[]",
          "name": "",
          "type": "address[]"
        }
      ],
      "payable": false,
      "stateMutability": "view",
      "type": "function"
    },
    {
      "constant": true,
      "inputs": [
        {
          "internalType": "address",
          "name": "_sender",
          "type": "address"
        },
        {
          "internalType": "address",
          "name": "_to",
          "type": "address"
        },
        {
          "internalType": "uint256",
          "name": "",
          "type": "uint256"
        },
        {
          "internalType": "uint256",
          "name": "_gasPrice",
          "type": "uint256"
        },
        {
          "internalType": "bytes",
          "name": "_data",
          "type": "bytes"
        }
      ],
      "name": "allowedTxTypes",
      "outputs": [
        {
          "internalType": "uint32",
          "name": "typesMask",
          "type": "uint32"
        },
        {
          "internalType": "bool",
          "name": "cache",
          "type": "bool"
        }
      ],
      "payable": false,
      "stateMutability": "view",
      "type": "function"
    },
    {
      "constant": true,
      "inputs": [],
      "name": "isInitialized",
      "outputs": [
        {
          "internalType": "bool",
          "name": "",
          "type": "bool"
        }
      ],
      "payable": false,
      "stateMutability": "view",
      "type": "function"
    }
  ],
  "bytecode": "0x608060405234801561001057600080fd5b50611359806100206000396000f3fe608060405234801561001057600080fd5b506004361061012c5760003560e01c8063a0a8e460116100ad578063d46005b111610071578063d46005b114610403578063d9eb2d5e1461048e578063df3cecf614610496578063dfc8bf4e1461049e578063efc78401146104a65761012c565b8063a0a8e460146102c5578063b47aef1f146102cd578063b9056afa146102d5578063c746c8f4146103c0578063d249b31c146103e65761012c565b8063469ab1e3116100f4578063469ab1e314610208578063471eab5c1461021057806375d0c0dc14610238578063782f0177146102b557806379167bdd146102bd5761012c565b80631a9ebeaa146101315780631b9f67a114610155578063305d526c1461016f5780633272b28c14610194578063392e53cd146101ec575b600080fd5b6101396104cc565b604080516001600160a01b039092168252519081900360200190f35b61015d6104db565b60408051918252519081900360200190f35b6101776104e2565b604080516001600160e01b03199092168252519081900360200190f35b61019c6104ed565b60408051602080825283518183015283519192839290830191858101910280838360005b838110156101d85781810151838201526020016101c0565b505050509050019250505060405180910390f35b6101f4610550565b604080519115158252519081900360200190f35b61015d610561565b6102366004803603602081101561022657600080fd5b50356001600160a01b03166105dd565b005b610240610743565b6040805160208082528351818301528351919283929083019185019080838360005b8381101561027a578181015183820152602001610262565b50505050905090810190601f1680156102a75780820380516001836020036101000a031916815260200191505b509250505060405180910390f35b610177610773565b61017761077e565b61015d610789565b61013961078e565b6103a0600480360360a08110156102eb57600080fd5b6001600160a01b03823581169260208101359091169160408201359160608101359181019060a08101608082013564010000000081111561032b57600080fd5b82018360208201111561033d57600080fd5b8035906020019184600183028401116401000000008311171561035f57600080fd5b91908080601f01602080910402602001604051908101604052809392919081815260200183838082843760009201919091525092955061079d945050505050565b6040805163ffffffff909316835290151560208301528051918290030190f35b610236600480360360208110156103d657600080fd5b50356001600160a01b0316610ebb565b610236600480360360208110156103fc57600080fd5b5035610f2f565b6102366004803603608081101561041957600080fd5b81019060208101813564010000000081111561043457600080fd5b82018360208201111561044657600080fd5b8035906020019184602083028401116401000000008311171561046857600080fd5b91935091506001600160a01b038135811691602081013582169160409091013516610fdb565b61015d611178565b61015d61117f565b610139611185565b6101f4600480360360208110156104bc57600080fd5b50356001600160a01b0316611194565b6001546001600160a01b031681565b621e848081565b6318ad5de960e31b81565b6060600080548060200260200160405190810160405280929190818152602001828054801561054557602002820191906000526020600020905b81546001600160a01b03168152600190910190602001808311610527575b505050505090505b90565b6004546001600160a01b0316151590565b600061056b610743565b6040516020018082805190602001908083835b6020831061059d5780518252601f19909201916020918201910161057e565b6001836020036101000a03801982511681845116808217855250505050505090500191505060405160208183030381529060405280519060200120905090565b6105e56111a9565b6001600160a01b0316336001600160a01b0316146106345760405162461bcd60e51b815260040180806020018281038252602b8152602001806112d8602b913960400191505060405180910390fd5b61063c610550565b61064557600080fd5b6001600160a01b03811660009081526003602052604090205460ff1661066a57600080fd5b60008054905b81811015610720576000818154811061068557fe5b6000918252602090912001546001600160a01b038481169116141561071857600060018303815481106106b457fe5b600091825260208220015481546001600160a01b039091169190839081106106d857fe5b6000918252602082200180546001600160a01b0319166001600160a01b03939093169290921790915580549061071290600019830161126c565b50610720565b600101610670565b50506001600160a01b03166000908152600360205260409020805460ff19169055565b604080518082019091526016815275151617d41154935254d4d253d397d0d3d395149050d560521b602082015290565b630334657d60e01b81565b630311db7560e61b81565b600390565b6002546001600160a01b031681565b6001600160a01b038516600090815260036020526040812054819060ff16156107cf575063ffffffff90506000610eb1565b60006060815b60048651101580156107e75750600481105b1561081a57806008028682815181106107fc57fe5b01602001516001600160f81b031916901c92909217916001016107d5565b6004546001600160a01b038a811691161415610a99576001600160e01b03198316630311db7560e61b14156109f557604060048751031161085f576004865103610862565b60405b6040519080825280601f01601f19166020018201604052801561088c576020820181803883390190505b509150600090505b81518110156108e2578581600401815181106108ac57fe5b602001015160f81c60f81b8282815181106108c357fe5b60200101906001600160f81b031916908160001a905350600101610894565b6000808380602001905160408110156108fa57600080fd5b810190808051906020019092919080519060200190929190505050915091506000600460009054906101000a90046001600160a01b03166001600160a01b031663a670eb568e85856040518463ffffffff1660e01b815260040180846001600160a01b03166001600160a01b03168152602001836001600160a01b03166001600160a01b031681526020018281526020019350505050604080518083038186803b1580156109a757600080fd5b505afa1580156109bb573d6000803e3d6000fd5b505050506040513d60408110156109d157600080fd5b50519050806109e15760006109e4565b60025b600097509750505050505050610eb1565b8615610a9457600480546040805163facd743b60e01b81526001600160a01b038e8116948201949094529051929091169163facd743b91602480820192602092909190829003018186803b158015610a4c57600080fd5b505afa158015610a60573d6000803e3d6000fd5b505050506040513d6020811015610a7657600080fd5b5051610a83576002610a86565b60005b600094509450505050610eb1565b610cac565b6002546001600160a01b038a811691161415610cac576001600160e01b03198316630334657d60e01b1415610c8c5760015b600480546040805163014e28d960e41b81526001600160a01b038f811694820194909452905192909116916314e28d9091602480820192602092909190829003018186803b158015610b1c57600080fd5b505afa158015610b30573d6000803e3d6000fd5b505050506040513d6020811015610b4657600080fd5b50516005811115610b5357fe5b1415610c7d576000828060200190516020811015610b7057600080fd5b50516004805460408051633ba6481760e21b815290519394506001600160a01b039091169263ee99205c92828101926020929190829003018186803b158015610bb857600080fd5b505afa158015610bcc573d6000803e3d6000fd5b505050506040513d6020811015610be257600080fd5b505160408051630f29818d60e31b815290516001600160a01b039092169163794c0c6891600480820192602092909190829003018186803b158015610c2657600080fd5b505afa158015610c3a573d6000803e3d6000fd5b505050506040513d6020811015610c5057600080fd5b5051600101811415610c6d57600260009550955050505050610eb1565b6000809550955050505050610eb1565b60008094509450505050610eb1565b6001600160e01b031983166318ad5de960e31b1415610cac576003610acb565b600480546040805163facd743b60e01b81526001600160a01b038e8116948201949094529051929091169163facd743b91602480820192602092909190829003018186803b158015610cfd57600080fd5b505afa158015610d11573d6000803e3d6000fd5b505050506040513d6020811015610d2757600080fd5b50518015610d355750600087115b15610d635760008a6001600160a01b03163111610d53576000610a86565b6001600094509450505050610eb1565b600480546040805163facd743b60e01b81526001600160a01b038d8116948201949094529051929091169163facd743b91602480820192602092909190829003018186803b158015610db457600080fd5b505afa158015610dc8573d6000803e3d6000fd5b505050506040513d6020811015610dde57600080fd5b505115610df45760008094509450505050610eb1565b86610e9057600154604080516303a388eb60e61b81526001600160a01b038d811660048301529151919092169163e8e23ac0916024808301926020929190829003018186803b158015610e4657600080fd5b505afa158015610e5a573d6000803e3d6000fd5b505050506040513d6020811015610e7057600080fd5b5051610e7d576000610a86565b63ffffffff600094509450505050610eb1565b600554871015610ea1576000610ea7565b63ffffffff5b6000945094505050505b9550959350505050565b610ec36111a9565b6001600160a01b0316336001600160a01b031614610f125760405162461bcd60e51b815260040180806020018281038252602b8152602001806112d8602b913960400191505060405180910390fd5b610f1a610550565b610f2357600080fd5b610f2c816111ce565b50565b610f376111a9565b6001600160a01b0316336001600160a01b031614610f865760405162461bcd60e51b815260040180806020018281038252602b8152602001806112d8602b913960400191505060405180910390fd5b610f8e610550565b610f9757600080fd5b60008111610fd65760405162461bcd60e51b81526004018080602001828103825260228152602001806113036022913960400191505060405180910390fd5b600555565b610fe36111a9565b6001600160a01b0316336001600160a01b0316148061101a57506110056111a9565b6001600160a01b0316326001600160a01b0316145b8061103357506110286111a9565b6001600160a01b0316155b8061103c575043155b61104557600080fd5b61104d610550565b156110895760405162461bcd60e51b81526004018080602001828103825260248152602001806112b46024913960400191505060405180910390fd5b6001600160a01b03831661109c57600080fd5b6001600160a01b0382166110f7576040805162461bcd60e51b815260206004820152601a60248201527f56616c696461746f72536574206d757374206e6f742062652030000000000000604482015290519081900360640190fd5b60005b8481101561112e5761112686868381811061111157fe5b905060200201356001600160a01b03166111ce565b6001016110fa565b50600180546001600160a01b039485166001600160a01b0319918216179091556004805493851693821693909317909255600280549190931691161790555050633b9aca00600555565b6298968081565b60055481565b6004546001600160a01b031681565b60036020526000908152604090205460ff1681565b7fb53127684a568b3173ae13b9f8a6016e243e63b6e8ee1178d6a717850b5d61035490565b6001600160a01b03811660009081526003602052604090205460ff16156111f457600080fd5b6001600160a01b03811661120757600080fd5b60008054600181810183557f290decd9548b62a8d60345a988386fc84ba6bc95484008f6362f93160ef3e56390910180546001600160a01b039094166001600160a01b031990941684179055918152600360205260409020805460ff19169091179055565b81548183558181111561129057600083815260209020611290918101908301611295565b505050565b61054d91905b808211156112af576000815560010161129b565b509056fe696e697469616c697a6174696f6e2063616e206f6e6c7920626520646f6e65206f6e63656f6e6c792061646d696e20697320616c6c6f77656420746f2063616c6c20746869732066756e6374696f6e4d696e696d756d20676173207072696365206d757374206e6f74206265207a65726fa265627a7a7231582045c2a1a38af45de869a7a56939b43760037df09408d871f54accb2d53ae2c1c964736f6c63430005100032",
  "source": "pragma solidity ^0.5.16;\n\nimport \"./interfaces/ICertifier.sol\";\nimport \"./interfaces/IKeyGenHistory.sol\";\nimport \"./interfaces/IRandomHbbft.sol\";\nimport \"./interfaces/IStakingHbbft.sol\";\nimport \"./interfaces/ITxPermission.sol\";\nimport \"./interfaces/IValidatorSetHbbft.sol\";\nimport \"./upgradeability/UpgradeableOwned.sol\";\n\n\n\n\n/// @dev Controls the use of zero gas price by validators in service transactions,\n/// protecting the network against \"transaction spamming\" by malicious validators.\n/// The protection logic is declared in the `allowedTxTypes` function.\ncontract TxPermissionHbbft is UpgradeableOwned, ITxPermission {\n\n    // =============================================== Storage ========================================================\n\n    // WARNING: since this contract is upgradeable, do not remove\n    // existing storage variables, do not change their order,\n    // and do not change their types!\n\n    address[] internal _allowedSenders;\n\n    /// @dev The address of the `Certifier` contract.\n    ICertifier public certifierContract;\n\n    IKeyGenHistory public keyGenHistoryContract;\n\n    /// @dev A boolean flag indicating whether the specified address is allowed\n    /// to initiate transactions of any type. Used by the `allowedTxTypes` getter.\n    /// See also the `addAllowedSender` and `removeAllowedSender` functions.\n    mapping(address => bool) public isSenderAllowed;\n\n    /// @dev The address of the `ValidatorSetHbbft` contract.\n    IValidatorSetHbbft public validatorSetContract;\n\n     /// @dev this is a constant for testing purposes to not cause upgrade issues with an existing network \n    /// because of storage modifictions.\n    uint256 public minimumGasPrice;\n\n    // ============================================== Constants =======================================================\n\n    /// @dev A constant that defines a regular block gas limit.\n    /// Used by the `blockGasLimit` public getter.\n    uint256 public constant BLOCK_GAS_LIMIT = 10000000;\n\n    /// @dev A constant that defines a reduced block gas limit.\n    /// Used by the `blockGasLimit` public getter.\n    uint256 public constant BLOCK_GAS_LIMIT_REDUCED = 2000000;\n\n    // ============================================== Modifiers =======================================================\n\n    /// @dev Ensures the `initialize` function was called before.\n    modifier onlyInitialized {\n        require(isInitialized());\n        _;\n    }\n\n    // =============================================== Setters ========================================================\n\n    /// @dev Initializes the contract at network startup.\n    /// Can only be called by the constructor of the `Initializer` contract or owner.\n    /// @param _allowed The addresses for which transactions of any type must be allowed.\n    /// See the `allowedTxTypes` getter.\n    /// @param _certifier The address of the `Certifier` contract. It is used by `allowedTxTypes` function to know\n    /// whether some address is explicitly allowed to use zero gas price.\n    /// @param _validatorSet The address of the `ValidatorSetHbbft` contract.\n    function initialize(\n        address[] calldata _allowed,\n        address _certifier,\n        address _validatorSet,\n        address _keyGenHistoryContract\n    ) external {\n        require(msg.sender == _admin() || tx.origin ==  _admin() || address(0) == _admin() || block.number == 0);\n        require(!isInitialized(), \"initialization can only be done once\");\n        require(_certifier != address(0));\n        require(_validatorSet != address(0), \"ValidatorSet must not be 0\");\n        for (uint256 i = 0; i < _allowed.length; i++) {\n            _addAllowedSender(_allowed[i]);\n        }\n        certifierContract = ICertifier(_certifier);\n        validatorSetContract = IValidatorSetHbbft(_validatorSet);\n        keyGenHistoryContract = IKeyGenHistory(_keyGenHistoryContract);\n        minimumGasPrice = 1000000000; // (1 gwei)\n    }\n\n    /// @dev Adds the address for which transactions of any type must be allowed.\n    /// Can only be called by the `owner`. See also the `allowedTxTypes` getter.\n    /// @param _sender The address for which transactions of any type must be allowed.\n    function addAllowedSender(address _sender)\n    public\n    onlyOwner\n    onlyInitialized {\n        _addAllowedSender(_sender);\n    }\n\n    /// @dev Removes the specified address from the array of addresses allowed\n    /// to initiate transactions of any type. Can only be called by the `owner`.\n    /// See also the `addAllowedSender` function and `allowedSenders` getter.\n    /// @param _sender The removed address.\n    function removeAllowedSender(address _sender)\n    public\n    onlyOwner\n    onlyInitialized {\n        require(isSenderAllowed[_sender]);\n\n        uint256 allowedSendersLength = _allowedSenders.length;\n\n        for (uint256 i = 0; i < allowedSendersLength; i++) {\n            if (_sender == _allowedSenders[i]) {\n                _allowedSenders[i] = _allowedSenders[allowedSendersLength - 1];\n                _allowedSenders.length--;\n                break;\n            }\n        }\n\n        isSenderAllowed[_sender] = false;\n    }\n\n    /// @dev set's the minimum gas price that is allowed by non-service transactions.\n    /// IN HBBFT, there must be consens about the validator nodes about wich transaction is legal, \n    /// and wich is not.\n    /// therefore the contract (could be the DAO) has to check the minimum gas price.\n    /// HBBFT Node implementations can also check if a transaction surpases the minimumGasPrice,\n    /// before submitting it as contribution.\n    /// The limit can be changed by the owner (typical the DAO)\n    /// @param _value The new minimum gas price.\n    function setMinimumGasPrice(uint256 _value)\n    public\n    onlyOwner\n    onlyInitialized {\n\n        // currently, we do not allow to set the minimum gas price to 0,\n        // that would open pandoras box, and the consequences of doing that, \n        // requires deeper research.\n        require(_value > 0, \"Minimum gas price must not be zero\"); \n        minimumGasPrice = _value;\n    }\n\n    // =============================================== Getters ========================================================\n\n    /// @dev Returns the contract's name recognizable by node's engine.\n    function contractName()\n    public\n    pure\n    returns(string memory) {\n        return \"TX_PERMISSION_CONTRACT\";\n    }\n\n    /// @dev Returns the contract name hash needed for node's engine.\n    function contractNameHash()\n    public\n    pure\n    returns(bytes32) {\n        return keccak256(abi.encodePacked(contractName()));\n    }\n\n    /// @dev Returns the contract's version number needed for node's engine.\n    function contractVersion()\n    public\n    pure\n    returns(uint256) {\n        return 3;\n    }\n\n    /// @dev Returns the list of addresses allowed to initiate transactions of any type.\n    /// For these addresses the `allowedTxTypes` getter always returns the `ALL` bit mask\n    /// (see https://wiki.parity.io/Permissioning.html#how-it-works-1).\n    function allowedSenders()\n    public\n    view\n    returns(address[] memory) {\n        return _allowedSenders;\n    }\n\n    /// @dev Defines the allowed transaction types which may be initiated by the specified sender with\n    /// the specified gas price and data. Used by node's engine each time a transaction is about to be\n    /// included into a block. See https://wiki.parity.io/Permissioning.html#how-it-works-1\n    /// @param _sender Transaction sender address.\n    /// @param _to Transaction recipient address. If creating a contract, the `_to` address is zero.\n    /// @param _gasPrice Gas price in wei for the transaction.\n    /// @param _data Transaction data.\n    /// @return `uint32 typesMask` - Set of allowed transactions for `_sender` depending on tx `_to` address,\n    /// `_gasPrice`, and `_data`. The result is represented as a set of flags:\n    /// 0x01 - basic transaction (e.g. ether transferring to user wallet);\n    /// 0x02 - contract call;\n    /// 0x04 - contract creation;\n    /// 0x08 - private transaction.\n    /// `bool cache` - If `true` is returned, the same permissions will be applied from the same\n    /// `_sender` without calling this contract again.\n    function allowedTxTypes(\n        address _sender,\n        address _to,\n        uint256 /*_value */,\n        uint256 _gasPrice,\n        bytes memory _data\n    )\n    public\n    view\n    returns(uint32 typesMask, bool cache) {\n        if (isSenderAllowed[_sender]) {\n            // Let the `_sender` initiate any transaction if the `_sender` is in the `allowedSenders` list\n            return (ALL, false);\n        }\n\n        // Get the called function's signature\n        bytes4 signature = bytes4(0);\n        bytes memory abiParams;\n        uint256 i;\n        for (i = 0; _data.length >= 4 && i < 4; i++) {\n            signature |= bytes4(_data[i]) >> i*8;\n        }\n\n\n        if (_to == address(validatorSetContract)) {\n            // The rules for the ValidatorSet contract\n            if (signature == REPORT_MALICIOUS_SIGNATURE) {\n                abiParams = new bytes(_data.length - 4 > 64 ? 64 : _data.length - 4);\n\n                for (i = 0; i < abiParams.length; i++) {\n                    abiParams[i] = _data[i + 4];\n                }\n\n                (\n                    address maliciousMiningAddress,\n                    uint256 blockNumber\n                ) = abi.decode(\n                    abiParams,\n                    (address, uint256)\n                );\n\n                // The `reportMalicious()` can only be called by the validator's mining address\n                // when the calling is allowed\n                (bool callable,) = validatorSetContract.reportMaliciousCallable(\n                    _sender, maliciousMiningAddress, blockNumber\n                );\n\n                return (callable ? CALL : NONE, false);\n            } else if (_gasPrice > 0) {\n                // The other functions of ValidatorSet contract can be called\n                // by anyone except validators' mining addresses if gasPrice is not zero\n                return (validatorSetContract.isValidator(_sender) ? NONE : CALL, false);\n            }\n        } else if (_to == address(keyGenHistoryContract)) {\n            // we allow all calls to the validatorSetContract if the pending validator\n            // has to send it's acks and Parts,\n            // but has not done this yet.\n\n            if (signature == WRITE_PART_SIGNATURE) {\n\n                if (validatorSetContract.getPendingValidatorKeyGenerationMode(_sender)\n                    == IValidatorSetHbbft.KeyGenMode.WritePart) {\n                    //is the epoch parameter correct ?\n\n                    (\n                        uint256 epochNumber\n                    ) = abi.decode(\n                        abiParams,\n                        (uint256)\n                    );\n\n                    if (epochNumber == IStakingHbbft(validatorSetContract.stakingContract()).stakingEpoch() + 1) {\n                        return (CALL, false);\n                    } else {\n                        return (NONE, false);\n                    }\n\n                } else {\n                    // we want to write the Part, but it's not time for write the part.\n                    // so this transaction is not allowed.\n                    return (NONE, false);\n                }\n\n            } else if (signature == WRITE_ACKS_SIGNATURE) {\n\n                if (validatorSetContract.getPendingValidatorKeyGenerationMode(_sender)\n                    == IValidatorSetHbbft.KeyGenMode.WriteAck) {\n                    //is the correct epoch parameter passed ?\n                    (\n                        uint256 epochNumber\n                    ) = abi.decode(\n                        abiParams,\n                        (uint256)\n                    );\n\n                    if (epochNumber == IStakingHbbft(validatorSetContract.stakingContract()).stakingEpoch() + 1) {\n                        return (CALL, false);\n                    } else {\n                        return (NONE, false);\n                    }\n                } else {\n                    // we want to write the Acks, but it's not time for write the Acks.\n                    // so this transaction is not allowed.\n                    return (NONE, false);\n                }\n            }\n\n            // if there is another external call to keygenhistory contracts.\n            // just treat it as normal call\n        }\n\n        //TODO: figure out if this applies to HBBFT as well.\n        if (validatorSetContract.isValidator(_sender) && _gasPrice > 0) {\n            // Let the validator's mining address send their accumulated tx fees to some wallet\n            return (_sender.balance > 0 ? BASIC : NONE, false);\n        }\n\n        if (validatorSetContract.isValidator(_to)) {\n            // Validator's mining address can't receive any coins\n            return (NONE, false);\n        }\n\n        // Don't let the `_sender` use a zero gas price, if it is not explicitly allowed by the `Certifier` contract\n        if (_gasPrice == 0) {\n            return (certifierContract.certifiedExplicitly(_sender) ? ALL : NONE, false);\n        }\n\n        // In other cases let the `_sender` create any transaction with non-zero gas price,\n        // as long the gas price is above the minimum gas price.\n        return (_gasPrice >= minimumGasPrice ? ALL : NONE, false);\n    }\n\n    /// @dev Returns the current block gas limit which depends on the stage of the current\n    // /// staking epoch: the block gas limit is temporarily reduced for the latest block of the epoch.\n    // function blockGasLimit() public view returns(uint256) {\n    //     address stakingContract = validatorSetContract.stakingContract();\n    //     uint256 stakingEpochEndTime = IStakingHbbft(stakingContract).stakingFixedEpochEndTime();\n    //     if (block.timestamp == stakingEpochEndBlock - 1 || block.number == stakingEpochEndBlock) {\n    //         return BLOCK_GAS_LIMIT_REDUCED;\n    //     }\n    //     return BLOCK_GAS_LIMIT;\n    // }\n\n    /// @dev Returns a boolean flag indicating if the `initialize` function has been called.\n    function isInitialized()\n    public\n    view\n    returns(bool) {\n        return validatorSetContract != IValidatorSetHbbft(0);\n    }\n\n    // ============================================== Internal ========================================================\n\n    // Allowed transaction types mask\n    uint32 internal constant NONE = 0;\n    uint32 internal constant ALL = 0xffffffff;\n    uint32 internal constant BASIC = 0x01;\n    uint32 internal constant CALL = 0x02;\n    uint32 internal constant CREATE = 0x04;\n    uint32 internal constant PRIVATE = 0x08;\n\n    // Function signatures\n\n    // bytes4(keccak256(\"reportMalicious(address,uint256,bytes)\"))\n    bytes4 public constant REPORT_MALICIOUS_SIGNATURE = 0xc476dd40;\n\n    // bytes4(keccak256(\"writePart(uint256,bytes)\"))\n    bytes4 public constant WRITE_PART_SIGNATURE = 0x0334657d;\n\n    // bytes4(keccak256(\"writeAcks(uint256,bytes[])\"))\n    bytes4 public constant WRITE_ACKS_SIGNATURE = 0xc56aef48;\n    \n    \n    /// @dev An internal function used by the `addAllowedSender` and `initialize` functions.\n    /// @param _sender The address for which transactions of any type must be allowed.\n    function _addAllowedSender(address _sender)\n    internal {\n        require(!isSenderAllowed[_sender]);\n        require(_sender != address(0));\n        _allowedSenders.push(_sender);\n        isSenderAllowed[_sender] = true;\n    }\n}\n",
  "sourcePath": "/home/sn/dmd/dmd-meta/hbbft-posdao-contracts/contracts/TxPermissionHbbft.sol",
  "compiler": {
    "name": "solc",
    "version": "0.5.16+commit.9c3226ce.Emscripten.clang"
  },
  "schemaVersion": "3.3.1",
  "updatedAt": "2021-03-18T13:53:27.386Z",
  "devdoc": {
    "details": "Controls the use of zero gas price by validators in service transactions, protecting the network against \"transaction spamming\" by malicious validators. The protection logic is declared in the `allowedTxTypes` function.",
    "methods": {
      "addAllowedSender(address)": {
        "details": "Adds the address for which transactions of any type must be allowed. Can only be called by the `owner`. See also the `allowedTxTypes` getter.",
        "params": {
          "_sender": "The address for which transactions of any type must be allowed."
        }
      },
      "allowedSenders()": {
        "details": "Returns the list of addresses allowed to initiate transactions of any type. For these addresses the `allowedTxTypes` getter always returns the `ALL` bit mask (see https://wiki.parity.io/Permissioning.html#how-it-works-1)."
      },
      "allowedTxTypes(address,address,uint256,uint256,bytes)": {
        "details": "Defines the allowed transaction types which may be initiated by the specified sender with the specified gas price and data. Used by node's engine each time a transaction is about to be included into a block. See https://wiki.parity.io/Permissioning.html#how-it-works-1",
        "params": {
          "_data": "Transaction data.",
          "_gasPrice": "Gas price in wei for the transaction.",
          "_sender": "Transaction sender address.",
          "_to": "Transaction recipient address. If creating a contract, the `_to` address is zero."
        },
        "return": "`uint32 typesMask` - Set of allowed transactions for `_sender` depending on tx `_to` address, `_gasPrice`, and `_data`. The result is represented as a set of flags: 0x01 - basic transaction (e.g. ether transferring to user wallet); 0x02 - contract call; 0x04 - contract creation; 0x08 - private transaction. `bool cache` - If `true` is returned, the same permissions will be applied from the same `_sender` without calling this contract again."
      },
      "contractName()": {
        "details": "Returns the contract's name recognizable by node's engine."
      },
      "contractNameHash()": {
        "details": "Returns the contract name hash needed for node's engine."
      },
      "contractVersion()": {
        "details": "Returns the contract's version number needed for node's engine."
      },
      "initialize(address[],address,address,address)": {
        "details": "Initializes the contract at network startup. Can only be called by the constructor of the `Initializer` contract or owner.",
        "params": {
          "_allowed": "The addresses for which transactions of any type must be allowed. See the `allowedTxTypes` getter.",
          "_certifier": "The address of the `Certifier` contract. It is used by `allowedTxTypes` function to know whether some address is explicitly allowed to use zero gas price.",
          "_validatorSet": "The address of the `ValidatorSetHbbft` contract."
        }
      },
      "isInitialized()": {
        "details": "Returns a boolean flag indicating if the `initialize` function has been called."
      },
      "removeAllowedSender(address)": {
        "details": "Removes the specified address from the array of addresses allowed to initiate transactions of any type. Can only be called by the `owner`. See also the `addAllowedSender` function and `allowedSenders` getter.",
        "params": {
          "_sender": "The removed address."
        }
      },
      "setMinimumGasPrice(uint256)": {
        "details": "set's the minimum gas price that is allowed by non-service transactions. IN HBBFT, there must be consens about the validator nodes about wich transaction is legal,  and wich is not. therefore the contract (could be the DAO) has to check the minimum gas price. HBBFT Node implementations can also check if a transaction surpases the minimumGasPrice, before submitting it as contribution. The limit can be changed by the owner (typical the DAO)",
        "params": {
          "_value": "The new minimum gas price."
        }
      }
    }
  },
  "userdoc": {
    "methods": {}
  }
}