{
  "contractName": "ValidatorSetHbbft",
  "abi": [
    {
      "anonymous": false,
      "inputs": [
        {
          "indexed": false,
          "internalType": "address",
          "name": "reportingValidator",
          "type": "address"
        },
        {
          "indexed": false,
          "internalType": "address",
          "name": "maliciousValidator",
          "type": "address"
        },
        {
          "indexed": false,
          "internalType": "uint256",
          "name": "blockNumber",
          "type": "uint256"
        }
      ],
      "name": "ReportedMalicious",
      "type": "event"
    },
    {
      "anonymous": false,
      "inputs": [
        {
          "indexed": false,
          "internalType": "address",
          "name": "validator",
          "type": "address"
        },
        {
          "indexed": false,
          "internalType": "uint256",
          "name": "timestamp",
          "type": "uint256"
        }
      ],
      "name": "ValidatorAvailable",
      "type": "event"
    },
    {
      "anonymous": false,
      "inputs": [
        {
          "indexed": false,
          "internalType": "address",
          "name": "validator",
          "type": "address"
        },
        {
          "indexed": false,
          "internalType": "uint256",
          "name": "timestamp",
          "type": "uint256"
        }
      ],
      "name": "ValidatorUnavailable",
      "type": "event"
    },
    {
      "constant": true,
      "inputs": [],
      "name": "MAX_VALIDATORS",
      "outputs": [
        {
          "internalType": "uint256",
          "name": "",
          "type": "uint256"
        }
      ],
      "payable": false,
      "stateMutability": "view",
      "type": "function"
    },
    {
      "constant": true,
      "inputs": [
        {
          "internalType": "address",
          "name": "",
          "type": "address"
        }
      ],
      "name": "banCounter",
      "outputs": [
        {
          "internalType": "uint256",
          "name": "",
          "type": "uint256"
        }
      ],
      "payable": false,
      "stateMutability": "view",
      "type": "function"
    },
    {
      "constant": true,
      "inputs": [
        {
          "internalType": "address",
          "name": "",
          "type": "address"
        }
      ],
      "name": "banReason",
      "outputs": [
        {
          "internalType": "bytes32",
          "name": "",
          "type": "bytes32"
        }
      ],
      "payable": false,
      "stateMutability": "view",
      "type": "function"
    },
    {
      "constant": true,
      "inputs": [
        {
          "internalType": "address",
          "name": "",
          "type": "address"
        }
      ],
      "name": "bannedDelegatorsUntil",
      "outputs": [
        {
          "internalType": "uint256",
          "name": "",
          "type": "uint256"
        }
      ],
      "payable": false,
      "stateMutability": "view",
      "type": "function"
    },
    {
      "constant": true,
      "inputs": [
        {
          "internalType": "address",
          "name": "",
          "type": "address"
        }
      ],
      "name": "bannedUntil",
      "outputs": [
        {
          "internalType": "uint256",
          "name": "",
          "type": "uint256"
        }
      ],
      "payable": false,
      "stateMutability": "view",
      "type": "function"
    },
    {
      "constant": true,
      "inputs": [],
      "name": "blockRewardContract",
      "outputs": [
        {
          "internalType": "address",
          "name": "",
          "type": "address"
        }
      ],
      "payable": false,
      "stateMutability": "view",
      "type": "function"
    },
    {
      "constant": true,
      "inputs": [
        {
          "internalType": "address",
          "name": "",
          "type": "address"
        }
      ],
      "name": "isValidator",
      "outputs": [
        {
          "internalType": "bool",
          "name": "",
          "type": "bool"
        }
      ],
      "payable": false,
      "stateMutability": "view",
      "type": "function"
    },
    {
      "constant": true,
      "inputs": [
        {
          "internalType": "address",
          "name": "",
          "type": "address"
        }
      ],
      "name": "isValidatorPrevious",
      "outputs": [
        {
          "internalType": "bool",
          "name": "",
          "type": "bool"
        }
      ],
      "payable": false,
      "stateMutability": "view",
      "type": "function"
    },
    {
      "constant": true,
      "inputs": [],
      "name": "keyGenHistoryContract",
      "outputs": [
        {
          "internalType": "contract IKeyGenHistory",
          "name": "",
          "type": "address"
        }
      ],
      "payable": false,
      "stateMutability": "view",
      "type": "function"
    },
    {
      "constant": true,
      "inputs": [
        {
          "internalType": "address",
          "name": "",
          "type": "address"
        }
      ],
      "name": "miningByStakingAddress",
      "outputs": [
        {
          "internalType": "address",
          "name": "",
          "type": "address"
        }
      ],
      "payable": false,
      "stateMutability": "view",
      "type": "function"
    },
    {
      "constant": true,
      "inputs": [],
      "name": "randomContract",
      "outputs": [
        {
          "internalType": "address",
          "name": "",
          "type": "address"
        }
      ],
      "payable": false,
      "stateMutability": "view",
      "type": "function"
    },
    {
      "constant": true,
      "inputs": [
        {
          "internalType": "address",
          "name": "",
          "type": "address"
        },
        {
          "internalType": "uint256",
          "name": "",
          "type": "uint256"
        }
      ],
      "name": "reportingCounter",
      "outputs": [
        {
          "internalType": "uint256",
          "name": "",
          "type": "uint256"
        }
      ],
      "payable": false,
      "stateMutability": "view",
      "type": "function"
    },
    {
      "constant": true,
      "inputs": [
        {
          "internalType": "uint256",
          "name": "",
          "type": "uint256"
        }
      ],
      "name": "reportingCounterTotal",
      "outputs": [
        {
          "internalType": "uint256",
          "name": "",
          "type": "uint256"
        }
      ],
      "payable": false,
      "stateMutability": "view",
      "type": "function"
    },
    {
      "constant": true,
      "inputs": [
        {
          "internalType": "address",
          "name": "",
          "type": "address"
        }
      ],
      "name": "stakingByMiningAddress",
      "outputs": [
        {
          "internalType": "address",
          "name": "",
          "type": "address"
        }
      ],
      "payable": false,
      "stateMutability": "view",
      "type": "function"
    },
    {
      "constant": true,
      "inputs": [],
      "name": "stakingContract",
      "outputs": [
        {
          "internalType": "contract IStakingHbbft",
          "name": "",
          "type": "address"
        }
      ],
      "payable": false,
      "stateMutability": "view",
      "type": "function"
    },
    {
      "constant": true,
      "inputs": [
        {
          "internalType": "address",
          "name": "",
          "type": "address"
        }
      ],
      "name": "validatorAvailableSince",
      "outputs": [
        {
          "internalType": "uint256",
          "name": "",
          "type": "uint256"
        }
      ],
      "payable": false,
      "stateMutability": "view",
      "type": "function"
    },
    {
      "constant": true,
      "inputs": [
        {
          "internalType": "address",
          "name": "",
          "type": "address"
        }
      ],
      "name": "validatorCounter",
      "outputs": [
        {
          "internalType": "uint256",
          "name": "",
          "type": "uint256"
        }
      ],
      "payable": false,
      "stateMutability": "view",
      "type": "function"
    },
    {
      "constant": true,
      "inputs": [
        {
          "internalType": "address",
          "name": "",
          "type": "address"
        }
      ],
      "name": "validatorLastSuccess",
      "outputs": [
        {
          "internalType": "uint256",
          "name": "",
          "type": "uint256"
        }
      ],
      "payable": false,
      "stateMutability": "view",
      "type": "function"
    },
    {
      "constant": true,
      "inputs": [],
      "name": "getCurrentTimestamp",
      "outputs": [
        {
          "internalType": "uint256",
          "name": "",
          "type": "uint256"
        }
      ],
      "payable": false,
      "stateMutability": "view",
      "type": "function"
    },
    {
      "constant": false,
      "inputs": [
        {
          "internalType": "address",
          "name": "_blockRewardContract",
          "type": "address"
        },
        {
          "internalType": "address",
          "name": "_randomContract",
          "type": "address"
        },
        {
          "internalType": "address",
          "name": "_stakingContract",
          "type": "address"
        },
        {
          "internalType": "address",
          "name": "_keyGenHistoryContract",
          "type": "address"
        },
        {
          "internalType": "address[]",
          "name": "_initialMiningAddresses",
          "type": "address[]"
        },
        {
          "internalType": "address[]",
          "name": "_initialStakingAddresses",
          "type": "address[]"
        }
      ],
      "name": "initialize",
      "outputs": [],
      "payable": false,
      "stateMutability": "nonpayable",
      "type": "function"
    },
    {
      "constant": false,
      "inputs": [],
      "name": "finalizeChange",
      "outputs": [],
      "payable": false,
      "stateMutability": "nonpayable",
      "type": "function"
    },
    {
      "constant": false,
      "inputs": [],
      "name": "newValidatorSet",
      "outputs": [],
      "payable": false,
      "stateMutability": "nonpayable",
      "type": "function"
    },
    {
      "constant": false,
      "inputs": [
        {
          "internalType": "address[]",
          "name": "_miningAddresses",
          "type": "address[]"
        }
      ],
      "name": "removeMaliciousValidators",
      "outputs": [],
      "payable": false,
      "stateMutability": "nonpayable",
      "type": "function"
    },
    {
      "constant": false,
      "inputs": [],
      "name": "announceAvailability",
      "outputs": [],
      "payable": false,
      "stateMutability": "nonpayable",
      "type": "function"
    },
    {
      "constant": false,
      "inputs": [],
      "name": "handleFailedKeyGeneration",
      "outputs": [],
      "payable": false,
      "stateMutability": "nonpayable",
      "type": "function"
    },
    {
      "constant": false,
      "inputs": [
        {
          "internalType": "address",
          "name": "_maliciousMiningAddress",
          "type": "address"
        },
        {
          "internalType": "uint256",
          "name": "_blockNumber",
          "type": "uint256"
        },
        {
          "internalType": "bytes",
          "name": "",
          "type": "bytes"
        }
      ],
      "name": "reportMalicious",
      "outputs": [],
      "payable": false,
      "stateMutability": "nonpayable",
      "type": "function"
    },
    {
      "constant": false,
      "inputs": [
        {
          "internalType": "address",
          "name": "_miningAddress",
          "type": "address"
        },
        {
          "internalType": "address",
          "name": "_stakingAddress",
          "type": "address"
        }
      ],
      "name": "setStakingAddress",
      "outputs": [],
      "payable": false,
      "stateMutability": "nonpayable",
      "type": "function"
    },
    {
      "constant": true,
      "inputs": [
        {
          "internalType": "address",
          "name": "_miningAddress",
          "type": "address"
        }
      ],
      "name": "areDelegatorsBanned",
      "outputs": [
        {
          "internalType": "bool",
          "name": "",
          "type": "bool"
        }
      ],
      "payable": false,
      "stateMutability": "view",
      "type": "function"
    },
    {
      "constant": true,
      "inputs": [],
      "name": "getPreviousValidators",
      "outputs": [
        {
          "internalType": "address[]",
          "name": "",
          "type": "address[]"
        }
      ],
      "payable": false,
      "stateMutability": "view",
      "type": "function"
    },
    {
      "constant": true,
      "inputs": [],
      "name": "getPendingValidators",
      "outputs": [
        {
          "internalType": "address[]",
          "name": "",
          "type": "address[]"
        }
      ],
      "payable": false,
      "stateMutability": "view",
      "type": "function"
    },
    {
      "constant": true,
      "inputs": [],
      "name": "getValidators",
      "outputs": [
        {
          "internalType": "address[]",
          "name": "",
          "type": "address[]"
        }
      ],
      "payable": false,
      "stateMutability": "view",
      "type": "function"
    },
    {
      "constant": true,
      "inputs": [],
      "name": "isInitialized",
      "outputs": [
        {
          "internalType": "bool",
          "name": "",
          "type": "bool"
        }
      ],
      "payable": false,
      "stateMutability": "view",
      "type": "function"
    },
    {
      "constant": true,
      "inputs": [
        {
          "internalType": "address",
          "name": "_miningAddress",
          "type": "address"
        }
      ],
      "name": "isReportValidatorValid",
      "outputs": [
        {
          "internalType": "bool",
          "name": "",
          "type": "bool"
        }
      ],
      "payable": false,
      "stateMutability": "view",
      "type": "function"
    },
    {
      "constant": true,
      "inputs": [
        {
          "internalType": "address",
          "name": "_miningAddress",
          "type": "address"
        }
      ],
      "name": "getPendingValidatorKeyGenerationMode",
      "outputs": [
        {
          "internalType": "enum IValidatorSetHbbft.KeyGenMode",
          "name": "",
          "type": "uint8"
        }
      ],
      "payable": false,
      "stateMutability": "view",
      "type": "function"
    },
    {
      "constant": true,
      "inputs": [
        {
          "internalType": "address",
          "name": "_miningAddress",
          "type": "address"
        }
      ],
      "name": "isValidatorBanned",
      "outputs": [
        {
          "internalType": "bool",
          "name": "",
          "type": "bool"
        }
      ],
      "payable": false,
      "stateMutability": "view",
      "type": "function"
    },
    {
      "constant": true,
      "inputs": [
        {
          "internalType": "address",
          "name": "_miningAddress",
          "type": "address"
        }
      ],
      "name": "isValidatorOrPending",
      "outputs": [
        {
          "internalType": "bool",
          "name": "",
          "type": "bool"
        }
      ],
      "payable": false,
      "stateMutability": "view",
      "type": "function"
    },
    {
      "constant": true,
      "inputs": [
        {
          "internalType": "address",
          "name": "_miningAddress",
          "type": "address"
        }
      ],
      "name": "isPendingValidator",
      "outputs": [
        {
          "internalType": "bool",
          "name": "",
          "type": "bool"
        }
      ],
      "payable": false,
      "stateMutability": "view",
      "type": "function"
    },
    {
      "constant": true,
      "inputs": [
        {
          "internalType": "address",
          "name": "_miningAddress",
          "type": "address"
        },
        {
          "internalType": "uint256",
          "name": "_blockNumber",
          "type": "uint256"
        }
      ],
      "name": "maliceReportedForBlock",
      "outputs": [
        {
          "internalType": "address[]",
          "name": "",
          "type": "address[]"
        }
      ],
      "payable": false,
      "stateMutability": "view",
      "type": "function"
    },
    {
      "constant": true,
      "inputs": [
        {
          "internalType": "address",
          "name": "_miningAddress",
          "type": "address"
        }
      ],
      "name": "canCallAnnounceAvailability",
      "outputs": [
        {
          "internalType": "bool",
          "name": "",
          "type": "bool"
        }
      ],
      "payable": false,
      "stateMutability": "view",
      "type": "function"
    },
    {
      "constant": true,
      "inputs": [
        {
          "internalType": "address",
          "name": "_reportingMiningAddress",
          "type": "address"
        },
        {
          "internalType": "address",
          "name": "_maliciousMiningAddress",
          "type": "address"
        },
        {
          "internalType": "uint256",
          "name": "_blockNumber",
          "type": "uint256"
        }
      ],
      "name": "reportMaliciousCallable",
      "outputs": [
        {
          "internalType": "bool",
          "name": "callable",
          "type": "bool"
        },
        {
          "internalType": "bool",
          "name": "removeReportingValidator",
          "type": "bool"
        }
      ],
      "payable": false,
      "stateMutability": "view",
      "type": "function"
    },
    {
      "constant": true,
      "inputs": [
        {
          "internalType": "address",
          "name": "stakingAddress",
          "type": "address"
        }
      ],
      "name": "publicKeyByStakingAddress",
      "outputs": [
        {
          "internalType": "bytes",
          "name": "",
          "type": "bytes"
        }
      ],
      "payable": false,
      "stateMutability": "view",
      "type": "function"
    },
    {
      "constant": true,
      "inputs": [
        {
          "internalType": "address",
          "name": "miningAddress",
          "type": "address"
        }
      ],
      "name": "getPublicKey",
      "outputs": [
        {
          "internalType": "bytes",
          "name": "",
          "type": "bytes"
        }
      ],
      "payable": false,
      "stateMutability": "view",
      "type": "function"
    }
  ],
  "bytecode": "0x608060405234801561001057600080fd5b5061403c806100206000396000f3fe608060405234801561001057600080fd5b506004361061025d5760003560e01c80639881933d11610146578063b7ab4db5116100c3578063db2c870c11610087578063db2c870c1461091a578063ee99205c14610940578063eebc7a3914610948578063f51726f014610950578063facd743b14610976578063fb64aac11461099c5761025d565b8063b7ab4db514610844578063c476dd401461084c578063c9e9694d146108cf578063ccf69e9b146108f5578063d2dd2f16146108fd5761025d565b8063a92252ae1161010a578063a92252ae146107bc578063ade1900a146107e2578063b41832e4146107ea578063b47aef1f14610810578063b56b366b146108185761025d565b80639881933d146106d3578063a0d16cad146106f9578063a670eb561461071f578063a68b5b7614610770578063a881c5fd146107965761025d565b8063515bbf2c116101df5780636c9230db116101a35780636c9230db146105a2578063714897df146105aa57806375286211146105b257806385602ad5146105ba578063857cdbb81461061257806387eed76a146106ad5761025d565b8063515bbf2c1461046057806356b54bae146105465780635836d08a1461054e5780635ccee1de1461057457806360e5c5201461057c5761025d565b80631d0cd4c6116102265780631d0cd4c6146103c45780631ee4d0bc146103ea578063292525af146104105780633755243b14610418578063392e53cd146104445761025d565b8062535175146102625780630636bdac146102a45780630a4c10721461031457806314e28d90146103425780631a7fa2371461038c575b600080fd5b6102886004803603602081101561027857600080fd5b50356001600160a01b03166109c2565b604080516001600160a01b039092168252519081900360200190f35b610312600480360360208110156102ba57600080fd5b810190602081018135600160201b8111156102d457600080fd5b8201836020820111156102e657600080fd5b803590602001918460208302840111600160201b8311171561030757600080fd5b5090925090506109dd565b005b6103126004803603604081101561032a57600080fd5b506001600160a01b0381358116916020013516610a73565b6103686004803603602081101561035857600080fd5b50356001600160a01b0316610ad4565b6040518082600581111561037857fe5b60ff16815260200191505060405180910390f35b6103b2600480360360208110156103a257600080fd5b50356001600160a01b0316610d8d565b60408051918252519081900360200190f35b6103b2600480360360208110156103da57600080fd5b50356001600160a01b0316610d9f565b6102886004803603602081101561040057600080fd5b50356001600160a01b0316610db1565b610312610dcc565b6103b26004803603604081101561042e57600080fd5b506001600160a01b038135169060200135610f47565b61044c610f64565b604080519115158252519081900360200190f35b610312600480360360c081101561047657600080fd5b6001600160a01b03823581169260208101358216926040820135831692606083013516919081019060a081016080820135600160201b8111156104b857600080fd5b8201836020820111156104ca57600080fd5b803590602001918460208302840111600160201b831117156104eb57600080fd5b919390929091602081019035600160201b81111561050857600080fd5b82018360208201111561051a57600080fd5b803590602001918460208302840111600160201b8311171561053b57600080fd5b509092509050610f76565b6102886112fc565b6103b26004803603602081101561056457600080fd5b50356001600160a01b031661130b565b61031261131d565b6103b26004803603602081101561059257600080fd5b50356001600160a01b0316611392565b6103b26113a4565b6103b26113a8565b6103126113ad565b6105c2611577565b60408051602080825283518183015283519192839290830191858101910280838360005b838110156105fe5781810151838201526020016105e6565b505050509050019250505060405180910390f35b6106386004803603602081101561062857600080fd5b50356001600160a01b03166115d9565b6040805160208082528351818301528351919283929083019185019080838360005b8381101561067257818101518382015260200161065a565b50505050905090810190601f16801561069f5780820380516001836020036101000a031916815260200191505b509250505060405180910390f35b61044c600480360360208110156106c357600080fd5b50356001600160a01b031661172a565b610638600480360360208110156106e957600080fd5b50356001600160a01b0316611971565b61044c6004803603602081101561070f57600080fd5b50356001600160a01b03166119c2565b6107556004803603606081101561073557600080fd5b506001600160a01b038135811691602081013590911690604001356119f4565b60408051921515835290151560208301528051918290030190f35b61044c6004803603602081101561078657600080fd5b50356001600160a01b0316611bed565b61044c600480360360208110156107ac57600080fd5b50356001600160a01b0316611c02565b61044c600480360360208110156107d257600080fd5b50356001600160a01b0316611c85565b610312611cd4565b6103b26004803603602081101561080057600080fd5b50356001600160a01b03166123aa565b6102886123bc565b6105c26004803603604081101561082e57600080fd5b506001600160a01b0381351690602001356123cb565b6105c261244a565b6103126004803603606081101561086257600080fd5b6001600160a01b0382351691602081013591810190606081016040820135600160201b81111561089157600080fd5b8201836020820111156108a357600080fd5b803590602001918460018302840111600160201b831117156108c457600080fd5b5090925090506124aa565b6103b2600480360360208110156108e557600080fd5b50356001600160a01b03166126ee565b610288612700565b6103b26004803603602081101561091357600080fd5b503561270f565b6103b26004803603602081101561093057600080fd5b50356001600160a01b0316612721565b610288612733565b6105c2612742565b61044c6004803603602081101561096657600080fd5b50356001600160a01b03166127a2565b61044c6004803603602081101561098c57600080fd5b50356001600160a01b03166127f9565b61044c600480360360208110156109b257600080fd5b50356001600160a01b031661280e565b600b602052600090815260409020546001600160a01b031681565b6002600160a01b033314610a26576040805162461bcd60e51b815260206004820152600b60248201526a4f6e6c792053797374656d60a81b604482015290519081900360640190fd5b610a6f82828080602002602001604051908101604052809392919081815260200183836020028082843760009201919091525067696e61637469766560c01b9250612863915050565b5050565b6010546001600160a01b03163314610aca576040805162461bcd60e51b815260206004820152601560248201527413db9b1e4814dd185ada5b99c810dbdb9d1c9858dd605a1b604482015290519081900360640190fd5b610a6f82826128ba565b6000610adf8261280e565b610aeb57506000610d88565b60115460408051637be02c2b60e01b8152815160009384936001600160a01b0390911692637be02c2b9260048083019392829003018186803b158015610b3057600080fd5b505afa158015610b44573d6000803e3d6000fd5b505050506040513d6040811015610b5a57600080fd5b50805160209091015160015491935091506001600160801b0383161015610cdb57601154604080516399de1a4360e01b81526001600160a01b038781166004830152915160609392909216916399de1a4391602480820192600092909190829003018186803b158015610bcc57600080fd5b505afa158015610be0573d6000803e3d6000fd5b505050506040513d6000823e601f3d908101601f191682016040526020811015610c0957600080fd5b8101908080516040519392919084600160201b821115610c2857600080fd5b908301906020820185811115610c3d57600080fd5b8251600160201b811182820188101715610c5657600080fd5b82525081516020918201929091019080838360005b83811015610c83578181015183820152602001610c6b565b50505050905090810190601f168015610cb05780820380516001836020036101000a031916815260200191505b506040525050509050805160001415610ccf5760019350505050610d88565b60029350505050610d88565b6001546001600160801b0382161015610d815760115460408051631baeec3f60e31b81526001600160a01b0387811660048301529151919092169163dd7761f8916024808301926020929190829003018186803b158015610d3b57600080fd5b505afa158015610d4f573d6000803e3d6000fd5b505050506040513d6020811015610d6557600080fd5b5051610d7657600392505050610d88565b600492505050610d88565b6005925050505b919050565b60066020526000908152604090205481565b60046020526000908152604090205481565b600f602052600090815260409020546001600160a01b031681565b610dd5336127a2565b610e105760405162461bcd60e51b8152600401808060200182810382526024815260200180613e4c6024913960400191505060405180910390fd5b6000306001600160a01b0316636c9230db6040518163ffffffff1660e01b815260040160206040518083038186803b158015610e4b57600080fd5b505afa158015610e5f573d6000803e3d6000fd5b505050506040513d6020811015610e7557600080fd5b5051336000818152601460209081526040918290208490558151928352820183905280519293507f705d65dbee06de60e6465d68371ce849d5a1ead53e53d01a413b2b01393aa02292918290030190a1610ece33611c85565b610f4457601054336000908152600f6020526040808220548151631ec56e5360e21b81526001600160a01b0391821660048201529151931692637b15b94c9260248084019391929182900301818387803b158015610f2b57600080fd5b505af1158015610f3f573d6000803e3d6000fd5b505050505b50565b600d60209081526000928352604080842090915290825290205481565b6008546001600160a01b031615155b90565b610f7e612b67565b6001600160a01b0316336001600160a01b03161480610fb55750610fa0612b67565b6001600160a01b0316326001600160a01b0316145b80610fce5750610fc3612b67565b6001600160a01b0316155b80610fd7575043155b6110125760405162461bcd60e51b815260040180806020018281038252603e815260200180613f69603e913960400191505060405180910390fd5b61101a610f64565b156110565760405162461bcd60e51b815260040180806020018281038252602c815260200180613e20602c913960400191505060405180910390fd5b6001600160a01b03881661109b5760405162461bcd60e51b8152600401808060200182810382526029815260200180613df76029913960400191505060405180910390fd5b6001600160a01b0387166110e05760405162461bcd60e51b8152600401808060200182810382526024815260200180613dd36024913960400191505060405180910390fd5b6001600160a01b0386166111255760405162461bcd60e51b8152600401808060200182810382526025815260200180613f446025913960400191505060405180910390fd5b6001600160a01b03851661116a5760405162461bcd60e51b815260040180806020018281038252602b815260200180613ee1602b913960400191505060405180910390fd5b826111a65760405162461bcd60e51b8152600401808060200182810382526025815260200180613ebc6025913960400191505060405180910390fd5b8281146111e45760405162461bcd60e51b8152600401808060200182810382526038815260200180613f0c6038913960400191505060405180910390fd5b600880546001600160a01b03808b166001600160a01b031992831617909255600c80548a841690831617905560108054898416908316179055601180549288169290911691909117905560005b838110156112f157600085858381811061124757fe5b60008054600180820183557f290decd9548b62a8d60345a988386fc84ba6bc95484008f6362f93160ef3e5639091018054602094850296909601356001600160a01b03166001600160a01b031990961686179055848252600983526040808320805460ff1916831790556012909352919020805490910190555090506112e8818585858181106112d357fe5b905060200201356001600160a01b03166128ba565b50600101611231565b505050505050505050565b6008546001600160a01b031681565b60056020526000908152604090205481565b6008546001600160a01b03163314611378576040805162461bcd60e51b815260206004820152601960248201527813db9b1e48109b1bd8dad4995dd85c990818dbdb9d1c9858dd603a1b604482015290519081900360640190fd5b60408051600081526020810190915261139090612b8c565b565b60146020526000908152604090205481565b4290565b601981565b6008546001600160a01b03163314611408576040805162461bcd60e51b815260206004820152601960248201527813db9b1e48109b1bd8dad4995dd85c990818dbdb9d1c9858dd603a1b604482015290519081900360640190fd5b6001541561142057611418613216565b6114206132e1565b601060009054906101000a90046001600160a01b03166001600160a01b031663ee435f556040518163ffffffff1660e01b8152600401600060405180830381600087803b15801561147057600080fd5b505af1158015611484573d6000803e3d6000fd5b50505050600160006114969190613c83565b601060009054906101000a90046001600160a01b03166001600160a01b0316638247a239306001600160a01b0316636c9230db6040518163ffffffff1660e01b815260040160206040518083038186803b1580156114f357600080fd5b505afa158015611507573d6000803e3d6000fd5b505050506040513d602081101561151d57600080fd5b5051604080516001600160e01b031960e085901b168152600481019290925251602480830192600092919082900301818387803b15801561155d57600080fd5b505af1158015611571573d6000803e3d6000fd5b50505050565b606060028054806020026020016040519081016040528092919081815260200182805480156115cf57602002820191906000526020600020905b81546001600160a01b031681526001909101906020018083116115b1575b5050505050905090565b6010546001600160a01b038281166000908152600f6020526040808220548151634e9b426d60e01b8152908416600482015290516060949390931692634e9b426d92602480840193919291829003018186803b15801561163857600080fd5b505afa15801561164c573d6000803e3d6000fd5b505050506040513d6000823e601f3d908101601f19168201604052602081101561167557600080fd5b8101908080516040519392919084600160201b82111561169457600080fd5b9083019060208201858111156116a957600080fd5b8251600160201b8111828201881017156116c257600080fd5b82525081516020918201929091019080838360005b838110156116ef5781810151838201526020016116d7565b50505050905090810190601f16801561171c5780820380516001836020036101000a031916815260200191505b506040525050509050919050565b6001600160a01b038116600090815260096020526040812054819060ff16801561175a575061175883611c85565b155b9050601060009054906101000a90046001600160a01b03166001600160a01b031663794c0c686040518163ffffffff1660e01b815260040160206040518083038186803b1580156117aa57600080fd5b505afa1580156117be573d6000803e3d6000fd5b505050506040513d60208110156117d457600080fd5b50516117e1579050610d88565b60105460408051634f9a8d8f60e01b815290516005926001600160a01b031691634f9a8d8f916004808301926020929190829003018186803b15801561182657600080fd5b505afa15801561183a573d6000803e3d6000fd5b505050506040513d602081101561185057600080fd5b50518161185957fe5b04601060009054906101000a90046001600160a01b03166001600160a01b0316639b03d7446040518163ffffffff1660e01b815260040160206040518083038186803b1580156118a857600080fd5b505afa1580156118bc573d6000803e3d6000fd5b505050506040513d60208110156118d257600080fd5b505160408051636c9230db60e01b815290513091636c9230db916004808301926020929190829003018186803b15801561190b57600080fd5b505afa15801561191f573d6000803e3d6000fd5b505050506040513d602081101561193557600080fd5b5051031161196b576001600160a01b0383166000908152600a602052604090205460ff1681806119625750805b92505050610d88565b92915050565b60105460408051634e9b426d60e01b81526001600160a01b03848116600483015291516060939290921691634e9b426d91602480820192600092909190829003018186803b15801561163857600080fd5b6001600160a01b03811660009081526009602052604081205460ff16156119eb57506001610d88565b61196b8261280e565b600080611a008561172a565b611a0f57506000905080611be5565b611a188461172a565b611a2757506000905080611be5565b6000546001811115611b1e5760105460408051630f29818d60e31b815290516000926001600160a01b03169163794c0c68916004808301926020929190829003018186803b158015611a7857600080fd5b505afa158015611a8c573d6000803e3d6000fd5b505050506040513d6020811015611aa257600080fd5b50516001600160a01b0388166000908152600d60209081526040808320848452825280832054600e9092528220549293509190828210611aee576001850383830381611aea57fe5b0490505b8460320283118015611b02575080600a0283115b15611b195760006001965096505050505050611be5565b505050505b4380851115611b3557600080935093505050611be5565b60648082118015611b47575080820386105b15611b5b5760008094509450505050611be5565b6001600160a01b03871660009081526003602090815260408083208984529091528120805490915b81811015611bd6578a6001600160a01b0316838281548110611ba157fe5b6000918252602090912001546001600160a01b03161415611bce5760008097509750505050505050611be5565b600101611b83565b50600160009650965050505050505b935093915050565b600a6020526000908152604090205460ff1681565b6001600160a01b0381166000908152600660209081526040808320548151636c9230db60e01b8152915190923092636c9230db9260048083019392829003018186803b158015611c5157600080fd5b505afa158015611c65573d6000803e3d6000fd5b505050506040513d6020811015611c7b57600080fd5b5051111592915050565b6001600160a01b0381166000908152600560209081526040808320548151636c9230db60e01b8152915190923092636c9230db9260048083019392829003018186803b158015611c5157600080fd5b6008546001600160a01b03163314611d2f576040805162461bcd60e51b815260206004820152601960248201527813db9b1e48109b1bd8dad4995dd85c990818dbdb9d1c9858dd603a1b604482015290519081900360640190fd5b601060009054906101000a90046001600160a01b03166001600160a01b03166322e3d9866040518163ffffffff1660e01b815260040160206040518083038186803b158015611d7d57600080fd5b505afa158015611d91573d6000803e3d6000fd5b505050506040513d6020811015611da757600080fd5b505160408051636c9230db60e01b815290513091636c9230db916004808301926020929190829003018186803b158015611de057600080fd5b505afa158015611df4573d6000803e3d6000fd5b505050506040513d6020811015611e0a57600080fd5b50511015611e495760405162461bcd60e51b815260040180806020018281038252604c815260200180613e70604c913960600191505060405180910390fd5b60606001808054905003604051908082528060200260200182016040528015611e7c578160200160208202803883390190505b5060115460408051637be02c2b60e01b81528151939450600093849384936001600160a01b0390911692637be02c2b9260048083019392829003018186803b158015611ec757600080fd5b505afa158015611edb573d6000803e3d6000fd5b505050506040513d6040811015611ef157600080fd5b508051602090910151909250905060005b6001548110156122bd57600060018281548110611f1b57fe5b60009182526020822001546001546001600160a01b0390911692506001600160801b038616101561208a57601154604080516399de1a4360e01b81526001600160a01b038581166004830152915160009392909216916399de1a43916024808201928692909190829003018186803b158015611f9657600080fd5b505afa158015611faa573d6000803e3d6000fd5b505050506040513d6000823e601f3d908101601f191682016040526020811015611fd357600080fd5b8101908080516040519392919084600160201b821115611ff257600080fd5b90830190602082018581111561200757600080fd5b8251600160201b81118282018810171561202057600080fd5b82525081516020918201929091019080838360005b8381101561204d578181015183820152602001612035565b50505050905090810190601f16801561207a5780820380516001836020036101000a031916815260200191505b506040525050505111905061211e565b6001546001600160801b038516101561211e5760115460408051631baeec3f60e31b81526001600160a01b0385811660048301529151600093929092169163dd7761f891602480820192602092909190829003018186803b1580156120ee57600080fd5b505afa158015612102573d6000803e3d6000fd5b505050506040513d602081101561211857600080fd5b50511190505b801561217e576001838154811061213157fe5b9060005260206000200160009054906101000a90046001600160a01b031687878151811061215b57fe5b6001600160a01b03909216602092830291909101909101526001909501946122b3565b6010546001600160a01b038381166000908152600f6020526040808220548151631dbe84a360e11b8152908416600482015290519290931692633b7d0946926024808301939282900301818387803b1580156121d957600080fd5b505af11580156121ed573d6000803e3d6000fd5b5050506001600160a01b0383166000908152601460209081526040808320929092558151636c9230db60e01b815291517f7ec36d1734626f8b3686f8791130187e1633c843b1995003e788cd2b33d56903935085923092636c9230db92600480840193829003018186803b15801561226457600080fd5b505afa158015612278573d6000803e3d6000fd5b505050506040513d602081101561228e57600080fd5b5051604080516001600160a01b03909316835260208301919091528051918290030190a15b5050600101611f02565b506060836040519080825280602002602001820160405280156122ea578160200160208202803883390190505b50905060005b848110156123385785818151811061230457fe5b602002602001015182828151811061231857fe5b6001600160a01b03909216602092830291909101909101526001016122f0565b50601060009054906101000a90046001600160a01b03166001600160a01b031663adddc0cf6040518163ffffffff1660e01b8152600401600060405180830381600087803b15801561238957600080fd5b505af115801561239d573d6000803e3d6000fd5b50505050610f3f81612b8c565b60126020526000908152604090205481565b6011546001600160a01b031681565b6001600160a01b038216600090815260036020908152604080832084845282529182902080548351818402810184019094528084526060939283018282801561243d57602002820191906000526020600020905b81546001600160a01b0316815260019091019060200180831161241f575b5050505050905092915050565b606060008054806020026020016040519081016040528092919081815260200182805480156115cf576020028201919060005260206000209081546001600160a01b031681526001909101906020018083116115b1575050505050905090565b6124b2610f64565b612503576040805162461bcd60e51b815260206004820152601d60248201527f56616c696461746f725365743a206e6f7420696e697469616c697a6564000000604482015290519081900360640190fd5b3361250d8161346e565b60008061251b8388886119f4565b915091508161259557801561258d5760408051600180825281830190925260609160208083019080388339019050509050838160008151811061255a57fe5b60200260200101906001600160a01b031690816001600160a01b03168152505061258b81637370616d60e01b612863565b505b505050611571565b6001600160a01b0380881660008181526003602090815260408083208b8452825280832080546001810182558185529383902090930180549589166001600160a01b031990961686179055805194855290840192909252828201899052905190917f729a19138e072a5a8d3a56d74ae0b5c84530f09aacd6e12b24c5b2fdc3f8a3d0919081900360600190a16000805490600382111561265b5761264082600263ffffffff61353216565b835461265390600363ffffffff61353216565b119050612674565b8254829061267090600263ffffffff61353216565b1190505b80156126e257604080516001808252818301909252606091602080830190803883390190505090508a816000815181106126aa57fe5b60200260200101906001600160a01b031690816001600160a01b0316815250506126e081686d616c6963696f757360b81b612863565b505b50505050505050505050565b60076020526000908152604090205481565b600c546001600160a01b031681565b600e6020526000908152604090205481565b60136020526000908152604090205481565b6010546001600160a01b031681565b606060018054806020026020016040519081016040528092919081815260200182805480156115cf576020028201919060005260206000209081546001600160a01b031681526001909101906020018083116115b1575050505050905090565b6001600160a01b038181166000908152600f60205260408120549091166127cb57506000610d88565b6001600160a01b038216600090815260146020526040902054156127f157506000610d88565b506001919050565b60096020526000908152604090205460ff1681565b6000805b60015481101561285a576001818154811061282957fe5b6000918252602090912001546001600160a01b0384811691161415612852576001915050610d88565b600101612812565b50600092915050565b60005b82518110156128b55761288c83828151811061287e57fe5b602002602001015183613560565b156128ad576128ad8382815181106128a057fe5b602002602001015161372b565b600101612866565b505050565b6001600160a01b038216612915576040805162461bcd60e51b815260206004820152601960248201527f4d696e696e6720616464726573732063616e2774206265203000000000000000604482015290519081900360640190fd5b6001600160a01b038116612970576040805162461bcd60e51b815260206004820152601a60248201527f5374616b696e6720616464726573732063616e27742062652030000000000000604482015290519081900360640190fd5b806001600160a01b0316826001600160a01b031614156129c15760405162461bcd60e51b8152600401808060200182810382526034815260200180613fd46034913960400191505060405180910390fd5b6001600160a01b038181166000908152600b60205260409020541615612a185760405162461bcd60e51b815260040180806020018281038252602d815260200180613fa7602d913960400191505060405180910390fd5b6001600160a01b038281166000908152600b60205260409020541615612a6f5760405162461bcd60e51b815260040180806020018281038252602c815260200180613d50602c913960400191505060405180910390fd5b6001600160a01b038181166000908152600f60205260409020541615612ac65760405162461bcd60e51b815260040180806020018281038252602c815260200180613d7c602c913960400191505060405180910390fd5b6001600160a01b038281166000908152600f60205260409020541615612b1d5760405162461bcd60e51b815260040180806020018281038252602b815260200180613da8602b913960400191505060405180910390fd5b6001600160a01b039081166000818152600b602090815260408083208054959096166001600160a01b03199586168117909655948252600f90529290922080549091169091179055565b7fb53127684a568b3173ae13b9f8a6016e243e63b6e8ee1178d6a717850b5d61035490565b6010546040805163a5d54f6560e01b815290516060926001600160a01b03169163a5d54f65916004808301926000929190829003018186803b158015612bd157600080fd5b505afa158015612be5573d6000803e3d6000fd5b505050506040513d6000823e601f3d908101601f191682016040526020811015612c0e57600080fd5b8101908080516040519392919084600160201b821115612c2d57600080fd5b908301906020820185811115612c4257600080fd5b82518660208202830111600160201b82111715612c5e57600080fd5b82525081516020918201928201910280838360005b83811015612c8b578181015183820152602001612c73565b5050505090500160405250505090506019815111156130e85780516010546040805163957950a760e01b815290516060926000926001600160a01b039091169163957950a7916004808201928692909190829003018186803b158015612cf057600080fd5b505afa158015612d04573d6000803e3d6000fd5b505050506040513d6000823e601f3d908101601f191682016040908152811015612d2d57600080fd5b8101908080516040519392919084600160201b821115612d4c57600080fd5b908301906020820185811115612d6157600080fd5b82518660208202830111600160201b82111715612d7d57600080fd5b82525081516020918201928201910280838360005b83811015612daa578181015183820152602001612d92565b50505050919091016040818152602093840151601980845261034084019092529698509596506060959094509250508201610320803883390190505090506000805b8751811015612f2b5760005b86811015612f2257888281518110612e0c57fe5b60200260200101516001600160a01b0316888281518110612e2957fe5b60200260200101516001600160a01b03161415612f1a57888281518110612e4c57fe5b6020026020010151848481518110612e6057fe5b60200260200101906001600160a01b031690816001600160a01b0316815250508280600101935050858181518110612e9457fe5b602002602001015185039450868060019003975050878781518110612eb557fe5b6020026020010151888281518110612ec957fe5b60200260200101906001600160a01b031690816001600160a01b031681525050858781518110612ef557fe5b6020026020010151868281518110612f0957fe5b602002602001018181525050612f22565b600101612df8565b50600101612dec565b50600c5460408051634191031360e11b815290516000926001600160a01b0316916383220626916004808301926020929190829003018186803b158015612f7157600080fd5b505afa158015612f85573d6000803e3d6000fd5b505050506040513d6020811015612f9b57600080fd5b5051855190915015801590612fb05750600084115b156130dd5760005b83518110156130d357428218604051602001808281526020019150506040516020818303038152906040528051906020012060001c91506000612ffc878785613806565b905088818151811061300a57fe5b602002602001015185838151811061301e57fe5b60200260200101906001600160a01b031690816001600160a01b03168152505086818151811061304a57fe5b60200260200101518603955087806001900398505088888151811061306b57fe5b602002602001015189828151811061307f57fe5b60200260200101906001600160a01b031690816001600160a01b0316815250508688815181106130ab57fe5b60200260200101518782815181106130bf57fe5b602090810291909101015250600101612fb8565b506130dd83613853565b5050505050506130f1565b6130f181613853565b601154604051632f8ba4bf60e11b815260206004820190815260008054602484018190526001600160a01b0390941693635f17497e9391929182916044909101908490801561316957602002820191906000526020600020905b81546001600160a01b0316815260019091019060200180831161314b575b505092505050600060405180830381600087803b15801561318957600080fd5b505af115801561319d573d6000803e3d6000fd5b505050508051600014610a6f57601060009054906101000a90046001600160a01b03166001600160a01b0316631555371c6040518163ffffffff1660e01b8152600401600060405180830381600087803b1580156131fa57600080fd5b505af115801561320e573d6000803e3d6000fd5b505050505050565b60025460005b81811015613273576000600a60006002848154811061323757fe5b6000918252602080832091909101546001600160a01b031683528201929092526040019020805460ff191691151591909117905560010161321c565b505060008054905b818110156132d1576001600a600080848154811061329557fe5b6000918252602080832091909101546001600160a01b031683528201929092526040019020805460ff191691151591909117905560010161327b565b600080546128b591600291613ca1565b606060008080548060200260200160405190810160405280929190818152602001828054801561333a57602002820191906000526020600020905b81546001600160a01b0316815260019091019060200180831161331c575b50505050509150600090505b815181101561339b5760006009600084848151811061336157fe5b6020908102919091018101516001600160a01b03168252810191909152604001600020805460ff1916911515919091179055600101613346565b600180546133ab91600091613ca1565b50600080548060200260200160405190810160405280929190818152602001828054801561340257602002820191906000526020600020905b81546001600160a01b031681526001909101906020018083116133e4575b50505050509150600090505b8151811015610a6f57600082828151811061342557fe5b6020908102919091018101516001600160a01b03166000908152600982526040808220805460ff191660019081179091556012909352902080548201905591909101905061340e565b6134778161172a565b61348057610f44565b60105460408051630f29818d60e31b815290516000926001600160a01b03169163794c0c68916004808301926020929190829003018186803b1580156134c557600080fd5b505afa1580156134d9573d6000803e3d6000fd5b505050506040513d60208110156134ef57600080fd5b50516001600160a01b0383166000908152600d6020908152604080832093835292815282822080546001908101909155600e909152919020805490910190555050565b6000826135415750600061196b565b8282028284828161354e57fe5b041461355957600080fd5b9392505050565b60008061356c84611c85565b90506000613578613ac5565b6001600160a01b0386166000908152600460209081526040808320805460010190556005825280832084905560079091529020859055905081156135c15760009250505061196b565b6001600160a01b038581166000908152600660209081526040808320859055600f909152808220546010548251631dbe84a360e11b815291851660048301819052925192941692633b7d09469260248084019382900301818387803b15801561362957600080fd5b505af115801561363d573d6000803e3d6000fd5b5050600054915050600181141561365b57600094505050505061196b565b60005b8181101561371d57876001600160a01b03166000828154811061367d57fe5b6000918252602090912001546001600160a01b0316141561371557600060018303815481106136a857fe5b600091825260208220015481546001600160a01b039091169190839081106136cc57fe5b6000918252602082200180546001600160a01b0319166001600160a01b039390931692909217909155805490613706906000198301613cf1565b5060019550505050505061196b565b60010161365e565b506000979650505050505050565b60105460408051630f29818d60e31b815290516000926001600160a01b03169163794c0c68916004808301926020929190829003018186803b15801561377057600080fd5b505afa158015613784573d6000803e3d6000fd5b505050506040513d602081101561379a57600080fd5b50516000818152600e60209081526040808320546001600160a01b0387168452600d8352818420858552909252822080549290559192508082106137f2576000838152600e6020526040902080548290039055611571565b50506000908152600e602052604081205550565b60008083838161381257fe5b0690506000805b8282116138455786818151811061382c57fe5b6020026020010151820191508080600101915050613819565b600019019695505050505050565b61385f60016000613c83565b8051613a505760005b6000548110156139f857600080828154811061388057fe5b60009182526020808320909101546001600160a01b03908116808452600f835260409384902054601054855163a711e6a160e01b81529184166004830181905295519296509092169263a711e6a19260248082019391829003018186803b1580156138ea57600080fd5b505afa1580156138fe573d6000803e3d6000fd5b505050506040513d602081101561391457600080fd5b5051801561399e57506010546040805162e9ab0360e81b81526001600160a01b038481166004830181905260248301529151919092169163e9ab0300916044808301926020929190829003018186803b15801561397057600080fd5b505afa158015613984573d6000803e3d6000fd5b505050506040513d602081101561399a57600080fd5b5051155b156139ee576001805480820182556000919091527fb10e2d527612073b26eecdfd717e6a320cf44b4afac2b0732d9fcbe2b7fa0cf60180546001600160a01b0319166001600160a01b0384161790555b5050600101613868565b50600154613a4b57600160008081548110613a0f57fe5b60009182526020808320909101548354600181018555938352912090910180546001600160a01b0319166001600160a01b039092169190911790555b610f44565b60005b8151811015610a6f576001600b6000848481518110613a6e57fe5b6020908102919091018101516001600160a01b0390811683528282019390935260409091016000908120548454600181810187559583529290912090910180546001600160a01b0319169190921617905501613a53565b600080306001600160a01b0316636c9230db6040518163ffffffff1660e01b815260040160206040518083038186803b158015613b0157600080fd5b505afa158015613b15573d6000803e3d6000fd5b505050506040513d6020811015613b2b57600080fd5b505160105460408051631171ecc360e11b81529051929350600092613bb69285926001600160a01b03909116916322e3d98691600480820192602092909190829003018186803b158015613b7e57600080fd5b505afa158015613b92573d6000803e3d6000fd5b505050506040513d6020811015613ba857600080fd5b50519063ffffffff613c5c16565b9050613c5581613c49601060009054906101000a90046001600160a01b03166001600160a01b0316634f9a8d8f6040518163ffffffff1660e01b815260040160206040518083038186803b158015613c0d57600080fd5b505afa158015613c21573d6000803e3d6000fd5b505050506040513d6020811015613c3757600080fd5b50518590600c0263ffffffff613c7116565b9063ffffffff613c7116565b9250505090565b600082821115613c6b57600080fd5b50900390565b60008282018381101561355957600080fd5b5080546000825590600052602060002090810190610f449190613d11565b828054828255906000526020600020908101928215613ce15760005260206000209182015b82811115613ce1578254825591600101919060010190613cc6565b50613ced929150613d2b565b5090565b8154818355818111156128b5576000838152602090206128b59181019083015b610f7391905b80821115613ced5760008155600101613d17565b610f7391905b80821115613ced5780546001600160a01b0319168155600101613d3156fe4d696e696e67206164647265737320616c726561647920757365642061732061207374616b696e67206f6e655374616b696e67206164647265737320616c726561647920757365642061732061206d696e696e67206f6e654d696e696e67206164647265737320616c726561647920757365642061732061206d696e696e67206f6e6552616e646f6d20636f6e747261637420616464726573732063616e277420626520307830426c6f636b52657761726420636f6e747261637420616464726573732063616e27742062652030783056616c696461746f7253657420636f6e747261637420697320616c726561647920696e697469616c697a6564416e6e6f756e63696e6720617661696c6162696c697479206e6f7420706f737369626c656661696c6564206b65792067656e65726174696f6e2063616e206f6e6c792062652070726f63657373656420616674657220746865207374616b696e672065706f6368206973206f7665722e4d7573742070726f7669646520696e697469616c206d696e696e67206164647265737365734b657947656e486973746f727920636f6e747261637420616464726573732063616e2774206265203078304d7573742070726f76696465207468652073616d6520616d6f756e74206f66206d696e696e672f7374616b696e67206164647265737365735374616b696e6720636f6e747261637420616464726573732063616e27742062652030783056616c696461746f725365743a20496e697469616c697a6174696f6e206f6e6c79206f6e2067656e6573697320626c6f636b206f722062792061646d696e5374616b696e67206164647265737320616c726561647920757365642061732061207374616b696e67206f6e654d696e696e6720616464726573732063616e6e6f74206265207468652073616d6520617320746865207374616b696e67206f6e65a265627a7a7231582071849108bf59c793a88e968618025f364523fa7eddbc523c36bbef8a0ccb944764736f6c63430005100032",
  "source": "pragma solidity ^0.5.16;\n\nimport \"./interfaces/IBlockRewardHbbft.sol\";\nimport \"./interfaces/IKeyGenHistory.sol\";\nimport \"./interfaces/IRandomHbbft.sol\";\nimport \"./interfaces/IStakingHbbft.sol\";\nimport \"./interfaces/IValidatorSetHbbft.sol\";\nimport \"./upgradeability/UpgradeabilityAdmin.sol\";\nimport \"./libs/SafeMath.sol\";\n\n\n/// @dev Stores the current validator set and contains the logic for choosing new validators\n/// before each staking epoch. The logic uses a random seed generated and stored by the `RandomHbbft` contract.\ncontract ValidatorSetHbbft is UpgradeabilityAdmin, IValidatorSetHbbft {\n    using SafeMath for uint256;\n\n    // =============================================== Storage ========================================================\n\n    // WARNING: since this contract is upgradeable, do not remove\n    // existing storage variables and do not change their types!\n    address[] internal _currentValidators;\n    address[] internal _pendingValidators;\n    address[] internal _previousValidators;\n\n    /// @dev Stores the validators that have reported the specific validator as malicious for the specified epoch.\n    mapping(address => mapping(uint256 => address[])) internal _maliceReportedForBlock;\n\n    /// @dev How many times a given mining address was banned.\n    mapping(address => uint256) public banCounter;\n\n    /// @dev Returns the time when the ban will be lifted for the specified mining address.\n    mapping(address => uint256) public bannedUntil;\n\n    /// @dev Returns the timestamp after which the ban will be lifted for delegators\n    /// of the specified pool (mining address).\n    mapping(address => uint256) public bannedDelegatorsUntil;\n\n    /// @dev The reason for the latest ban of the specified mining address. See the `_removeMaliciousValidator`\n    /// internal function description for the list of possible reasons.\n    mapping(address => bytes32) public banReason;\n\n    /// @dev The address of the `BlockRewardHbbft` contract.\n    address public blockRewardContract;\n\n    /// @dev A boolean flag indicating whether the specified mining address is in the current validator set.\n    /// See the `getValidators` getter.\n    mapping(address => bool) public isValidator;\n\n    /// @dev A boolean flag indicating whether the specified mining address was a validator in the previous set.\n    /// See the `getPreviousValidators` getter.\n    mapping(address => bool) public isValidatorPrevious;\n\n    /// @dev A mining address bound to a specified staking address.\n    /// See the `_setStakingAddress` internal function.\n    mapping(address => address) public miningByStakingAddress;\n\n    /// @dev The `RandomHbbft` contract address.\n    address public randomContract;\n\n    /// @dev The number of times the specified validator (mining address) reported misbehaviors during the specified\n    /// staking epoch. Used by the `reportMaliciousCallable` getter and `reportMalicious` function to determine\n    /// whether a validator reported too often.\n    mapping(address => mapping(uint256 => uint256)) public reportingCounter;\n\n    /// @dev How many times all validators reported misbehaviors during the specified staking epoch.\n    /// Used by the `reportMaliciousCallable` getter and `reportMalicious` function to determine\n    /// whether a validator reported too often.\n    mapping(uint256 => uint256) public reportingCounterTotal;\n\n    /// @dev A staking address bound to a specified mining address.\n    /// See the `_setStakingAddress` internal function.\n    mapping(address => address) public stakingByMiningAddress;\n\n    /// @dev The `StakingHbbft` contract address.\n    IStakingHbbft public stakingContract;\n\n    /// @dev The `KeyGenHistory` contract address.\n    IKeyGenHistory public keyGenHistoryContract;\n\n    /// @dev How many times the given mining address has become a validator.\n    mapping(address => uint256) public validatorCounter;\n\n    /// @dev Block Timestamp when a validator was successfully part of \n    mapping(address => uint256) public validatorLastSuccess;\n\n    /// @dev holds Availability information for each specific mining address\n    /// unavailability happens if a validator gets voted to become a pending validator,\n    /// but misses out the sending of the ACK or PART within the given timeframe.\n    /// validators are required to declare availability,\n    /// in order to become available for voting again.\n    /// the value is of type timestamp\n    mapping(address => uint256) public validatorAvailableSince;\n\n    // ============================================== Constants =======================================================\n\n    /// @dev The max number of validators.\n    uint256 public constant MAX_VALIDATORS = 25;\n\n    // ================================================ Events ========================================================\n\n    /// @dev Emitted by the `reportMalicious` function to signal that a specified validator reported\n    /// misbehavior by a specified malicious validator at a specified block number.\n    /// @param reportingValidator The mining address of the reporting validator.\n    /// @param maliciousValidator The mining address of the malicious validator.\n    /// @param blockNumber The block number at which the `maliciousValidator` misbehaved.\n    event ReportedMalicious(address reportingValidator, address maliciousValidator, uint256 blockNumber);\n\n    \n    event ValidatorAvailable(address validator, uint256 timestamp);\n\n    /// @dev Emitted by the `handleFailedKeyGeneration` function to signal that a specific validator was\n    /// marked as unavailable since he dit not contribute to the required key shares.\n    event ValidatorUnavailable(address validator, uint256 timestamp);\n\n    // ============================================== Modifiers =======================================================\n\n    /// @dev Ensures the `initialize` function was called before.\n    modifier onlyInitialized {\n        require(isInitialized(), \"ValidatorSet: not initialized\");\n        _;\n    }\n\n    /// @dev Ensures the caller is the BlockRewardHbbft contract address.\n    modifier onlyBlockRewardContract() {\n        require(msg.sender == blockRewardContract, \"Only BlockReward contract\");\n        _;\n    }\n\n    /// @dev Ensures the caller is the RandomHbbft contract address.\n    modifier onlyRandomContract() {\n        require(msg.sender == randomContract,\"Only Random Contract\");\n        _;\n    }\n\n    /// @dev Ensures the caller is the StakingHbbft contract address.\n    modifier onlyStakingContract() {\n        require(msg.sender == address(stakingContract),\"Only Staking Contract\");\n        _;\n    }\n\n    /// @dev Ensures the caller is the SYSTEM_ADDRESS. See https://wiki.parity.io/Validator-Set.html\n    modifier onlySystem() {\n        require(msg.sender == 0xffffFFFfFFffffffffffffffFfFFFfffFFFfFFfE, \"Only System\");\n        _;\n    }\n\n    /// @dev Returns the current timestamp.\n    function getCurrentTimestamp()\n    external\n    view\n    returns(uint256) {\n        return block.timestamp;\n    }\n\n    // function getInfo()\n    // public\n    // view \n    // returns (address sender, address admin) {\n    //     return (msg.sender, _admin());\n    // }\n\n    // =============================================== Setters ========================================================\n\n    /// @dev Initializes the network parameters. Used by the\n    /// constructor of the `InitializerHbbft` contract.\n    /// @param _blockRewardContract The address of the `BlockRewardHbbft` contract.\n    /// @param _randomContract The address of the `RandomHbbft` contract.\n    /// @param _stakingContract The address of the `StakingHbbft` contract.\n    /// @param _keyGenHistoryContract The address of the `KeyGenHistory` contract.\n    /// @param _initialMiningAddresses The array of initial validators' mining addresses.\n    /// @param _initialStakingAddresses The array of initial validators' staking addresses.\n    function initialize(\n        address _blockRewardContract,\n        address _randomContract,\n        address _stakingContract,\n        address _keyGenHistoryContract,\n        address[] calldata _initialMiningAddresses,\n        address[] calldata _initialStakingAddresses\n    ) external {\n        require(msg.sender == _admin() || tx.origin ==  _admin() \n            || address(0) ==  _admin() || block.number == 0, \n            \"ValidatorSet: Initialization only on genesis block or by admin\");\n        require(!isInitialized(), \"ValidatorSet contract is already initialized\");\n        require(_blockRewardContract != address(0), \"BlockReward contract address can't be 0x0\");\n        require(_randomContract != address(0), \"Random contract address can't be 0x0\");\n        require(_stakingContract != address(0), \"Staking contract address can't be 0x0\");\n        require(_keyGenHistoryContract != address(0), \"KeyGenHistory contract address can't be 0x0\");\n        require(_initialMiningAddresses.length > 0, \"Must provide initial mining addresses\");\n        require(_initialMiningAddresses.length == _initialStakingAddresses.length,\n            \"Must provide the same amount of mining/staking addresses\");\n\n        blockRewardContract = _blockRewardContract;\n        randomContract = _randomContract;\n        stakingContract = IStakingHbbft(_stakingContract);\n        keyGenHistoryContract = IKeyGenHistory(_keyGenHistoryContract);\n\n        // Add initial validators to the `_currentValidators` array\n        for (uint256 i = 0; i < _initialMiningAddresses.length; i++) {\n            address miningAddress = _initialMiningAddresses[i];\n            _currentValidators.push(miningAddress);\n            // _pendingValidators.push(miningAddress);\n            isValidator[miningAddress] = true;\n            validatorCounter[miningAddress]++;\n            _setStakingAddress(miningAddress, _initialStakingAddresses[i]);\n        }\n    }\n\n      /// @dev Called by the system when a pending validator set is ready to be activated.\n    /// Only valid when msg.sender == SUPER_USER (EIP96, 2**160 - 2).\n    /// After this function is called, the `getValidators` getter returns the new validator set.\n    /// If this function finalizes a new validator set formed by the `newValidatorSet` function,\n    /// an old validator set is also stored and can be read by the `getPreviousValidators` getter.\n    function finalizeChange()\n    external\n    onlyBlockRewardContract {\n\n        if (_pendingValidators.length != 0) {\n            // Apply a new validator set formed by the `newValidatorSet` function\n            _savePreviousValidators();\n            _finalizeNewValidators();\n        }\n\n        // new epoch starts\n        stakingContract.incrementStakingEpoch();\n        delete _pendingValidators;\n        stakingContract.setStakingEpochStartTime(this.getCurrentTimestamp());\n\n    }\n\n    /// @dev Implements the logic which forms a new validator set. If the number of active pools\n    /// is greater than MAX_VALIDATORS, the logic chooses the validators randomly using a random seed generated and\n    /// stored by the `RandomHbbft` contract.\n    /// Automatically called by the `BlockRewardHbbft.reward` function at the latest block of the staking epoch.\n    function newValidatorSet()\n    external\n    onlyBlockRewardContract {\n        _newValidatorSet(new address[](0));\n    }\n\n    /// @dev Removes malicious validators.\n    /// Called by the the Hbbft engine when a validator has been inactive for a long period.\n    /// @param _miningAddresses The mining addresses of the malicious validators.\n    function removeMaliciousValidators(address[] calldata _miningAddresses)\n    external\n    onlySystem {\n        _removeMaliciousValidators(_miningAddresses, \"inactive\");\n    }\n\n    /// @dev called by validators when a validator comes online after\n    /// getting marked as unavailable caused by a failed key generation.\n    function announceAvailability()\n    external {\n        require(canCallAnnounceAvailability(msg.sender), 'Announcing availability not possible');\n\n        uint timestamp = this.getCurrentTimestamp();\n        validatorAvailableSince[msg.sender] = timestamp;\n        emit ValidatorAvailable(msg.sender, timestamp);\n        // as long the mining node is not banned as well,\n        // it can be picked up as regular active node again.\n        if (!isValidatorBanned(msg.sender)) {\n            stakingContract.notifyAvailability(stakingByMiningAddress[msg.sender]);\n        }\n    }\n\n    /// @dev called by blockreward contract when a the reward when the block reward contract \n    /// came to the conclusion that the validators could not manage to create a new shared key together.\n    /// this starts the process to find replacements for the failing candites,\n    /// as well as marking them unavailable.\n    function handleFailedKeyGeneration()\n    external\n    onlyBlockRewardContract {\n\n\n        // we should only kick out nodes if the nodes have been really to late.\n\n        require(this.getCurrentTimestamp() >= stakingContract.stakingFixedEpochEndTime(),\n            \"failed key generation can only be processed after the staking epoch is over.\");\n\n        // check if the current epoch should have been ended already\n        // but some of the validators failed to write his PARTS / ACKS.\n\n        // there are 2 scenarious:\n        // 1.) missing Part: one or more validator was chosen, but never wrote his PART (most likely)\n        // 2.) missing ACK: all validators were able to write their parts, but one or more failed to write\n        // it's part.\n        //\n        // ad missing Part:\n        // in this case we can just replace the validator with another one,\n        // or if there is no other one available, continue with a smaller set.\n\n        // ad missing ACK:\n        // this case is more complex, since nodes did already write their acks for the parts\n        // of a node that now drops out.\n        // this should be a very rare case, and to make it simple, \n        // we can just start over with the random selection of validators again.\n\n        // temporary array to keep track of the good validators.\n        // not all storage slots might be used.\n        // we asume that there is at minimum 1 bad validator.\n        address[] memory goodValidators = new address[](_pendingValidators.length - 1);\n        uint goodValidatorsCount = 0;\n\n\n        (uint128 numberOfPartsWritten,uint128 numberOfAcksWritten)\n            = keyGenHistoryContract.getNumberOfKeyFragmentsWritten();\n        \n\n        for(uint i = 0; i < _pendingValidators.length; i++) {\n            \n            // get mining address for this pool.\n            // if the mining address did his job (writing PART or ACKS).\n            // add it to the good pool.\n            address miningAddress = _pendingValidators[i]; //miningByStakingAddress[];\n\n            // if a validator is good or bad, depends if he managed\n            // the write the information required for the current state.\n            bool isGood = false;\n\n            if (_pendingValidators.length > numberOfPartsWritten) {\n                // case 1: missing part scenario.\n                // pending validator that missed out writing their part ?\n                // maybe make a more precise length check in the future here ?\n                isGood =  keyGenHistoryContract.getPart(miningAddress).length > 0;\n            } else if (_pendingValidators.length > numberOfAcksWritten) {\n                // case 2: parts were written, but did this validator also write it's ACKS ??\n                // Note: we do not really need to check if the validator has written his part,\n                // since all validators managed to write it's part. \n                isGood = keyGenHistoryContract.getAcksLength(miningAddress) > 0;\n            }\n\n            if (isGood) {\n                // we track all good validators,\n                // so we can later pass the good validators\n                // to the _newValidatorSet function. \n                goodValidators[goodValidatorsCount] = _pendingValidators[i];\n                goodValidatorsCount++;\n            }\n            else {\n\n                // this Pool is not available anymore.\n                // the pool does not get a Ban,\n                // but is treated as \"inactive\" as long it does not `announceAvailability()`\n                \n                stakingContract.removePool(stakingByMiningAddress[miningAddress]);\n                // mark the Node address as not available.\n                validatorAvailableSince[miningAddress] = 0;\n                emit ValidatorUnavailable(miningAddress, this.getCurrentTimestamp());\n            }\n        }\n\n        // we might only set a subset to the newValidatorSet function,\n        // since the last indexes of the array are holding unused slots.\n        address[] memory forcedPools = new address[](goodValidatorsCount);\n        for (uint i = 0; i < goodValidatorsCount; i++) {\n            forcedPools[i] = goodValidators[i];\n        }\n\n        stakingContract.notifyKeyGenFailed();\n        _newValidatorSet(forcedPools);\n    }\n\n    /// @dev Reports that the malicious validator misbehaved at the specified block.\n    /// Called by the node of each honest validator after the specified validator misbehaved.\n    /// See https://openethereum.github.io/Validator-Set.html#reporting-contract\n    /// Can only be called when the `reportMaliciousCallable` getter returns `true`.\n    /// @param _maliciousMiningAddress The mining address of the malicious validator.\n    /// @param _blockNumber The block number where the misbehavior was observed.\n    function reportMalicious(\n        address _maliciousMiningAddress,\n        uint256 _blockNumber,\n        bytes calldata\n    )\n    external\n    onlyInitialized {\n        address reportingMiningAddress = msg.sender;\n\n        _incrementReportingCounter(reportingMiningAddress);\n\n        (\n            bool callable,\n            bool removeReportingValidator\n        ) = reportMaliciousCallable(\n            reportingMiningAddress,\n            _maliciousMiningAddress,\n            _blockNumber\n        );\n\n        if (!callable) {\n            if (removeReportingValidator) {\n                // Reporting validator has been reporting too often, so\n                // treat them as a malicious as well (spam)\n                address[] memory miningAddresses = new address[](1);\n                miningAddresses[0] = reportingMiningAddress;\n                _removeMaliciousValidators(miningAddresses, \"spam\");\n            }\n            return;\n        }\n\n        address[] storage reportedValidators = _maliceReportedForBlock[_maliciousMiningAddress][_blockNumber];\n\n        reportedValidators.push(reportingMiningAddress);\n\n        emit ReportedMalicious(reportingMiningAddress, _maliciousMiningAddress, _blockNumber);\n\n        uint256 validatorsLength = _currentValidators.length;\n        bool remove;\n\n        if (validatorsLength > 3) {\n            // If more than 2/3 of validators reported about malicious validator\n            // for the same `blockNumber`\n            remove = reportedValidators.length.mul(3) > validatorsLength.mul(2);\n        } else {\n            // If more than 1/2 of validators reported about malicious validator\n            // for the same `blockNumber`\n            remove = reportedValidators.length.mul(2) > validatorsLength;\n        }\n\n        if (remove) {\n            address[] memory miningAddresses = new address[](1);\n            miningAddresses[0] = _maliciousMiningAddress;\n            _removeMaliciousValidators(miningAddresses, \"malicious\");\n        }\n    }\n\n    /// @dev Binds a mining address to the specified staking address. Called by the `StakingHbbft.addPool` function\n    /// when a user wants to become a candidate and creates a pool.\n    /// See also the `miningByStakingAddress` and `stakingByMiningAddress` public mappings.\n    /// @param _miningAddress The mining address of the newly created pool. Cannot be equal to the `_stakingAddress`\n    /// and should never be used as a pool before.\n    /// @param _stakingAddress The staking address of the newly created pool. Cannot be equal to the `_miningAddress`\n    /// and should never be used as a pool before.\n    function setStakingAddress(address _miningAddress, address _stakingAddress)\n    external\n    onlyStakingContract {\n        _setStakingAddress(_miningAddress, _stakingAddress);\n    }\n\n    // =============================================== Getters ========================================================\n\n    /// @dev Returns a boolean flag indicating whether delegators of the specified pool are currently banned.\n    /// A validator pool can be banned when they misbehave (see the `_removeMaliciousValidator` function).\n    /// @param _miningAddress The mining address of the pool.\n    function areDelegatorsBanned(address _miningAddress)\n    public\n    view\n    returns(bool) {\n        return this.getCurrentTimestamp() <= bannedDelegatorsUntil[_miningAddress];\n    }\n\n    /// @dev Returns the previous validator set (validators' mining addresses array).\n    /// The array is stored by the `finalizeChange` function\n    /// when a new staking epoch's validator set is finalized.\n    function getPreviousValidators()\n    public\n    view\n    returns(address[] memory) {\n        return _previousValidators;\n    }\n\n    /// @dev Returns the current array of pending validators i.e. waiting to be activated in the new epoch\n    /// The pending array is changed when a validator is removed as malicious\n    /// or the validator set is updated by the `newValidatorSet` function.\n    function getPendingValidators()\n    public\n    view\n    returns(address[] memory) {\n        return _pendingValidators;\n    }\n\n    /// @dev Returns the current validator set (an array of mining addresses)\n    /// which always matches the validator set kept in validator's node.\n    function getValidators()\n    public\n    view\n    returns(address[] memory) {\n        return _currentValidators;\n    }\n\n    /// @dev Returns a boolean flag indicating if the `initialize` function has been called.\n    function isInitialized() public view returns(bool) {\n        return blockRewardContract != address(0);\n    }\n\n    /// @dev Returns a boolean flag indicating whether the specified validator (mining address)\n    /// is able to call the `reportMalicious` function or whether the specified validator (mining address)\n    /// can be reported as malicious. This function also allows a validator to call the `reportMalicious`\n    /// function several blocks after ceasing to be a validator. This is possible if a\n    /// validator did not have the opportunity to call the `reportMalicious` function prior to the\n    /// engine calling the `finalizeChange` function.\n    /// @param _miningAddress The validator's mining address.\n    function isReportValidatorValid(address _miningAddress) public view returns(bool) {\n        bool isValid = isValidator[_miningAddress] && !isValidatorBanned(_miningAddress);\n        if (stakingContract.stakingEpoch() == 0) {\n            return isValid;\n        }\n        // TO DO: arbitrarily chosen period stakingFixedEpochDuration/5.\n        if (this.getCurrentTimestamp() - stakingContract.stakingEpochStartTime() \n            <= stakingContract.stakingFixedEpochDuration()/5) {\n            // The current validator set was finalized by the engine,\n            // but we should let the previous validators finish\n            // reporting malicious validator within a few blocks\n            bool previousValidator = isValidatorPrevious[_miningAddress];\n            return isValid || previousValidator;\n        }\n        return isValid;\n    }\n\n    function getPendingValidatorKeyGenerationMode(address _miningAddress)\n    public\n    view\n    returns(KeyGenMode) {\n\n        // enum KeyGenMode { NotAPendingValidator, WritePart, WaitForOtherParts, \n        // WriteAck, WaitForOtherAcks, AllKeysDone }\n\n        if (!isPendingValidator(_miningAddress)) {\n            return KeyGenMode.NotAPendingValidator;\n        }\n\n        // since we got a part, maybe to validator is about to write his ack ?\n        // he is allowed to write his ack, if all nodes have written their part.\n\n        (uint128 numberOfPartsWritten, uint128 numberOfAcksWritten) \n            = keyGenHistoryContract.getNumberOfKeyFragmentsWritten();\n\n        if (numberOfPartsWritten < _pendingValidators.length) {\n\n            bytes memory part = keyGenHistoryContract.getPart(_miningAddress);\n            if (part.length == 0) {\n                // we know here that the validator is pending, \n                // but dit not have written the part yet.\n                // so he is allowed to write it's part.\n                return KeyGenMode.WritePart;\n            }\n            else {\n                // this mining address has written their part.\n                return KeyGenMode.WaitForOtherParts;\n            }\n\n        } else if (numberOfAcksWritten < _pendingValidators.length) {\n\n            // not all Acks Written, so the key is not complete.\n            // we know know that all Nodes have written their PART.\n            // but not all have written their ACK.\n            // are we the one who has written his ACK.\n\n            if (keyGenHistoryContract.getAcksLength(_miningAddress) == 0) {\n                return KeyGenMode.WriteAck;\n            }\n            else {\n                return KeyGenMode.WaitForOtherAcks;\n            }\n\n        } else {\n            return KeyGenMode.AllKeysDone;\n        }\n    }\n\n\n    /// @dev Returns a boolean flag indicating whether the specified mining address is currently banned.\n    /// A validator can be banned when they misbehave (see the `_removeMaliciousValidator` internal function).\n    /// @param _miningAddress The mining address.\n    function isValidatorBanned(address _miningAddress) public view returns(bool) {\n        return this.getCurrentTimestamp() <= bannedUntil[_miningAddress];\n    }\n\n    /// @dev Returns a boolean flag indicating whether the specified mining address is a validator\n    /// or is in the `_pendingValidators`.\n    /// Used by the `StakingHbbft.maxWithdrawAllowed` and `StakingHbbft.maxWithdrawOrderAllowed` getters.\n    /// @param _miningAddress The mining address.\n    function isValidatorOrPending(address _miningAddress)\n    public\n    view\n    returns(bool) {\n        if (isValidator[_miningAddress]) {\n            return true;\n        }\n\n        return isPendingValidator(_miningAddress);\n    }\n\n    /// @dev Returns a boolean flag indicating whether the specified mining address is a pending validator.\n    /// Used by the `isValidatorOrPending` and `KeyGenHistory.writeAck/Part` functions.\n    /// @param _miningAddress The mining address.\n    function isPendingValidator(address _miningAddress)\n    public\n    view\n    returns(bool) {\n\n        for (uint256 i = 0; i < _pendingValidators.length; i++) {\n            if (_miningAddress == _pendingValidators[i]) {\n                return true;\n            }\n        }\n\n        return false;\n    }\n\n    /// @dev Returns an array of the validators (their mining addresses) which reported that the specified malicious\n    /// validator misbehaved at the specified block.\n    /// @param _miningAddress The mining address of malicious validator.\n    /// @param _blockNumber The block number.\n    function maliceReportedForBlock(address _miningAddress, uint256 _blockNumber)\n    public\n    view\n    returns(address[] memory) {\n        return _maliceReportedForBlock[_miningAddress][_blockNumber];\n    }\n\n\n    function canCallAnnounceAvailability(address _miningAddress)\n    public\n    view\n    returns(bool) {\n\n        if (stakingByMiningAddress[_miningAddress] == address(0)) {\n            // not a validator node.\n            // revert('this address is not a validator');\n            return false;\n        }\n\n        if (validatorAvailableSince[_miningAddress] != 0) {\n             // \"Validator was not marked as unavailable.\"\n            return false;\n        }\n\n        return true;\n    }\n\n\n    /// @dev Returns whether the `reportMalicious` function can be called by the specified validator with the\n    /// given parameters. Used by the `reportMalicious` function and `TxPermission` contract. Also, returns\n    /// a boolean flag indicating whether the reporting validator should be removed as malicious due to\n    /// excessive reporting during the current staking epoch.\n    /// @param _reportingMiningAddress The mining address of the reporting validator which is calling\n    /// the `reportMalicious` function.\n    /// @param _maliciousMiningAddress The mining address of the malicious validator which is passed to\n    /// the `reportMalicious` function.\n    /// @param _blockNumber The block number which is passed to the `reportMalicious` function.\n    /// @return `bool callable` - The boolean flag indicating whether the `reportMalicious` function can be called at\n    /// the moment. `bool removeReportingValidator` - The boolean flag indicating whether the reporting validator\n    /// should be removed as malicious due to excessive reporting. This flag is only used by the `reportMalicious`\n    /// function.\n    function reportMaliciousCallable(\n        address _reportingMiningAddress,\n        address _maliciousMiningAddress,\n        uint256 _blockNumber\n    )\n    public\n    view\n    returns(bool callable, bool removeReportingValidator) {\n        if (!isReportValidatorValid(_reportingMiningAddress)) return (false, false);\n        if (!isReportValidatorValid(_maliciousMiningAddress)) return (false, false);\n\n        uint256 validatorsNumber = _currentValidators.length;\n\n        if (validatorsNumber > 1) {\n            uint256 currentStakingEpoch = stakingContract.stakingEpoch();\n            uint256 reportsNumber = reportingCounter[_reportingMiningAddress][currentStakingEpoch];\n            uint256 reportsTotalNumber = reportingCounterTotal[currentStakingEpoch];\n            uint256 averageReportsNumber = 0;\n\n            if (reportsTotalNumber >= reportsNumber) {\n                averageReportsNumber = (reportsTotalNumber - reportsNumber) / (validatorsNumber - 1);\n            }\n\n            if (reportsNumber > validatorsNumber * 50 && reportsNumber > averageReportsNumber * 10) {\n                return (false, true);\n            }\n        }\n\n        uint256 currentBlock = block.number; // TODO: _getCurrentBlockNumber(); Make it time based here ?\n\n        if (_blockNumber > currentBlock) return (false, false); // avoid reporting about future blocks\n\n        uint256 ancientBlocksLimit = 100; //TODO: needs to be afjusted for HBBFT specifications i.e. time\n        if (currentBlock > ancientBlocksLimit && _blockNumber < currentBlock - ancientBlocksLimit) {\n            return (false, false); // avoid reporting about ancient blocks\n        }\n\n        address[] storage reportedValidators = _maliceReportedForBlock[_maliciousMiningAddress][_blockNumber];\n\n        // Don't allow reporting validator to report about the same misbehavior more than once\n        uint256 length = reportedValidators.length;\n        for (uint256 m = 0; m < length; m++) {\n            if (reportedValidators[m] == _reportingMiningAddress) {\n                return (false, false);\n            }\n        }\n\n        return (true, false);\n    }\n\n    function publicKeyByStakingAddress(address stakingAddress) external view returns(bytes memory) {\n        return stakingContract.getPoolPublicKey(stakingAddress);\n    }\n\n    function getPublicKey(address miningAddress) external view returns(bytes memory) {\n        return stakingContract.getPoolPublicKey(stakingByMiningAddress[miningAddress]);\n    }\n\n    // ============================================== Internal ========================================================\n\n\n    // function _canCallAnnounceAvailability(address _miningAddress)\n    // internal\n    // view\n    // returns(bool) {\n\n    //     if (stakingByMiningAddress[_miningAddress] == address(0)) {\n    //         // not a validator node.\n    //         return false;\n    //     }\n\n    //     if (validatorAvailableSince[_miningAddress] == 0) {\n    //          // \"Validator was not marked as unavailable.\"\n    //         return false;\n    //     }\n    // }\n\n    /// @dev Updates the total reporting counter (see the `reportingCounterTotal` public mapping) for the current\n    /// staking epoch after the specified validator is removed as malicious. The `reportMaliciousCallable` getter\n    /// uses this counter for reporting checks so it must be up-to-date. Called by the `_removeMaliciousValidators`\n    /// internal function.\n    /// @param _miningAddress The mining address of the removed malicious validator.\n    function _clearReportingCounter(address _miningAddress)\n    internal {\n        uint256 currentStakingEpoch = stakingContract.stakingEpoch();\n        uint256 total = reportingCounterTotal[currentStakingEpoch];\n        uint256 counter = reportingCounter[_miningAddress][currentStakingEpoch];\n\n        reportingCounter[_miningAddress][currentStakingEpoch] = 0;\n\n        if (total >= counter) {\n            reportingCounterTotal[currentStakingEpoch] -= counter;\n        } else {\n            reportingCounterTotal[currentStakingEpoch] = 0;\n        }\n    }\n\n    function _newValidatorSet(address[] memory _forcedPools)\n    internal\n    {\n        address[] memory poolsToBeElected = stakingContract.getPoolsToBeElected();\n        // Choose new validators\n        if (poolsToBeElected.length > MAX_VALIDATORS) {\n\n            uint256 poolsToBeElectedLength = poolsToBeElected.length;\n            (uint256[] memory likelihood, uint256 likelihoodSum) = stakingContract.getPoolsLikelihood();\n            address[] memory newValidators = new address[](MAX_VALIDATORS);\n\n            uint256 indexNewValidator = 0;\n            for(uint256 iForced = 0; iForced < _forcedPools.length; iForced++) {\n                for(uint256 iPoolToBeElected = 0; iPoolToBeElected < poolsToBeElectedLength; iPoolToBeElected++) {\n                    if (poolsToBeElected[iPoolToBeElected] == _forcedPools[iForced]) {\n                        newValidators[indexNewValidator] = _forcedPools[iForced];\n                        indexNewValidator++;\n                        likelihoodSum -= likelihood[iPoolToBeElected];\n                        // kicking out this pools from the \"to be elected\" list,\n                        // by replacing it with the last element,\n                        // and virtually reducing it's size. \n                        poolsToBeElectedLength--;\n                        poolsToBeElected[iPoolToBeElected] = poolsToBeElected[poolsToBeElectedLength];\n                        likelihood[iPoolToBeElected] = likelihood[poolsToBeElectedLength];\n                        break;\n                    }\n                }\n            }\n\n            uint256 randomNumber = IRandomHbbft(randomContract).currentSeed();\n\n            if (likelihood.length > 0 && likelihoodSum > 0) {\n                for (uint256 i = 0; i < newValidators.length; i++) {\n                    randomNumber = uint256(keccak256(abi.encode(randomNumber ^ block.timestamp)));\n                    uint256 randomPoolIndex = _getRandomIndex(likelihood, likelihoodSum, randomNumber);\n                    newValidators[i] = poolsToBeElected[randomPoolIndex];\n                    likelihoodSum -= likelihood[randomPoolIndex];\n                    poolsToBeElectedLength--;\n                    poolsToBeElected[randomPoolIndex] = poolsToBeElected[poolsToBeElectedLength];\n                    likelihood[randomPoolIndex] = likelihood[poolsToBeElectedLength];\n                }\n\n                _setPendingValidators(newValidators);\n            }\n        } else {\n            //note: it is assumed here that _forcedPools is always a subset of poolsToBeElected.\n            // a forcedPool can never get picked up if it is not part of the poolsToBeElected.\n            // the logic needs to be that consistent.\n            _setPendingValidators(poolsToBeElected);\n        }\n        \n        // clear previousValidator KeyGenHistory state\n        keyGenHistoryContract.clearPrevKeyGenState(_currentValidators);\n\n        if (poolsToBeElected.length != 0) {\n            // Remove pools marked as `to be removed`\n            stakingContract.removePools();\n        }\n    }\n\n    /// @dev Sets a new validator set stored in `_pendingValidators` array.\n    /// Called by the `finalizeChange` function.\n    function _finalizeNewValidators()\n    internal {\n        address[] memory validators;\n        uint256 i;\n\n        validators = _currentValidators;\n        for (i = 0; i < validators.length; i++) {\n            isValidator[validators[i]] = false;\n        }\n\n        _currentValidators = _pendingValidators;\n\n        validators = _currentValidators;\n        for (i = 0; i < validators.length; i++) {\n            address miningAddress = validators[i];\n            isValidator[miningAddress] = true;\n            validatorCounter[miningAddress]++;\n        }\n    }\n\n    /// @dev Increments the reporting counter for the specified validator and the current staking epoch.\n    /// See the `reportingCounter` and `reportingCounterTotal` public mappings. Called by the `reportMalicious`\n    /// function when the validator reports a misbehavior.\n    /// @param _reportingMiningAddress The mining address of reporting validator.\n    function _incrementReportingCounter(address _reportingMiningAddress)\n    internal {\n        if (!isReportValidatorValid(_reportingMiningAddress)) return;\n        uint256 currentStakingEpoch = stakingContract.stakingEpoch();\n        reportingCounter[_reportingMiningAddress][currentStakingEpoch]++;\n        reportingCounterTotal[currentStakingEpoch]++;\n    }\n\n    /// @dev Removes the specified validator as malicious. Used by the `_removeMaliciousValidators` internal function.\n    /// @param _miningAddress The removed validator mining address.\n    /// @param _reason A short string of the reason why the mining address is treated as malicious:\n    /// \"inactive\" - the validator has not been contributing to block creation for sigificant period of time.\n    /// \"spam\" - the validator made a lot of `reportMalicious` callings compared with other validators.\n    /// \"malicious\" - the validator was reported as malicious by other validators with the `reportMalicious` function.\n    /// @return Returns `true` if the specified validator has been removed from the pending validator set.\n    /// Otherwise returns `false` (if the specified validator has already been removed or cannot be removed).\n    function _removeMaliciousValidator(address _miningAddress, bytes32 _reason)\n    internal\n    returns(bool) {\n\n        bool isBanned = isValidatorBanned(_miningAddress);\n        // Ban the malicious validator for at least the next 12 staking epochs\n        uint256 banUntil = _banUntil();\n\n        banCounter[_miningAddress]++;\n        bannedUntil[_miningAddress] = banUntil;\n        banReason[_miningAddress] = _reason;\n\n        if (isBanned) {\n            // The validator is already banned\n            return false;\n        } else {\n            bannedDelegatorsUntil[_miningAddress] = banUntil;\n        }\n\n        // Remove malicious validator from the `pools`\n        address stakingAddress = stakingByMiningAddress[_miningAddress];\n        stakingContract.removePool(stakingAddress);\n\n        // If the validator set has only one validator, don't remove it.\n        uint256 length = _currentValidators.length;\n        if (length == 1) {\n            return false;\n        }\n\n        for (uint256 i = 0; i < length; i++) {\n            if (_currentValidators[i] == _miningAddress) {\n                // Remove the malicious validator from `_pendingValidators`\n                _currentValidators[i] = _currentValidators[length - 1];\n                _currentValidators.length--;\n                return true;\n            }\n        }\n\n        return false;\n    }\n\n    /// @dev Removes the specified validators as malicious from the pending validator set. Does nothing if\n    /// the specified validators are already banned or don't exist in the pending validator set.\n    /// @param _miningAddresses The mining addresses of the malicious validators.\n    /// @param _reason A short string of the reason why the mining addresses are treated as malicious,\n    /// see the `_removeMaliciousValidator` internal function description for possible values.\n    function _removeMaliciousValidators(address[] memory _miningAddresses, bytes32 _reason) internal {\n        for (uint256 i = 0; i < _miningAddresses.length; i++) {\n            if (_removeMaliciousValidator(_miningAddresses[i], _reason)) {\n                // From this moment `getPendingValidators()` returns the new validator set\n                _clearReportingCounter(_miningAddresses[i]);\n            }\n        }\n    }\n\n    /// @dev Stores previous validators. Used by the `finalizeChange` function.\n    function _savePreviousValidators() internal {\n        uint256 length;\n        uint256 i;\n\n        // Save the previous validator set\n        length = _previousValidators.length;\n        for (i = 0; i < length; i++) {\n            isValidatorPrevious[_previousValidators[i]] = false;\n        }\n        length = _currentValidators.length;\n        for (i = 0; i < length; i++) {\n            isValidatorPrevious[_currentValidators[i]] = true;\n        }\n        _previousValidators = _currentValidators;\n    }\n\n    /// @dev Sets a new validator set as a pending.\n    /// Called by the `newValidatorSet` function.\n    /// @param _stakingAddresses The array of the new validators' staking addresses.\n    function _setPendingValidators(\n        address[] memory _stakingAddresses\n    ) internal {\n\n        // clear  the pending validators list first\n        delete _pendingValidators;\n\n        if (_stakingAddresses.length == 0) {\n            // If there are no `poolsToBeElected`, we remove the\n            // validators which want to exit from the validator set\n            for (uint256 i = 0; i < _currentValidators.length; i++) {\n                address pvMiningAddress = _currentValidators[i];\n                address pvStakingAddress = stakingByMiningAddress[pvMiningAddress];\n                if (\n                    stakingContract.isPoolActive(pvStakingAddress) &&\n                    stakingContract.orderedWithdrawAmount(pvStakingAddress, pvStakingAddress) == 0\n                ) {\n                    // The validator has an active pool and is not going to withdraw their\n                    // entire stake, so this validator doesn't want to exit from the validator set\n                    _pendingValidators.push(pvMiningAddress);\n                }   \n            }\n            if (_pendingValidators.length == 0) {\n                _pendingValidators.push(_currentValidators[0]); // add at least on validator\n            }\n        } else {\n            \n            for (uint256 i = 0; i < _stakingAddresses.length; i++) {\n                _pendingValidators.push(miningByStakingAddress[_stakingAddresses[i]]);\n            }\n        }\n    }\n\n    /// @dev Binds a mining address to the specified staking address. Used by the `setStakingAddress` function.\n    /// See also the `miningByStakingAddress` and `stakingByMiningAddress` public mappings.\n    /// @param _miningAddress The mining address of the newly created pool. Cannot be equal to the `_stakingAddress`\n    /// and should never be used as a pool before.\n    /// @param _stakingAddress The staking address of the newly created pool. Cannot be equal to the `_miningAddress`\n    /// and should never be used as a pool before.\n    function _setStakingAddress(address _miningAddress, address _stakingAddress) internal {\n        require(_miningAddress != address(0), \"Mining address can't be 0\");\n        require(_stakingAddress != address(0), \"Staking address can't be 0\");\n        require(_miningAddress != _stakingAddress, \"Mining address cannot be the same as the staking one\");\n        require(miningByStakingAddress[_stakingAddress] == address(0), \"Staking address already used as a staking one\");\n        require(miningByStakingAddress[_miningAddress] == address(0), \"Mining address already used as a staking one\");\n        require(stakingByMiningAddress[_stakingAddress] == address(0), \"Staking address already used as a mining one\");\n        require(stakingByMiningAddress[_miningAddress] == address(0), \"Mining address already used as a mining one\");\n        miningByStakingAddress[_stakingAddress] = _miningAddress;\n        stakingByMiningAddress[_miningAddress] = _stakingAddress;\n    }\n\n    /// @dev Returns the future timestamp until which a validator is banned.\n    /// Used by the `_removeMaliciousValidator` internal function.\n    function _banUntil() internal view returns(uint256) {\n        uint256 currentTimestamp = this.getCurrentTimestamp();\n        uint256 ticksUntilEnd = stakingContract.stakingFixedEpochEndTime().sub(currentTimestamp);\n        // Ban for at least 12 full staking epochs: \n        // currentTimestampt + stakingFixedEpochDuration + remainingEpochDuration. \n        return currentTimestamp.add(12 * stakingContract.stakingFixedEpochDuration()).add(ticksUntilEnd);\n    }\n\n    /// @dev Returns an index of a pool in the `poolsToBeElected` array\n    /// (see the `StakingHbbft.getPoolsToBeElected` public getter)\n    /// by a random number and the corresponding probability coefficients.\n    /// Used by the `newValidatorSet` function.\n    /// @param _likelihood An array of probability coefficients.\n    /// @param _likelihoodSum A sum of probability coefficients.\n    /// @param _randomNumber A random number.\n    function _getRandomIndex(uint256[] memory _likelihood, uint256 _likelihoodSum, uint256 _randomNumber)\n        internal\n        pure\n        returns(uint256)\n    {\n        uint256 random = _randomNumber % _likelihoodSum;\n        uint256 sum = 0;\n        uint256 index = 0;\n        while (sum <= random) {\n            sum += _likelihood[index];\n            index++;\n        }\n        return index - 1;\n    }\n}\n",
  "sourcePath": "/home/sn/dmd/dmd-meta/hbbft-posdao-contracts/contracts/ValidatorSetHbbft.sol",
  "compiler": {
    "name": "solc",
    "version": "0.5.16+commit.9c3226ce.Emscripten.clang"
  },
  "schemaVersion": "3.3.1",
  "updatedAt": "2021-03-16T16:43:14.118Z",
  "devdoc": {
    "details": "Stores the current validator set and contains the logic for choosing new validators before each staking epoch. The logic uses a random seed generated and stored by the `RandomHbbft` contract.",
    "methods": {
      "announceAvailability()": {
        "details": "called by validators when a validator comes online after getting marked as unavailable caused by a failed key generation."
      },
      "areDelegatorsBanned(address)": {
        "details": "Returns a boolean flag indicating whether delegators of the specified pool are currently banned. A validator pool can be banned when they misbehave (see the `_removeMaliciousValidator` function).",
        "params": {
          "_miningAddress": "The mining address of the pool."
        }
      },
      "finalizeChange()": {
        "details": "Called by the system when a pending validator set is ready to be activated. Only valid when msg.sender == SUPER_USER (EIP96, 2**160 - 2). After this function is called, the `getValidators` getter returns the new validator set. If this function finalizes a new validator set formed by the `newValidatorSet` function, an old validator set is also stored and can be read by the `getPreviousValidators` getter."
      },
      "getCurrentTimestamp()": {
        "details": "Returns the current timestamp."
      },
      "getPendingValidators()": {
        "details": "Returns the current array of pending validators i.e. waiting to be activated in the new epoch The pending array is changed when a validator is removed as malicious or the validator set is updated by the `newValidatorSet` function."
      },
      "getPreviousValidators()": {
        "details": "Returns the previous validator set (validators' mining addresses array). The array is stored by the `finalizeChange` function when a new staking epoch's validator set is finalized."
      },
      "getValidators()": {
        "details": "Returns the current validator set (an array of mining addresses) which always matches the validator set kept in validator's node."
      },
      "handleFailedKeyGeneration()": {
        "details": "called by blockreward contract when a the reward when the block reward contract  came to the conclusion that the validators could not manage to create a new shared key together. this starts the process to find replacements for the failing candites, as well as marking them unavailable."
      },
      "initialize(address,address,address,address,address[],address[])": {
        "details": "Initializes the network parameters. Used by the constructor of the `InitializerHbbft` contract.",
        "params": {
          "_blockRewardContract": "The address of the `BlockRewardHbbft` contract.",
          "_initialMiningAddresses": "The array of initial validators' mining addresses.",
          "_initialStakingAddresses": "The array of initial validators' staking addresses.",
          "_keyGenHistoryContract": "The address of the `KeyGenHistory` contract.",
          "_randomContract": "The address of the `RandomHbbft` contract.",
          "_stakingContract": "The address of the `StakingHbbft` contract."
        }
      },
      "isInitialized()": {
        "details": "Returns a boolean flag indicating if the `initialize` function has been called."
      },
      "isPendingValidator(address)": {
        "details": "Returns a boolean flag indicating whether the specified mining address is a pending validator. Used by the `isValidatorOrPending` and `KeyGenHistory.writeAck/Part` functions.",
        "params": {
          "_miningAddress": "The mining address."
        }
      },
      "isReportValidatorValid(address)": {
        "details": "Returns a boolean flag indicating whether the specified validator (mining address) is able to call the `reportMalicious` function or whether the specified validator (mining address) can be reported as malicious. This function also allows a validator to call the `reportMalicious` function several blocks after ceasing to be a validator. This is possible if a validator did not have the opportunity to call the `reportMalicious` function prior to the engine calling the `finalizeChange` function.",
        "params": {
          "_miningAddress": "The validator's mining address."
        }
      },
      "isValidatorBanned(address)": {
        "details": "Returns a boolean flag indicating whether the specified mining address is currently banned. A validator can be banned when they misbehave (see the `_removeMaliciousValidator` internal function).",
        "params": {
          "_miningAddress": "The mining address."
        }
      },
      "isValidatorOrPending(address)": {
        "details": "Returns a boolean flag indicating whether the specified mining address is a validator or is in the `_pendingValidators`. Used by the `StakingHbbft.maxWithdrawAllowed` and `StakingHbbft.maxWithdrawOrderAllowed` getters.",
        "params": {
          "_miningAddress": "The mining address."
        }
      },
      "maliceReportedForBlock(address,uint256)": {
        "details": "Returns an array of the validators (their mining addresses) which reported that the specified malicious validator misbehaved at the specified block.",
        "params": {
          "_blockNumber": "The block number.",
          "_miningAddress": "The mining address of malicious validator."
        }
      },
      "newValidatorSet()": {
        "details": "Implements the logic which forms a new validator set. If the number of active pools is greater than MAX_VALIDATORS, the logic chooses the validators randomly using a random seed generated and stored by the `RandomHbbft` contract. Automatically called by the `BlockRewardHbbft.reward` function at the latest block of the staking epoch."
      },
      "removeMaliciousValidators(address[])": {
        "details": "Removes malicious validators. Called by the the Hbbft engine when a validator has been inactive for a long period.",
        "params": {
          "_miningAddresses": "The mining addresses of the malicious validators."
        }
      },
      "reportMalicious(address,uint256,bytes)": {
        "details": "Reports that the malicious validator misbehaved at the specified block. Called by the node of each honest validator after the specified validator misbehaved. See https://openethereum.github.io/Validator-Set.html#reporting-contract Can only be called when the `reportMaliciousCallable` getter returns `true`.",
        "params": {
          "_blockNumber": "The block number where the misbehavior was observed.",
          "_maliciousMiningAddress": "The mining address of the malicious validator."
        }
      },
      "reportMaliciousCallable(address,address,uint256)": {
        "details": "Returns whether the `reportMalicious` function can be called by the specified validator with the given parameters. Used by the `reportMalicious` function and `TxPermission` contract. Also, returns a boolean flag indicating whether the reporting validator should be removed as malicious due to excessive reporting during the current staking epoch.",
        "params": {
          "_blockNumber": "The block number which is passed to the `reportMalicious` function.",
          "_maliciousMiningAddress": "The mining address of the malicious validator which is passed to the `reportMalicious` function.",
          "_reportingMiningAddress": "The mining address of the reporting validator which is calling the `reportMalicious` function."
        },
        "return": "`bool callable` - The boolean flag indicating whether the `reportMalicious` function can be called at the moment. `bool removeReportingValidator` - The boolean flag indicating whether the reporting validator should be removed as malicious due to excessive reporting. This flag is only used by the `reportMalicious` function."
      },
      "setStakingAddress(address,address)": {
        "details": "Binds a mining address to the specified staking address. Called by the `StakingHbbft.addPool` function when a user wants to become a candidate and creates a pool. See also the `miningByStakingAddress` and `stakingByMiningAddress` public mappings.",
        "params": {
          "_miningAddress": "The mining address of the newly created pool. Cannot be equal to the `_stakingAddress` and should never be used as a pool before.",
          "_stakingAddress": "The staking address of the newly created pool. Cannot be equal to the `_miningAddress` and should never be used as a pool before."
        }
      }
    }
  },
  "userdoc": {
    "methods": {}
  }
}