{
  "contractName": "ValidatorSetHbbftMock",
  "abi": [
    {
      "anonymous": false,
      "inputs": [
        {
          "indexed": false,
          "internalType": "address",
          "name": "reportingValidator",
          "type": "address"
        },
        {
          "indexed": false,
          "internalType": "address",
          "name": "maliciousValidator",
          "type": "address"
        },
        {
          "indexed": false,
          "internalType": "uint256",
          "name": "blockNumber",
          "type": "uint256"
        }
      ],
      "name": "ReportedMalicious",
      "type": "event"
    },
    {
      "anonymous": false,
      "inputs": [
        {
          "indexed": false,
          "internalType": "address",
          "name": "validator",
          "type": "address"
        },
        {
          "indexed": false,
          "internalType": "uint256",
          "name": "timestamp",
          "type": "uint256"
        }
      ],
      "name": "ValidatorAvailable",
      "type": "event"
    },
    {
      "anonymous": false,
      "inputs": [
        {
          "indexed": false,
          "internalType": "address",
          "name": "validator",
          "type": "address"
        },
        {
          "indexed": false,
          "internalType": "uint256",
          "name": "timestamp",
          "type": "uint256"
        }
      ],
      "name": "ValidatorUnavailable",
      "type": "event"
    },
    {
      "constant": true,
      "inputs": [],
      "name": "MAX_VALIDATORS",
      "outputs": [
        {
          "internalType": "uint256",
          "name": "",
          "type": "uint256"
        }
      ],
      "payable": false,
      "stateMutability": "view",
      "type": "function"
    },
    {
      "constant": false,
      "inputs": [],
      "name": "announceAvailability",
      "outputs": [],
      "payable": false,
      "stateMutability": "nonpayable",
      "type": "function"
    },
    {
      "constant": true,
      "inputs": [
        {
          "internalType": "address",
          "name": "_miningAddress",
          "type": "address"
        }
      ],
      "name": "areDelegatorsBanned",
      "outputs": [
        {
          "internalType": "bool",
          "name": "",
          "type": "bool"
        }
      ],
      "payable": false,
      "stateMutability": "view",
      "type": "function"
    },
    {
      "constant": true,
      "inputs": [
        {
          "internalType": "address",
          "name": "",
          "type": "address"
        }
      ],
      "name": "banCounter",
      "outputs": [
        {
          "internalType": "uint256",
          "name": "",
          "type": "uint256"
        }
      ],
      "payable": false,
      "stateMutability": "view",
      "type": "function"
    },
    {
      "constant": true,
      "inputs": [
        {
          "internalType": "address",
          "name": "",
          "type": "address"
        }
      ],
      "name": "banReason",
      "outputs": [
        {
          "internalType": "bytes32",
          "name": "",
          "type": "bytes32"
        }
      ],
      "payable": false,
      "stateMutability": "view",
      "type": "function"
    },
    {
      "constant": true,
      "inputs": [
        {
          "internalType": "address",
          "name": "",
          "type": "address"
        }
      ],
      "name": "bannedDelegatorsUntil",
      "outputs": [
        {
          "internalType": "uint256",
          "name": "",
          "type": "uint256"
        }
      ],
      "payable": false,
      "stateMutability": "view",
      "type": "function"
    },
    {
      "constant": true,
      "inputs": [
        {
          "internalType": "address",
          "name": "",
          "type": "address"
        }
      ],
      "name": "bannedUntil",
      "outputs": [
        {
          "internalType": "uint256",
          "name": "",
          "type": "uint256"
        }
      ],
      "payable": false,
      "stateMutability": "view",
      "type": "function"
    },
    {
      "constant": true,
      "inputs": [],
      "name": "blockRewardContract",
      "outputs": [
        {
          "internalType": "address",
          "name": "",
          "type": "address"
        }
      ],
      "payable": false,
      "stateMutability": "view",
      "type": "function"
    },
    {
      "constant": true,
      "inputs": [
        {
          "internalType": "address",
          "name": "_miningAddress",
          "type": "address"
        }
      ],
      "name": "canCallAnnounceAvailability",
      "outputs": [
        {
          "internalType": "bool",
          "name": "",
          "type": "bool"
        }
      ],
      "payable": false,
      "stateMutability": "view",
      "type": "function"
    },
    {
      "constant": false,
      "inputs": [],
      "name": "finalizeChange",
      "outputs": [],
      "payable": false,
      "stateMutability": "nonpayable",
      "type": "function"
    },
    {
      "constant": true,
      "inputs": [
        {
          "internalType": "address",
          "name": "_miningAddress",
          "type": "address"
        }
      ],
      "name": "getPendingValidatorKeyGenerationMode",
      "outputs": [
        {
          "internalType": "enum IValidatorSetHbbft.KeyGenMode",
          "name": "",
          "type": "uint8"
        }
      ],
      "payable": false,
      "stateMutability": "view",
      "type": "function"
    },
    {
      "constant": true,
      "inputs": [],
      "name": "getPendingValidators",
      "outputs": [
        {
          "internalType": "address[]",
          "name": "",
          "type": "address[]"
        }
      ],
      "payable": false,
      "stateMutability": "view",
      "type": "function"
    },
    {
      "constant": true,
      "inputs": [],
      "name": "getPreviousValidators",
      "outputs": [
        {
          "internalType": "address[]",
          "name": "",
          "type": "address[]"
        }
      ],
      "payable": false,
      "stateMutability": "view",
      "type": "function"
    },
    {
      "constant": true,
      "inputs": [
        {
          "internalType": "address",
          "name": "miningAddress",
          "type": "address"
        }
      ],
      "name": "getPublicKey",
      "outputs": [
        {
          "internalType": "bytes",
          "name": "",
          "type": "bytes"
        }
      ],
      "payable": false,
      "stateMutability": "view",
      "type": "function"
    },
    {
      "constant": true,
      "inputs": [],
      "name": "getValidators",
      "outputs": [
        {
          "internalType": "address[]",
          "name": "",
          "type": "address[]"
        }
      ],
      "payable": false,
      "stateMutability": "view",
      "type": "function"
    },
    {
      "constant": false,
      "inputs": [],
      "name": "handleFailedKeyGeneration",
      "outputs": [],
      "payable": false,
      "stateMutability": "nonpayable",
      "type": "function"
    },
    {
      "constant": false,
      "inputs": [
        {
          "internalType": "address",
          "name": "_blockRewardContract",
          "type": "address"
        },
        {
          "internalType": "address",
          "name": "_randomContract",
          "type": "address"
        },
        {
          "internalType": "address",
          "name": "_stakingContract",
          "type": "address"
        },
        {
          "internalType": "address",
          "name": "_keyGenHistoryContract",
          "type": "address"
        },
        {
          "internalType": "address[]",
          "name": "_initialMiningAddresses",
          "type": "address[]"
        },
        {
          "internalType": "address[]",
          "name": "_initialStakingAddresses",
          "type": "address[]"
        }
      ],
      "name": "initialize",
      "outputs": [],
      "payable": false,
      "stateMutability": "nonpayable",
      "type": "function"
    },
    {
      "constant": true,
      "inputs": [],
      "name": "isInitialized",
      "outputs": [
        {
          "internalType": "bool",
          "name": "",
          "type": "bool"
        }
      ],
      "payable": false,
      "stateMutability": "view",
      "type": "function"
    },
    {
      "constant": true,
      "inputs": [
        {
          "internalType": "address",
          "name": "_miningAddress",
          "type": "address"
        }
      ],
      "name": "isPendingValidator",
      "outputs": [
        {
          "internalType": "bool",
          "name": "",
          "type": "bool"
        }
      ],
      "payable": false,
      "stateMutability": "view",
      "type": "function"
    },
    {
      "constant": true,
      "inputs": [
        {
          "internalType": "address",
          "name": "_miningAddress",
          "type": "address"
        }
      ],
      "name": "isReportValidatorValid",
      "outputs": [
        {
          "internalType": "bool",
          "name": "",
          "type": "bool"
        }
      ],
      "payable": false,
      "stateMutability": "view",
      "type": "function"
    },
    {
      "constant": true,
      "inputs": [
        {
          "internalType": "address",
          "name": "",
          "type": "address"
        }
      ],
      "name": "isValidator",
      "outputs": [
        {
          "internalType": "bool",
          "name": "",
          "type": "bool"
        }
      ],
      "payable": false,
      "stateMutability": "view",
      "type": "function"
    },
    {
      "constant": true,
      "inputs": [
        {
          "internalType": "address",
          "name": "_miningAddress",
          "type": "address"
        }
      ],
      "name": "isValidatorBanned",
      "outputs": [
        {
          "internalType": "bool",
          "name": "",
          "type": "bool"
        }
      ],
      "payable": false,
      "stateMutability": "view",
      "type": "function"
    },
    {
      "constant": true,
      "inputs": [
        {
          "internalType": "address",
          "name": "_miningAddress",
          "type": "address"
        }
      ],
      "name": "isValidatorOrPending",
      "outputs": [
        {
          "internalType": "bool",
          "name": "",
          "type": "bool"
        }
      ],
      "payable": false,
      "stateMutability": "view",
      "type": "function"
    },
    {
      "constant": true,
      "inputs": [
        {
          "internalType": "address",
          "name": "",
          "type": "address"
        }
      ],
      "name": "isValidatorPrevious",
      "outputs": [
        {
          "internalType": "bool",
          "name": "",
          "type": "bool"
        }
      ],
      "payable": false,
      "stateMutability": "view",
      "type": "function"
    },
    {
      "constant": true,
      "inputs": [],
      "name": "keyGenHistoryContract",
      "outputs": [
        {
          "internalType": "contract IKeyGenHistory",
          "name": "",
          "type": "address"
        }
      ],
      "payable": false,
      "stateMutability": "view",
      "type": "function"
    },
    {
      "constant": true,
      "inputs": [
        {
          "internalType": "address",
          "name": "_miningAddress",
          "type": "address"
        },
        {
          "internalType": "uint256",
          "name": "_blockNumber",
          "type": "uint256"
        }
      ],
      "name": "maliceReportedForBlock",
      "outputs": [
        {
          "internalType": "address[]",
          "name": "",
          "type": "address[]"
        }
      ],
      "payable": false,
      "stateMutability": "view",
      "type": "function"
    },
    {
      "constant": true,
      "inputs": [
        {
          "internalType": "address",
          "name": "",
          "type": "address"
        }
      ],
      "name": "miningByStakingAddress",
      "outputs": [
        {
          "internalType": "address",
          "name": "",
          "type": "address"
        }
      ],
      "payable": false,
      "stateMutability": "view",
      "type": "function"
    },
    {
      "constant": false,
      "inputs": [],
      "name": "newValidatorSet",
      "outputs": [],
      "payable": false,
      "stateMutability": "nonpayable",
      "type": "function"
    },
    {
      "constant": true,
      "inputs": [
        {
          "internalType": "address",
          "name": "stakingAddress",
          "type": "address"
        }
      ],
      "name": "publicKeyByStakingAddress",
      "outputs": [
        {
          "internalType": "bytes",
          "name": "",
          "type": "bytes"
        }
      ],
      "payable": false,
      "stateMutability": "view",
      "type": "function"
    },
    {
      "constant": true,
      "inputs": [],
      "name": "randomContract",
      "outputs": [
        {
          "internalType": "address",
          "name": "",
          "type": "address"
        }
      ],
      "payable": false,
      "stateMutability": "view",
      "type": "function"
    },
    {
      "constant": false,
      "inputs": [
        {
          "internalType": "address[]",
          "name": "_miningAddresses",
          "type": "address[]"
        }
      ],
      "name": "removeMaliciousValidators",
      "outputs": [],
      "payable": false,
      "stateMutability": "nonpayable",
      "type": "function"
    },
    {
      "constant": false,
      "inputs": [
        {
          "internalType": "address",
          "name": "_maliciousMiningAddress",
          "type": "address"
        },
        {
          "internalType": "uint256",
          "name": "_blockNumber",
          "type": "uint256"
        },
        {
          "internalType": "bytes",
          "name": "",
          "type": "bytes"
        }
      ],
      "name": "reportMalicious",
      "outputs": [],
      "payable": false,
      "stateMutability": "nonpayable",
      "type": "function"
    },
    {
      "constant": true,
      "inputs": [
        {
          "internalType": "address",
          "name": "_reportingMiningAddress",
          "type": "address"
        },
        {
          "internalType": "address",
          "name": "_maliciousMiningAddress",
          "type": "address"
        },
        {
          "internalType": "uint256",
          "name": "_blockNumber",
          "type": "uint256"
        }
      ],
      "name": "reportMaliciousCallable",
      "outputs": [
        {
          "internalType": "bool",
          "name": "callable",
          "type": "bool"
        },
        {
          "internalType": "bool",
          "name": "removeReportingValidator",
          "type": "bool"
        }
      ],
      "payable": false,
      "stateMutability": "view",
      "type": "function"
    },
    {
      "constant": true,
      "inputs": [
        {
          "internalType": "address",
          "name": "",
          "type": "address"
        },
        {
          "internalType": "uint256",
          "name": "",
          "type": "uint256"
        }
      ],
      "name": "reportingCounter",
      "outputs": [
        {
          "internalType": "uint256",
          "name": "",
          "type": "uint256"
        }
      ],
      "payable": false,
      "stateMutability": "view",
      "type": "function"
    },
    {
      "constant": true,
      "inputs": [
        {
          "internalType": "uint256",
          "name": "",
          "type": "uint256"
        }
      ],
      "name": "reportingCounterTotal",
      "outputs": [
        {
          "internalType": "uint256",
          "name": "",
          "type": "uint256"
        }
      ],
      "payable": false,
      "stateMutability": "view",
      "type": "function"
    },
    {
      "constant": false,
      "inputs": [
        {
          "internalType": "address",
          "name": "_miningAddress",
          "type": "address"
        },
        {
          "internalType": "address",
          "name": "_stakingAddress",
          "type": "address"
        }
      ],
      "name": "setStakingAddress",
      "outputs": [],
      "payable": false,
      "stateMutability": "nonpayable",
      "type": "function"
    },
    {
      "constant": true,
      "inputs": [
        {
          "internalType": "address",
          "name": "",
          "type": "address"
        }
      ],
      "name": "stakingByMiningAddress",
      "outputs": [
        {
          "internalType": "address",
          "name": "",
          "type": "address"
        }
      ],
      "payable": false,
      "stateMutability": "view",
      "type": "function"
    },
    {
      "constant": true,
      "inputs": [],
      "name": "stakingContract",
      "outputs": [
        {
          "internalType": "contract IStakingHbbft",
          "name": "",
          "type": "address"
        }
      ],
      "payable": false,
      "stateMutability": "view",
      "type": "function"
    },
    {
      "constant": true,
      "inputs": [
        {
          "internalType": "address",
          "name": "",
          "type": "address"
        }
      ],
      "name": "validatorAvailableSince",
      "outputs": [
        {
          "internalType": "uint256",
          "name": "",
          "type": "uint256"
        }
      ],
      "payable": false,
      "stateMutability": "view",
      "type": "function"
    },
    {
      "constant": true,
      "inputs": [
        {
          "internalType": "address",
          "name": "",
          "type": "address"
        }
      ],
      "name": "validatorCounter",
      "outputs": [
        {
          "internalType": "uint256",
          "name": "",
          "type": "uint256"
        }
      ],
      "payable": false,
      "stateMutability": "view",
      "type": "function"
    },
    {
      "constant": true,
      "inputs": [
        {
          "internalType": "address",
          "name": "",
          "type": "address"
        }
      ],
      "name": "validatorLastSuccess",
      "outputs": [
        {
          "internalType": "uint256",
          "name": "",
          "type": "uint256"
        }
      ],
      "payable": false,
      "stateMutability": "view",
      "type": "function"
    },
    {
      "constant": false,
      "inputs": [
        {
          "internalType": "address",
          "name": "_miningAddress",
          "type": "address"
        },
        {
          "internalType": "uint256",
          "name": "_bannedUntil",
          "type": "uint256"
        }
      ],
      "name": "setBannedUntil",
      "outputs": [],
      "payable": false,
      "stateMutability": "nonpayable",
      "type": "function"
    },
    {
      "constant": false,
      "inputs": [
        {
          "internalType": "address",
          "name": "_address",
          "type": "address"
        }
      ],
      "name": "setBlockRewardContract",
      "outputs": [],
      "payable": false,
      "stateMutability": "nonpayable",
      "type": "function"
    },
    {
      "constant": false,
      "inputs": [
        {
          "internalType": "address",
          "name": "_address",
          "type": "address"
        }
      ],
      "name": "setRandomContract",
      "outputs": [],
      "payable": false,
      "stateMutability": "nonpayable",
      "type": "function"
    },
    {
      "constant": false,
      "inputs": [
        {
          "internalType": "address",
          "name": "_address",
          "type": "address"
        }
      ],
      "name": "setStakingContract",
      "outputs": [],
      "payable": false,
      "stateMutability": "nonpayable",
      "type": "function"
    },
    {
      "constant": false,
      "inputs": [
        {
          "internalType": "address",
          "name": "_address",
          "type": "address"
        }
      ],
      "name": "setSystemAddress",
      "outputs": [],
      "payable": false,
      "stateMutability": "nonpayable",
      "type": "function"
    },
    {
      "constant": false,
      "inputs": [
        {
          "internalType": "uint256",
          "name": "_timeStamp",
          "type": "uint256"
        }
      ],
      "name": "setCurrentTimestamp",
      "outputs": [],
      "payable": false,
      "stateMutability": "nonpayable",
      "type": "function"
    },
    {
      "constant": true,
      "inputs": [
        {
          "internalType": "uint256[]",
          "name": "_likelihood",
          "type": "uint256[]"
        },
        {
          "internalType": "uint256",
          "name": "_likelihoodSum",
          "type": "uint256"
        },
        {
          "internalType": "uint256",
          "name": "_randomNumber",
          "type": "uint256"
        }
      ],
      "name": "getRandomIndex",
      "outputs": [
        {
          "internalType": "uint256",
          "name": "",
          "type": "uint256"
        }
      ],
      "payable": false,
      "stateMutability": "pure",
      "type": "function"
    },
    {
      "constant": true,
      "inputs": [],
      "name": "getCurrentTimestamp",
      "outputs": [
        {
          "internalType": "uint256",
          "name": "",
          "type": "uint256"
        }
      ],
      "payable": false,
      "stateMutability": "view",
      "type": "function"
    }
  ],
  "bytecode": "0x608060405234801561001057600080fd5b5061449b806100206000396000f3fe608060405234801561001057600080fd5b50600436106102ba5760003560e01c806385602ad511610182578063b47aef1f116100e9578063d2dd2f16116100a2578063eebc7a391161007c578063eebc7a3914610b2c578063f51726f014610b34578063facd743b14610b5a578063fb64aac114610b80576102ba565b8063d2dd2f1614610ae1578063db2c870c14610afe578063ee99205c14610b24576102ba565b8063b47aef1f146109f4578063b56b366b146109fc578063b7ab4db514610a28578063c476dd4014610a30578063c9e9694d14610ab3578063ccf69e9b14610ad9576102ba565b8063a670eb561161013b578063a670eb5614610903578063a68b5b7614610954578063a881c5fd1461097a578063a92252ae146109a0578063ade1900a146109c6578063b41832e4146109ce576102ba565b806385602ad514610778578063857cdbb8146107d057806387eed76a1461086b5780639881933d146108915780639dd373b9146108b7578063a0d16cad146108dd576102ba565b8063292525af116102265780635ccee1de116101df5780635ccee1de1461071557806360e5c5201461071d57806366efcb78146107435780636c9230db14610760578063714897df146107685780637528621114610770576102ba565b8063292525af146105b15780633755243b146105b9578063392e53cd146105e5578063515bbf2c1461060157806356b54bae146106e75780635836d08a146106ef576102ba565b806314e28d901161027857806314e28d90146104175780631761edb1146104615780631a7fa237146105195780631d0cd4c61461053f5780631ee4d0bc1461056557806327a3e16b1461058b576102ba565b8062535175146102bf578063030360d214610301578063062101971461032f5780630636bdac146103555780630933e3a7146103c35780630a4c1072146103e9575b600080fd5b6102e5600480360360208110156102d557600080fd5b50356001600160a01b0316610ba6565b604080516001600160a01b039092168252519081900360200190f35b61032d6004803603604081101561031757600080fd5b506001600160a01b038135169060200135610bc1565b005b61032d6004803603602081101561034557600080fd5b50356001600160a01b0316610bea565b61032d6004803603602081101561036b57600080fd5b810190602081018135600160201b81111561038557600080fd5b82018360208201111561039757600080fd5b803590602001918460208302840111600160201b831117156103b857600080fd5b509092509050610c0c565b61032d600480360360208110156103d957600080fd5b50356001600160a01b0316610c7e565b61032d600480360360408110156103ff57600080fd5b506001600160a01b0381358116916020013516610ca0565b61043d6004803603602081101561042d57600080fd5b50356001600160a01b0316610d01565b6040518082600581111561044d57fe5b60ff16815260200191505060405180910390f35b6105076004803603606081101561047757600080fd5b810190602081018135600160201b81111561049157600080fd5b8201836020820111156104a357600080fd5b803590602001918460208302840111600160201b831117156104c457600080fd5b9190808060200260200160405190810160405280939291908181526020018383602002808284376000920191909152509295505082359350505060200135610fba565b60408051918252519081900360200190f35b6105076004803603602081101561052f57600080fd5b50356001600160a01b0316610ff8565b6105076004803603602081101561055557600080fd5b50356001600160a01b031661100a565b6102e56004803603602081101561057b57600080fd5b50356001600160a01b031661101c565b61032d600480360360208110156105a157600080fd5b50356001600160a01b0316611037565b61032d611059565b610507600480360360408110156105cf57600080fd5b506001600160a01b0381351690602001356111d4565b6105ed6111f1565b604080519115158252519081900360200190f35b61032d600480360360c081101561061757600080fd5b6001600160a01b03823581169260208101358216926040820135831692606083013516919081019060a081016080820135600160201b81111561065957600080fd5b82018360208201111561066b57600080fd5b803590602001918460208302840111600160201b8311171561068c57600080fd5b919390929091602081019035600160201b8111156106a957600080fd5b8201836020820111156106bb57600080fd5b803590602001918460208302840111600160201b831117156106dc57600080fd5b509092509050611203565b6102e5611589565b6105076004803603602081101561070557600080fd5b50356001600160a01b0316611598565b61032d6115aa565b6105076004803603602081101561073357600080fd5b50356001600160a01b031661161f565b61032d6004803603602081101561075957600080fd5b5035611631565b610507611676565b61050761167c565b61032d611681565b61078061184b565b60408051602080825283518183015283519192839290830191858101910280838360005b838110156107bc5781810151838201526020016107a4565b505050509050019250505060405180910390f35b6107f6600480360360208110156107e657600080fd5b50356001600160a01b03166118ad565b6040805160208082528351818301528351919283929083019185019080838360005b83811015610830578181015183820152602001610818565b50505050905090810190601f16801561085d5780820380516001836020036101000a031916815260200191505b509250505060405180910390f35b6105ed6004803603602081101561088157600080fd5b50356001600160a01b03166119fe565b6107f6600480360360208110156108a757600080fd5b50356001600160a01b0316611c45565b61032d600480360360208110156108cd57600080fd5b50356001600160a01b0316611c96565b6105ed600480360360208110156108f357600080fd5b50356001600160a01b0316611cb8565b6109396004803603606081101561091957600080fd5b506001600160a01b03813581169160208101359091169060400135611cea565b60408051921515835290151560208301528051918290030190f35b6105ed6004803603602081101561096a57600080fd5b50356001600160a01b0316611ee3565b6105ed6004803603602081101561099057600080fd5b50356001600160a01b0316611ef8565b6105ed600480360360208110156109b657600080fd5b50356001600160a01b0316611f7b565b61032d611fca565b610507600480360360208110156109e457600080fd5b50356001600160a01b03166127c3565b6102e56127d5565b61078060048036036040811015610a1257600080fd5b506001600160a01b0381351690602001356127e4565b610780612863565b61032d60048036036060811015610a4657600080fd5b6001600160a01b0382351691602081013591810190606081016040820135600160201b811115610a7557600080fd5b820183602082011115610a8757600080fd5b803590602001918460018302840111600160201b83111715610aa857600080fd5b5090925090506128c3565b61050760048036036020811015610ac957600080fd5b50356001600160a01b0316612b07565b6102e5612b19565b61050760048036036020811015610af757600080fd5b5035612b28565b61050760048036036020811015610b1457600080fd5b50356001600160a01b0316612b3a565b6102e5612b4c565b610780612b5b565b6105ed60048036036020811015610b4a57600080fd5b50356001600160a01b0316612bbb565b6105ed60048036036020811015610b7057600080fd5b50356001600160a01b0316612c12565b6105ed60048036036020811015610b9657600080fd5b50356001600160a01b0316612c27565b600b602052600090815260409020546001600160a01b031681565b6001600160a01b0390911660009081526005602090815260408083208490556006909152902055565b601680546001600160a01b0319166001600160a01b0392909216919091179055565b610c14612c7c565b6001600160a01b0316336001600160a01b031614610c3157600080fd5b610c7a82828080602002602001604051908101604052809392919081815260200183836020028082843760009201919091525067696e61637469766560c01b9250612c8b915050565b5050565b600c80546001600160a01b0319166001600160a01b0392909216919091179055565b6010546001600160a01b03163314610cf7576040805162461bcd60e51b815260206004820152601560248201527413db9b1e4814dd185ada5b99c810dbdb9d1c9858dd605a1b604482015290519081900360640190fd5b610c7a8282612ce2565b6000610d0c82612c27565b610d1857506000610fb5565b60115460408051637be02c2b60e01b8152815160009384936001600160a01b0390911692637be02c2b9260048083019392829003018186803b158015610d5d57600080fd5b505afa158015610d71573d6000803e3d6000fd5b505050506040513d6040811015610d8757600080fd5b50805160209091015160015491935091506001600160801b0383161015610f0857601154604080516399de1a4360e01b81526001600160a01b038781166004830152915160609392909216916399de1a4391602480820192600092909190829003018186803b158015610df957600080fd5b505afa158015610e0d573d6000803e3d6000fd5b505050506040513d6000823e601f3d908101601f191682016040526020811015610e3657600080fd5b8101908080516040519392919084600160201b821115610e5557600080fd5b908301906020820185811115610e6a57600080fd5b8251600160201b811182820188101715610e8357600080fd5b82525081516020918201929091019080838360005b83811015610eb0578181015183820152602001610e98565b50505050905090810190601f168015610edd5780820380516001836020036101000a031916815260200191505b506040525050509050805160001415610efc5760019350505050610fb5565b60029350505050610fb5565b6001546001600160801b0382161015610fae5760115460408051631baeec3f60e31b81526001600160a01b0387811660048301529151919092169163dd7761f8916024808301926020929190829003018186803b158015610f6857600080fd5b505afa158015610f7c573d6000803e3d6000fd5b505050506040513d6020811015610f9257600080fd5b5051610fa357600392505050610fb5565b600492505050610fb5565b6005925050505b919050565b6000610ff0848484604051602001808281526020019150506040516020818303038152906040528051906020012060001c612f8f565b949350505050565b60066020526000908152604090205481565b60046020526000908152604090205481565b600f602052600090815260409020546001600160a01b031681565b600880546001600160a01b0319166001600160a01b0392909216919091179055565b61106233612bbb565b61109d5760405162461bcd60e51b81526004018080602001828103825260248152602001806142746024913960400191505060405180910390fd5b6000306001600160a01b0316636c9230db6040518163ffffffff1660e01b815260040160206040518083038186803b1580156110d857600080fd5b505afa1580156110ec573d6000803e3d6000fd5b505050506040513d602081101561110257600080fd5b5051336000818152601460209081526040918290208490558151928352820183905280519293507f705d65dbee06de60e6465d68371ce849d5a1ead53e53d01a413b2b01393aa02292918290030190a161115b33611f7b565b6111d157601054336000908152600f6020526040808220548151631ec56e5360e21b81526001600160a01b0391821660048201529151931692637b15b94c9260248084019391929182900301818387803b1580156111b857600080fd5b505af11580156111cc573d6000803e3d6000fd5b505050505b50565b600d60209081526000928352604080842090915290825290205481565b6008546001600160a01b031615155b90565b61120b612fdc565b6001600160a01b0316336001600160a01b03161480611242575061122d612fdc565b6001600160a01b0316326001600160a01b0316145b8061125b5750611250612fdc565b6001600160a01b0316155b80611264575043155b61129f5760405162461bcd60e51b815260040180806020018281038252603e8152602001806143c8603e913960400191505060405180910390fd5b6112a76111f1565b156112e35760405162461bcd60e51b815260040180806020018281038252602c815260200180614248602c913960400191505060405180910390fd5b6001600160a01b0388166113285760405162461bcd60e51b815260040180806020018281038252602981526020018061421f6029913960400191505060405180910390fd5b6001600160a01b03871661136d5760405162461bcd60e51b81526004018080602001828103825260248152602001806141fb6024913960400191505060405180910390fd5b6001600160a01b0386166113b25760405162461bcd60e51b81526004018080602001828103825260258152602001806143a36025913960400191505060405180910390fd5b6001600160a01b0385166113f75760405162461bcd60e51b815260040180806020018281038252602b815260200180614309602b913960400191505060405180910390fd5b826114335760405162461bcd60e51b81526004018080602001828103825260258152602001806142e46025913960400191505060405180910390fd5b8281146114715760405162461bcd60e51b815260040180806020018281038252603881526020018061436b6038913960400191505060405180910390fd5b600880546001600160a01b03808b166001600160a01b031992831617909255600c80548a841690831617905560108054898416908316179055601180549288169290911691909117905560005b8381101561157e5760008585838181106114d457fe5b60008054600180820183557f290decd9548b62a8d60345a988386fc84ba6bc95484008f6362f93160ef3e5639091018054602094850296909601356001600160a01b03166001600160a01b031990961686179055848252600983526040808320805460ff1916831790556012909352919020805490910190555090506115758185858581811061156057fe5b905060200201356001600160a01b0316612ce2565b506001016114be565b505050505050505050565b6008546001600160a01b031681565b60056020526000908152604090205481565b6008546001600160a01b03163314611605576040805162461bcd60e51b815260206004820152601960248201527813db9b1e48109b1bd8dad4995dd85c990818dbdb9d1c9858dd603a1b604482015290519081900360640190fd5b60408051600081526020810190915261161d90613001565b565b60146020526000908152604090205481565b60155481116116715760405162461bcd60e51b81526004018080602001828103825260378152602001806143346037913960400191505060405180910390fd5b601555565b60155490565b601981565b6008546001600160a01b031633146116dc576040805162461bcd60e51b815260206004820152601960248201527813db9b1e48109b1bd8dad4995dd85c990818dbdb9d1c9858dd603a1b604482015290519081900360640190fd5b600154156116f4576116ec61368b565b6116f4613756565b601060009054906101000a90046001600160a01b03166001600160a01b031663ee435f556040518163ffffffff1660e01b8152600401600060405180830381600087803b15801561174457600080fd5b505af1158015611758573d6000803e3d6000fd5b505050506001600061176a91906140ab565b601060009054906101000a90046001600160a01b03166001600160a01b0316638247a239306001600160a01b0316636c9230db6040518163ffffffff1660e01b815260040160206040518083038186803b1580156117c757600080fd5b505afa1580156117db573d6000803e3d6000fd5b505050506040513d60208110156117f157600080fd5b5051604080516001600160e01b031960e085901b168152600481019290925251602480830192600092919082900301818387803b15801561183157600080fd5b505af1158015611845573d6000803e3d6000fd5b50505050565b606060028054806020026020016040519081016040528092919081815260200182805480156118a357602002820191906000526020600020905b81546001600160a01b03168152600190910190602001808311611885575b5050505050905090565b6010546001600160a01b038281166000908152600f6020526040808220548151634e9b426d60e01b8152908416600482015290516060949390931692634e9b426d92602480840193919291829003018186803b15801561190c57600080fd5b505afa158015611920573d6000803e3d6000fd5b505050506040513d6000823e601f3d908101601f19168201604052602081101561194957600080fd5b8101908080516040519392919084600160201b82111561196857600080fd5b90830190602082018581111561197d57600080fd5b8251600160201b81118282018810171561199657600080fd5b82525081516020918201929091019080838360005b838110156119c35781810151838201526020016119ab565b50505050905090810190601f1680156119f05780820380516001836020036101000a031916815260200191505b506040525050509050919050565b6001600160a01b038116600090815260096020526040812054819060ff168015611a2e5750611a2c83611f7b565b155b9050601060009054906101000a90046001600160a01b03166001600160a01b031663794c0c686040518163ffffffff1660e01b815260040160206040518083038186803b158015611a7e57600080fd5b505afa158015611a92573d6000803e3d6000fd5b505050506040513d6020811015611aa857600080fd5b5051611ab5579050610fb5565b60105460408051634f9a8d8f60e01b815290516005926001600160a01b031691634f9a8d8f916004808301926020929190829003018186803b158015611afa57600080fd5b505afa158015611b0e573d6000803e3d6000fd5b505050506040513d6020811015611b2457600080fd5b505181611b2d57fe5b04601060009054906101000a90046001600160a01b03166001600160a01b0316639b03d7446040518163ffffffff1660e01b815260040160206040518083038186803b158015611b7c57600080fd5b505afa158015611b90573d6000803e3d6000fd5b505050506040513d6020811015611ba657600080fd5b505160408051636c9230db60e01b815290513091636c9230db916004808301926020929190829003018186803b158015611bdf57600080fd5b505afa158015611bf3573d6000803e3d6000fd5b505050506040513d6020811015611c0957600080fd5b50510311611c3f576001600160a01b0383166000908152600a602052604090205460ff168180611c365750805b92505050610fb5565b92915050565b60105460408051634e9b426d60e01b81526001600160a01b03848116600483015291516060939290921691634e9b426d91602480820192600092909190829003018186803b15801561190c57600080fd5b601080546001600160a01b0319166001600160a01b0392909216919091179055565b6001600160a01b03811660009081526009602052604081205460ff1615611ce157506001610fb5565b611c3f82612c27565b600080611cf6856119fe565b611d0557506000905080611edb565b611d0e846119fe565b611d1d57506000905080611edb565b6000546001811115611e145760105460408051630f29818d60e31b815290516000926001600160a01b03169163794c0c68916004808301926020929190829003018186803b158015611d6e57600080fd5b505afa158015611d82573d6000803e3d6000fd5b505050506040513d6020811015611d9857600080fd5b50516001600160a01b0388166000908152600d60209081526040808320848452825280832054600e9092528220549293509190828210611de4576001850383830381611de057fe5b0490505b8460320283118015611df8575080600a0283115b15611e0f5760006001965096505050505050611edb565b505050505b4380851115611e2b57600080935093505050611edb565b60648082118015611e3d575080820386105b15611e515760008094509450505050611edb565b6001600160a01b03871660009081526003602090815260408083208984529091528120805490915b81811015611ecc578a6001600160a01b0316838281548110611e9757fe5b6000918252602090912001546001600160a01b03161415611ec45760008097509750505050505050611edb565b600101611e79565b50600160009650965050505050505b935093915050565b600a6020526000908152604090205460ff1681565b6001600160a01b0381166000908152600660209081526040808320548151636c9230db60e01b8152915190923092636c9230db9260048083019392829003018186803b158015611f4757600080fd5b505afa158015611f5b573d6000803e3d6000fd5b505050506040513d6020811015611f7157600080fd5b5051111592915050565b6001600160a01b0381166000908152600560209081526040808320548151636c9230db60e01b8152915190923092636c9230db9260048083019392829003018186803b158015611f4757600080fd5b6008546001600160a01b03163314612025576040805162461bcd60e51b815260206004820152601960248201527813db9b1e48109b1bd8dad4995dd85c990818dbdb9d1c9858dd603a1b604482015290519081900360640190fd5b601060009054906101000a90046001600160a01b03166001600160a01b03166322e3d9866040518163ffffffff1660e01b815260040160206040518083038186803b15801561207357600080fd5b505afa158015612087573d6000803e3d6000fd5b505050506040513d602081101561209d57600080fd5b505160408051636c9230db60e01b815290513091636c9230db916004808301926020929190829003018186803b1580156120d657600080fd5b505afa1580156120ea573d6000803e3d6000fd5b505050506040513d602081101561210057600080fd5b5051101561213f5760405162461bcd60e51b815260040180806020018281038252604c815260200180614298604c913960600191505060405180910390fd5b601060009054906101000a90046001600160a01b03166001600160a01b031663a5d54f656040518163ffffffff1660e01b815260040160006040518083038186803b15801561218d57600080fd5b505afa1580156121a1573d6000803e3d6000fd5b505050506040513d6000823e601f3d908101601f1916820160405260208110156121ca57600080fd5b8101908080516040519392919084600160201b8211156121e957600080fd5b9083019060208201858111156121fe57600080fd5b82518660208202830111600160201b8211171561221a57600080fd5b82525081516020918201928201910280838360005b8381101561224757818101518382015260200161222f565b5050505090500160405250505051600014156122625761161d565b60606001808054905003604051908082528060200260200182016040528015612295578160200160208202803883390190505b5060115460408051637be02c2b60e01b81528151939450600093849384936001600160a01b0390911692637be02c2b9260048083019392829003018186803b1580156122e057600080fd5b505afa1580156122f4573d6000803e3d6000fd5b505050506040513d604081101561230a57600080fd5b508051602090910151909250905060005b6001548110156126d65760006001828154811061233457fe5b60009182526020822001546001546001600160a01b0390911692506001600160801b03861610156124a357601154604080516399de1a4360e01b81526001600160a01b038581166004830152915160009392909216916399de1a43916024808201928692909190829003018186803b1580156123af57600080fd5b505afa1580156123c3573d6000803e3d6000fd5b505050506040513d6000823e601f3d908101601f1916820160405260208110156123ec57600080fd5b8101908080516040519392919084600160201b82111561240b57600080fd5b90830190602082018581111561242057600080fd5b8251600160201b81118282018810171561243957600080fd5b82525081516020918201929091019080838360005b8381101561246657818101518382015260200161244e565b50505050905090810190601f1680156124935780820380516001836020036101000a031916815260200191505b5060405250505051119050612537565b6001546001600160801b03851610156125375760115460408051631baeec3f60e31b81526001600160a01b0385811660048301529151600093929092169163dd7761f891602480820192602092909190829003018186803b15801561250757600080fd5b505afa15801561251b573d6000803e3d6000fd5b505050506040513d602081101561253157600080fd5b50511190505b8015612597576001838154811061254a57fe5b9060005260206000200160009054906101000a90046001600160a01b031687878151811061257457fe5b6001600160a01b03909216602092830291909101909101526001909501946126cc565b6010546001600160a01b038381166000908152600f6020526040808220548151631dbe84a360e11b8152908416600482015290519290931692633b7d0946926024808301939282900301818387803b1580156125f257600080fd5b505af1158015612606573d6000803e3d6000fd5b5050506001600160a01b0383166000908152601460209081526040808320929092558151636c9230db60e01b815291517f7ec36d1734626f8b3686f8791130187e1633c843b1995003e788cd2b33d56903935085923092636c9230db92600480840193829003018186803b15801561267d57600080fd5b505afa158015612691573d6000803e3d6000fd5b505050506040513d60208110156126a757600080fd5b5051604080516001600160a01b03909316835260208301919091528051918290030190a15b505060010161231b565b50606083604051908082528060200260200182016040528015612703578160200160208202803883390190505b50905060005b848110156127515785818151811061271d57fe5b602002602001015182828151811061273157fe5b6001600160a01b0390921660209283029190910190910152600101612709565b50601060009054906101000a90046001600160a01b03166001600160a01b031663adddc0cf6040518163ffffffff1660e01b8152600401600060405180830381600087803b1580156127a257600080fd5b505af11580156127b6573d6000803e3d6000fd5b505050506111cc81613001565b60126020526000908152604090205481565b6011546001600160a01b031681565b6001600160a01b038216600090815260036020908152604080832084845282529182902080548351818402810184019094528084526060939283018282801561285657602002820191906000526020600020905b81546001600160a01b03168152600190910190602001808311612838575b5050505050905092915050565b606060008054806020026020016040519081016040528092919081815260200182805480156118a3576020028201919060005260206000209081546001600160a01b03168152600190910190602001808311611885575050505050905090565b6128cb6111f1565b61291c576040805162461bcd60e51b815260206004820152601d60248201527f56616c696461746f725365743a206e6f7420696e697469616c697a6564000000604482015290519081900360640190fd5b33612926816138e3565b600080612934838888611cea565b91509150816129ae5780156129a65760408051600180825281830190925260609160208083019080388339019050509050838160008151811061297357fe5b60200260200101906001600160a01b031690816001600160a01b0316815250506129a481637370616d60e01b612c8b565b505b505050611845565b6001600160a01b0380881660008181526003602090815260408083208b8452825280832080546001810182558185529383902090930180549589166001600160a01b031990961686179055805194855290840192909252828201899052905190917f729a19138e072a5a8d3a56d74ae0b5c84530f09aacd6e12b24c5b2fdc3f8a3d0919081900360600190a160008054906003821115612a7457612a5982600263ffffffff6139a716565b8354612a6c90600363ffffffff6139a716565b119050612a8d565b82548290612a8990600263ffffffff6139a716565b1190505b8015612afb57604080516001808252818301909252606091602080830190803883390190505090508a81600081518110612ac357fe5b60200260200101906001600160a01b031690816001600160a01b031681525050612af981686d616c6963696f757360b81b612c8b565b505b50505050505050505050565b60076020526000908152604090205481565b600c546001600160a01b031681565b600e6020526000908152604090205481565b60136020526000908152604090205481565b6010546001600160a01b031681565b606060018054806020026020016040519081016040528092919081815260200182805480156118a3576020028201919060005260206000209081546001600160a01b03168152600190910190602001808311611885575050505050905090565b6001600160a01b038181166000908152600f6020526040812054909116612be457506000610fb5565b6001600160a01b03821660009081526014602052604090205415612c0a57506000610fb5565b506001919050565b60096020526000908152604090205460ff1681565b6000805b600154811015612c735760018181548110612c4257fe5b6000918252602090912001546001600160a01b0384811691161415612c6b576001915050610fb5565b600101612c2b565b50600092915050565b6016546001600160a01b031690565b60005b8251811015612cdd57612cb4838281518110612ca657fe5b6020026020010151836139d5565b15612cd557612cd5838281518110612cc857fe5b6020026020010151613ba0565b600101612c8e565b505050565b6001600160a01b038216612d3d576040805162461bcd60e51b815260206004820152601960248201527f4d696e696e6720616464726573732063616e2774206265203000000000000000604482015290519081900360640190fd5b6001600160a01b038116612d98576040805162461bcd60e51b815260206004820152601a60248201527f5374616b696e6720616464726573732063616e27742062652030000000000000604482015290519081900360640190fd5b806001600160a01b0316826001600160a01b03161415612de95760405162461bcd60e51b81526004018080602001828103825260348152602001806144336034913960400191505060405180910390fd5b6001600160a01b038181166000908152600b60205260409020541615612e405760405162461bcd60e51b815260040180806020018281038252602d815260200180614406602d913960400191505060405180910390fd5b6001600160a01b038281166000908152600b60205260409020541615612e975760405162461bcd60e51b815260040180806020018281038252602c815260200180614178602c913960400191505060405180910390fd5b6001600160a01b038181166000908152600f60205260409020541615612eee5760405162461bcd60e51b815260040180806020018281038252602c8152602001806141a4602c913960400191505060405180910390fd5b6001600160a01b038281166000908152600f60205260409020541615612f455760405162461bcd60e51b815260040180806020018281038252602b8152602001806141d0602b913960400191505060405180910390fd5b6001600160a01b039081166000818152600b602090815260408083208054959096166001600160a01b03199586168117909655948252600f90529290922080549091169091179055565b600080838381612f9b57fe5b0690506000805b828211612fce57868181518110612fb557fe5b6020026020010151820191508080600101915050612fa2565b600019019695505050505050565b7fb53127684a568b3173ae13b9f8a6016e243e63b6e8ee1178d6a717850b5d61035490565b6010546040805163a5d54f6560e01b815290516060926001600160a01b03169163a5d54f65916004808301926000929190829003018186803b15801561304657600080fd5b505afa15801561305a573d6000803e3d6000fd5b505050506040513d6000823e601f3d908101601f19168201604052602081101561308357600080fd5b8101908080516040519392919084600160201b8211156130a257600080fd5b9083019060208201858111156130b757600080fd5b82518660208202830111600160201b821117156130d357600080fd5b82525081516020918201928201910280838360005b838110156131005781810151838201526020016130e8565b50505050905001604052505050905060198151111561355d5780516010546040805163957950a760e01b815290516060926000926001600160a01b039091169163957950a7916004808201928692909190829003018186803b15801561316557600080fd5b505afa158015613179573d6000803e3d6000fd5b505050506040513d6000823e601f3d908101601f1916820160409081528110156131a257600080fd5b8101908080516040519392919084600160201b8211156131c157600080fd5b9083019060208201858111156131d657600080fd5b82518660208202830111600160201b821117156131f257600080fd5b82525081516020918201928201910280838360005b8381101561321f578181015183820152602001613207565b50505050919091016040818152602093840151601980845261034084019092529698509596506060959094509250508201610320803883390190505090506000805b87518110156133a05760005b868110156133975788828151811061328157fe5b60200260200101516001600160a01b031688828151811061329e57fe5b60200260200101516001600160a01b0316141561338f578882815181106132c157fe5b60200260200101518484815181106132d557fe5b60200260200101906001600160a01b031690816001600160a01b031681525050828060010193505085818151811061330957fe5b60200260200101518503945086806001900397505087878151811061332a57fe5b602002602001015188828151811061333e57fe5b60200260200101906001600160a01b031690816001600160a01b03168152505085878151811061336a57fe5b602002602001015186828151811061337e57fe5b602002602001018181525050613397565b60010161326d565b50600101613261565b50600c5460408051634191031360e11b815290516000926001600160a01b0316916383220626916004808301926020929190829003018186803b1580156133e657600080fd5b505afa1580156133fa573d6000803e3d6000fd5b505050506040513d602081101561341057600080fd5b50518551909150158015906134255750600084115b156135525760005b835181101561354857428218604051602001808281526020019150506040516020818303038152906040528051906020012060001c91506000613471878785612f8f565b905088818151811061347f57fe5b602002602001015185838151811061349357fe5b60200260200101906001600160a01b031690816001600160a01b0316815250508681815181106134bf57fe5b6020026020010151860395508780600190039850508888815181106134e057fe5b60200260200101518982815181106134f457fe5b60200260200101906001600160a01b031690816001600160a01b03168152505086888151811061352057fe5b602002602001015187828151811061353457fe5b60209081029190910101525060010161342d565b5061355283613c7b565b505050505050613566565b61356681613c7b565b601154604051632f8ba4bf60e11b815260206004820190815260008054602484018190526001600160a01b0390941693635f17497e939192918291604490910190849080156135de57602002820191906000526020600020905b81546001600160a01b031681526001909101906020018083116135c0575b505092505050600060405180830381600087803b1580156135fe57600080fd5b505af1158015613612573d6000803e3d6000fd5b505050508051600014610c7a57601060009054906101000a90046001600160a01b03166001600160a01b0316631555371c6040518163ffffffff1660e01b8152600401600060405180830381600087803b15801561366f57600080fd5b505af1158015613683573d6000803e3d6000fd5b505050505050565b60025460005b818110156136e8576000600a6000600284815481106136ac57fe5b6000918252602080832091909101546001600160a01b031683528201929092526040019020805460ff1916911515919091179055600101613691565b505060008054905b81811015613746576001600a600080848154811061370a57fe5b6000918252602080832091909101546001600160a01b031683528201929092526040019020805460ff19169115159190911790556001016136f0565b60008054612cdd916002916140c9565b60606000808054806020026020016040519081016040528092919081815260200182805480156137af57602002820191906000526020600020905b81546001600160a01b03168152600190910190602001808311613791575b50505050509150600090505b8151811015613810576000600960008484815181106137d657fe5b6020908102919091018101516001600160a01b03168252810191909152604001600020805460ff19169115159190911790556001016137bb565b60018054613820916000916140c9565b50600080548060200260200160405190810160405280929190818152602001828054801561387757602002820191906000526020600020905b81546001600160a01b03168152600190910190602001808311613859575b50505050509150600090505b8151811015610c7a57600082828151811061389a57fe5b6020908102919091018101516001600160a01b03166000908152600982526040808220805460ff1916600190811790915560129093529020805482019055919091019050613883565b6138ec816119fe565b6138f5576111d1565b60105460408051630f29818d60e31b815290516000926001600160a01b03169163794c0c68916004808301926020929190829003018186803b15801561393a57600080fd5b505afa15801561394e573d6000803e3d6000fd5b505050506040513d602081101561396457600080fd5b50516001600160a01b0383166000908152600d6020908152604080832093835292815282822080546001908101909155600e909152919020805490910190555050565b6000826139b657506000611c3f565b828202828482816139c357fe5b04146139ce57600080fd5b9392505050565b6000806139e184611f7b565b905060006139ed613eed565b6001600160a01b038616600090815260046020908152604080832080546001019055600582528083208490556007909152902085905590508115613a3657600092505050611c3f565b6001600160a01b038581166000908152600660209081526040808320859055600f909152808220546010548251631dbe84a360e11b815291851660048301819052925192941692633b7d09469260248084019382900301818387803b158015613a9e57600080fd5b505af1158015613ab2573d6000803e3d6000fd5b50506000549150506001811415613ad0576000945050505050611c3f565b60005b81811015613b9257876001600160a01b031660008281548110613af257fe5b6000918252602090912001546001600160a01b03161415613b8a5760006001830381548110613b1d57fe5b600091825260208220015481546001600160a01b03909116919083908110613b4157fe5b6000918252602082200180546001600160a01b0319166001600160a01b039390931692909217909155805490613b7b906000198301614119565b50600195505050505050611c3f565b600101613ad3565b506000979650505050505050565b60105460408051630f29818d60e31b815290516000926001600160a01b03169163794c0c68916004808301926020929190829003018186803b158015613be557600080fd5b505afa158015613bf9573d6000803e3d6000fd5b505050506040513d6020811015613c0f57600080fd5b50516000818152600e60209081526040808320546001600160a01b0387168452600d835281842085855290925282208054929055919250808210613c67576000838152600e6020526040902080548290039055611845565b50506000908152600e602052604081205550565b613c87600160006140ab565b8051613e785760005b600054811015613e20576000808281548110613ca857fe5b60009182526020808320909101546001600160a01b03908116808452600f835260409384902054601054855163a711e6a160e01b81529184166004830181905295519296509092169263a711e6a19260248082019391829003018186803b158015613d1257600080fd5b505afa158015613d26573d6000803e3d6000fd5b505050506040513d6020811015613d3c57600080fd5b50518015613dc657506010546040805162e9ab0360e81b81526001600160a01b038481166004830181905260248301529151919092169163e9ab0300916044808301926020929190829003018186803b158015613d9857600080fd5b505afa158015613dac573d6000803e3d6000fd5b505050506040513d6020811015613dc257600080fd5b5051155b15613e16576001805480820182556000919091527fb10e2d527612073b26eecdfd717e6a320cf44b4afac2b0732d9fcbe2b7fa0cf60180546001600160a01b0319166001600160a01b0384161790555b5050600101613c90565b50600154613e7357600160008081548110613e3757fe5b60009182526020808320909101548354600181018555938352912090910180546001600160a01b0319166001600160a01b039092169190911790555b6111d1565b60005b8151811015610c7a576001600b6000848481518110613e9657fe5b6020908102919091018101516001600160a01b0390811683528282019390935260409091016000908120548454600181810187559583529290912090910180546001600160a01b0319169190921617905501613e7b565b600080306001600160a01b0316636c9230db6040518163ffffffff1660e01b815260040160206040518083038186803b158015613f2957600080fd5b505afa158015613f3d573d6000803e3d6000fd5b505050506040513d6020811015613f5357600080fd5b505160105460408051631171ecc360e11b81529051929350600092613fde9285926001600160a01b03909116916322e3d98691600480820192602092909190829003018186803b158015613fa657600080fd5b505afa158015613fba573d6000803e3d6000fd5b505050506040513d6020811015613fd057600080fd5b50519063ffffffff61408416565b905061407d81614071601060009054906101000a90046001600160a01b03166001600160a01b0316634f9a8d8f6040518163ffffffff1660e01b815260040160206040518083038186803b15801561403557600080fd5b505afa158015614049573d6000803e3d6000fd5b505050506040513d602081101561405f57600080fd5b50518590600c0263ffffffff61409916565b9063ffffffff61409916565b9250505090565b60008282111561409357600080fd5b50900390565b6000828201838110156139ce57600080fd5b50805460008255906000526020600020908101906111d19190614139565b8280548282559060005260206000209081019282156141095760005260206000209182015b828111156141095782548255916001019190600101906140ee565b50614115929150614153565b5090565b815481835581811115612cdd57600083815260209020612cdd9181019083015b61120091905b80821115614115576000815560010161413f565b61120091905b808211156141155780546001600160a01b031916815560010161415956fe4d696e696e67206164647265737320616c726561647920757365642061732061207374616b696e67206f6e655374616b696e67206164647265737320616c726561647920757365642061732061206d696e696e67206f6e654d696e696e67206164647265737320616c726561647920757365642061732061206d696e696e67206f6e6552616e646f6d20636f6e747261637420616464726573732063616e277420626520307830426c6f636b52657761726420636f6e747261637420616464726573732063616e27742062652030783056616c696461746f7253657420636f6e747261637420697320616c726561647920696e697469616c697a6564416e6e6f756e63696e6720617661696c6162696c697479206e6f7420706f737369626c656661696c6564206b65792067656e65726174696f6e2063616e206f6e6c792062652070726f63657373656420616674657220746865207374616b696e672065706f6368206973206f7665722e4d7573742070726f7669646520696e697469616c206d696e696e67206164647265737365734b657947656e486973746f727920636f6e747261637420616464726573732063616e27742062652030783073657443757272656e7454696d657374616d703a2043616e27742074696d6574726176656c206261636b20746f207468652070617374214d7573742070726f76696465207468652073616d6520616d6f756e74206f66206d696e696e672f7374616b696e67206164647265737365735374616b696e6720636f6e747261637420616464726573732063616e27742062652030783056616c696461746f725365743a20496e697469616c697a6174696f6e206f6e6c79206f6e2067656e6573697320626c6f636b206f722062792061646d696e5374616b696e67206164647265737320616c726561647920757365642061732061207374616b696e67206f6e654d696e696e6720616464726573732063616e6e6f74206265207468652073616d6520617320746865207374616b696e67206f6e65a265627a7a7231582077b815c66b7ddceb50a9f3fa5820791028959a6f171b665a6cb106346f1af2ea64736f6c63430005110032",
  "source": "pragma solidity ^0.5.16;\n\nimport '../../contracts/ValidatorSetHbbft.sol';\n\n\ncontract ValidatorSetHbbftMock is ValidatorSetHbbft {\n\n    uint256 internal _currentTimeStamp;\n    address internal _systemAddress;\n\n    // ============================================== Modifiers =======================================================\n\n    modifier onlySystem() {\n        require(msg.sender == _getSystemAddress());\n        _;\n    }\n\n    // =============================================== Setters ========================================================\n\n    function setBannedUntil(address _miningAddress, uint256 _bannedUntil) public {\n        bannedUntil[_miningAddress] = _bannedUntil;\n        bannedDelegatorsUntil[_miningAddress] = _bannedUntil;\n    }\n    \n    function setBlockRewardContract(address _address) public {\n        blockRewardContract = _address;\n    }\n\n    function setRandomContract(address _address) public {\n        randomContract = _address;\n    }\n\n    function setStakingContract(address _address) public {\n        stakingContract = IStakingHbbft(_address);\n    }\n\n    function setSystemAddress(address _address) public {\n        _systemAddress = _address;\n    }\n\n\n    function setCurrentTimestamp(uint256 _timeStamp)\n    public {\n\n        // it makes sense to only allow to travel forward in time.\n        // this assumption makes tests more consistent,\n        // avoiding the usual time travel paradoxons.\n        require(_timeStamp > _currentTimeStamp, \"setCurrentTimestamp: Can't timetravel back to the past!\");\n        \n        _currentTimeStamp = _timeStamp;\n    }\n\n\n    // =============================================== Getters ========================================================\n\n    function getRandomIndex(\n        uint256[] memory _likelihood,\n        uint256 _likelihoodSum,\n        uint256 _randomNumber\n    ) public pure returns(uint256) {\n        return _getRandomIndex(\n            _likelihood,\n            _likelihoodSum,\n            uint256(keccak256(abi.encode(_randomNumber)))\n        );\n    }\n    \n    /// @dev overrides the calculation of the current timestamp\n    /// to use the internal stored \"fake\" timestamp for testing purposes.\n    function getCurrentTimestamp() external view returns(uint256) {\n        //require(_currentTimeStamp != 0, 'Timestamp is never expected to be 0');\n        return _currentTimeStamp;\n    }\n\n    // =============================================== Private ========================================================\n\n    function _getSystemAddress() internal view returns(address) {\n        return _systemAddress;\n    }\n}\n",
  "sourcePath": "/home/sn/dmd/dmd-meta/hbbft-posdao-contracts/contracts/mockContracts/ValidatorSetHbbftMock.sol",
  "compiler": {
    "name": "solc",
    "version": "0.5.17+commit.d19bba13.Emscripten.clang"
  },
  "schemaVersion": "3.3.1",
  "updatedAt": "2021-03-29T20:18:15.985Z",
  "devdoc": {
    "methods": {
      "announceAvailability()": {
        "details": "called by validators when a validator comes online after getting marked as unavailable caused by a failed key generation."
      },
      "areDelegatorsBanned(address)": {
        "details": "Returns a boolean flag indicating whether delegators of the specified pool are currently banned. A validator pool can be banned when they misbehave (see the `_removeMaliciousValidator` function).",
        "params": {
          "_miningAddress": "The mining address of the pool."
        }
      },
      "finalizeChange()": {
        "details": "Called by the system when a pending validator set is ready to be activated. Only valid when msg.sender == SUPER_USER (EIP96, 2**160 - 2). After this function is called, the `getValidators` getter returns the new validator set. If this function finalizes a new validator set formed by the `newValidatorSet` function, an old validator set is also stored and can be read by the `getPreviousValidators` getter."
      },
      "getCurrentTimestamp()": {
        "details": "overrides the calculation of the current timestamp to use the internal stored \"fake\" timestamp for testing purposes."
      },
      "getPendingValidators()": {
        "details": "Returns the current array of pending validators i.e. waiting to be activated in the new epoch The pending array is changed when a validator is removed as malicious or the validator set is updated by the `newValidatorSet` function."
      },
      "getPreviousValidators()": {
        "details": "Returns the previous validator set (validators' mining addresses array). The array is stored by the `finalizeChange` function when a new staking epoch's validator set is finalized."
      },
      "getValidators()": {
        "details": "Returns the current validator set (an array of mining addresses) which always matches the validator set kept in validator's node."
      },
      "handleFailedKeyGeneration()": {
        "details": "called by blockreward contract when a the reward when the block reward contract  came to the conclusion that the validators could not manage to create a new shared key together. this starts the process to find replacements for the failing candites, as well as marking them unavailable."
      },
      "initialize(address,address,address,address,address[],address[])": {
        "details": "Initializes the network parameters. Used by the constructor of the `InitializerHbbft` contract.",
        "params": {
          "_blockRewardContract": "The address of the `BlockRewardHbbft` contract.",
          "_initialMiningAddresses": "The array of initial validators' mining addresses.",
          "_initialStakingAddresses": "The array of initial validators' staking addresses.",
          "_keyGenHistoryContract": "The address of the `KeyGenHistory` contract.",
          "_randomContract": "The address of the `RandomHbbft` contract.",
          "_stakingContract": "The address of the `StakingHbbft` contract."
        }
      },
      "isInitialized()": {
        "details": "Returns a boolean flag indicating if the `initialize` function has been called."
      },
      "isPendingValidator(address)": {
        "details": "Returns a boolean flag indicating whether the specified mining address is a pending validator. Used by the `isValidatorOrPending` and `KeyGenHistory.writeAck/Part` functions.",
        "params": {
          "_miningAddress": "The mining address."
        }
      },
      "isReportValidatorValid(address)": {
        "details": "Returns a boolean flag indicating whether the specified validator (mining address) is able to call the `reportMalicious` function or whether the specified validator (mining address) can be reported as malicious. This function also allows a validator to call the `reportMalicious` function several blocks after ceasing to be a validator. This is possible if a validator did not have the opportunity to call the `reportMalicious` function prior to the engine calling the `finalizeChange` function.",
        "params": {
          "_miningAddress": "The validator's mining address."
        }
      },
      "isValidatorBanned(address)": {
        "details": "Returns a boolean flag indicating whether the specified mining address is currently banned. A validator can be banned when they misbehave (see the `_removeMaliciousValidator` internal function).",
        "params": {
          "_miningAddress": "The mining address."
        }
      },
      "isValidatorOrPending(address)": {
        "details": "Returns a boolean flag indicating whether the specified mining address is a validator or is in the `_pendingValidators`. Used by the `StakingHbbft.maxWithdrawAllowed` and `StakingHbbft.maxWithdrawOrderAllowed` getters.",
        "params": {
          "_miningAddress": "The mining address."
        }
      },
      "maliceReportedForBlock(address,uint256)": {
        "details": "Returns an array of the validators (their mining addresses) which reported that the specified malicious validator misbehaved at the specified block.",
        "params": {
          "_blockNumber": "The block number.",
          "_miningAddress": "The mining address of malicious validator."
        }
      },
      "newValidatorSet()": {
        "details": "Implements the logic which forms a new validator set. If the number of active pools is greater than MAX_VALIDATORS, the logic chooses the validators randomly using a random seed generated and stored by the `RandomHbbft` contract. Automatically called by the `BlockRewardHbbft.reward` function at the latest block of the staking epoch."
      },
      "removeMaliciousValidators(address[])": {
        "details": "Removes malicious validators. Called by the the Hbbft engine when a validator has been inactive for a long period.",
        "params": {
          "_miningAddresses": "The mining addresses of the malicious validators."
        }
      },
      "reportMalicious(address,uint256,bytes)": {
        "details": "Reports that the malicious validator misbehaved at the specified block. Called by the node of each honest validator after the specified validator misbehaved. See https://openethereum.github.io/Validator-Set.html#reporting-contract Can only be called when the `reportMaliciousCallable` getter returns `true`.",
        "params": {
          "_blockNumber": "The block number where the misbehavior was observed.",
          "_maliciousMiningAddress": "The mining address of the malicious validator."
        }
      },
      "reportMaliciousCallable(address,address,uint256)": {
        "details": "Returns whether the `reportMalicious` function can be called by the specified validator with the given parameters. Used by the `reportMalicious` function and `TxPermission` contract. Also, returns a boolean flag indicating whether the reporting validator should be removed as malicious due to excessive reporting during the current staking epoch.",
        "params": {
          "_blockNumber": "The block number which is passed to the `reportMalicious` function.",
          "_maliciousMiningAddress": "The mining address of the malicious validator which is passed to the `reportMalicious` function.",
          "_reportingMiningAddress": "The mining address of the reporting validator which is calling the `reportMalicious` function."
        },
        "return": "`bool callable` - The boolean flag indicating whether the `reportMalicious` function can be called at the moment. `bool removeReportingValidator` - The boolean flag indicating whether the reporting validator should be removed as malicious due to excessive reporting. This flag is only used by the `reportMalicious` function."
      },
      "setStakingAddress(address,address)": {
        "details": "Binds a mining address to the specified staking address. Called by the `StakingHbbft.addPool` function when a user wants to become a candidate and creates a pool. See also the `miningByStakingAddress` and `stakingByMiningAddress` public mappings.",
        "params": {
          "_miningAddress": "The mining address of the newly created pool. Cannot be equal to the `_stakingAddress` and should never be used as a pool before.",
          "_stakingAddress": "The staking address of the newly created pool. Cannot be equal to the `_miningAddress` and should never be used as a pool before."
        }
      }
    }
  },
  "userdoc": {
    "methods": {}
  }
}